
Interrupt_uart.elf:     file format elf32-littlearm

Sections:
Idx Name          Size      VMA       LMA       File off  Algn
  0 .isr_vector   000001ac  08000000  08000000  00010000  2**0
                  CONTENTS, ALLOC, LOAD, READONLY, DATA
  1 .text         000020e8  080001ac  080001ac  000101ac  2**2
                  CONTENTS, ALLOC, LOAD, READONLY, CODE
  2 .rodata       0000004c  08002294  08002294  00012294  2**2
                  CONTENTS, ALLOC, LOAD, READONLY, DATA
  3 .ARM.extab    00000000  080022e0  080022e0  0002000c  2**0
                  CONTENTS
  4 .ARM          00000008  080022e0  080022e0  000122e0  2**2
                  CONTENTS, ALLOC, LOAD, READONLY, DATA
  5 .preinit_array 00000000  080022e8  080022e8  0002000c  2**0
                  CONTENTS, ALLOC, LOAD, DATA
  6 .init_array   00000004  080022e8  080022e8  000122e8  2**2
                  CONTENTS, ALLOC, LOAD, DATA
  7 .fini_array   00000004  080022ec  080022ec  000122ec  2**2
                  CONTENTS, ALLOC, LOAD, DATA
  8 .data         0000000c  20000000  080022f0  00020000  2**2
                  CONTENTS, ALLOC, LOAD, DATA
  9 .ccmram       00000000  10000000  10000000  0002000c  2**0
                  CONTENTS
 10 .bss          00000068  2000000c  2000000c  0002000c  2**2
                  ALLOC
 11 ._user_heap_stack 00000604  20000074  20000074  0002000c  2**0
                  ALLOC
 12 .ARM.attributes 00000030  00000000  00000000  0002000c  2**0
                  CONTENTS, READONLY
 13 .debug_info   00007c46  00000000  00000000  0002003c  2**0
                  CONTENTS, READONLY, DEBUGGING, OCTETS
 14 .debug_abbrev 00001291  00000000  00000000  00027c82  2**0
                  CONTENTS, READONLY, DEBUGGING, OCTETS
 15 .debug_aranges 00000638  00000000  00000000  00028f18  2**3
                  CONTENTS, READONLY, DEBUGGING, OCTETS
 16 .debug_ranges 000005d0  00000000  00000000  00029550  2**3
                  CONTENTS, READONLY, DEBUGGING, OCTETS
 17 .debug_macro  000225f5  00000000  00000000  00029b20  2**0
                  CONTENTS, READONLY, DEBUGGING, OCTETS
 18 .debug_line   0000782a  00000000  00000000  0004c115  2**0
                  CONTENTS, READONLY, DEBUGGING, OCTETS
 19 .debug_str    000d13f1  00000000  00000000  0005393f  2**0
                  CONTENTS, READONLY, DEBUGGING, OCTETS
 20 .comment      00000050  00000000  00000000  00124d30  2**0
                  CONTENTS, READONLY
 21 .debug_frame  00001898  00000000  00000000  00124d80  2**2
                  CONTENTS, READONLY, DEBUGGING, OCTETS

Disassembly of section .text:

080001ac <__do_global_dtors_aux>:
 80001ac:	b510      	push	{r4, lr}
 80001ae:	4c05      	ldr	r4, [pc, #20]	; (80001c4 <__do_global_dtors_aux+0x18>)
 80001b0:	7823      	ldrb	r3, [r4, #0]
 80001b2:	b933      	cbnz	r3, 80001c2 <__do_global_dtors_aux+0x16>
 80001b4:	4b04      	ldr	r3, [pc, #16]	; (80001c8 <__do_global_dtors_aux+0x1c>)
 80001b6:	b113      	cbz	r3, 80001be <__do_global_dtors_aux+0x12>
 80001b8:	4804      	ldr	r0, [pc, #16]	; (80001cc <__do_global_dtors_aux+0x20>)
 80001ba:	f3af 8000 	nop.w
 80001be:	2301      	movs	r3, #1
 80001c0:	7023      	strb	r3, [r4, #0]
 80001c2:	bd10      	pop	{r4, pc}
 80001c4:	2000000c 	.word	0x2000000c
 80001c8:	00000000 	.word	0x00000000
 80001cc:	0800227c 	.word	0x0800227c

080001d0 <frame_dummy>:
 80001d0:	b508      	push	{r3, lr}
 80001d2:	4b03      	ldr	r3, [pc, #12]	; (80001e0 <frame_dummy+0x10>)
 80001d4:	b11b      	cbz	r3, 80001de <frame_dummy+0xe>
 80001d6:	4903      	ldr	r1, [pc, #12]	; (80001e4 <frame_dummy+0x14>)
 80001d8:	4803      	ldr	r0, [pc, #12]	; (80001e8 <frame_dummy+0x18>)
 80001da:	f3af 8000 	nop.w
 80001de:	bd08      	pop	{r3, pc}
 80001e0:	00000000 	.word	0x00000000
 80001e4:	20000010 	.word	0x20000010
 80001e8:	0800227c 	.word	0x0800227c

080001ec <strcmp>:
 80001ec:	f810 2b01 	ldrb.w	r2, [r0], #1
 80001f0:	f811 3b01 	ldrb.w	r3, [r1], #1
 80001f4:	2a01      	cmp	r2, #1
 80001f6:	bf28      	it	cs
 80001f8:	429a      	cmpcs	r2, r3
 80001fa:	d0f7      	beq.n	80001ec <strcmp>
 80001fc:	1ad0      	subs	r0, r2, r3
 80001fe:	4770      	bx	lr

08000200 <__aeabi_uldivmod>:
 8000200:	b953      	cbnz	r3, 8000218 <__aeabi_uldivmod+0x18>
 8000202:	b94a      	cbnz	r2, 8000218 <__aeabi_uldivmod+0x18>
 8000204:	2900      	cmp	r1, #0
 8000206:	bf08      	it	eq
 8000208:	2800      	cmpeq	r0, #0
 800020a:	bf1c      	itt	ne
 800020c:	f04f 31ff 	movne.w	r1, #4294967295
 8000210:	f04f 30ff 	movne.w	r0, #4294967295
 8000214:	f000 b974 	b.w	8000500 <__aeabi_idiv0>
 8000218:	f1ad 0c08 	sub.w	ip, sp, #8
 800021c:	e96d ce04 	strd	ip, lr, [sp, #-16]!
 8000220:	f000 f806 	bl	8000230 <__udivmoddi4>
 8000224:	f8dd e004 	ldr.w	lr, [sp, #4]
 8000228:	e9dd 2302 	ldrd	r2, r3, [sp, #8]
 800022c:	b004      	add	sp, #16
 800022e:	4770      	bx	lr

08000230 <__udivmoddi4>:
 8000230:	e92d 47f0 	stmdb	sp!, {r4, r5, r6, r7, r8, r9, sl, lr}
 8000234:	9d08      	ldr	r5, [sp, #32]
 8000236:	4604      	mov	r4, r0
 8000238:	468e      	mov	lr, r1
 800023a:	2b00      	cmp	r3, #0
 800023c:	d14d      	bne.n	80002da <__udivmoddi4+0xaa>
 800023e:	428a      	cmp	r2, r1
 8000240:	4694      	mov	ip, r2
 8000242:	d969      	bls.n	8000318 <__udivmoddi4+0xe8>
 8000244:	fab2 f282 	clz	r2, r2
 8000248:	b152      	cbz	r2, 8000260 <__udivmoddi4+0x30>
 800024a:	fa01 f302 	lsl.w	r3, r1, r2
 800024e:	f1c2 0120 	rsb	r1, r2, #32
 8000252:	fa20 f101 	lsr.w	r1, r0, r1
 8000256:	fa0c fc02 	lsl.w	ip, ip, r2
 800025a:	ea41 0e03 	orr.w	lr, r1, r3
 800025e:	4094      	lsls	r4, r2
 8000260:	ea4f 481c 	mov.w	r8, ip, lsr #16
 8000264:	0c21      	lsrs	r1, r4, #16
 8000266:	fbbe f6f8 	udiv	r6, lr, r8
 800026a:	fa1f f78c 	uxth.w	r7, ip
 800026e:	fb08 e316 	mls	r3, r8, r6, lr
 8000272:	ea41 4303 	orr.w	r3, r1, r3, lsl #16
 8000276:	fb06 f107 	mul.w	r1, r6, r7
 800027a:	4299      	cmp	r1, r3
 800027c:	d90a      	bls.n	8000294 <__udivmoddi4+0x64>
 800027e:	eb1c 0303 	adds.w	r3, ip, r3
 8000282:	f106 30ff 	add.w	r0, r6, #4294967295
 8000286:	f080 811f 	bcs.w	80004c8 <__udivmoddi4+0x298>
 800028a:	4299      	cmp	r1, r3
 800028c:	f240 811c 	bls.w	80004c8 <__udivmoddi4+0x298>
 8000290:	3e02      	subs	r6, #2
 8000292:	4463      	add	r3, ip
 8000294:	1a5b      	subs	r3, r3, r1
 8000296:	b2a4      	uxth	r4, r4
 8000298:	fbb3 f0f8 	udiv	r0, r3, r8
 800029c:	fb08 3310 	mls	r3, r8, r0, r3
 80002a0:	ea44 4403 	orr.w	r4, r4, r3, lsl #16
 80002a4:	fb00 f707 	mul.w	r7, r0, r7
 80002a8:	42a7      	cmp	r7, r4
 80002aa:	d90a      	bls.n	80002c2 <__udivmoddi4+0x92>
 80002ac:	eb1c 0404 	adds.w	r4, ip, r4
 80002b0:	f100 33ff 	add.w	r3, r0, #4294967295
 80002b4:	f080 810a 	bcs.w	80004cc <__udivmoddi4+0x29c>
 80002b8:	42a7      	cmp	r7, r4
 80002ba:	f240 8107 	bls.w	80004cc <__udivmoddi4+0x29c>
 80002be:	4464      	add	r4, ip
 80002c0:	3802      	subs	r0, #2
 80002c2:	ea40 4006 	orr.w	r0, r0, r6, lsl #16
 80002c6:	1be4      	subs	r4, r4, r7
 80002c8:	2600      	movs	r6, #0
 80002ca:	b11d      	cbz	r5, 80002d4 <__udivmoddi4+0xa4>
 80002cc:	40d4      	lsrs	r4, r2
 80002ce:	2300      	movs	r3, #0
 80002d0:	e9c5 4300 	strd	r4, r3, [r5]
 80002d4:	4631      	mov	r1, r6
 80002d6:	e8bd 87f0 	ldmia.w	sp!, {r4, r5, r6, r7, r8, r9, sl, pc}
 80002da:	428b      	cmp	r3, r1
 80002dc:	d909      	bls.n	80002f2 <__udivmoddi4+0xc2>
 80002de:	2d00      	cmp	r5, #0
 80002e0:	f000 80ef 	beq.w	80004c2 <__udivmoddi4+0x292>
 80002e4:	2600      	movs	r6, #0
 80002e6:	e9c5 0100 	strd	r0, r1, [r5]
 80002ea:	4630      	mov	r0, r6
 80002ec:	4631      	mov	r1, r6
 80002ee:	e8bd 87f0 	ldmia.w	sp!, {r4, r5, r6, r7, r8, r9, sl, pc}
 80002f2:	fab3 f683 	clz	r6, r3
 80002f6:	2e00      	cmp	r6, #0
 80002f8:	d14a      	bne.n	8000390 <__udivmoddi4+0x160>
 80002fa:	428b      	cmp	r3, r1
 80002fc:	d302      	bcc.n	8000304 <__udivmoddi4+0xd4>
 80002fe:	4282      	cmp	r2, r0
 8000300:	f200 80f9 	bhi.w	80004f6 <__udivmoddi4+0x2c6>
 8000304:	1a84      	subs	r4, r0, r2
 8000306:	eb61 0303 	sbc.w	r3, r1, r3
 800030a:	2001      	movs	r0, #1
 800030c:	469e      	mov	lr, r3
 800030e:	2d00      	cmp	r5, #0
 8000310:	d0e0      	beq.n	80002d4 <__udivmoddi4+0xa4>
 8000312:	e9c5 4e00 	strd	r4, lr, [r5]
 8000316:	e7dd      	b.n	80002d4 <__udivmoddi4+0xa4>
 8000318:	b902      	cbnz	r2, 800031c <__udivmoddi4+0xec>
 800031a:	deff      	udf	#255	; 0xff
 800031c:	fab2 f282 	clz	r2, r2
 8000320:	2a00      	cmp	r2, #0
 8000322:	f040 8092 	bne.w	800044a <__udivmoddi4+0x21a>
 8000326:	eba1 010c 	sub.w	r1, r1, ip
 800032a:	ea4f 471c 	mov.w	r7, ip, lsr #16
 800032e:	fa1f fe8c 	uxth.w	lr, ip
 8000332:	2601      	movs	r6, #1
 8000334:	0c20      	lsrs	r0, r4, #16
 8000336:	fbb1 f3f7 	udiv	r3, r1, r7
 800033a:	fb07 1113 	mls	r1, r7, r3, r1
 800033e:	ea40 4101 	orr.w	r1, r0, r1, lsl #16
 8000342:	fb0e f003 	mul.w	r0, lr, r3
 8000346:	4288      	cmp	r0, r1
 8000348:	d908      	bls.n	800035c <__udivmoddi4+0x12c>
 800034a:	eb1c 0101 	adds.w	r1, ip, r1
 800034e:	f103 38ff 	add.w	r8, r3, #4294967295
 8000352:	d202      	bcs.n	800035a <__udivmoddi4+0x12a>
 8000354:	4288      	cmp	r0, r1
 8000356:	f200 80cb 	bhi.w	80004f0 <__udivmoddi4+0x2c0>
 800035a:	4643      	mov	r3, r8
 800035c:	1a09      	subs	r1, r1, r0
 800035e:	b2a4      	uxth	r4, r4
 8000360:	fbb1 f0f7 	udiv	r0, r1, r7
 8000364:	fb07 1110 	mls	r1, r7, r0, r1
 8000368:	ea44 4401 	orr.w	r4, r4, r1, lsl #16
 800036c:	fb0e fe00 	mul.w	lr, lr, r0
 8000370:	45a6      	cmp	lr, r4
 8000372:	d908      	bls.n	8000386 <__udivmoddi4+0x156>
 8000374:	eb1c 0404 	adds.w	r4, ip, r4
 8000378:	f100 31ff 	add.w	r1, r0, #4294967295
 800037c:	d202      	bcs.n	8000384 <__udivmoddi4+0x154>
 800037e:	45a6      	cmp	lr, r4
 8000380:	f200 80bb 	bhi.w	80004fa <__udivmoddi4+0x2ca>
 8000384:	4608      	mov	r0, r1
 8000386:	eba4 040e 	sub.w	r4, r4, lr
 800038a:	ea40 4003 	orr.w	r0, r0, r3, lsl #16
 800038e:	e79c      	b.n	80002ca <__udivmoddi4+0x9a>
 8000390:	f1c6 0720 	rsb	r7, r6, #32
 8000394:	40b3      	lsls	r3, r6
 8000396:	fa22 fc07 	lsr.w	ip, r2, r7
 800039a:	ea4c 0c03 	orr.w	ip, ip, r3
 800039e:	fa20 f407 	lsr.w	r4, r0, r7
 80003a2:	fa01 f306 	lsl.w	r3, r1, r6
 80003a6:	431c      	orrs	r4, r3
 80003a8:	40f9      	lsrs	r1, r7
 80003aa:	ea4f 491c 	mov.w	r9, ip, lsr #16
 80003ae:	fa00 f306 	lsl.w	r3, r0, r6
 80003b2:	fbb1 f8f9 	udiv	r8, r1, r9
 80003b6:	0c20      	lsrs	r0, r4, #16
 80003b8:	fa1f fe8c 	uxth.w	lr, ip
 80003bc:	fb09 1118 	mls	r1, r9, r8, r1
 80003c0:	ea40 4101 	orr.w	r1, r0, r1, lsl #16
 80003c4:	fb08 f00e 	mul.w	r0, r8, lr
 80003c8:	4288      	cmp	r0, r1
 80003ca:	fa02 f206 	lsl.w	r2, r2, r6
 80003ce:	d90b      	bls.n	80003e8 <__udivmoddi4+0x1b8>
 80003d0:	eb1c 0101 	adds.w	r1, ip, r1
 80003d4:	f108 3aff 	add.w	sl, r8, #4294967295
 80003d8:	f080 8088 	bcs.w	80004ec <__udivmoddi4+0x2bc>
 80003dc:	4288      	cmp	r0, r1
 80003de:	f240 8085 	bls.w	80004ec <__udivmoddi4+0x2bc>
 80003e2:	f1a8 0802 	sub.w	r8, r8, #2
 80003e6:	4461      	add	r1, ip
 80003e8:	1a09      	subs	r1, r1, r0
 80003ea:	b2a4      	uxth	r4, r4
 80003ec:	fbb1 f0f9 	udiv	r0, r1, r9
 80003f0:	fb09 1110 	mls	r1, r9, r0, r1
 80003f4:	ea44 4101 	orr.w	r1, r4, r1, lsl #16
 80003f8:	fb00 fe0e 	mul.w	lr, r0, lr
 80003fc:	458e      	cmp	lr, r1
 80003fe:	d908      	bls.n	8000412 <__udivmoddi4+0x1e2>
 8000400:	eb1c 0101 	adds.w	r1, ip, r1
 8000404:	f100 34ff 	add.w	r4, r0, #4294967295
 8000408:	d26c      	bcs.n	80004e4 <__udivmoddi4+0x2b4>
 800040a:	458e      	cmp	lr, r1
 800040c:	d96a      	bls.n	80004e4 <__udivmoddi4+0x2b4>
 800040e:	3802      	subs	r0, #2
 8000410:	4461      	add	r1, ip
 8000412:	ea40 4008 	orr.w	r0, r0, r8, lsl #16
 8000416:	fba0 9402 	umull	r9, r4, r0, r2
 800041a:	eba1 010e 	sub.w	r1, r1, lr
 800041e:	42a1      	cmp	r1, r4
 8000420:	46c8      	mov	r8, r9
 8000422:	46a6      	mov	lr, r4
 8000424:	d356      	bcc.n	80004d4 <__udivmoddi4+0x2a4>
 8000426:	d053      	beq.n	80004d0 <__udivmoddi4+0x2a0>
 8000428:	b15d      	cbz	r5, 8000442 <__udivmoddi4+0x212>
 800042a:	ebb3 0208 	subs.w	r2, r3, r8
 800042e:	eb61 010e 	sbc.w	r1, r1, lr
 8000432:	fa01 f707 	lsl.w	r7, r1, r7
 8000436:	fa22 f306 	lsr.w	r3, r2, r6
 800043a:	40f1      	lsrs	r1, r6
 800043c:	431f      	orrs	r7, r3
 800043e:	e9c5 7100 	strd	r7, r1, [r5]
 8000442:	2600      	movs	r6, #0
 8000444:	4631      	mov	r1, r6
 8000446:	e8bd 87f0 	ldmia.w	sp!, {r4, r5, r6, r7, r8, r9, sl, pc}
 800044a:	f1c2 0320 	rsb	r3, r2, #32
 800044e:	40d8      	lsrs	r0, r3
 8000450:	fa0c fc02 	lsl.w	ip, ip, r2
 8000454:	fa21 f303 	lsr.w	r3, r1, r3
 8000458:	4091      	lsls	r1, r2
 800045a:	4301      	orrs	r1, r0
 800045c:	ea4f 471c 	mov.w	r7, ip, lsr #16
 8000460:	fa1f fe8c 	uxth.w	lr, ip
 8000464:	fbb3 f0f7 	udiv	r0, r3, r7
 8000468:	fb07 3610 	mls	r6, r7, r0, r3
 800046c:	0c0b      	lsrs	r3, r1, #16
 800046e:	ea43 4306 	orr.w	r3, r3, r6, lsl #16
 8000472:	fb00 f60e 	mul.w	r6, r0, lr
 8000476:	429e      	cmp	r6, r3
 8000478:	fa04 f402 	lsl.w	r4, r4, r2
 800047c:	d908      	bls.n	8000490 <__udivmoddi4+0x260>
 800047e:	eb1c 0303 	adds.w	r3, ip, r3
 8000482:	f100 38ff 	add.w	r8, r0, #4294967295
 8000486:	d22f      	bcs.n	80004e8 <__udivmoddi4+0x2b8>
 8000488:	429e      	cmp	r6, r3
 800048a:	d92d      	bls.n	80004e8 <__udivmoddi4+0x2b8>
 800048c:	3802      	subs	r0, #2
 800048e:	4463      	add	r3, ip
 8000490:	1b9b      	subs	r3, r3, r6
 8000492:	b289      	uxth	r1, r1
 8000494:	fbb3 f6f7 	udiv	r6, r3, r7
 8000498:	fb07 3316 	mls	r3, r7, r6, r3
 800049c:	ea41 4103 	orr.w	r1, r1, r3, lsl #16
 80004a0:	fb06 f30e 	mul.w	r3, r6, lr
 80004a4:	428b      	cmp	r3, r1
 80004a6:	d908      	bls.n	80004ba <__udivmoddi4+0x28a>
 80004a8:	eb1c 0101 	adds.w	r1, ip, r1
 80004ac:	f106 38ff 	add.w	r8, r6, #4294967295
 80004b0:	d216      	bcs.n	80004e0 <__udivmoddi4+0x2b0>
 80004b2:	428b      	cmp	r3, r1
 80004b4:	d914      	bls.n	80004e0 <__udivmoddi4+0x2b0>
 80004b6:	3e02      	subs	r6, #2
 80004b8:	4461      	add	r1, ip
 80004ba:	1ac9      	subs	r1, r1, r3
 80004bc:	ea46 4600 	orr.w	r6, r6, r0, lsl #16
 80004c0:	e738      	b.n	8000334 <__udivmoddi4+0x104>
 80004c2:	462e      	mov	r6, r5
 80004c4:	4628      	mov	r0, r5
 80004c6:	e705      	b.n	80002d4 <__udivmoddi4+0xa4>
 80004c8:	4606      	mov	r6, r0
 80004ca:	e6e3      	b.n	8000294 <__udivmoddi4+0x64>
 80004cc:	4618      	mov	r0, r3
 80004ce:	e6f8      	b.n	80002c2 <__udivmoddi4+0x92>
 80004d0:	454b      	cmp	r3, r9
 80004d2:	d2a9      	bcs.n	8000428 <__udivmoddi4+0x1f8>
 80004d4:	ebb9 0802 	subs.w	r8, r9, r2
 80004d8:	eb64 0e0c 	sbc.w	lr, r4, ip
 80004dc:	3801      	subs	r0, #1
 80004de:	e7a3      	b.n	8000428 <__udivmoddi4+0x1f8>
 80004e0:	4646      	mov	r6, r8
 80004e2:	e7ea      	b.n	80004ba <__udivmoddi4+0x28a>
 80004e4:	4620      	mov	r0, r4
 80004e6:	e794      	b.n	8000412 <__udivmoddi4+0x1e2>
 80004e8:	4640      	mov	r0, r8
 80004ea:	e7d1      	b.n	8000490 <__udivmoddi4+0x260>
 80004ec:	46d0      	mov	r8, sl
 80004ee:	e77b      	b.n	80003e8 <__udivmoddi4+0x1b8>
 80004f0:	3b02      	subs	r3, #2
 80004f2:	4461      	add	r1, ip
 80004f4:	e732      	b.n	800035c <__udivmoddi4+0x12c>
 80004f6:	4630      	mov	r0, r6
 80004f8:	e709      	b.n	800030e <__udivmoddi4+0xde>
 80004fa:	4464      	add	r4, ip
 80004fc:	3802      	subs	r0, #2
 80004fe:	e742      	b.n	8000386 <__udivmoddi4+0x156>

08000500 <__aeabi_idiv0>:
 8000500:	4770      	bx	lr
 8000502:	bf00      	nop

08000504 <__NVIC_EnableIRQ>:
  \details Enables a device specific interrupt in the NVIC interrupt controller.
  \param [in]      IRQn  Device specific interrupt number.
  \note    IRQn must not be negative.
 */
__STATIC_INLINE void __NVIC_EnableIRQ(IRQn_Type IRQn)
{
 8000504:	b480      	push	{r7}
 8000506:	b083      	sub	sp, #12
 8000508:	af00      	add	r7, sp, #0
 800050a:	4603      	mov	r3, r0
 800050c:	71fb      	strb	r3, [r7, #7]
  if ((int32_t)(IRQn) >= 0)
 800050e:	f997 3007 	ldrsb.w	r3, [r7, #7]
 8000512:	2b00      	cmp	r3, #0
 8000514:	db0b      	blt.n	800052e <__NVIC_EnableIRQ+0x2a>
  {
    NVIC->ISER[(((uint32_t)IRQn) >> 5UL)] = (uint32_t)(1UL << (((uint32_t)IRQn) & 0x1FUL));
 8000516:	79fb      	ldrb	r3, [r7, #7]
 8000518:	f003 021f 	and.w	r2, r3, #31
 800051c:	4907      	ldr	r1, [pc, #28]	; (800053c <__NVIC_EnableIRQ+0x38>)
 800051e:	f997 3007 	ldrsb.w	r3, [r7, #7]
 8000522:	095b      	lsrs	r3, r3, #5
 8000524:	2001      	movs	r0, #1
 8000526:	fa00 f202 	lsl.w	r2, r0, r2
 800052a:	f841 2023 	str.w	r2, [r1, r3, lsl #2]
  }
}
 800052e:	bf00      	nop
 8000530:	370c      	adds	r7, #12
 8000532:	46bd      	mov	sp, r7
 8000534:	f85d 7b04 	ldr.w	r7, [sp], #4
 8000538:	4770      	bx	lr
 800053a:	bf00      	nop
 800053c:	e000e100 	.word	0xe000e100

08000540 <__NVIC_SetPendingIRQ>:
  \details Sets the pending bit of a device specific interrupt in the NVIC pending register.
  \param [in]      IRQn  Device specific interrupt number.
  \note    IRQn must not be negative.
 */
__STATIC_INLINE void __NVIC_SetPendingIRQ(IRQn_Type IRQn)
{
 8000540:	b480      	push	{r7}
 8000542:	b083      	sub	sp, #12
 8000544:	af00      	add	r7, sp, #0
 8000546:	4603      	mov	r3, r0
 8000548:	71fb      	strb	r3, [r7, #7]
  if ((int32_t)(IRQn) >= 0)
 800054a:	f997 3007 	ldrsb.w	r3, [r7, #7]
 800054e:	2b00      	cmp	r3, #0
 8000550:	db0c      	blt.n	800056c <__NVIC_SetPendingIRQ+0x2c>
  {
    NVIC->ISPR[(((uint32_t)IRQn) >> 5UL)] = (uint32_t)(1UL << (((uint32_t)IRQn) & 0x1FUL));
 8000552:	79fb      	ldrb	r3, [r7, #7]
 8000554:	f003 021f 	and.w	r2, r3, #31
 8000558:	4907      	ldr	r1, [pc, #28]	; (8000578 <__NVIC_SetPendingIRQ+0x38>)
 800055a:	f997 3007 	ldrsb.w	r3, [r7, #7]
 800055e:	095b      	lsrs	r3, r3, #5
 8000560:	2001      	movs	r0, #1
 8000562:	fa00 f202 	lsl.w	r2, r0, r2
 8000566:	3340      	adds	r3, #64	; 0x40
 8000568:	f841 2023 	str.w	r2, [r1, r3, lsl #2]
  }
}
 800056c:	bf00      	nop
 800056e:	370c      	adds	r7, #12
 8000570:	46bd      	mov	sp, r7
 8000572:	f85d 7b04 	ldr.w	r7, [sp], #4
 8000576:	4770      	bx	lr
 8000578:	e000e100 	.word	0xe000e100

0800057c <USART1_IRQHandler>:
/* Private user code ---------------------------------------------------------*/
/* USER CODE BEGIN 0 */


void USART1_IRQHandler(void)
{
 800057c:	b5b0      	push	{r4, r5, r7, lr}
 800057e:	b08a      	sub	sp, #40	; 0x28
 8000580:	af00      	add	r7, sp, #0
	if ((strcmp (data, "on")== 0)||(strcmp (data, "ON")== 0)){
 8000582:	4924      	ldr	r1, [pc, #144]	; (8000614 <USART1_IRQHandler+0x98>)
 8000584:	4824      	ldr	r0, [pc, #144]	; (8000618 <USART1_IRQHandler+0x9c>)
 8000586:	f7ff fe31 	bl	80001ec <strcmp>
 800058a:	4603      	mov	r3, r0
 800058c:	2b00      	cmp	r3, #0
 800058e:	d006      	beq.n	800059e <USART1_IRQHandler+0x22>
 8000590:	4922      	ldr	r1, [pc, #136]	; (800061c <USART1_IRQHandler+0xa0>)
 8000592:	4821      	ldr	r0, [pc, #132]	; (8000618 <USART1_IRQHandler+0x9c>)
 8000594:	f7ff fe2a 	bl	80001ec <strcmp>
 8000598:	4603      	mov	r3, r0
 800059a:	2b00      	cmp	r3, #0
 800059c:	d114      	bne.n	80005c8 <USART1_IRQHandler+0x4c>
		HAL_GPIO_WritePin(USER_LED_GPIO_Port, USER_LED_Pin, GPIO_PIN_SET);
 800059e:	2201      	movs	r2, #1
 80005a0:	f44f 5100 	mov.w	r1, #8192	; 0x2000
 80005a4:	481e      	ldr	r0, [pc, #120]	; (8000620 <USART1_IRQHandler+0xa4>)
 80005a6:	f000 fd27 	bl	8000ff8 <HAL_GPIO_WritePin>
		uint8_t my_message[] = "Status LED ON\r\n";
 80005aa:	4b1e      	ldr	r3, [pc, #120]	; (8000624 <USART1_IRQHandler+0xa8>)
 80005ac:	f107 0418 	add.w	r4, r7, #24
 80005b0:	cb0f      	ldmia	r3, {r0, r1, r2, r3}
 80005b2:	e884 000f 	stmia.w	r4, {r0, r1, r2, r3}
		HAL_UART_Transmit(&huart1, my_message, sizeof(my_message) - 1,100);
 80005b6:	f107 0118 	add.w	r1, r7, #24
 80005ba:	2364      	movs	r3, #100	; 0x64
 80005bc:	220f      	movs	r2, #15
 80005be:	481a      	ldr	r0, [pc, #104]	; (8000628 <USART1_IRQHandler+0xac>)
 80005c0:	f001 fa19 	bl	80019f6 <HAL_UART_Transmit>
	if ((strcmp (data, "on")== 0)||(strcmp (data, "ON")== 0)){
 80005c4:	bf00      	nop
	} else if ((strcmp (data, "of")== 0)||(strcmp (data, "OF")== 0)) {
		HAL_GPIO_WritePin(USER_LED_GPIO_Port, USER_LED_Pin, GPIO_PIN_RESET);
		uint8_t my_message[] = "Status LED OFF\r\n";
		HAL_UART_Transmit(&huart1, my_message, sizeof(my_message) - 1,100);
	}
}
 80005c6:	e020      	b.n	800060a <USART1_IRQHandler+0x8e>
	} else if ((strcmp (data, "of")== 0)||(strcmp (data, "OF")== 0)) {
 80005c8:	4918      	ldr	r1, [pc, #96]	; (800062c <USART1_IRQHandler+0xb0>)
 80005ca:	4813      	ldr	r0, [pc, #76]	; (8000618 <USART1_IRQHandler+0x9c>)
 80005cc:	f7ff fe0e 	bl	80001ec <strcmp>
 80005d0:	4603      	mov	r3, r0
 80005d2:	2b00      	cmp	r3, #0
 80005d4:	d006      	beq.n	80005e4 <USART1_IRQHandler+0x68>
 80005d6:	4916      	ldr	r1, [pc, #88]	; (8000630 <USART1_IRQHandler+0xb4>)
 80005d8:	480f      	ldr	r0, [pc, #60]	; (8000618 <USART1_IRQHandler+0x9c>)
 80005da:	f7ff fe07 	bl	80001ec <strcmp>
 80005de:	4603      	mov	r3, r0
 80005e0:	2b00      	cmp	r3, #0
 80005e2:	d112      	bne.n	800060a <USART1_IRQHandler+0x8e>
		HAL_GPIO_WritePin(USER_LED_GPIO_Port, USER_LED_Pin, GPIO_PIN_RESET);
 80005e4:	2200      	movs	r2, #0
 80005e6:	f44f 5100 	mov.w	r1, #8192	; 0x2000
 80005ea:	480d      	ldr	r0, [pc, #52]	; (8000620 <USART1_IRQHandler+0xa4>)
 80005ec:	f000 fd04 	bl	8000ff8 <HAL_GPIO_WritePin>
		uint8_t my_message[] = "Status LED OFF\r\n";
 80005f0:	4b10      	ldr	r3, [pc, #64]	; (8000634 <USART1_IRQHandler+0xb8>)
 80005f2:	1d3c      	adds	r4, r7, #4
 80005f4:	461d      	mov	r5, r3
 80005f6:	cd0f      	ldmia	r5!, {r0, r1, r2, r3}
 80005f8:	c40f      	stmia	r4!, {r0, r1, r2, r3}
 80005fa:	682b      	ldr	r3, [r5, #0]
 80005fc:	7023      	strb	r3, [r4, #0]
		HAL_UART_Transmit(&huart1, my_message, sizeof(my_message) - 1,100);
 80005fe:	1d39      	adds	r1, r7, #4
 8000600:	2364      	movs	r3, #100	; 0x64
 8000602:	2210      	movs	r2, #16
 8000604:	4808      	ldr	r0, [pc, #32]	; (8000628 <USART1_IRQHandler+0xac>)
 8000606:	f001 f9f6 	bl	80019f6 <HAL_UART_Transmit>
}
 800060a:	bf00      	nop
 800060c:	3728      	adds	r7, #40	; 0x28
 800060e:	46bd      	mov	sp, r7
 8000610:	bdb0      	pop	{r4, r5, r7, pc}
 8000612:	bf00      	nop
 8000614:	08002294 	.word	0x08002294
 8000618:	2000006c 	.word	0x2000006c
 800061c:	08002298 	.word	0x08002298
 8000620:	40021800 	.word	0x40021800
 8000624:	080022a4 	.word	0x080022a4
 8000628:	20000028 	.word	0x20000028
 800062c:	0800229c 	.word	0x0800229c
 8000630:	080022a0 	.word	0x080022a0
 8000634:	080022b4 	.word	0x080022b4

08000638 <run_uart_rx_test>:

static void run_uart_rx_test(void)
{
 8000638:	b580      	push	{r7, lr}
 800063a:	af00      	add	r7, sp, #0
	if ((HAL_UART_Receive(&huart1, data, 2, 100))== HAL_OK){
 800063c:	2364      	movs	r3, #100	; 0x64
 800063e:	2202      	movs	r2, #2
 8000640:	4907      	ldr	r1, [pc, #28]	; (8000660 <run_uart_rx_test+0x28>)
 8000642:	4808      	ldr	r0, [pc, #32]	; (8000664 <run_uart_rx_test+0x2c>)
 8000644:	f001 fa69 	bl	8001b1a <HAL_UART_Receive>
 8000648:	4603      	mov	r3, r0
 800064a:	2b00      	cmp	r3, #0
 800064c:	d105      	bne.n	800065a <run_uart_rx_test+0x22>
		NVIC_EnableIRQ(USART1_IRQn);
 800064e:	2025      	movs	r0, #37	; 0x25
 8000650:	f7ff ff58 	bl	8000504 <__NVIC_EnableIRQ>
		NVIC_SetPendingIRQ(USART1_IRQn);
 8000654:	2025      	movs	r0, #37	; 0x25
 8000656:	f7ff ff73 	bl	8000540 <__NVIC_SetPendingIRQ>
	}

	}
 800065a:	bf00      	nop
 800065c:	bd80      	pop	{r7, pc}
 800065e:	bf00      	nop
 8000660:	2000006c 	.word	0x2000006c
 8000664:	20000028 	.word	0x20000028

08000668 <main>:
/**
  * @brief  The application entry point.
  * @retval int
  */
int main(void)
{
 8000668:	b580      	push	{r7, lr}
 800066a:	af00      	add	r7, sp, #0
  /* USER CODE END 1 */

  /* MCU Configuration--------------------------------------------------------*/

  /* Reset of all peripherals, Initializes the Flash interface and the Systick. */
  HAL_Init();
 800066c:	f000 f9c0 	bl	80009f0 <HAL_Init>
  /* USER CODE BEGIN Init */

  /* USER CODE END Init */

  /* Configure the system clock */
  SystemClock_Config();
 8000670:	f000 f808 	bl	8000684 <SystemClock_Config>
  /* USER CODE BEGIN SysInit */

  /* USER CODE END SysInit */

  /* Initialize all configured peripherals */
  MX_GPIO_Init();
 8000674:	f000 f89c 	bl	80007b0 <MX_GPIO_Init>
  MX_USART1_UART_Init();
 8000678:	f000 f870 	bl	800075c <MX_USART1_UART_Init>
  /* Infinite loop */
  /* USER CODE BEGIN WHILE */
  while (1)
  {
    /* USER CODE END WHILE */
	  run_uart_rx_test();
 800067c:	f7ff ffdc 	bl	8000638 <run_uart_rx_test>
 8000680:	e7fc      	b.n	800067c <main+0x14>
	...

08000684 <SystemClock_Config>:
/**
  * @brief System Clock Configuration
  * @retval None
  */
void SystemClock_Config(void)
{
 8000684:	b580      	push	{r7, lr}
 8000686:	b094      	sub	sp, #80	; 0x50
 8000688:	af00      	add	r7, sp, #0
  RCC_OscInitTypeDef RCC_OscInitStruct = {0};
 800068a:	f107 0320 	add.w	r3, r7, #32
 800068e:	2230      	movs	r2, #48	; 0x30
 8000690:	2100      	movs	r1, #0
 8000692:	4618      	mov	r0, r3
 8000694:	f001 fdea 	bl	800226c <memset>
  RCC_ClkInitTypeDef RCC_ClkInitStruct = {0};
 8000698:	f107 030c 	add.w	r3, r7, #12
 800069c:	2200      	movs	r2, #0
 800069e:	601a      	str	r2, [r3, #0]
 80006a0:	605a      	str	r2, [r3, #4]
 80006a2:	609a      	str	r2, [r3, #8]
 80006a4:	60da      	str	r2, [r3, #12]
 80006a6:	611a      	str	r2, [r3, #16]

  /** Configure the main internal regulator output voltage
  */
  __HAL_RCC_PWR_CLK_ENABLE();
 80006a8:	2300      	movs	r3, #0
 80006aa:	60bb      	str	r3, [r7, #8]
 80006ac:	4b29      	ldr	r3, [pc, #164]	; (8000754 <SystemClock_Config+0xd0>)
 80006ae:	6c1b      	ldr	r3, [r3, #64]	; 0x40
 80006b0:	4a28      	ldr	r2, [pc, #160]	; (8000754 <SystemClock_Config+0xd0>)
 80006b2:	f043 5380 	orr.w	r3, r3, #268435456	; 0x10000000
 80006b6:	6413      	str	r3, [r2, #64]	; 0x40
 80006b8:	4b26      	ldr	r3, [pc, #152]	; (8000754 <SystemClock_Config+0xd0>)
 80006ba:	6c1b      	ldr	r3, [r3, #64]	; 0x40
 80006bc:	f003 5380 	and.w	r3, r3, #268435456	; 0x10000000
 80006c0:	60bb      	str	r3, [r7, #8]
 80006c2:	68bb      	ldr	r3, [r7, #8]
  __HAL_PWR_VOLTAGESCALING_CONFIG(PWR_REGULATOR_VOLTAGE_SCALE3);
 80006c4:	2300      	movs	r3, #0
 80006c6:	607b      	str	r3, [r7, #4]
 80006c8:	4b23      	ldr	r3, [pc, #140]	; (8000758 <SystemClock_Config+0xd4>)
 80006ca:	681b      	ldr	r3, [r3, #0]
 80006cc:	f423 4340 	bic.w	r3, r3, #49152	; 0xc000
 80006d0:	4a21      	ldr	r2, [pc, #132]	; (8000758 <SystemClock_Config+0xd4>)
 80006d2:	f443 4380 	orr.w	r3, r3, #16384	; 0x4000
 80006d6:	6013      	str	r3, [r2, #0]
 80006d8:	4b1f      	ldr	r3, [pc, #124]	; (8000758 <SystemClock_Config+0xd4>)
 80006da:	681b      	ldr	r3, [r3, #0]
 80006dc:	f403 4340 	and.w	r3, r3, #49152	; 0xc000
 80006e0:	607b      	str	r3, [r7, #4]
 80006e2:	687b      	ldr	r3, [r7, #4]

  /** Initializes the RCC Oscillators according to the specified parameters
  * in the RCC_OscInitTypeDef structure.
  */
  RCC_OscInitStruct.OscillatorType = RCC_OSCILLATORTYPE_HSI;
 80006e4:	2302      	movs	r3, #2
 80006e6:	623b      	str	r3, [r7, #32]
  RCC_OscInitStruct.HSIState = RCC_HSI_ON;
 80006e8:	2301      	movs	r3, #1
 80006ea:	62fb      	str	r3, [r7, #44]	; 0x2c
  RCC_OscInitStruct.HSICalibrationValue = RCC_HSICALIBRATION_DEFAULT;
 80006ec:	2310      	movs	r3, #16
 80006ee:	633b      	str	r3, [r7, #48]	; 0x30
  RCC_OscInitStruct.PLL.PLLState = RCC_PLL_ON;
 80006f0:	2302      	movs	r3, #2
 80006f2:	63bb      	str	r3, [r7, #56]	; 0x38
  RCC_OscInitStruct.PLL.PLLSource = RCC_PLLSOURCE_HSI;
 80006f4:	2300      	movs	r3, #0
 80006f6:	63fb      	str	r3, [r7, #60]	; 0x3c
  RCC_OscInitStruct.PLL.PLLM = 8;
 80006f8:	2308      	movs	r3, #8
 80006fa:	643b      	str	r3, [r7, #64]	; 0x40
  RCC_OscInitStruct.PLL.PLLN = 96;
 80006fc:	2360      	movs	r3, #96	; 0x60
 80006fe:	647b      	str	r3, [r7, #68]	; 0x44
  RCC_OscInitStruct.PLL.PLLP = RCC_PLLP_DIV2;
 8000700:	2302      	movs	r3, #2
 8000702:	64bb      	str	r3, [r7, #72]	; 0x48
  RCC_OscInitStruct.PLL.PLLQ = 7;
 8000704:	2307      	movs	r3, #7
 8000706:	64fb      	str	r3, [r7, #76]	; 0x4c
  if (HAL_RCC_OscConfig(&RCC_OscInitStruct) != HAL_OK)
 8000708:	f107 0320 	add.w	r3, r7, #32
 800070c:	4618      	mov	r0, r3
 800070e:	f000 fc8d 	bl	800102c <HAL_RCC_OscConfig>
 8000712:	4603      	mov	r3, r0
 8000714:	2b00      	cmp	r3, #0
 8000716:	d001      	beq.n	800071c <SystemClock_Config+0x98>
  {
    Error_Handler();
 8000718:	f000 f88e 	bl	8000838 <Error_Handler>
  }

  /** Initializes the CPU, AHB and APB buses clocks
  */
  RCC_ClkInitStruct.ClockType = RCC_CLOCKTYPE_HCLK|RCC_CLOCKTYPE_SYSCLK
 800071c:	230f      	movs	r3, #15
 800071e:	60fb      	str	r3, [r7, #12]
                              |RCC_CLOCKTYPE_PCLK1|RCC_CLOCKTYPE_PCLK2;
  RCC_ClkInitStruct.SYSCLKSource = RCC_SYSCLKSOURCE_PLLCLK;
 8000720:	2302      	movs	r3, #2
 8000722:	613b      	str	r3, [r7, #16]
  RCC_ClkInitStruct.AHBCLKDivider = RCC_SYSCLK_DIV2;
 8000724:	2380      	movs	r3, #128	; 0x80
 8000726:	617b      	str	r3, [r7, #20]
  RCC_ClkInitStruct.APB1CLKDivider = RCC_HCLK_DIV2;
 8000728:	f44f 5380 	mov.w	r3, #4096	; 0x1000
 800072c:	61bb      	str	r3, [r7, #24]
  RCC_ClkInitStruct.APB2CLKDivider = RCC_HCLK_DIV4;
 800072e:	f44f 53a0 	mov.w	r3, #5120	; 0x1400
 8000732:	61fb      	str	r3, [r7, #28]

  if (HAL_RCC_ClockConfig(&RCC_ClkInitStruct, FLASH_LATENCY_1) != HAL_OK)
 8000734:	f107 030c 	add.w	r3, r7, #12
 8000738:	2101      	movs	r1, #1
 800073a:	4618      	mov	r0, r3
 800073c:	f000 feee 	bl	800151c <HAL_RCC_ClockConfig>
 8000740:	4603      	mov	r3, r0
 8000742:	2b00      	cmp	r3, #0
 8000744:	d001      	beq.n	800074a <SystemClock_Config+0xc6>
  {
    Error_Handler();
 8000746:	f000 f877 	bl	8000838 <Error_Handler>
  }
}
 800074a:	bf00      	nop
 800074c:	3750      	adds	r7, #80	; 0x50
 800074e:	46bd      	mov	sp, r7
 8000750:	bd80      	pop	{r7, pc}
 8000752:	bf00      	nop
 8000754:	40023800 	.word	0x40023800
 8000758:	40007000 	.word	0x40007000

0800075c <MX_USART1_UART_Init>:
  * @brief USART1 Initialization Function
  * @param None
  * @retval None
  */
static void MX_USART1_UART_Init(void)
{
 800075c:	b580      	push	{r7, lr}
 800075e:	af00      	add	r7, sp, #0
  /* USER CODE END USART1_Init 0 */

  /* USER CODE BEGIN USART1_Init 1 */

  /* USER CODE END USART1_Init 1 */
  huart1.Instance = USART1;
 8000760:	4b11      	ldr	r3, [pc, #68]	; (80007a8 <MX_USART1_UART_Init+0x4c>)
 8000762:	4a12      	ldr	r2, [pc, #72]	; (80007ac <MX_USART1_UART_Init+0x50>)
 8000764:	601a      	str	r2, [r3, #0]
  huart1.Init.BaudRate = 115200;
 8000766:	4b10      	ldr	r3, [pc, #64]	; (80007a8 <MX_USART1_UART_Init+0x4c>)
 8000768:	f44f 32e1 	mov.w	r2, #115200	; 0x1c200
 800076c:	605a      	str	r2, [r3, #4]
  huart1.Init.WordLength = UART_WORDLENGTH_8B;
 800076e:	4b0e      	ldr	r3, [pc, #56]	; (80007a8 <MX_USART1_UART_Init+0x4c>)
 8000770:	2200      	movs	r2, #0
 8000772:	609a      	str	r2, [r3, #8]
  huart1.Init.StopBits = UART_STOPBITS_1;
 8000774:	4b0c      	ldr	r3, [pc, #48]	; (80007a8 <MX_USART1_UART_Init+0x4c>)
 8000776:	2200      	movs	r2, #0
 8000778:	60da      	str	r2, [r3, #12]
  huart1.Init.Parity = UART_PARITY_NONE;
 800077a:	4b0b      	ldr	r3, [pc, #44]	; (80007a8 <MX_USART1_UART_Init+0x4c>)
 800077c:	2200      	movs	r2, #0
 800077e:	611a      	str	r2, [r3, #16]
  huart1.Init.Mode = UART_MODE_TX_RX;
 8000780:	4b09      	ldr	r3, [pc, #36]	; (80007a8 <MX_USART1_UART_Init+0x4c>)
 8000782:	220c      	movs	r2, #12
 8000784:	615a      	str	r2, [r3, #20]
  huart1.Init.HwFlowCtl = UART_HWCONTROL_NONE;
 8000786:	4b08      	ldr	r3, [pc, #32]	; (80007a8 <MX_USART1_UART_Init+0x4c>)
 8000788:	2200      	movs	r2, #0
 800078a:	619a      	str	r2, [r3, #24]
  huart1.Init.OverSampling = UART_OVERSAMPLING_16;
 800078c:	4b06      	ldr	r3, [pc, #24]	; (80007a8 <MX_USART1_UART_Init+0x4c>)
 800078e:	2200      	movs	r2, #0
 8000790:	61da      	str	r2, [r3, #28]
  if (HAL_UART_Init(&huart1) != HAL_OK)
 8000792:	4805      	ldr	r0, [pc, #20]	; (80007a8 <MX_USART1_UART_Init+0x4c>)
 8000794:	f001 f8e2 	bl	800195c <HAL_UART_Init>
 8000798:	4603      	mov	r3, r0
 800079a:	2b00      	cmp	r3, #0
 800079c:	d001      	beq.n	80007a2 <MX_USART1_UART_Init+0x46>
  {
    Error_Handler();
 800079e:	f000 f84b 	bl	8000838 <Error_Handler>
  }
  /* USER CODE BEGIN USART1_Init 2 */

  /* USER CODE END USART1_Init 2 */

}
 80007a2:	bf00      	nop
 80007a4:	bd80      	pop	{r7, pc}
 80007a6:	bf00      	nop
 80007a8:	20000028 	.word	0x20000028
 80007ac:	40011000 	.word	0x40011000

080007b0 <MX_GPIO_Init>:
  * @brief GPIO Initialization Function
  * @param None
  * @retval None
  */
static void MX_GPIO_Init(void)
{
 80007b0:	b580      	push	{r7, lr}
 80007b2:	b088      	sub	sp, #32
 80007b4:	af00      	add	r7, sp, #0
  GPIO_InitTypeDef GPIO_InitStruct = {0};
 80007b6:	f107 030c 	add.w	r3, r7, #12
 80007ba:	2200      	movs	r2, #0
 80007bc:	601a      	str	r2, [r3, #0]
 80007be:	605a      	str	r2, [r3, #4]
 80007c0:	609a      	str	r2, [r3, #8]
 80007c2:	60da      	str	r2, [r3, #12]
 80007c4:	611a      	str	r2, [r3, #16]
/* USER CODE BEGIN MX_GPIO_Init_1 */
/* USER CODE END MX_GPIO_Init_1 */

  /* GPIO Ports Clock Enable */
  __HAL_RCC_GPIOA_CLK_ENABLE();
 80007c6:	2300      	movs	r3, #0
 80007c8:	60bb      	str	r3, [r7, #8]
 80007ca:	4b19      	ldr	r3, [pc, #100]	; (8000830 <MX_GPIO_Init+0x80>)
 80007cc:	6b1b      	ldr	r3, [r3, #48]	; 0x30
 80007ce:	4a18      	ldr	r2, [pc, #96]	; (8000830 <MX_GPIO_Init+0x80>)
 80007d0:	f043 0301 	orr.w	r3, r3, #1
 80007d4:	6313      	str	r3, [r2, #48]	; 0x30
 80007d6:	4b16      	ldr	r3, [pc, #88]	; (8000830 <MX_GPIO_Init+0x80>)
 80007d8:	6b1b      	ldr	r3, [r3, #48]	; 0x30
 80007da:	f003 0301 	and.w	r3, r3, #1
 80007de:	60bb      	str	r3, [r7, #8]
 80007e0:	68bb      	ldr	r3, [r7, #8]
  __HAL_RCC_GPIOG_CLK_ENABLE();
 80007e2:	2300      	movs	r3, #0
 80007e4:	607b      	str	r3, [r7, #4]
 80007e6:	4b12      	ldr	r3, [pc, #72]	; (8000830 <MX_GPIO_Init+0x80>)
 80007e8:	6b1b      	ldr	r3, [r3, #48]	; 0x30
 80007ea:	4a11      	ldr	r2, [pc, #68]	; (8000830 <MX_GPIO_Init+0x80>)
 80007ec:	f043 0340 	orr.w	r3, r3, #64	; 0x40
 80007f0:	6313      	str	r3, [r2, #48]	; 0x30
 80007f2:	4b0f      	ldr	r3, [pc, #60]	; (8000830 <MX_GPIO_Init+0x80>)
 80007f4:	6b1b      	ldr	r3, [r3, #48]	; 0x30
 80007f6:	f003 0340 	and.w	r3, r3, #64	; 0x40
 80007fa:	607b      	str	r3, [r7, #4]
 80007fc:	687b      	ldr	r3, [r7, #4]

  /*Configure GPIO pin Output Level */
  HAL_GPIO_WritePin(USER_LED_GPIO_Port, USER_LED_Pin, GPIO_PIN_RESET);
 80007fe:	2200      	movs	r2, #0
 8000800:	f44f 5100 	mov.w	r1, #8192	; 0x2000
 8000804:	480b      	ldr	r0, [pc, #44]	; (8000834 <MX_GPIO_Init+0x84>)
 8000806:	f000 fbf7 	bl	8000ff8 <HAL_GPIO_WritePin>

  /*Configure GPIO pin : USER_LED_Pin */
  GPIO_InitStruct.Pin = USER_LED_Pin;
 800080a:	f44f 5300 	mov.w	r3, #8192	; 0x2000
 800080e:	60fb      	str	r3, [r7, #12]
  GPIO_InitStruct.Mode = GPIO_MODE_OUTPUT_PP;
 8000810:	2301      	movs	r3, #1
 8000812:	613b      	str	r3, [r7, #16]
  GPIO_InitStruct.Pull = GPIO_NOPULL;
 8000814:	2300      	movs	r3, #0
 8000816:	617b      	str	r3, [r7, #20]
  GPIO_InitStruct.Speed = GPIO_SPEED_FREQ_LOW;
 8000818:	2300      	movs	r3, #0
 800081a:	61bb      	str	r3, [r7, #24]
  HAL_GPIO_Init(USER_LED_GPIO_Port, &GPIO_InitStruct);
 800081c:	f107 030c 	add.w	r3, r7, #12
 8000820:	4619      	mov	r1, r3
 8000822:	4804      	ldr	r0, [pc, #16]	; (8000834 <MX_GPIO_Init+0x84>)
 8000824:	f000 fa3c 	bl	8000ca0 <HAL_GPIO_Init>

/* USER CODE BEGIN MX_GPIO_Init_2 */
/* USER CODE END MX_GPIO_Init_2 */
}
 8000828:	bf00      	nop
 800082a:	3720      	adds	r7, #32
 800082c:	46bd      	mov	sp, r7
 800082e:	bd80      	pop	{r7, pc}
 8000830:	40023800 	.word	0x40023800
 8000834:	40021800 	.word	0x40021800

08000838 <Error_Handler>:
/**
  * @brief  This function is executed in case of error occurrence.
  * @retval None
  */
void Error_Handler(void)
{
 8000838:	b480      	push	{r7}
 800083a:	af00      	add	r7, sp, #0
  \details Disables IRQ interrupts by setting the I-bit in the CPSR.
           Can only be executed in Privileged modes.
 */
__STATIC_FORCEINLINE void __disable_irq(void)
{
  __ASM volatile ("cpsid i" : : : "memory");
 800083c:	b672      	cpsid	i
}
 800083e:	bf00      	nop
  /* USER CODE BEGIN Error_Handler_Debug */
  /* User can add his own implementation to report the HAL error return state */
  __disable_irq();
  while (1)
 8000840:	e7fe      	b.n	8000840 <Error_Handler+0x8>
	...

08000844 <HAL_MspInit>:
/* USER CODE END 0 */
/**
  * Initializes the Global MSP.
  */
void HAL_MspInit(void)
{
 8000844:	b580      	push	{r7, lr}
 8000846:	b082      	sub	sp, #8
 8000848:	af00      	add	r7, sp, #0
  /* USER CODE BEGIN MspInit 0 */

  /* USER CODE END MspInit 0 */

  __HAL_RCC_SYSCFG_CLK_ENABLE();
 800084a:	2300      	movs	r3, #0
 800084c:	607b      	str	r3, [r7, #4]
 800084e:	4b10      	ldr	r3, [pc, #64]	; (8000890 <HAL_MspInit+0x4c>)
 8000850:	6c5b      	ldr	r3, [r3, #68]	; 0x44
 8000852:	4a0f      	ldr	r2, [pc, #60]	; (8000890 <HAL_MspInit+0x4c>)
 8000854:	f443 4380 	orr.w	r3, r3, #16384	; 0x4000
 8000858:	6453      	str	r3, [r2, #68]	; 0x44
 800085a:	4b0d      	ldr	r3, [pc, #52]	; (8000890 <HAL_MspInit+0x4c>)
 800085c:	6c5b      	ldr	r3, [r3, #68]	; 0x44
 800085e:	f403 4380 	and.w	r3, r3, #16384	; 0x4000
 8000862:	607b      	str	r3, [r7, #4]
 8000864:	687b      	ldr	r3, [r7, #4]
  __HAL_RCC_PWR_CLK_ENABLE();
 8000866:	2300      	movs	r3, #0
 8000868:	603b      	str	r3, [r7, #0]
 800086a:	4b09      	ldr	r3, [pc, #36]	; (8000890 <HAL_MspInit+0x4c>)
 800086c:	6c1b      	ldr	r3, [r3, #64]	; 0x40
 800086e:	4a08      	ldr	r2, [pc, #32]	; (8000890 <HAL_MspInit+0x4c>)
 8000870:	f043 5380 	orr.w	r3, r3, #268435456	; 0x10000000
 8000874:	6413      	str	r3, [r2, #64]	; 0x40
 8000876:	4b06      	ldr	r3, [pc, #24]	; (8000890 <HAL_MspInit+0x4c>)
 8000878:	6c1b      	ldr	r3, [r3, #64]	; 0x40
 800087a:	f003 5380 	and.w	r3, r3, #268435456	; 0x10000000
 800087e:	603b      	str	r3, [r7, #0]
 8000880:	683b      	ldr	r3, [r7, #0]

  HAL_NVIC_SetPriorityGrouping(NVIC_PRIORITYGROUP_0);
 8000882:	2007      	movs	r0, #7
 8000884:	f000 f9d8 	bl	8000c38 <HAL_NVIC_SetPriorityGrouping>
  /* System interrupt init*/

  /* USER CODE BEGIN MspInit 1 */

  /* USER CODE END MspInit 1 */
}
 8000888:	bf00      	nop
 800088a:	3708      	adds	r7, #8
 800088c:	46bd      	mov	sp, r7
 800088e:	bd80      	pop	{r7, pc}
 8000890:	40023800 	.word	0x40023800

08000894 <HAL_UART_MspInit>:
* This function configures the hardware resources used in this example
* @param huart: UART handle pointer
* @retval None
*/
void HAL_UART_MspInit(UART_HandleTypeDef* huart)
{
 8000894:	b580      	push	{r7, lr}
 8000896:	b08a      	sub	sp, #40	; 0x28
 8000898:	af00      	add	r7, sp, #0
 800089a:	6078      	str	r0, [r7, #4]
  GPIO_InitTypeDef GPIO_InitStruct = {0};
 800089c:	f107 0314 	add.w	r3, r7, #20
 80008a0:	2200      	movs	r2, #0
 80008a2:	601a      	str	r2, [r3, #0]
 80008a4:	605a      	str	r2, [r3, #4]
 80008a6:	609a      	str	r2, [r3, #8]
 80008a8:	60da      	str	r2, [r3, #12]
 80008aa:	611a      	str	r2, [r3, #16]
  if(huart->Instance==USART1)
 80008ac:	687b      	ldr	r3, [r7, #4]
 80008ae:	681b      	ldr	r3, [r3, #0]
 80008b0:	4a19      	ldr	r2, [pc, #100]	; (8000918 <HAL_UART_MspInit+0x84>)
 80008b2:	4293      	cmp	r3, r2
 80008b4:	d12c      	bne.n	8000910 <HAL_UART_MspInit+0x7c>
  {
  /* USER CODE BEGIN USART1_MspInit 0 */

  /* USER CODE END USART1_MspInit 0 */
    /* Peripheral clock enable */
    __HAL_RCC_USART1_CLK_ENABLE();
 80008b6:	2300      	movs	r3, #0
 80008b8:	613b      	str	r3, [r7, #16]
 80008ba:	4b18      	ldr	r3, [pc, #96]	; (800091c <HAL_UART_MspInit+0x88>)
 80008bc:	6c5b      	ldr	r3, [r3, #68]	; 0x44
 80008be:	4a17      	ldr	r2, [pc, #92]	; (800091c <HAL_UART_MspInit+0x88>)
 80008c0:	f043 0310 	orr.w	r3, r3, #16
 80008c4:	6453      	str	r3, [r2, #68]	; 0x44
 80008c6:	4b15      	ldr	r3, [pc, #84]	; (800091c <HAL_UART_MspInit+0x88>)
 80008c8:	6c5b      	ldr	r3, [r3, #68]	; 0x44
 80008ca:	f003 0310 	and.w	r3, r3, #16
 80008ce:	613b      	str	r3, [r7, #16]
 80008d0:	693b      	ldr	r3, [r7, #16]

    __HAL_RCC_GPIOA_CLK_ENABLE();
 80008d2:	2300      	movs	r3, #0
 80008d4:	60fb      	str	r3, [r7, #12]
 80008d6:	4b11      	ldr	r3, [pc, #68]	; (800091c <HAL_UART_MspInit+0x88>)
 80008d8:	6b1b      	ldr	r3, [r3, #48]	; 0x30
 80008da:	4a10      	ldr	r2, [pc, #64]	; (800091c <HAL_UART_MspInit+0x88>)
 80008dc:	f043 0301 	orr.w	r3, r3, #1
 80008e0:	6313      	str	r3, [r2, #48]	; 0x30
 80008e2:	4b0e      	ldr	r3, [pc, #56]	; (800091c <HAL_UART_MspInit+0x88>)
 80008e4:	6b1b      	ldr	r3, [r3, #48]	; 0x30
 80008e6:	f003 0301 	and.w	r3, r3, #1
 80008ea:	60fb      	str	r3, [r7, #12]
 80008ec:	68fb      	ldr	r3, [r7, #12]
    /**USART1 GPIO Configuration
    PA9     ------> USART1_TX
    PA10     ------> USART1_RX
    */
    GPIO_InitStruct.Pin = GPIO_PIN_9|GPIO_PIN_10;
 80008ee:	f44f 63c0 	mov.w	r3, #1536	; 0x600
 80008f2:	617b      	str	r3, [r7, #20]
    GPIO_InitStruct.Mode = GPIO_MODE_AF_PP;
 80008f4:	2302      	movs	r3, #2
 80008f6:	61bb      	str	r3, [r7, #24]
    GPIO_InitStruct.Pull = GPIO_NOPULL;
 80008f8:	2300      	movs	r3, #0
 80008fa:	61fb      	str	r3, [r7, #28]
    GPIO_InitStruct.Speed = GPIO_SPEED_FREQ_VERY_HIGH;
 80008fc:	2303      	movs	r3, #3
 80008fe:	623b      	str	r3, [r7, #32]
    GPIO_InitStruct.Alternate = GPIO_AF7_USART1;
 8000900:	2307      	movs	r3, #7
 8000902:	627b      	str	r3, [r7, #36]	; 0x24
    HAL_GPIO_Init(GPIOA, &GPIO_InitStruct);
 8000904:	f107 0314 	add.w	r3, r7, #20
 8000908:	4619      	mov	r1, r3
 800090a:	4805      	ldr	r0, [pc, #20]	; (8000920 <HAL_UART_MspInit+0x8c>)
 800090c:	f000 f9c8 	bl	8000ca0 <HAL_GPIO_Init>
  /* USER CODE BEGIN USART1_MspInit 1 */

  /* USER CODE END USART1_MspInit 1 */
  }

}
 8000910:	bf00      	nop
 8000912:	3728      	adds	r7, #40	; 0x28
 8000914:	46bd      	mov	sp, r7
 8000916:	bd80      	pop	{r7, pc}
 8000918:	40011000 	.word	0x40011000
 800091c:	40023800 	.word	0x40023800
 8000920:	40020000 	.word	0x40020000

08000924 <NMI_Handler>:
/******************************************************************************/
/**
  * @brief This function handles Non maskable interrupt.
  */
void NMI_Handler(void)
{
 8000924:	b480      	push	{r7}
 8000926:	af00      	add	r7, sp, #0
  /* USER CODE BEGIN NonMaskableInt_IRQn 0 */

  /* USER CODE END NonMaskableInt_IRQn 0 */
  /* USER CODE BEGIN NonMaskableInt_IRQn 1 */
  while (1)
 8000928:	e7fe      	b.n	8000928 <NMI_Handler+0x4>

0800092a <HardFault_Handler>:

/**
  * @brief This function handles Hard fault interrupt.
  */
void HardFault_Handler(void)
{
 800092a:	b480      	push	{r7}
 800092c:	af00      	add	r7, sp, #0
  /* USER CODE BEGIN HardFault_IRQn 0 */

  /* USER CODE END HardFault_IRQn 0 */
  while (1)
 800092e:	e7fe      	b.n	800092e <HardFault_Handler+0x4>

08000930 <MemManage_Handler>:

/**
  * @brief This function handles Memory management fault.
  */
void MemManage_Handler(void)
{
 8000930:	b480      	push	{r7}
 8000932:	af00      	add	r7, sp, #0
  /* USER CODE BEGIN MemoryManagement_IRQn 0 */

  /* USER CODE END MemoryManagement_IRQn 0 */
  while (1)
 8000934:	e7fe      	b.n	8000934 <MemManage_Handler+0x4>

08000936 <BusFault_Handler>:

/**
  * @brief This function handles Pre-fetch fault, memory access fault.
  */
void BusFault_Handler(void)
{
 8000936:	b480      	push	{r7}
 8000938:	af00      	add	r7, sp, #0
  /* USER CODE BEGIN BusFault_IRQn 0 */

  /* USER CODE END BusFault_IRQn 0 */
  while (1)
 800093a:	e7fe      	b.n	800093a <BusFault_Handler+0x4>

0800093c <UsageFault_Handler>:

/**
  * @brief This function handles Undefined instruction or illegal state.
  */
void UsageFault_Handler(void)
{
 800093c:	b480      	push	{r7}
 800093e:	af00      	add	r7, sp, #0
  /* USER CODE BEGIN UsageFault_IRQn 0 */

  /* USER CODE END UsageFault_IRQn 0 */
  while (1)
 8000940:	e7fe      	b.n	8000940 <UsageFault_Handler+0x4>

08000942 <SVC_Handler>:

/**
  * @brief This function handles System service call via SWI instruction.
  */
void SVC_Handler(void)
{
 8000942:	b480      	push	{r7}
 8000944:	af00      	add	r7, sp, #0

  /* USER CODE END SVCall_IRQn 0 */
  /* USER CODE BEGIN SVCall_IRQn 1 */

  /* USER CODE END SVCall_IRQn 1 */
}
 8000946:	bf00      	nop
 8000948:	46bd      	mov	sp, r7
 800094a:	f85d 7b04 	ldr.w	r7, [sp], #4
 800094e:	4770      	bx	lr

08000950 <DebugMon_Handler>:

/**
  * @brief This function handles Debug monitor.
  */
void DebugMon_Handler(void)
{
 8000950:	b480      	push	{r7}
 8000952:	af00      	add	r7, sp, #0

  /* USER CODE END DebugMonitor_IRQn 0 */
  /* USER CODE BEGIN DebugMonitor_IRQn 1 */

  /* USER CODE END DebugMonitor_IRQn 1 */
}
 8000954:	bf00      	nop
 8000956:	46bd      	mov	sp, r7
 8000958:	f85d 7b04 	ldr.w	r7, [sp], #4
 800095c:	4770      	bx	lr

0800095e <PendSV_Handler>:

/**
  * @brief This function handles Pendable request for system service.
  */
void PendSV_Handler(void)
{
 800095e:	b480      	push	{r7}
 8000960:	af00      	add	r7, sp, #0

  /* USER CODE END PendSV_IRQn 0 */
  /* USER CODE BEGIN PendSV_IRQn 1 */

  /* USER CODE END PendSV_IRQn 1 */
}
 8000962:	bf00      	nop
 8000964:	46bd      	mov	sp, r7
 8000966:	f85d 7b04 	ldr.w	r7, [sp], #4
 800096a:	4770      	bx	lr

0800096c <SysTick_Handler>:

/**
  * @brief This function handles System tick timer.
  */
void SysTick_Handler(void)
{
 800096c:	b580      	push	{r7, lr}
 800096e:	af00      	add	r7, sp, #0
  /* USER CODE BEGIN SysTick_IRQn 0 */

  /* USER CODE END SysTick_IRQn 0 */
  HAL_IncTick();
 8000970:	f000 f890 	bl	8000a94 <HAL_IncTick>
  /* USER CODE BEGIN SysTick_IRQn 1 */

  /* USER CODE END SysTick_IRQn 1 */
}
 8000974:	bf00      	nop
 8000976:	bd80      	pop	{r7, pc}

08000978 <SystemInit>:
  *         configuration.
  * @param  None
  * @retval None
  */
void SystemInit(void)
{
 8000978:	b480      	push	{r7}
 800097a:	af00      	add	r7, sp, #0
  /* FPU settings ------------------------------------------------------------*/
  #if (__FPU_PRESENT == 1) && (__FPU_USED == 1)
    SCB->CPACR |= ((3UL << 10*2)|(3UL << 11*2));  /* set CP10 and CP11 Full Access */
 800097c:	4b06      	ldr	r3, [pc, #24]	; (8000998 <SystemInit+0x20>)
 800097e:	f8d3 3088 	ldr.w	r3, [r3, #136]	; 0x88
 8000982:	4a05      	ldr	r2, [pc, #20]	; (8000998 <SystemInit+0x20>)
 8000984:	f443 0370 	orr.w	r3, r3, #15728640	; 0xf00000
 8000988:	f8c2 3088 	str.w	r3, [r2, #136]	; 0x88

  /* Configure the Vector Table location -------------------------------------*/
#if defined(USER_VECT_TAB_ADDRESS)
  SCB->VTOR = VECT_TAB_BASE_ADDRESS | VECT_TAB_OFFSET; /* Vector Table Relocation in Internal SRAM */
#endif /* USER_VECT_TAB_ADDRESS */
}
 800098c:	bf00      	nop
 800098e:	46bd      	mov	sp, r7
 8000990:	f85d 7b04 	ldr.w	r7, [sp], #4
 8000994:	4770      	bx	lr
 8000996:	bf00      	nop
 8000998:	e000ed00 	.word	0xe000ed00

0800099c <Reset_Handler>:

    .section  .text.Reset_Handler
  .weak  Reset_Handler
  .type  Reset_Handler, %function
Reset_Handler: 
  ldr   sp, =_estack       /* set stack pointer */
 800099c:	f8df d034 	ldr.w	sp, [pc, #52]	; 80009d4 <LoopFillZerobss+0x12>
 
/* Copy the data segment initializers from flash to SRAM */  
  ldr r0, =_sdata
 80009a0:	480d      	ldr	r0, [pc, #52]	; (80009d8 <LoopFillZerobss+0x16>)
  ldr r1, =_edata
 80009a2:	490e      	ldr	r1, [pc, #56]	; (80009dc <LoopFillZerobss+0x1a>)
  ldr r2, =_sidata
 80009a4:	4a0e      	ldr	r2, [pc, #56]	; (80009e0 <LoopFillZerobss+0x1e>)
  movs r3, #0
 80009a6:	2300      	movs	r3, #0
  b LoopCopyDataInit
 80009a8:	e002      	b.n	80009b0 <LoopCopyDataInit>

080009aa <CopyDataInit>:

CopyDataInit:
  ldr r4, [r2, r3]
 80009aa:	58d4      	ldr	r4, [r2, r3]
  str r4, [r0, r3]
 80009ac:	50c4      	str	r4, [r0, r3]
  adds r3, r3, #4
 80009ae:	3304      	adds	r3, #4

080009b0 <LoopCopyDataInit>:

LoopCopyDataInit:
  adds r4, r0, r3
 80009b0:	18c4      	adds	r4, r0, r3
  cmp r4, r1
 80009b2:	428c      	cmp	r4, r1
  bcc CopyDataInit
 80009b4:	d3f9      	bcc.n	80009aa <CopyDataInit>
  
/* Zero fill the bss segment. */
  ldr r2, =_sbss
 80009b6:	4a0b      	ldr	r2, [pc, #44]	; (80009e4 <LoopFillZerobss+0x22>)
  ldr r4, =_ebss
 80009b8:	4c0b      	ldr	r4, [pc, #44]	; (80009e8 <LoopFillZerobss+0x26>)
  movs r3, #0
 80009ba:	2300      	movs	r3, #0
  b LoopFillZerobss
 80009bc:	e001      	b.n	80009c2 <LoopFillZerobss>

080009be <FillZerobss>:

FillZerobss:
  str  r3, [r2]
 80009be:	6013      	str	r3, [r2, #0]
  adds r2, r2, #4
 80009c0:	3204      	adds	r2, #4

080009c2 <LoopFillZerobss>:

LoopFillZerobss:
  cmp r2, r4
 80009c2:	42a2      	cmp	r2, r4
  bcc FillZerobss
 80009c4:	d3fb      	bcc.n	80009be <FillZerobss>

/* Call the clock system initialization function.*/
  bl  SystemInit   
 80009c6:	f7ff ffd7 	bl	8000978 <SystemInit>
/* Call static constructors */
    bl __libc_init_array
 80009ca:	f001 fc2b 	bl	8002224 <__libc_init_array>
/* Call the application's entry point.*/
  bl  main
 80009ce:	f7ff fe4b 	bl	8000668 <main>
  bx  lr    
 80009d2:	4770      	bx	lr
  ldr   sp, =_estack       /* set stack pointer */
 80009d4:	20030000 	.word	0x20030000
  ldr r0, =_sdata
 80009d8:	20000000 	.word	0x20000000
  ldr r1, =_edata
 80009dc:	2000000c 	.word	0x2000000c
  ldr r2, =_sidata
 80009e0:	080022f0 	.word	0x080022f0
  ldr r2, =_sbss
 80009e4:	2000000c 	.word	0x2000000c
  ldr r4, =_ebss
 80009e8:	20000074 	.word	0x20000074

080009ec <ADC_IRQHandler>:
 * @retval None       
*/
    .section  .text.Default_Handler,"ax",%progbits
Default_Handler:
Infinite_Loop:
  b  Infinite_Loop
 80009ec:	e7fe      	b.n	80009ec <ADC_IRQHandler>
	...

080009f0 <HAL_Init>:
  *         need to ensure that the SysTick time base is always set to 1 millisecond
  *         to have correct HAL operation.
  * @retval HAL status
  */
HAL_StatusTypeDef HAL_Init(void)
{
 80009f0:	b580      	push	{r7, lr}
 80009f2:	af00      	add	r7, sp, #0
  /* Configure Flash prefetch, Instruction cache, Data cache */ 
#if (INSTRUCTION_CACHE_ENABLE != 0U)
  __HAL_FLASH_INSTRUCTION_CACHE_ENABLE();
 80009f4:	4b0e      	ldr	r3, [pc, #56]	; (8000a30 <HAL_Init+0x40>)
 80009f6:	681b      	ldr	r3, [r3, #0]
 80009f8:	4a0d      	ldr	r2, [pc, #52]	; (8000a30 <HAL_Init+0x40>)
 80009fa:	f443 7300 	orr.w	r3, r3, #512	; 0x200
 80009fe:	6013      	str	r3, [r2, #0]
#endif /* INSTRUCTION_CACHE_ENABLE */

#if (DATA_CACHE_ENABLE != 0U)
  __HAL_FLASH_DATA_CACHE_ENABLE();
 8000a00:	4b0b      	ldr	r3, [pc, #44]	; (8000a30 <HAL_Init+0x40>)
 8000a02:	681b      	ldr	r3, [r3, #0]
 8000a04:	4a0a      	ldr	r2, [pc, #40]	; (8000a30 <HAL_Init+0x40>)
 8000a06:	f443 6380 	orr.w	r3, r3, #1024	; 0x400
 8000a0a:	6013      	str	r3, [r2, #0]
#endif /* DATA_CACHE_ENABLE */

#if (PREFETCH_ENABLE != 0U)
  __HAL_FLASH_PREFETCH_BUFFER_ENABLE();
 8000a0c:	4b08      	ldr	r3, [pc, #32]	; (8000a30 <HAL_Init+0x40>)
 8000a0e:	681b      	ldr	r3, [r3, #0]
 8000a10:	4a07      	ldr	r2, [pc, #28]	; (8000a30 <HAL_Init+0x40>)
 8000a12:	f443 7380 	orr.w	r3, r3, #256	; 0x100
 8000a16:	6013      	str	r3, [r2, #0]
#endif /* PREFETCH_ENABLE */

  /* Set Interrupt Group Priority */
  HAL_NVIC_SetPriorityGrouping(NVIC_PRIORITYGROUP_4);
 8000a18:	2003      	movs	r0, #3
 8000a1a:	f000 f90d 	bl	8000c38 <HAL_NVIC_SetPriorityGrouping>

  /* Use systick as time base source and configure 1ms tick (default clock after Reset is HSI) */
  HAL_InitTick(TICK_INT_PRIORITY);
 8000a1e:	2000      	movs	r0, #0
 8000a20:	f000 f808 	bl	8000a34 <HAL_InitTick>

  /* Init the low level hardware */
  HAL_MspInit();
 8000a24:	f7ff ff0e 	bl	8000844 <HAL_MspInit>

  /* Return function status */
  return HAL_OK;
 8000a28:	2300      	movs	r3, #0
}
 8000a2a:	4618      	mov	r0, r3
 8000a2c:	bd80      	pop	{r7, pc}
 8000a2e:	bf00      	nop
 8000a30:	40023c00 	.word	0x40023c00

08000a34 <HAL_InitTick>:
  *       implementation  in user file.
  * @param TickPriority Tick interrupt priority.
  * @retval HAL status
  */
__weak HAL_StatusTypeDef HAL_InitTick(uint32_t TickPriority)
{
 8000a34:	b580      	push	{r7, lr}
 8000a36:	b082      	sub	sp, #8
 8000a38:	af00      	add	r7, sp, #0
 8000a3a:	6078      	str	r0, [r7, #4]
  /* Configure the SysTick to have interrupt in 1ms time basis*/
  if (HAL_SYSTICK_Config(SystemCoreClock / (1000U / uwTickFreq)) > 0U)
 8000a3c:	4b12      	ldr	r3, [pc, #72]	; (8000a88 <HAL_InitTick+0x54>)
 8000a3e:	681a      	ldr	r2, [r3, #0]
 8000a40:	4b12      	ldr	r3, [pc, #72]	; (8000a8c <HAL_InitTick+0x58>)
 8000a42:	781b      	ldrb	r3, [r3, #0]
 8000a44:	4619      	mov	r1, r3
 8000a46:	f44f 737a 	mov.w	r3, #1000	; 0x3e8
 8000a4a:	fbb3 f3f1 	udiv	r3, r3, r1
 8000a4e:	fbb2 f3f3 	udiv	r3, r2, r3
 8000a52:	4618      	mov	r0, r3
 8000a54:	f000 f917 	bl	8000c86 <HAL_SYSTICK_Config>
 8000a58:	4603      	mov	r3, r0
 8000a5a:	2b00      	cmp	r3, #0
 8000a5c:	d001      	beq.n	8000a62 <HAL_InitTick+0x2e>
  {
    return HAL_ERROR;
 8000a5e:	2301      	movs	r3, #1
 8000a60:	e00e      	b.n	8000a80 <HAL_InitTick+0x4c>
  }

  /* Configure the SysTick IRQ priority */
  if (TickPriority < (1UL << __NVIC_PRIO_BITS))
 8000a62:	687b      	ldr	r3, [r7, #4]
 8000a64:	2b0f      	cmp	r3, #15
 8000a66:	d80a      	bhi.n	8000a7e <HAL_InitTick+0x4a>
  {
    HAL_NVIC_SetPriority(SysTick_IRQn, TickPriority, 0U);
 8000a68:	2200      	movs	r2, #0
 8000a6a:	6879      	ldr	r1, [r7, #4]
 8000a6c:	f04f 30ff 	mov.w	r0, #4294967295
 8000a70:	f000 f8ed 	bl	8000c4e <HAL_NVIC_SetPriority>
    uwTickPrio = TickPriority;
 8000a74:	4a06      	ldr	r2, [pc, #24]	; (8000a90 <HAL_InitTick+0x5c>)
 8000a76:	687b      	ldr	r3, [r7, #4]
 8000a78:	6013      	str	r3, [r2, #0]
  {
    return HAL_ERROR;
  }

  /* Return function status */
  return HAL_OK;
 8000a7a:	2300      	movs	r3, #0
 8000a7c:	e000      	b.n	8000a80 <HAL_InitTick+0x4c>
    return HAL_ERROR;
 8000a7e:	2301      	movs	r3, #1
}
 8000a80:	4618      	mov	r0, r3
 8000a82:	3708      	adds	r7, #8
 8000a84:	46bd      	mov	sp, r7
 8000a86:	bd80      	pop	{r7, pc}
 8000a88:	20000000 	.word	0x20000000
 8000a8c:	20000008 	.word	0x20000008
 8000a90:	20000004 	.word	0x20000004

08000a94 <HAL_IncTick>:
 * @note This function is declared as __weak to be overwritten in case of other 
  *      implementations in user file.
  * @retval None
  */
__weak void HAL_IncTick(void)
{
 8000a94:	b480      	push	{r7}
 8000a96:	af00      	add	r7, sp, #0
  uwTick += uwTickFreq;
 8000a98:	4b06      	ldr	r3, [pc, #24]	; (8000ab4 <HAL_IncTick+0x20>)
 8000a9a:	781b      	ldrb	r3, [r3, #0]
 8000a9c:	461a      	mov	r2, r3
 8000a9e:	4b06      	ldr	r3, [pc, #24]	; (8000ab8 <HAL_IncTick+0x24>)
 8000aa0:	681b      	ldr	r3, [r3, #0]
 8000aa2:	4413      	add	r3, r2
 8000aa4:	4a04      	ldr	r2, [pc, #16]	; (8000ab8 <HAL_IncTick+0x24>)
 8000aa6:	6013      	str	r3, [r2, #0]
}
 8000aa8:	bf00      	nop
 8000aaa:	46bd      	mov	sp, r7
 8000aac:	f85d 7b04 	ldr.w	r7, [sp], #4
 8000ab0:	4770      	bx	lr
 8000ab2:	bf00      	nop
 8000ab4:	20000008 	.word	0x20000008
 8000ab8:	20000070 	.word	0x20000070

08000abc <HAL_GetTick>:
  * @note This function is declared as __weak to be overwritten in case of other 
  *       implementations in user file.
  * @retval tick value
  */
__weak uint32_t HAL_GetTick(void)
{
 8000abc:	b480      	push	{r7}
 8000abe:	af00      	add	r7, sp, #0
  return uwTick;
 8000ac0:	4b03      	ldr	r3, [pc, #12]	; (8000ad0 <HAL_GetTick+0x14>)
 8000ac2:	681b      	ldr	r3, [r3, #0]
}
 8000ac4:	4618      	mov	r0, r3
 8000ac6:	46bd      	mov	sp, r7
 8000ac8:	f85d 7b04 	ldr.w	r7, [sp], #4
 8000acc:	4770      	bx	lr
 8000ace:	bf00      	nop
 8000ad0:	20000070 	.word	0x20000070

08000ad4 <__NVIC_SetPriorityGrouping>:
{
 8000ad4:	b480      	push	{r7}
 8000ad6:	b085      	sub	sp, #20
 8000ad8:	af00      	add	r7, sp, #0
 8000ada:	6078      	str	r0, [r7, #4]
  uint32_t PriorityGroupTmp = (PriorityGroup & (uint32_t)0x07UL);             /* only values 0..7 are used          */
 8000adc:	687b      	ldr	r3, [r7, #4]
 8000ade:	f003 0307 	and.w	r3, r3, #7
 8000ae2:	60fb      	str	r3, [r7, #12]
  reg_value  =  SCB->AIRCR;                                                   /* read old register configuration    */
 8000ae4:	4b0c      	ldr	r3, [pc, #48]	; (8000b18 <__NVIC_SetPriorityGrouping+0x44>)
 8000ae6:	68db      	ldr	r3, [r3, #12]
 8000ae8:	60bb      	str	r3, [r7, #8]
  reg_value &= ~((uint32_t)(SCB_AIRCR_VECTKEY_Msk | SCB_AIRCR_PRIGROUP_Msk)); /* clear bits to change               */
 8000aea:	68ba      	ldr	r2, [r7, #8]
 8000aec:	f64f 03ff 	movw	r3, #63743	; 0xf8ff
 8000af0:	4013      	ands	r3, r2
 8000af2:	60bb      	str	r3, [r7, #8]
                (PriorityGroupTmp << SCB_AIRCR_PRIGROUP_Pos)  );              /* Insert write key and priority group */
 8000af4:	68fb      	ldr	r3, [r7, #12]
 8000af6:	021a      	lsls	r2, r3, #8
                ((uint32_t)0x5FAUL << SCB_AIRCR_VECTKEY_Pos) |
 8000af8:	68bb      	ldr	r3, [r7, #8]
 8000afa:	4313      	orrs	r3, r2
  reg_value  =  (reg_value                                   |
 8000afc:	f043 63bf 	orr.w	r3, r3, #100139008	; 0x5f80000
 8000b00:	f443 3300 	orr.w	r3, r3, #131072	; 0x20000
 8000b04:	60bb      	str	r3, [r7, #8]
  SCB->AIRCR =  reg_value;
 8000b06:	4a04      	ldr	r2, [pc, #16]	; (8000b18 <__NVIC_SetPriorityGrouping+0x44>)
 8000b08:	68bb      	ldr	r3, [r7, #8]
 8000b0a:	60d3      	str	r3, [r2, #12]
}
 8000b0c:	bf00      	nop
 8000b0e:	3714      	adds	r7, #20
 8000b10:	46bd      	mov	sp, r7
 8000b12:	f85d 7b04 	ldr.w	r7, [sp], #4
 8000b16:	4770      	bx	lr
 8000b18:	e000ed00 	.word	0xe000ed00

08000b1c <__NVIC_GetPriorityGrouping>:
{
 8000b1c:	b480      	push	{r7}
 8000b1e:	af00      	add	r7, sp, #0
  return ((uint32_t)((SCB->AIRCR & SCB_AIRCR_PRIGROUP_Msk) >> SCB_AIRCR_PRIGROUP_Pos));
 8000b20:	4b04      	ldr	r3, [pc, #16]	; (8000b34 <__NVIC_GetPriorityGrouping+0x18>)
 8000b22:	68db      	ldr	r3, [r3, #12]
 8000b24:	0a1b      	lsrs	r3, r3, #8
 8000b26:	f003 0307 	and.w	r3, r3, #7
}
 8000b2a:	4618      	mov	r0, r3
 8000b2c:	46bd      	mov	sp, r7
 8000b2e:	f85d 7b04 	ldr.w	r7, [sp], #4
 8000b32:	4770      	bx	lr
 8000b34:	e000ed00 	.word	0xe000ed00

08000b38 <__NVIC_SetPriority>:
  \param [in]      IRQn  Interrupt number.
  \param [in]  priority  Priority to set.
  \note    The priority cannot be set for every processor exception.
 */
__STATIC_INLINE void __NVIC_SetPriority(IRQn_Type IRQn, uint32_t priority)
{
 8000b38:	b480      	push	{r7}
 8000b3a:	b083      	sub	sp, #12
 8000b3c:	af00      	add	r7, sp, #0
 8000b3e:	4603      	mov	r3, r0
 8000b40:	6039      	str	r1, [r7, #0]
 8000b42:	71fb      	strb	r3, [r7, #7]
  if ((int32_t)(IRQn) >= 0)
 8000b44:	f997 3007 	ldrsb.w	r3, [r7, #7]
 8000b48:	2b00      	cmp	r3, #0
 8000b4a:	db0a      	blt.n	8000b62 <__NVIC_SetPriority+0x2a>
  {
    NVIC->IP[((uint32_t)IRQn)]               = (uint8_t)((priority << (8U - __NVIC_PRIO_BITS)) & (uint32_t)0xFFUL);
 8000b4c:	683b      	ldr	r3, [r7, #0]
 8000b4e:	b2da      	uxtb	r2, r3
 8000b50:	490c      	ldr	r1, [pc, #48]	; (8000b84 <__NVIC_SetPriority+0x4c>)
 8000b52:	f997 3007 	ldrsb.w	r3, [r7, #7]
 8000b56:	0112      	lsls	r2, r2, #4
 8000b58:	b2d2      	uxtb	r2, r2
 8000b5a:	440b      	add	r3, r1
 8000b5c:	f883 2300 	strb.w	r2, [r3, #768]	; 0x300
  }
  else
  {
    SCB->SHP[(((uint32_t)IRQn) & 0xFUL)-4UL] = (uint8_t)((priority << (8U - __NVIC_PRIO_BITS)) & (uint32_t)0xFFUL);
  }
}
 8000b60:	e00a      	b.n	8000b78 <__NVIC_SetPriority+0x40>
    SCB->SHP[(((uint32_t)IRQn) & 0xFUL)-4UL] = (uint8_t)((priority << (8U - __NVIC_PRIO_BITS)) & (uint32_t)0xFFUL);
 8000b62:	683b      	ldr	r3, [r7, #0]
 8000b64:	b2da      	uxtb	r2, r3
 8000b66:	4908      	ldr	r1, [pc, #32]	; (8000b88 <__NVIC_SetPriority+0x50>)
 8000b68:	79fb      	ldrb	r3, [r7, #7]
 8000b6a:	f003 030f 	and.w	r3, r3, #15
 8000b6e:	3b04      	subs	r3, #4
 8000b70:	0112      	lsls	r2, r2, #4
 8000b72:	b2d2      	uxtb	r2, r2
 8000b74:	440b      	add	r3, r1
 8000b76:	761a      	strb	r2, [r3, #24]
}
 8000b78:	bf00      	nop
 8000b7a:	370c      	adds	r7, #12
 8000b7c:	46bd      	mov	sp, r7
 8000b7e:	f85d 7b04 	ldr.w	r7, [sp], #4
 8000b82:	4770      	bx	lr
 8000b84:	e000e100 	.word	0xe000e100
 8000b88:	e000ed00 	.word	0xe000ed00

08000b8c <NVIC_EncodePriority>:
  \param [in]   PreemptPriority  Preemptive priority value (starting from 0).
  \param [in]       SubPriority  Subpriority value (starting from 0).
  \return                        Encoded priority. Value can be used in the function \ref NVIC_SetPriority().
 */
__STATIC_INLINE uint32_t NVIC_EncodePriority (uint32_t PriorityGroup, uint32_t PreemptPriority, uint32_t SubPriority)
{
 8000b8c:	b480      	push	{r7}
 8000b8e:	b089      	sub	sp, #36	; 0x24
 8000b90:	af00      	add	r7, sp, #0
 8000b92:	60f8      	str	r0, [r7, #12]
 8000b94:	60b9      	str	r1, [r7, #8]
 8000b96:	607a      	str	r2, [r7, #4]
  uint32_t PriorityGroupTmp = (PriorityGroup & (uint32_t)0x07UL);   /* only values 0..7 are used          */
 8000b98:	68fb      	ldr	r3, [r7, #12]
 8000b9a:	f003 0307 	and.w	r3, r3, #7
 8000b9e:	61fb      	str	r3, [r7, #28]
  uint32_t PreemptPriorityBits;
  uint32_t SubPriorityBits;

  PreemptPriorityBits = ((7UL - PriorityGroupTmp) > (uint32_t)(__NVIC_PRIO_BITS)) ? (uint32_t)(__NVIC_PRIO_BITS) : (uint32_t)(7UL - PriorityGroupTmp);
 8000ba0:	69fb      	ldr	r3, [r7, #28]
 8000ba2:	f1c3 0307 	rsb	r3, r3, #7
 8000ba6:	2b04      	cmp	r3, #4
 8000ba8:	bf28      	it	cs
 8000baa:	2304      	movcs	r3, #4
 8000bac:	61bb      	str	r3, [r7, #24]
  SubPriorityBits     = ((PriorityGroupTmp + (uint32_t)(__NVIC_PRIO_BITS)) < (uint32_t)7UL) ? (uint32_t)0UL : (uint32_t)((PriorityGroupTmp - 7UL) + (uint32_t)(__NVIC_PRIO_BITS));
 8000bae:	69fb      	ldr	r3, [r7, #28]
 8000bb0:	3304      	adds	r3, #4
 8000bb2:	2b06      	cmp	r3, #6
 8000bb4:	d902      	bls.n	8000bbc <NVIC_EncodePriority+0x30>
 8000bb6:	69fb      	ldr	r3, [r7, #28]
 8000bb8:	3b03      	subs	r3, #3
 8000bba:	e000      	b.n	8000bbe <NVIC_EncodePriority+0x32>
 8000bbc:	2300      	movs	r3, #0
 8000bbe:	617b      	str	r3, [r7, #20]

  return (
           ((PreemptPriority & (uint32_t)((1UL << (PreemptPriorityBits)) - 1UL)) << SubPriorityBits) |
 8000bc0:	f04f 32ff 	mov.w	r2, #4294967295
 8000bc4:	69bb      	ldr	r3, [r7, #24]
 8000bc6:	fa02 f303 	lsl.w	r3, r2, r3
 8000bca:	43da      	mvns	r2, r3
 8000bcc:	68bb      	ldr	r3, [r7, #8]
 8000bce:	401a      	ands	r2, r3
 8000bd0:	697b      	ldr	r3, [r7, #20]
 8000bd2:	409a      	lsls	r2, r3
           ((SubPriority     & (uint32_t)((1UL << (SubPriorityBits    )) - 1UL)))
 8000bd4:	f04f 31ff 	mov.w	r1, #4294967295
 8000bd8:	697b      	ldr	r3, [r7, #20]
 8000bda:	fa01 f303 	lsl.w	r3, r1, r3
 8000bde:	43d9      	mvns	r1, r3
 8000be0:	687b      	ldr	r3, [r7, #4]
 8000be2:	400b      	ands	r3, r1
           ((PreemptPriority & (uint32_t)((1UL << (PreemptPriorityBits)) - 1UL)) << SubPriorityBits) |
 8000be4:	4313      	orrs	r3, r2
         );
}
 8000be6:	4618      	mov	r0, r3
 8000be8:	3724      	adds	r7, #36	; 0x24
 8000bea:	46bd      	mov	sp, r7
 8000bec:	f85d 7b04 	ldr.w	r7, [sp], #4
 8000bf0:	4770      	bx	lr
	...

08000bf4 <SysTick_Config>:
  \note    When the variable <b>__Vendor_SysTickConfig</b> is set to 1, then the
           function <b>SysTick_Config</b> is not included. In this case, the file <b><i>device</i>.h</b>
           must contain a vendor-specific implementation of this function.
 */
__STATIC_INLINE uint32_t SysTick_Config(uint32_t ticks)
{
 8000bf4:	b580      	push	{r7, lr}
 8000bf6:	b082      	sub	sp, #8
 8000bf8:	af00      	add	r7, sp, #0
 8000bfa:	6078      	str	r0, [r7, #4]
  if ((ticks - 1UL) > SysTick_LOAD_RELOAD_Msk)
 8000bfc:	687b      	ldr	r3, [r7, #4]
 8000bfe:	3b01      	subs	r3, #1
 8000c00:	f1b3 7f80 	cmp.w	r3, #16777216	; 0x1000000
 8000c04:	d301      	bcc.n	8000c0a <SysTick_Config+0x16>
  {
    return (1UL);                                                   /* Reload value impossible */
 8000c06:	2301      	movs	r3, #1
 8000c08:	e00f      	b.n	8000c2a <SysTick_Config+0x36>
  }

  SysTick->LOAD  = (uint32_t)(ticks - 1UL);                         /* set reload register */
 8000c0a:	4a0a      	ldr	r2, [pc, #40]	; (8000c34 <SysTick_Config+0x40>)
 8000c0c:	687b      	ldr	r3, [r7, #4]
 8000c0e:	3b01      	subs	r3, #1
 8000c10:	6053      	str	r3, [r2, #4]
  NVIC_SetPriority (SysTick_IRQn, (1UL << __NVIC_PRIO_BITS) - 1UL); /* set Priority for Systick Interrupt */
 8000c12:	210f      	movs	r1, #15
 8000c14:	f04f 30ff 	mov.w	r0, #4294967295
 8000c18:	f7ff ff8e 	bl	8000b38 <__NVIC_SetPriority>
  SysTick->VAL   = 0UL;                                             /* Load the SysTick Counter Value */
 8000c1c:	4b05      	ldr	r3, [pc, #20]	; (8000c34 <SysTick_Config+0x40>)
 8000c1e:	2200      	movs	r2, #0
 8000c20:	609a      	str	r2, [r3, #8]
  SysTick->CTRL  = SysTick_CTRL_CLKSOURCE_Msk |
 8000c22:	4b04      	ldr	r3, [pc, #16]	; (8000c34 <SysTick_Config+0x40>)
 8000c24:	2207      	movs	r2, #7
 8000c26:	601a      	str	r2, [r3, #0]
                   SysTick_CTRL_TICKINT_Msk   |
                   SysTick_CTRL_ENABLE_Msk;                         /* Enable SysTick IRQ and SysTick Timer */
  return (0UL);                                                     /* Function successful */
 8000c28:	2300      	movs	r3, #0
}
 8000c2a:	4618      	mov	r0, r3
 8000c2c:	3708      	adds	r7, #8
 8000c2e:	46bd      	mov	sp, r7
 8000c30:	bd80      	pop	{r7, pc}
 8000c32:	bf00      	nop
 8000c34:	e000e010 	.word	0xe000e010

08000c38 <HAL_NVIC_SetPriorityGrouping>:
  * @note   When the NVIC_PriorityGroup_0 is selected, IRQ preemption is no more possible. 
  *         The pending IRQ priority will be managed only by the subpriority. 
  * @retval None
  */
void HAL_NVIC_SetPriorityGrouping(uint32_t PriorityGroup)
{
 8000c38:	b580      	push	{r7, lr}
 8000c3a:	b082      	sub	sp, #8
 8000c3c:	af00      	add	r7, sp, #0
 8000c3e:	6078      	str	r0, [r7, #4]
  /* Check the parameters */
  assert_param(IS_NVIC_PRIORITY_GROUP(PriorityGroup));
  
  /* Set the PRIGROUP[10:8] bits according to the PriorityGroup parameter value */
  NVIC_SetPriorityGrouping(PriorityGroup);
 8000c40:	6878      	ldr	r0, [r7, #4]
 8000c42:	f7ff ff47 	bl	8000ad4 <__NVIC_SetPriorityGrouping>
}
 8000c46:	bf00      	nop
 8000c48:	3708      	adds	r7, #8
 8000c4a:	46bd      	mov	sp, r7
 8000c4c:	bd80      	pop	{r7, pc}

08000c4e <HAL_NVIC_SetPriority>:
  *         This parameter can be a value between 0 and 15
  *         A lower priority value indicates a higher priority.          
  * @retval None
  */
void HAL_NVIC_SetPriority(IRQn_Type IRQn, uint32_t PreemptPriority, uint32_t SubPriority)
{ 
 8000c4e:	b580      	push	{r7, lr}
 8000c50:	b086      	sub	sp, #24
 8000c52:	af00      	add	r7, sp, #0
 8000c54:	4603      	mov	r3, r0
 8000c56:	60b9      	str	r1, [r7, #8]
 8000c58:	607a      	str	r2, [r7, #4]
 8000c5a:	73fb      	strb	r3, [r7, #15]
  uint32_t prioritygroup = 0x00U;
 8000c5c:	2300      	movs	r3, #0
 8000c5e:	617b      	str	r3, [r7, #20]
  
  /* Check the parameters */
  assert_param(IS_NVIC_SUB_PRIORITY(SubPriority));
  assert_param(IS_NVIC_PREEMPTION_PRIORITY(PreemptPriority));
  
  prioritygroup = NVIC_GetPriorityGrouping();
 8000c60:	f7ff ff5c 	bl	8000b1c <__NVIC_GetPriorityGrouping>
 8000c64:	6178      	str	r0, [r7, #20]
  
  NVIC_SetPriority(IRQn, NVIC_EncodePriority(prioritygroup, PreemptPriority, SubPriority));
 8000c66:	687a      	ldr	r2, [r7, #4]
 8000c68:	68b9      	ldr	r1, [r7, #8]
 8000c6a:	6978      	ldr	r0, [r7, #20]
 8000c6c:	f7ff ff8e 	bl	8000b8c <NVIC_EncodePriority>
 8000c70:	4602      	mov	r2, r0
 8000c72:	f997 300f 	ldrsb.w	r3, [r7, #15]
 8000c76:	4611      	mov	r1, r2
 8000c78:	4618      	mov	r0, r3
 8000c7a:	f7ff ff5d 	bl	8000b38 <__NVIC_SetPriority>
}
 8000c7e:	bf00      	nop
 8000c80:	3718      	adds	r7, #24
 8000c82:	46bd      	mov	sp, r7
 8000c84:	bd80      	pop	{r7, pc}

08000c86 <HAL_SYSTICK_Config>:
  * @param  TicksNumb Specifies the ticks Number of ticks between two interrupts.
  * @retval status:  - 0  Function succeeded.
  *                  - 1  Function failed.
  */
uint32_t HAL_SYSTICK_Config(uint32_t TicksNumb)
{
 8000c86:	b580      	push	{r7, lr}
 8000c88:	b082      	sub	sp, #8
 8000c8a:	af00      	add	r7, sp, #0
 8000c8c:	6078      	str	r0, [r7, #4]
   return SysTick_Config(TicksNumb);
 8000c8e:	6878      	ldr	r0, [r7, #4]
 8000c90:	f7ff ffb0 	bl	8000bf4 <SysTick_Config>
 8000c94:	4603      	mov	r3, r0
}
 8000c96:	4618      	mov	r0, r3
 8000c98:	3708      	adds	r7, #8
 8000c9a:	46bd      	mov	sp, r7
 8000c9c:	bd80      	pop	{r7, pc}
	...

08000ca0 <HAL_GPIO_Init>:
  * @param  GPIO_Init pointer to a GPIO_InitTypeDef structure that contains
  *         the configuration information for the specified GPIO peripheral.
  * @retval None
  */
void HAL_GPIO_Init(GPIO_TypeDef  *GPIOx, GPIO_InitTypeDef *GPIO_Init)
{
 8000ca0:	b480      	push	{r7}
 8000ca2:	b089      	sub	sp, #36	; 0x24
 8000ca4:	af00      	add	r7, sp, #0
 8000ca6:	6078      	str	r0, [r7, #4]
 8000ca8:	6039      	str	r1, [r7, #0]
  uint32_t position;
  uint32_t ioposition = 0x00U;
 8000caa:	2300      	movs	r3, #0
 8000cac:	617b      	str	r3, [r7, #20]
  uint32_t iocurrent = 0x00U;
 8000cae:	2300      	movs	r3, #0
 8000cb0:	613b      	str	r3, [r7, #16]
  uint32_t temp = 0x00U;
 8000cb2:	2300      	movs	r3, #0
 8000cb4:	61bb      	str	r3, [r7, #24]
  assert_param(IS_GPIO_ALL_INSTANCE(GPIOx));
  assert_param(IS_GPIO_PIN(GPIO_Init->Pin));
  assert_param(IS_GPIO_MODE(GPIO_Init->Mode));

  /* Configure the port pins */
  for(position = 0U; position < GPIO_NUMBER; position++)
 8000cb6:	2300      	movs	r3, #0
 8000cb8:	61fb      	str	r3, [r7, #28]
 8000cba:	e177      	b.n	8000fac <HAL_GPIO_Init+0x30c>
  {
    /* Get the IO position */
    ioposition = 0x01U << position;
 8000cbc:	2201      	movs	r2, #1
 8000cbe:	69fb      	ldr	r3, [r7, #28]
 8000cc0:	fa02 f303 	lsl.w	r3, r2, r3
 8000cc4:	617b      	str	r3, [r7, #20]
    /* Get the current IO position */
    iocurrent = (uint32_t)(GPIO_Init->Pin) & ioposition;
 8000cc6:	683b      	ldr	r3, [r7, #0]
 8000cc8:	681b      	ldr	r3, [r3, #0]
 8000cca:	697a      	ldr	r2, [r7, #20]
 8000ccc:	4013      	ands	r3, r2
 8000cce:	613b      	str	r3, [r7, #16]

    if(iocurrent == ioposition)
 8000cd0:	693a      	ldr	r2, [r7, #16]
 8000cd2:	697b      	ldr	r3, [r7, #20]
 8000cd4:	429a      	cmp	r2, r3
 8000cd6:	f040 8166 	bne.w	8000fa6 <HAL_GPIO_Init+0x306>
    {
      /*--------------------- GPIO Mode Configuration ------------------------*/
      /* In case of Output or Alternate function mode selection */
      if(((GPIO_Init->Mode & GPIO_MODE) == MODE_OUTPUT) || \
 8000cda:	683b      	ldr	r3, [r7, #0]
 8000cdc:	685b      	ldr	r3, [r3, #4]
 8000cde:	f003 0303 	and.w	r3, r3, #3
 8000ce2:	2b01      	cmp	r3, #1
 8000ce4:	d005      	beq.n	8000cf2 <HAL_GPIO_Init+0x52>
          (GPIO_Init->Mode & GPIO_MODE) == MODE_AF)
 8000ce6:	683b      	ldr	r3, [r7, #0]
 8000ce8:	685b      	ldr	r3, [r3, #4]
 8000cea:	f003 0303 	and.w	r3, r3, #3
      if(((GPIO_Init->Mode & GPIO_MODE) == MODE_OUTPUT) || \
 8000cee:	2b02      	cmp	r3, #2
 8000cf0:	d130      	bne.n	8000d54 <HAL_GPIO_Init+0xb4>
      {
        /* Check the Speed parameter */
        assert_param(IS_GPIO_SPEED(GPIO_Init->Speed));
        /* Configure the IO Speed */
        temp = GPIOx->OSPEEDR; 
 8000cf2:	687b      	ldr	r3, [r7, #4]
 8000cf4:	689b      	ldr	r3, [r3, #8]
 8000cf6:	61bb      	str	r3, [r7, #24]
        temp &= ~(GPIO_OSPEEDER_OSPEEDR0 << (position * 2U));
 8000cf8:	69fb      	ldr	r3, [r7, #28]
 8000cfa:	005b      	lsls	r3, r3, #1
 8000cfc:	2203      	movs	r2, #3
 8000cfe:	fa02 f303 	lsl.w	r3, r2, r3
 8000d02:	43db      	mvns	r3, r3
 8000d04:	69ba      	ldr	r2, [r7, #24]
 8000d06:	4013      	ands	r3, r2
 8000d08:	61bb      	str	r3, [r7, #24]
        temp |= (GPIO_Init->Speed << (position * 2U));
 8000d0a:	683b      	ldr	r3, [r7, #0]
 8000d0c:	68da      	ldr	r2, [r3, #12]
 8000d0e:	69fb      	ldr	r3, [r7, #28]
 8000d10:	005b      	lsls	r3, r3, #1
 8000d12:	fa02 f303 	lsl.w	r3, r2, r3
 8000d16:	69ba      	ldr	r2, [r7, #24]
 8000d18:	4313      	orrs	r3, r2
 8000d1a:	61bb      	str	r3, [r7, #24]
        GPIOx->OSPEEDR = temp;
 8000d1c:	687b      	ldr	r3, [r7, #4]
 8000d1e:	69ba      	ldr	r2, [r7, #24]
 8000d20:	609a      	str	r2, [r3, #8]

        /* Configure the IO Output Type */
        temp = GPIOx->OTYPER;
 8000d22:	687b      	ldr	r3, [r7, #4]
 8000d24:	685b      	ldr	r3, [r3, #4]
 8000d26:	61bb      	str	r3, [r7, #24]
        temp &= ~(GPIO_OTYPER_OT_0 << position) ;
 8000d28:	2201      	movs	r2, #1
 8000d2a:	69fb      	ldr	r3, [r7, #28]
 8000d2c:	fa02 f303 	lsl.w	r3, r2, r3
 8000d30:	43db      	mvns	r3, r3
 8000d32:	69ba      	ldr	r2, [r7, #24]
 8000d34:	4013      	ands	r3, r2
 8000d36:	61bb      	str	r3, [r7, #24]
        temp |= (((GPIO_Init->Mode & OUTPUT_TYPE) >> OUTPUT_TYPE_Pos) << position);
 8000d38:	683b      	ldr	r3, [r7, #0]
 8000d3a:	685b      	ldr	r3, [r3, #4]
 8000d3c:	091b      	lsrs	r3, r3, #4
 8000d3e:	f003 0201 	and.w	r2, r3, #1
 8000d42:	69fb      	ldr	r3, [r7, #28]
 8000d44:	fa02 f303 	lsl.w	r3, r2, r3
 8000d48:	69ba      	ldr	r2, [r7, #24]
 8000d4a:	4313      	orrs	r3, r2
 8000d4c:	61bb      	str	r3, [r7, #24]
        GPIOx->OTYPER = temp;
 8000d4e:	687b      	ldr	r3, [r7, #4]
 8000d50:	69ba      	ldr	r2, [r7, #24]
 8000d52:	605a      	str	r2, [r3, #4]
       }

      if((GPIO_Init->Mode & GPIO_MODE) != MODE_ANALOG)
 8000d54:	683b      	ldr	r3, [r7, #0]
 8000d56:	685b      	ldr	r3, [r3, #4]
 8000d58:	f003 0303 	and.w	r3, r3, #3
 8000d5c:	2b03      	cmp	r3, #3
 8000d5e:	d017      	beq.n	8000d90 <HAL_GPIO_Init+0xf0>
      {
        /* Check the parameters */
        assert_param(IS_GPIO_PULL(GPIO_Init->Pull));
        
        /* Activate the Pull-up or Pull down resistor for the current IO */
        temp = GPIOx->PUPDR;
 8000d60:	687b      	ldr	r3, [r7, #4]
 8000d62:	68db      	ldr	r3, [r3, #12]
 8000d64:	61bb      	str	r3, [r7, #24]
        temp &= ~(GPIO_PUPDR_PUPDR0 << (position * 2U));
 8000d66:	69fb      	ldr	r3, [r7, #28]
 8000d68:	005b      	lsls	r3, r3, #1
 8000d6a:	2203      	movs	r2, #3
 8000d6c:	fa02 f303 	lsl.w	r3, r2, r3
 8000d70:	43db      	mvns	r3, r3
 8000d72:	69ba      	ldr	r2, [r7, #24]
 8000d74:	4013      	ands	r3, r2
 8000d76:	61bb      	str	r3, [r7, #24]
        temp |= ((GPIO_Init->Pull) << (position * 2U));
 8000d78:	683b      	ldr	r3, [r7, #0]
 8000d7a:	689a      	ldr	r2, [r3, #8]
 8000d7c:	69fb      	ldr	r3, [r7, #28]
 8000d7e:	005b      	lsls	r3, r3, #1
 8000d80:	fa02 f303 	lsl.w	r3, r2, r3
 8000d84:	69ba      	ldr	r2, [r7, #24]
 8000d86:	4313      	orrs	r3, r2
 8000d88:	61bb      	str	r3, [r7, #24]
        GPIOx->PUPDR = temp;
 8000d8a:	687b      	ldr	r3, [r7, #4]
 8000d8c:	69ba      	ldr	r2, [r7, #24]
 8000d8e:	60da      	str	r2, [r3, #12]
      }

      /* In case of Alternate function mode selection */
      if((GPIO_Init->Mode & GPIO_MODE) == MODE_AF)
 8000d90:	683b      	ldr	r3, [r7, #0]
 8000d92:	685b      	ldr	r3, [r3, #4]
 8000d94:	f003 0303 	and.w	r3, r3, #3
 8000d98:	2b02      	cmp	r3, #2
 8000d9a:	d123      	bne.n	8000de4 <HAL_GPIO_Init+0x144>
      {
        /* Check the Alternate function parameter */
        assert_param(IS_GPIO_AF(GPIO_Init->Alternate));
        /* Configure Alternate function mapped with the current IO */
        temp = GPIOx->AFR[position >> 3U];
 8000d9c:	69fb      	ldr	r3, [r7, #28]
 8000d9e:	08da      	lsrs	r2, r3, #3
 8000da0:	687b      	ldr	r3, [r7, #4]
 8000da2:	3208      	adds	r2, #8
 8000da4:	f853 3022 	ldr.w	r3, [r3, r2, lsl #2]
 8000da8:	61bb      	str	r3, [r7, #24]
        temp &= ~(0xFU << ((uint32_t)(position & 0x07U) * 4U)) ;
 8000daa:	69fb      	ldr	r3, [r7, #28]
 8000dac:	f003 0307 	and.w	r3, r3, #7
 8000db0:	009b      	lsls	r3, r3, #2
 8000db2:	220f      	movs	r2, #15
 8000db4:	fa02 f303 	lsl.w	r3, r2, r3
 8000db8:	43db      	mvns	r3, r3
 8000dba:	69ba      	ldr	r2, [r7, #24]
 8000dbc:	4013      	ands	r3, r2
 8000dbe:	61bb      	str	r3, [r7, #24]
        temp |= ((uint32_t)(GPIO_Init->Alternate) << (((uint32_t)position & 0x07U) * 4U));
 8000dc0:	683b      	ldr	r3, [r7, #0]
 8000dc2:	691a      	ldr	r2, [r3, #16]
 8000dc4:	69fb      	ldr	r3, [r7, #28]
 8000dc6:	f003 0307 	and.w	r3, r3, #7
 8000dca:	009b      	lsls	r3, r3, #2
 8000dcc:	fa02 f303 	lsl.w	r3, r2, r3
 8000dd0:	69ba      	ldr	r2, [r7, #24]
 8000dd2:	4313      	orrs	r3, r2
 8000dd4:	61bb      	str	r3, [r7, #24]
        GPIOx->AFR[position >> 3U] = temp;
 8000dd6:	69fb      	ldr	r3, [r7, #28]
 8000dd8:	08da      	lsrs	r2, r3, #3
 8000dda:	687b      	ldr	r3, [r7, #4]
 8000ddc:	3208      	adds	r2, #8
 8000dde:	69b9      	ldr	r1, [r7, #24]
 8000de0:	f843 1022 	str.w	r1, [r3, r2, lsl #2]
      }

      /* Configure IO Direction mode (Input, Output, Alternate or Analog) */
      temp = GPIOx->MODER;
 8000de4:	687b      	ldr	r3, [r7, #4]
 8000de6:	681b      	ldr	r3, [r3, #0]
 8000de8:	61bb      	str	r3, [r7, #24]
      temp &= ~(GPIO_MODER_MODER0 << (position * 2U));
 8000dea:	69fb      	ldr	r3, [r7, #28]
 8000dec:	005b      	lsls	r3, r3, #1
 8000dee:	2203      	movs	r2, #3
 8000df0:	fa02 f303 	lsl.w	r3, r2, r3
 8000df4:	43db      	mvns	r3, r3
 8000df6:	69ba      	ldr	r2, [r7, #24]
 8000df8:	4013      	ands	r3, r2
 8000dfa:	61bb      	str	r3, [r7, #24]
      temp |= ((GPIO_Init->Mode & GPIO_MODE) << (position * 2U));
 8000dfc:	683b      	ldr	r3, [r7, #0]
 8000dfe:	685b      	ldr	r3, [r3, #4]
 8000e00:	f003 0203 	and.w	r2, r3, #3
 8000e04:	69fb      	ldr	r3, [r7, #28]
 8000e06:	005b      	lsls	r3, r3, #1
 8000e08:	fa02 f303 	lsl.w	r3, r2, r3
 8000e0c:	69ba      	ldr	r2, [r7, #24]
 8000e0e:	4313      	orrs	r3, r2
 8000e10:	61bb      	str	r3, [r7, #24]
      GPIOx->MODER = temp;
 8000e12:	687b      	ldr	r3, [r7, #4]
 8000e14:	69ba      	ldr	r2, [r7, #24]
 8000e16:	601a      	str	r2, [r3, #0]

      /*--------------------- EXTI Mode Configuration ------------------------*/
      /* Configure the External Interrupt or event for the current IO */
      if((GPIO_Init->Mode & EXTI_MODE) != 0x00U)
 8000e18:	683b      	ldr	r3, [r7, #0]
 8000e1a:	685b      	ldr	r3, [r3, #4]
 8000e1c:	f403 3340 	and.w	r3, r3, #196608	; 0x30000
 8000e20:	2b00      	cmp	r3, #0
 8000e22:	f000 80c0 	beq.w	8000fa6 <HAL_GPIO_Init+0x306>
      {
        /* Enable SYSCFG Clock */
        __HAL_RCC_SYSCFG_CLK_ENABLE();
 8000e26:	2300      	movs	r3, #0
 8000e28:	60fb      	str	r3, [r7, #12]
 8000e2a:	4b66      	ldr	r3, [pc, #408]	; (8000fc4 <HAL_GPIO_Init+0x324>)
 8000e2c:	6c5b      	ldr	r3, [r3, #68]	; 0x44
 8000e2e:	4a65      	ldr	r2, [pc, #404]	; (8000fc4 <HAL_GPIO_Init+0x324>)
 8000e30:	f443 4380 	orr.w	r3, r3, #16384	; 0x4000
 8000e34:	6453      	str	r3, [r2, #68]	; 0x44
 8000e36:	4b63      	ldr	r3, [pc, #396]	; (8000fc4 <HAL_GPIO_Init+0x324>)
 8000e38:	6c5b      	ldr	r3, [r3, #68]	; 0x44
 8000e3a:	f403 4380 	and.w	r3, r3, #16384	; 0x4000
 8000e3e:	60fb      	str	r3, [r7, #12]
 8000e40:	68fb      	ldr	r3, [r7, #12]

        temp = SYSCFG->EXTICR[position >> 2U];
 8000e42:	4a61      	ldr	r2, [pc, #388]	; (8000fc8 <HAL_GPIO_Init+0x328>)
 8000e44:	69fb      	ldr	r3, [r7, #28]
 8000e46:	089b      	lsrs	r3, r3, #2
 8000e48:	3302      	adds	r3, #2
 8000e4a:	f852 3023 	ldr.w	r3, [r2, r3, lsl #2]
 8000e4e:	61bb      	str	r3, [r7, #24]
        temp &= ~(0x0FU << (4U * (position & 0x03U)));
 8000e50:	69fb      	ldr	r3, [r7, #28]
 8000e52:	f003 0303 	and.w	r3, r3, #3
 8000e56:	009b      	lsls	r3, r3, #2
 8000e58:	220f      	movs	r2, #15
 8000e5a:	fa02 f303 	lsl.w	r3, r2, r3
 8000e5e:	43db      	mvns	r3, r3
 8000e60:	69ba      	ldr	r2, [r7, #24]
 8000e62:	4013      	ands	r3, r2
 8000e64:	61bb      	str	r3, [r7, #24]
        temp |= ((uint32_t)(GPIO_GET_INDEX(GPIOx)) << (4U * (position & 0x03U)));
 8000e66:	687b      	ldr	r3, [r7, #4]
 8000e68:	4a58      	ldr	r2, [pc, #352]	; (8000fcc <HAL_GPIO_Init+0x32c>)
 8000e6a:	4293      	cmp	r3, r2
 8000e6c:	d037      	beq.n	8000ede <HAL_GPIO_Init+0x23e>
 8000e6e:	687b      	ldr	r3, [r7, #4]
 8000e70:	4a57      	ldr	r2, [pc, #348]	; (8000fd0 <HAL_GPIO_Init+0x330>)
 8000e72:	4293      	cmp	r3, r2
 8000e74:	d031      	beq.n	8000eda <HAL_GPIO_Init+0x23a>
 8000e76:	687b      	ldr	r3, [r7, #4]
 8000e78:	4a56      	ldr	r2, [pc, #344]	; (8000fd4 <HAL_GPIO_Init+0x334>)
 8000e7a:	4293      	cmp	r3, r2
 8000e7c:	d02b      	beq.n	8000ed6 <HAL_GPIO_Init+0x236>
 8000e7e:	687b      	ldr	r3, [r7, #4]
 8000e80:	4a55      	ldr	r2, [pc, #340]	; (8000fd8 <HAL_GPIO_Init+0x338>)
 8000e82:	4293      	cmp	r3, r2
 8000e84:	d025      	beq.n	8000ed2 <HAL_GPIO_Init+0x232>
 8000e86:	687b      	ldr	r3, [r7, #4]
 8000e88:	4a54      	ldr	r2, [pc, #336]	; (8000fdc <HAL_GPIO_Init+0x33c>)
 8000e8a:	4293      	cmp	r3, r2
 8000e8c:	d01f      	beq.n	8000ece <HAL_GPIO_Init+0x22e>
 8000e8e:	687b      	ldr	r3, [r7, #4]
 8000e90:	4a53      	ldr	r2, [pc, #332]	; (8000fe0 <HAL_GPIO_Init+0x340>)
 8000e92:	4293      	cmp	r3, r2
 8000e94:	d019      	beq.n	8000eca <HAL_GPIO_Init+0x22a>
 8000e96:	687b      	ldr	r3, [r7, #4]
 8000e98:	4a52      	ldr	r2, [pc, #328]	; (8000fe4 <HAL_GPIO_Init+0x344>)
 8000e9a:	4293      	cmp	r3, r2
 8000e9c:	d013      	beq.n	8000ec6 <HAL_GPIO_Init+0x226>
 8000e9e:	687b      	ldr	r3, [r7, #4]
 8000ea0:	4a51      	ldr	r2, [pc, #324]	; (8000fe8 <HAL_GPIO_Init+0x348>)
 8000ea2:	4293      	cmp	r3, r2
 8000ea4:	d00d      	beq.n	8000ec2 <HAL_GPIO_Init+0x222>
 8000ea6:	687b      	ldr	r3, [r7, #4]
 8000ea8:	4a50      	ldr	r2, [pc, #320]	; (8000fec <HAL_GPIO_Init+0x34c>)
 8000eaa:	4293      	cmp	r3, r2
 8000eac:	d007      	beq.n	8000ebe <HAL_GPIO_Init+0x21e>
 8000eae:	687b      	ldr	r3, [r7, #4]
 8000eb0:	4a4f      	ldr	r2, [pc, #316]	; (8000ff0 <HAL_GPIO_Init+0x350>)
 8000eb2:	4293      	cmp	r3, r2
 8000eb4:	d101      	bne.n	8000eba <HAL_GPIO_Init+0x21a>
 8000eb6:	2309      	movs	r3, #9
 8000eb8:	e012      	b.n	8000ee0 <HAL_GPIO_Init+0x240>
 8000eba:	230a      	movs	r3, #10
 8000ebc:	e010      	b.n	8000ee0 <HAL_GPIO_Init+0x240>
 8000ebe:	2308      	movs	r3, #8
 8000ec0:	e00e      	b.n	8000ee0 <HAL_GPIO_Init+0x240>
 8000ec2:	2307      	movs	r3, #7
 8000ec4:	e00c      	b.n	8000ee0 <HAL_GPIO_Init+0x240>
 8000ec6:	2306      	movs	r3, #6
 8000ec8:	e00a      	b.n	8000ee0 <HAL_GPIO_Init+0x240>
 8000eca:	2305      	movs	r3, #5
 8000ecc:	e008      	b.n	8000ee0 <HAL_GPIO_Init+0x240>
 8000ece:	2304      	movs	r3, #4
 8000ed0:	e006      	b.n	8000ee0 <HAL_GPIO_Init+0x240>
 8000ed2:	2303      	movs	r3, #3
 8000ed4:	e004      	b.n	8000ee0 <HAL_GPIO_Init+0x240>
 8000ed6:	2302      	movs	r3, #2
 8000ed8:	e002      	b.n	8000ee0 <HAL_GPIO_Init+0x240>
 8000eda:	2301      	movs	r3, #1
 8000edc:	e000      	b.n	8000ee0 <HAL_GPIO_Init+0x240>
 8000ede:	2300      	movs	r3, #0
 8000ee0:	69fa      	ldr	r2, [r7, #28]
 8000ee2:	f002 0203 	and.w	r2, r2, #3
 8000ee6:	0092      	lsls	r2, r2, #2
 8000ee8:	4093      	lsls	r3, r2
 8000eea:	69ba      	ldr	r2, [r7, #24]
 8000eec:	4313      	orrs	r3, r2
 8000eee:	61bb      	str	r3, [r7, #24]
        SYSCFG->EXTICR[position >> 2U] = temp;
 8000ef0:	4935      	ldr	r1, [pc, #212]	; (8000fc8 <HAL_GPIO_Init+0x328>)
 8000ef2:	69fb      	ldr	r3, [r7, #28]
 8000ef4:	089b      	lsrs	r3, r3, #2
 8000ef6:	3302      	adds	r3, #2
 8000ef8:	69ba      	ldr	r2, [r7, #24]
 8000efa:	f841 2023 	str.w	r2, [r1, r3, lsl #2]

        /* Clear Rising Falling edge configuration */
        temp = EXTI->RTSR;
 8000efe:	4b3d      	ldr	r3, [pc, #244]	; (8000ff4 <HAL_GPIO_Init+0x354>)
 8000f00:	689b      	ldr	r3, [r3, #8]
 8000f02:	61bb      	str	r3, [r7, #24]
        temp &= ~((uint32_t)iocurrent);
 8000f04:	693b      	ldr	r3, [r7, #16]
 8000f06:	43db      	mvns	r3, r3
 8000f08:	69ba      	ldr	r2, [r7, #24]
 8000f0a:	4013      	ands	r3, r2
 8000f0c:	61bb      	str	r3, [r7, #24]
        if((GPIO_Init->Mode & TRIGGER_RISING) != 0x00U)
 8000f0e:	683b      	ldr	r3, [r7, #0]
 8000f10:	685b      	ldr	r3, [r3, #4]
 8000f12:	f403 1380 	and.w	r3, r3, #1048576	; 0x100000
 8000f16:	2b00      	cmp	r3, #0
 8000f18:	d003      	beq.n	8000f22 <HAL_GPIO_Init+0x282>
        {
          temp |= iocurrent;
 8000f1a:	69ba      	ldr	r2, [r7, #24]
 8000f1c:	693b      	ldr	r3, [r7, #16]
 8000f1e:	4313      	orrs	r3, r2
 8000f20:	61bb      	str	r3, [r7, #24]
        }
        EXTI->RTSR = temp;
 8000f22:	4a34      	ldr	r2, [pc, #208]	; (8000ff4 <HAL_GPIO_Init+0x354>)
 8000f24:	69bb      	ldr	r3, [r7, #24]
 8000f26:	6093      	str	r3, [r2, #8]

        temp = EXTI->FTSR;
 8000f28:	4b32      	ldr	r3, [pc, #200]	; (8000ff4 <HAL_GPIO_Init+0x354>)
 8000f2a:	68db      	ldr	r3, [r3, #12]
 8000f2c:	61bb      	str	r3, [r7, #24]
        temp &= ~((uint32_t)iocurrent);
 8000f2e:	693b      	ldr	r3, [r7, #16]
 8000f30:	43db      	mvns	r3, r3
 8000f32:	69ba      	ldr	r2, [r7, #24]
 8000f34:	4013      	ands	r3, r2
 8000f36:	61bb      	str	r3, [r7, #24]
        if((GPIO_Init->Mode & TRIGGER_FALLING) != 0x00U)
 8000f38:	683b      	ldr	r3, [r7, #0]
 8000f3a:	685b      	ldr	r3, [r3, #4]
 8000f3c:	f403 1300 	and.w	r3, r3, #2097152	; 0x200000
 8000f40:	2b00      	cmp	r3, #0
 8000f42:	d003      	beq.n	8000f4c <HAL_GPIO_Init+0x2ac>
        {
          temp |= iocurrent;
 8000f44:	69ba      	ldr	r2, [r7, #24]
 8000f46:	693b      	ldr	r3, [r7, #16]
 8000f48:	4313      	orrs	r3, r2
 8000f4a:	61bb      	str	r3, [r7, #24]
        }
        EXTI->FTSR = temp;
 8000f4c:	4a29      	ldr	r2, [pc, #164]	; (8000ff4 <HAL_GPIO_Init+0x354>)
 8000f4e:	69bb      	ldr	r3, [r7, #24]
 8000f50:	60d3      	str	r3, [r2, #12]

        temp = EXTI->EMR;
 8000f52:	4b28      	ldr	r3, [pc, #160]	; (8000ff4 <HAL_GPIO_Init+0x354>)
 8000f54:	685b      	ldr	r3, [r3, #4]
 8000f56:	61bb      	str	r3, [r7, #24]
        temp &= ~((uint32_t)iocurrent);
 8000f58:	693b      	ldr	r3, [r7, #16]
 8000f5a:	43db      	mvns	r3, r3
 8000f5c:	69ba      	ldr	r2, [r7, #24]
 8000f5e:	4013      	ands	r3, r2
 8000f60:	61bb      	str	r3, [r7, #24]
        if((GPIO_Init->Mode & EXTI_EVT) != 0x00U)
 8000f62:	683b      	ldr	r3, [r7, #0]
 8000f64:	685b      	ldr	r3, [r3, #4]
 8000f66:	f403 3300 	and.w	r3, r3, #131072	; 0x20000
 8000f6a:	2b00      	cmp	r3, #0
 8000f6c:	d003      	beq.n	8000f76 <HAL_GPIO_Init+0x2d6>
        {
          temp |= iocurrent;
 8000f6e:	69ba      	ldr	r2, [r7, #24]
 8000f70:	693b      	ldr	r3, [r7, #16]
 8000f72:	4313      	orrs	r3, r2
 8000f74:	61bb      	str	r3, [r7, #24]
        }
        EXTI->EMR = temp;
 8000f76:	4a1f      	ldr	r2, [pc, #124]	; (8000ff4 <HAL_GPIO_Init+0x354>)
 8000f78:	69bb      	ldr	r3, [r7, #24]
 8000f7a:	6053      	str	r3, [r2, #4]

        /* Clear EXTI line configuration */
        temp = EXTI->IMR;
 8000f7c:	4b1d      	ldr	r3, [pc, #116]	; (8000ff4 <HAL_GPIO_Init+0x354>)
 8000f7e:	681b      	ldr	r3, [r3, #0]
 8000f80:	61bb      	str	r3, [r7, #24]
        temp &= ~((uint32_t)iocurrent);
 8000f82:	693b      	ldr	r3, [r7, #16]
 8000f84:	43db      	mvns	r3, r3
 8000f86:	69ba      	ldr	r2, [r7, #24]
 8000f88:	4013      	ands	r3, r2
 8000f8a:	61bb      	str	r3, [r7, #24]
        if((GPIO_Init->Mode & EXTI_IT) != 0x00U)
 8000f8c:	683b      	ldr	r3, [r7, #0]
 8000f8e:	685b      	ldr	r3, [r3, #4]
 8000f90:	f403 3380 	and.w	r3, r3, #65536	; 0x10000
 8000f94:	2b00      	cmp	r3, #0
 8000f96:	d003      	beq.n	8000fa0 <HAL_GPIO_Init+0x300>
        {
          temp |= iocurrent;
 8000f98:	69ba      	ldr	r2, [r7, #24]
 8000f9a:	693b      	ldr	r3, [r7, #16]
 8000f9c:	4313      	orrs	r3, r2
 8000f9e:	61bb      	str	r3, [r7, #24]
        }
        EXTI->IMR = temp;
 8000fa0:	4a14      	ldr	r2, [pc, #80]	; (8000ff4 <HAL_GPIO_Init+0x354>)
 8000fa2:	69bb      	ldr	r3, [r7, #24]
 8000fa4:	6013      	str	r3, [r2, #0]
  for(position = 0U; position < GPIO_NUMBER; position++)
 8000fa6:	69fb      	ldr	r3, [r7, #28]
 8000fa8:	3301      	adds	r3, #1
 8000faa:	61fb      	str	r3, [r7, #28]
 8000fac:	69fb      	ldr	r3, [r7, #28]
 8000fae:	2b0f      	cmp	r3, #15
 8000fb0:	f67f ae84 	bls.w	8000cbc <HAL_GPIO_Init+0x1c>
      }
    }
  }
}
 8000fb4:	bf00      	nop
 8000fb6:	bf00      	nop
 8000fb8:	3724      	adds	r7, #36	; 0x24
 8000fba:	46bd      	mov	sp, r7
 8000fbc:	f85d 7b04 	ldr.w	r7, [sp], #4
 8000fc0:	4770      	bx	lr
 8000fc2:	bf00      	nop
 8000fc4:	40023800 	.word	0x40023800
 8000fc8:	40013800 	.word	0x40013800
 8000fcc:	40020000 	.word	0x40020000
 8000fd0:	40020400 	.word	0x40020400
 8000fd4:	40020800 	.word	0x40020800
 8000fd8:	40020c00 	.word	0x40020c00
 8000fdc:	40021000 	.word	0x40021000
 8000fe0:	40021400 	.word	0x40021400
 8000fe4:	40021800 	.word	0x40021800
 8000fe8:	40021c00 	.word	0x40021c00
 8000fec:	40022000 	.word	0x40022000
 8000ff0:	40022400 	.word	0x40022400
 8000ff4:	40013c00 	.word	0x40013c00

08000ff8 <HAL_GPIO_WritePin>:
  *            @arg GPIO_PIN_RESET: to clear the port pin
  *            @arg GPIO_PIN_SET: to set the port pin
  * @retval None
  */
void HAL_GPIO_WritePin(GPIO_TypeDef* GPIOx, uint16_t GPIO_Pin, GPIO_PinState PinState)
{
 8000ff8:	b480      	push	{r7}
 8000ffa:	b083      	sub	sp, #12
 8000ffc:	af00      	add	r7, sp, #0
 8000ffe:	6078      	str	r0, [r7, #4]
 8001000:	460b      	mov	r3, r1
 8001002:	807b      	strh	r3, [r7, #2]
 8001004:	4613      	mov	r3, r2
 8001006:	707b      	strb	r3, [r7, #1]
  /* Check the parameters */
  assert_param(IS_GPIO_PIN(GPIO_Pin));
  assert_param(IS_GPIO_PIN_ACTION(PinState));

  if(PinState != GPIO_PIN_RESET)
 8001008:	787b      	ldrb	r3, [r7, #1]
 800100a:	2b00      	cmp	r3, #0
 800100c:	d003      	beq.n	8001016 <HAL_GPIO_WritePin+0x1e>
  {
    GPIOx->BSRR = GPIO_Pin;
 800100e:	887a      	ldrh	r2, [r7, #2]
 8001010:	687b      	ldr	r3, [r7, #4]
 8001012:	619a      	str	r2, [r3, #24]
  }
  else
  {
    GPIOx->BSRR = (uint32_t)GPIO_Pin << 16U;
  }
}
 8001014:	e003      	b.n	800101e <HAL_GPIO_WritePin+0x26>
    GPIOx->BSRR = (uint32_t)GPIO_Pin << 16U;
 8001016:	887b      	ldrh	r3, [r7, #2]
 8001018:	041a      	lsls	r2, r3, #16
 800101a:	687b      	ldr	r3, [r7, #4]
 800101c:	619a      	str	r2, [r3, #24]
}
 800101e:	bf00      	nop
 8001020:	370c      	adds	r7, #12
 8001022:	46bd      	mov	sp, r7
 8001024:	f85d 7b04 	ldr.w	r7, [sp], #4
 8001028:	4770      	bx	lr
	...

0800102c <HAL_RCC_OscConfig>:
  *         supported by this API. User should request a transition to HSE Off
  *         first and then HSE On or HSE Bypass.
  * @retval HAL status
  */
__weak HAL_StatusTypeDef HAL_RCC_OscConfig(RCC_OscInitTypeDef  *RCC_OscInitStruct)
{
 800102c:	b580      	push	{r7, lr}
 800102e:	b086      	sub	sp, #24
 8001030:	af00      	add	r7, sp, #0
 8001032:	6078      	str	r0, [r7, #4]
  uint32_t tickstart, pll_config;

  /* Check Null pointer */
  if(RCC_OscInitStruct == NULL)
 8001034:	687b      	ldr	r3, [r7, #4]
 8001036:	2b00      	cmp	r3, #0
 8001038:	d101      	bne.n	800103e <HAL_RCC_OscConfig+0x12>
  {
    return HAL_ERROR;
 800103a:	2301      	movs	r3, #1
 800103c:	e267      	b.n	800150e <HAL_RCC_OscConfig+0x4e2>
  }

  /* Check the parameters */
  assert_param(IS_RCC_OSCILLATORTYPE(RCC_OscInitStruct->OscillatorType));
  /*------------------------------- HSE Configuration ------------------------*/
  if(((RCC_OscInitStruct->OscillatorType) & RCC_OSCILLATORTYPE_HSE) == RCC_OSCILLATORTYPE_HSE)
 800103e:	687b      	ldr	r3, [r7, #4]
 8001040:	681b      	ldr	r3, [r3, #0]
 8001042:	f003 0301 	and.w	r3, r3, #1
 8001046:	2b00      	cmp	r3, #0
 8001048:	d075      	beq.n	8001136 <HAL_RCC_OscConfig+0x10a>
  {
    /* Check the parameters */
    assert_param(IS_RCC_HSE(RCC_OscInitStruct->HSEState));
    /* When the HSE is used as system clock or clock source for PLL in these cases HSE will not disabled */
    if((__HAL_RCC_GET_SYSCLK_SOURCE() == RCC_CFGR_SWS_HSE) ||\
 800104a:	4b88      	ldr	r3, [pc, #544]	; (800126c <HAL_RCC_OscConfig+0x240>)
 800104c:	689b      	ldr	r3, [r3, #8]
 800104e:	f003 030c 	and.w	r3, r3, #12
 8001052:	2b04      	cmp	r3, #4
 8001054:	d00c      	beq.n	8001070 <HAL_RCC_OscConfig+0x44>
      ((__HAL_RCC_GET_SYSCLK_SOURCE() == RCC_CFGR_SWS_PLL) && ((RCC->PLLCFGR & RCC_PLLCFGR_PLLSRC) == RCC_PLLCFGR_PLLSRC_HSE)))
 8001056:	4b85      	ldr	r3, [pc, #532]	; (800126c <HAL_RCC_OscConfig+0x240>)
 8001058:	689b      	ldr	r3, [r3, #8]
 800105a:	f003 030c 	and.w	r3, r3, #12
    if((__HAL_RCC_GET_SYSCLK_SOURCE() == RCC_CFGR_SWS_HSE) ||\
 800105e:	2b08      	cmp	r3, #8
 8001060:	d112      	bne.n	8001088 <HAL_RCC_OscConfig+0x5c>
      ((__HAL_RCC_GET_SYSCLK_SOURCE() == RCC_CFGR_SWS_PLL) && ((RCC->PLLCFGR & RCC_PLLCFGR_PLLSRC) == RCC_PLLCFGR_PLLSRC_HSE)))
 8001062:	4b82      	ldr	r3, [pc, #520]	; (800126c <HAL_RCC_OscConfig+0x240>)
 8001064:	685b      	ldr	r3, [r3, #4]
 8001066:	f403 0380 	and.w	r3, r3, #4194304	; 0x400000
 800106a:	f5b3 0f80 	cmp.w	r3, #4194304	; 0x400000
 800106e:	d10b      	bne.n	8001088 <HAL_RCC_OscConfig+0x5c>
    {
      if((__HAL_RCC_GET_FLAG(RCC_FLAG_HSERDY) != RESET) && (RCC_OscInitStruct->HSEState == RCC_HSE_OFF))
 8001070:	4b7e      	ldr	r3, [pc, #504]	; (800126c <HAL_RCC_OscConfig+0x240>)
 8001072:	681b      	ldr	r3, [r3, #0]
 8001074:	f403 3300 	and.w	r3, r3, #131072	; 0x20000
 8001078:	2b00      	cmp	r3, #0
 800107a:	d05b      	beq.n	8001134 <HAL_RCC_OscConfig+0x108>
 800107c:	687b      	ldr	r3, [r7, #4]
 800107e:	685b      	ldr	r3, [r3, #4]
 8001080:	2b00      	cmp	r3, #0
 8001082:	d157      	bne.n	8001134 <HAL_RCC_OscConfig+0x108>
      {
        return HAL_ERROR;
 8001084:	2301      	movs	r3, #1
 8001086:	e242      	b.n	800150e <HAL_RCC_OscConfig+0x4e2>
      }
    }
    else
    {
      /* Set the new HSE configuration ---------------------------------------*/
      __HAL_RCC_HSE_CONFIG(RCC_OscInitStruct->HSEState);
 8001088:	687b      	ldr	r3, [r7, #4]
 800108a:	685b      	ldr	r3, [r3, #4]
 800108c:	f5b3 3f80 	cmp.w	r3, #65536	; 0x10000
 8001090:	d106      	bne.n	80010a0 <HAL_RCC_OscConfig+0x74>
 8001092:	4b76      	ldr	r3, [pc, #472]	; (800126c <HAL_RCC_OscConfig+0x240>)
 8001094:	681b      	ldr	r3, [r3, #0]
 8001096:	4a75      	ldr	r2, [pc, #468]	; (800126c <HAL_RCC_OscConfig+0x240>)
 8001098:	f443 3380 	orr.w	r3, r3, #65536	; 0x10000
 800109c:	6013      	str	r3, [r2, #0]
 800109e:	e01d      	b.n	80010dc <HAL_RCC_OscConfig+0xb0>
 80010a0:	687b      	ldr	r3, [r7, #4]
 80010a2:	685b      	ldr	r3, [r3, #4]
 80010a4:	f5b3 2fa0 	cmp.w	r3, #327680	; 0x50000
 80010a8:	d10c      	bne.n	80010c4 <HAL_RCC_OscConfig+0x98>
 80010aa:	4b70      	ldr	r3, [pc, #448]	; (800126c <HAL_RCC_OscConfig+0x240>)
 80010ac:	681b      	ldr	r3, [r3, #0]
 80010ae:	4a6f      	ldr	r2, [pc, #444]	; (800126c <HAL_RCC_OscConfig+0x240>)
 80010b0:	f443 2380 	orr.w	r3, r3, #262144	; 0x40000
 80010b4:	6013      	str	r3, [r2, #0]
 80010b6:	4b6d      	ldr	r3, [pc, #436]	; (800126c <HAL_RCC_OscConfig+0x240>)
 80010b8:	681b      	ldr	r3, [r3, #0]
 80010ba:	4a6c      	ldr	r2, [pc, #432]	; (800126c <HAL_RCC_OscConfig+0x240>)
 80010bc:	f443 3380 	orr.w	r3, r3, #65536	; 0x10000
 80010c0:	6013      	str	r3, [r2, #0]
 80010c2:	e00b      	b.n	80010dc <HAL_RCC_OscConfig+0xb0>
 80010c4:	4b69      	ldr	r3, [pc, #420]	; (800126c <HAL_RCC_OscConfig+0x240>)
 80010c6:	681b      	ldr	r3, [r3, #0]
 80010c8:	4a68      	ldr	r2, [pc, #416]	; (800126c <HAL_RCC_OscConfig+0x240>)
 80010ca:	f423 3380 	bic.w	r3, r3, #65536	; 0x10000
 80010ce:	6013      	str	r3, [r2, #0]
 80010d0:	4b66      	ldr	r3, [pc, #408]	; (800126c <HAL_RCC_OscConfig+0x240>)
 80010d2:	681b      	ldr	r3, [r3, #0]
 80010d4:	4a65      	ldr	r2, [pc, #404]	; (800126c <HAL_RCC_OscConfig+0x240>)
 80010d6:	f423 2380 	bic.w	r3, r3, #262144	; 0x40000
 80010da:	6013      	str	r3, [r2, #0]

      /* Check the HSE State */
      if((RCC_OscInitStruct->HSEState) != RCC_HSE_OFF)
 80010dc:	687b      	ldr	r3, [r7, #4]
 80010de:	685b      	ldr	r3, [r3, #4]
 80010e0:	2b00      	cmp	r3, #0
 80010e2:	d013      	beq.n	800110c <HAL_RCC_OscConfig+0xe0>
      {
        /* Get Start Tick */
        tickstart = HAL_GetTick();
 80010e4:	f7ff fcea 	bl	8000abc <HAL_GetTick>
 80010e8:	6138      	str	r0, [r7, #16]

        /* Wait till HSE is ready */
        while(__HAL_RCC_GET_FLAG(RCC_FLAG_HSERDY) == RESET)
 80010ea:	e008      	b.n	80010fe <HAL_RCC_OscConfig+0xd2>
        {
          if((HAL_GetTick() - tickstart ) > HSE_TIMEOUT_VALUE)
 80010ec:	f7ff fce6 	bl	8000abc <HAL_GetTick>
 80010f0:	4602      	mov	r2, r0
 80010f2:	693b      	ldr	r3, [r7, #16]
 80010f4:	1ad3      	subs	r3, r2, r3
 80010f6:	2b64      	cmp	r3, #100	; 0x64
 80010f8:	d901      	bls.n	80010fe <HAL_RCC_OscConfig+0xd2>
          {
            return HAL_TIMEOUT;
 80010fa:	2303      	movs	r3, #3
 80010fc:	e207      	b.n	800150e <HAL_RCC_OscConfig+0x4e2>
        while(__HAL_RCC_GET_FLAG(RCC_FLAG_HSERDY) == RESET)
 80010fe:	4b5b      	ldr	r3, [pc, #364]	; (800126c <HAL_RCC_OscConfig+0x240>)
 8001100:	681b      	ldr	r3, [r3, #0]
 8001102:	f403 3300 	and.w	r3, r3, #131072	; 0x20000
 8001106:	2b00      	cmp	r3, #0
 8001108:	d0f0      	beq.n	80010ec <HAL_RCC_OscConfig+0xc0>
 800110a:	e014      	b.n	8001136 <HAL_RCC_OscConfig+0x10a>
        }
      }
      else
      {
        /* Get Start Tick */
        tickstart = HAL_GetTick();
 800110c:	f7ff fcd6 	bl	8000abc <HAL_GetTick>
 8001110:	6138      	str	r0, [r7, #16]

        /* Wait till HSE is bypassed or disabled */
        while(__HAL_RCC_GET_FLAG(RCC_FLAG_HSERDY) != RESET)
 8001112:	e008      	b.n	8001126 <HAL_RCC_OscConfig+0xfa>
        {
          if((HAL_GetTick() - tickstart ) > HSE_TIMEOUT_VALUE)
 8001114:	f7ff fcd2 	bl	8000abc <HAL_GetTick>
 8001118:	4602      	mov	r2, r0
 800111a:	693b      	ldr	r3, [r7, #16]
 800111c:	1ad3      	subs	r3, r2, r3
 800111e:	2b64      	cmp	r3, #100	; 0x64
 8001120:	d901      	bls.n	8001126 <HAL_RCC_OscConfig+0xfa>
          {
            return HAL_TIMEOUT;
 8001122:	2303      	movs	r3, #3
 8001124:	e1f3      	b.n	800150e <HAL_RCC_OscConfig+0x4e2>
        while(__HAL_RCC_GET_FLAG(RCC_FLAG_HSERDY) != RESET)
 8001126:	4b51      	ldr	r3, [pc, #324]	; (800126c <HAL_RCC_OscConfig+0x240>)
 8001128:	681b      	ldr	r3, [r3, #0]
 800112a:	f403 3300 	and.w	r3, r3, #131072	; 0x20000
 800112e:	2b00      	cmp	r3, #0
 8001130:	d1f0      	bne.n	8001114 <HAL_RCC_OscConfig+0xe8>
 8001132:	e000      	b.n	8001136 <HAL_RCC_OscConfig+0x10a>
      if((__HAL_RCC_GET_FLAG(RCC_FLAG_HSERDY) != RESET) && (RCC_OscInitStruct->HSEState == RCC_HSE_OFF))
 8001134:	bf00      	nop
        }
      }
    }
  }
  /*----------------------------- HSI Configuration --------------------------*/
  if(((RCC_OscInitStruct->OscillatorType) & RCC_OSCILLATORTYPE_HSI) == RCC_OSCILLATORTYPE_HSI)
 8001136:	687b      	ldr	r3, [r7, #4]
 8001138:	681b      	ldr	r3, [r3, #0]
 800113a:	f003 0302 	and.w	r3, r3, #2
 800113e:	2b00      	cmp	r3, #0
 8001140:	d063      	beq.n	800120a <HAL_RCC_OscConfig+0x1de>
    /* Check the parameters */
    assert_param(IS_RCC_HSI(RCC_OscInitStruct->HSIState));
    assert_param(IS_RCC_CALIBRATION_VALUE(RCC_OscInitStruct->HSICalibrationValue));

    /* Check if HSI is used as system clock or as PLL source when PLL is selected as system clock */
    if((__HAL_RCC_GET_SYSCLK_SOURCE() == RCC_CFGR_SWS_HSI) ||\
 8001142:	4b4a      	ldr	r3, [pc, #296]	; (800126c <HAL_RCC_OscConfig+0x240>)
 8001144:	689b      	ldr	r3, [r3, #8]
 8001146:	f003 030c 	and.w	r3, r3, #12
 800114a:	2b00      	cmp	r3, #0
 800114c:	d00b      	beq.n	8001166 <HAL_RCC_OscConfig+0x13a>
      ((__HAL_RCC_GET_SYSCLK_SOURCE() == RCC_CFGR_SWS_PLL) && ((RCC->PLLCFGR & RCC_PLLCFGR_PLLSRC) == RCC_PLLCFGR_PLLSRC_HSI)))
 800114e:	4b47      	ldr	r3, [pc, #284]	; (800126c <HAL_RCC_OscConfig+0x240>)
 8001150:	689b      	ldr	r3, [r3, #8]
 8001152:	f003 030c 	and.w	r3, r3, #12
    if((__HAL_RCC_GET_SYSCLK_SOURCE() == RCC_CFGR_SWS_HSI) ||\
 8001156:	2b08      	cmp	r3, #8
 8001158:	d11c      	bne.n	8001194 <HAL_RCC_OscConfig+0x168>
      ((__HAL_RCC_GET_SYSCLK_SOURCE() == RCC_CFGR_SWS_PLL) && ((RCC->PLLCFGR & RCC_PLLCFGR_PLLSRC) == RCC_PLLCFGR_PLLSRC_HSI)))
 800115a:	4b44      	ldr	r3, [pc, #272]	; (800126c <HAL_RCC_OscConfig+0x240>)
 800115c:	685b      	ldr	r3, [r3, #4]
 800115e:	f403 0380 	and.w	r3, r3, #4194304	; 0x400000
 8001162:	2b00      	cmp	r3, #0
 8001164:	d116      	bne.n	8001194 <HAL_RCC_OscConfig+0x168>
    {
      /* When HSI is used as system clock it will not disabled */
      if((__HAL_RCC_GET_FLAG(RCC_FLAG_HSIRDY) != RESET) && (RCC_OscInitStruct->HSIState != RCC_HSI_ON))
 8001166:	4b41      	ldr	r3, [pc, #260]	; (800126c <HAL_RCC_OscConfig+0x240>)
 8001168:	681b      	ldr	r3, [r3, #0]
 800116a:	f003 0302 	and.w	r3, r3, #2
 800116e:	2b00      	cmp	r3, #0
 8001170:	d005      	beq.n	800117e <HAL_RCC_OscConfig+0x152>
 8001172:	687b      	ldr	r3, [r7, #4]
 8001174:	68db      	ldr	r3, [r3, #12]
 8001176:	2b01      	cmp	r3, #1
 8001178:	d001      	beq.n	800117e <HAL_RCC_OscConfig+0x152>
      {
        return HAL_ERROR;
 800117a:	2301      	movs	r3, #1
 800117c:	e1c7      	b.n	800150e <HAL_RCC_OscConfig+0x4e2>
      }
      /* Otherwise, just the calibration is allowed */
      else
      {
        /* Adjusts the Internal High Speed oscillator (HSI) calibration value.*/
        __HAL_RCC_HSI_CALIBRATIONVALUE_ADJUST(RCC_OscInitStruct->HSICalibrationValue);
 800117e:	4b3b      	ldr	r3, [pc, #236]	; (800126c <HAL_RCC_OscConfig+0x240>)
 8001180:	681b      	ldr	r3, [r3, #0]
 8001182:	f023 02f8 	bic.w	r2, r3, #248	; 0xf8
 8001186:	687b      	ldr	r3, [r7, #4]
 8001188:	691b      	ldr	r3, [r3, #16]
 800118a:	00db      	lsls	r3, r3, #3
 800118c:	4937      	ldr	r1, [pc, #220]	; (800126c <HAL_RCC_OscConfig+0x240>)
 800118e:	4313      	orrs	r3, r2
 8001190:	600b      	str	r3, [r1, #0]
      if((__HAL_RCC_GET_FLAG(RCC_FLAG_HSIRDY) != RESET) && (RCC_OscInitStruct->HSIState != RCC_HSI_ON))
 8001192:	e03a      	b.n	800120a <HAL_RCC_OscConfig+0x1de>
      }
    }
    else
    {
      /* Check the HSI State */
      if((RCC_OscInitStruct->HSIState)!= RCC_HSI_OFF)
 8001194:	687b      	ldr	r3, [r7, #4]
 8001196:	68db      	ldr	r3, [r3, #12]
 8001198:	2b00      	cmp	r3, #0
 800119a:	d020      	beq.n	80011de <HAL_RCC_OscConfig+0x1b2>
      {
        /* Enable the Internal High Speed oscillator (HSI). */
        __HAL_RCC_HSI_ENABLE();
 800119c:	4b34      	ldr	r3, [pc, #208]	; (8001270 <HAL_RCC_OscConfig+0x244>)
 800119e:	2201      	movs	r2, #1
 80011a0:	601a      	str	r2, [r3, #0]

        /* Get Start Tick*/
        tickstart = HAL_GetTick();
 80011a2:	f7ff fc8b 	bl	8000abc <HAL_GetTick>
 80011a6:	6138      	str	r0, [r7, #16]

        /* Wait till HSI is ready */
        while(__HAL_RCC_GET_FLAG(RCC_FLAG_HSIRDY) == RESET)
 80011a8:	e008      	b.n	80011bc <HAL_RCC_OscConfig+0x190>
        {
          if((HAL_GetTick() - tickstart ) > HSI_TIMEOUT_VALUE)
 80011aa:	f7ff fc87 	bl	8000abc <HAL_GetTick>
 80011ae:	4602      	mov	r2, r0
 80011b0:	693b      	ldr	r3, [r7, #16]
 80011b2:	1ad3      	subs	r3, r2, r3
 80011b4:	2b02      	cmp	r3, #2
 80011b6:	d901      	bls.n	80011bc <HAL_RCC_OscConfig+0x190>
          {
            return HAL_TIMEOUT;
 80011b8:	2303      	movs	r3, #3
 80011ba:	e1a8      	b.n	800150e <HAL_RCC_OscConfig+0x4e2>
        while(__HAL_RCC_GET_FLAG(RCC_FLAG_HSIRDY) == RESET)
 80011bc:	4b2b      	ldr	r3, [pc, #172]	; (800126c <HAL_RCC_OscConfig+0x240>)
 80011be:	681b      	ldr	r3, [r3, #0]
 80011c0:	f003 0302 	and.w	r3, r3, #2
 80011c4:	2b00      	cmp	r3, #0
 80011c6:	d0f0      	beq.n	80011aa <HAL_RCC_OscConfig+0x17e>
          }
        }

        /* Adjusts the Internal High Speed oscillator (HSI) calibration value. */
        __HAL_RCC_HSI_CALIBRATIONVALUE_ADJUST(RCC_OscInitStruct->HSICalibrationValue);
 80011c8:	4b28      	ldr	r3, [pc, #160]	; (800126c <HAL_RCC_OscConfig+0x240>)
 80011ca:	681b      	ldr	r3, [r3, #0]
 80011cc:	f023 02f8 	bic.w	r2, r3, #248	; 0xf8
 80011d0:	687b      	ldr	r3, [r7, #4]
 80011d2:	691b      	ldr	r3, [r3, #16]
 80011d4:	00db      	lsls	r3, r3, #3
 80011d6:	4925      	ldr	r1, [pc, #148]	; (800126c <HAL_RCC_OscConfig+0x240>)
 80011d8:	4313      	orrs	r3, r2
 80011da:	600b      	str	r3, [r1, #0]
 80011dc:	e015      	b.n	800120a <HAL_RCC_OscConfig+0x1de>
      }
      else
      {
        /* Disable the Internal High Speed oscillator (HSI). */
        __HAL_RCC_HSI_DISABLE();
 80011de:	4b24      	ldr	r3, [pc, #144]	; (8001270 <HAL_RCC_OscConfig+0x244>)
 80011e0:	2200      	movs	r2, #0
 80011e2:	601a      	str	r2, [r3, #0]

        /* Get Start Tick*/
        tickstart = HAL_GetTick();
 80011e4:	f7ff fc6a 	bl	8000abc <HAL_GetTick>
 80011e8:	6138      	str	r0, [r7, #16]

        /* Wait till HSI is ready */
        while(__HAL_RCC_GET_FLAG(RCC_FLAG_HSIRDY) != RESET)
 80011ea:	e008      	b.n	80011fe <HAL_RCC_OscConfig+0x1d2>
        {
          if((HAL_GetTick() - tickstart ) > HSI_TIMEOUT_VALUE)
 80011ec:	f7ff fc66 	bl	8000abc <HAL_GetTick>
 80011f0:	4602      	mov	r2, r0
 80011f2:	693b      	ldr	r3, [r7, #16]
 80011f4:	1ad3      	subs	r3, r2, r3
 80011f6:	2b02      	cmp	r3, #2
 80011f8:	d901      	bls.n	80011fe <HAL_RCC_OscConfig+0x1d2>
          {
            return HAL_TIMEOUT;
 80011fa:	2303      	movs	r3, #3
 80011fc:	e187      	b.n	800150e <HAL_RCC_OscConfig+0x4e2>
        while(__HAL_RCC_GET_FLAG(RCC_FLAG_HSIRDY) != RESET)
 80011fe:	4b1b      	ldr	r3, [pc, #108]	; (800126c <HAL_RCC_OscConfig+0x240>)
 8001200:	681b      	ldr	r3, [r3, #0]
 8001202:	f003 0302 	and.w	r3, r3, #2
 8001206:	2b00      	cmp	r3, #0
 8001208:	d1f0      	bne.n	80011ec <HAL_RCC_OscConfig+0x1c0>
        }
      }
    }
  }
  /*------------------------------ LSI Configuration -------------------------*/
  if(((RCC_OscInitStruct->OscillatorType) & RCC_OSCILLATORTYPE_LSI) == RCC_OSCILLATORTYPE_LSI)
 800120a:	687b      	ldr	r3, [r7, #4]
 800120c:	681b      	ldr	r3, [r3, #0]
 800120e:	f003 0308 	and.w	r3, r3, #8
 8001212:	2b00      	cmp	r3, #0
 8001214:	d036      	beq.n	8001284 <HAL_RCC_OscConfig+0x258>
  {
    /* Check the parameters */
    assert_param(IS_RCC_LSI(RCC_OscInitStruct->LSIState));

    /* Check the LSI State */
    if((RCC_OscInitStruct->LSIState)!= RCC_LSI_OFF)
 8001216:	687b      	ldr	r3, [r7, #4]
 8001218:	695b      	ldr	r3, [r3, #20]
 800121a:	2b00      	cmp	r3, #0
 800121c:	d016      	beq.n	800124c <HAL_RCC_OscConfig+0x220>
    {
      /* Enable the Internal Low Speed oscillator (LSI). */
      __HAL_RCC_LSI_ENABLE();
 800121e:	4b15      	ldr	r3, [pc, #84]	; (8001274 <HAL_RCC_OscConfig+0x248>)
 8001220:	2201      	movs	r2, #1
 8001222:	601a      	str	r2, [r3, #0]

      /* Get Start Tick*/
      tickstart = HAL_GetTick();
 8001224:	f7ff fc4a 	bl	8000abc <HAL_GetTick>
 8001228:	6138      	str	r0, [r7, #16]

      /* Wait till LSI is ready */
      while(__HAL_RCC_GET_FLAG(RCC_FLAG_LSIRDY) == RESET)
 800122a:	e008      	b.n	800123e <HAL_RCC_OscConfig+0x212>
      {
        if((HAL_GetTick() - tickstart ) > LSI_TIMEOUT_VALUE)
 800122c:	f7ff fc46 	bl	8000abc <HAL_GetTick>
 8001230:	4602      	mov	r2, r0
 8001232:	693b      	ldr	r3, [r7, #16]
 8001234:	1ad3      	subs	r3, r2, r3
 8001236:	2b02      	cmp	r3, #2
 8001238:	d901      	bls.n	800123e <HAL_RCC_OscConfig+0x212>
        {
          return HAL_TIMEOUT;
 800123a:	2303      	movs	r3, #3
 800123c:	e167      	b.n	800150e <HAL_RCC_OscConfig+0x4e2>
      while(__HAL_RCC_GET_FLAG(RCC_FLAG_LSIRDY) == RESET)
 800123e:	4b0b      	ldr	r3, [pc, #44]	; (800126c <HAL_RCC_OscConfig+0x240>)
 8001240:	6f5b      	ldr	r3, [r3, #116]	; 0x74
 8001242:	f003 0302 	and.w	r3, r3, #2
 8001246:	2b00      	cmp	r3, #0
 8001248:	d0f0      	beq.n	800122c <HAL_RCC_OscConfig+0x200>
 800124a:	e01b      	b.n	8001284 <HAL_RCC_OscConfig+0x258>
      }
    }
    else
    {
      /* Disable the Internal Low Speed oscillator (LSI). */
      __HAL_RCC_LSI_DISABLE();
 800124c:	4b09      	ldr	r3, [pc, #36]	; (8001274 <HAL_RCC_OscConfig+0x248>)
 800124e:	2200      	movs	r2, #0
 8001250:	601a      	str	r2, [r3, #0]

      /* Get Start Tick */
      tickstart = HAL_GetTick();
 8001252:	f7ff fc33 	bl	8000abc <HAL_GetTick>
 8001256:	6138      	str	r0, [r7, #16]

      /* Wait till LSI is ready */
      while(__HAL_RCC_GET_FLAG(RCC_FLAG_LSIRDY) != RESET)
 8001258:	e00e      	b.n	8001278 <HAL_RCC_OscConfig+0x24c>
      {
        if((HAL_GetTick() - tickstart ) > LSI_TIMEOUT_VALUE)
 800125a:	f7ff fc2f 	bl	8000abc <HAL_GetTick>
 800125e:	4602      	mov	r2, r0
 8001260:	693b      	ldr	r3, [r7, #16]
 8001262:	1ad3      	subs	r3, r2, r3
 8001264:	2b02      	cmp	r3, #2
 8001266:	d907      	bls.n	8001278 <HAL_RCC_OscConfig+0x24c>
        {
          return HAL_TIMEOUT;
 8001268:	2303      	movs	r3, #3
 800126a:	e150      	b.n	800150e <HAL_RCC_OscConfig+0x4e2>
 800126c:	40023800 	.word	0x40023800
 8001270:	42470000 	.word	0x42470000
 8001274:	42470e80 	.word	0x42470e80
      while(__HAL_RCC_GET_FLAG(RCC_FLAG_LSIRDY) != RESET)
 8001278:	4b88      	ldr	r3, [pc, #544]	; (800149c <HAL_RCC_OscConfig+0x470>)
 800127a:	6f5b      	ldr	r3, [r3, #116]	; 0x74
 800127c:	f003 0302 	and.w	r3, r3, #2
 8001280:	2b00      	cmp	r3, #0
 8001282:	d1ea      	bne.n	800125a <HAL_RCC_OscConfig+0x22e>
        }
      }
    }
  }
  /*------------------------------ LSE Configuration -------------------------*/
  if(((RCC_OscInitStruct->OscillatorType) & RCC_OSCILLATORTYPE_LSE) == RCC_OSCILLATORTYPE_LSE)
 8001284:	687b      	ldr	r3, [r7, #4]
 8001286:	681b      	ldr	r3, [r3, #0]
 8001288:	f003 0304 	and.w	r3, r3, #4
 800128c:	2b00      	cmp	r3, #0
 800128e:	f000 8097 	beq.w	80013c0 <HAL_RCC_OscConfig+0x394>
  {
    FlagStatus       pwrclkchanged = RESET;
 8001292:	2300      	movs	r3, #0
 8001294:	75fb      	strb	r3, [r7, #23]
    /* Check the parameters */
    assert_param(IS_RCC_LSE(RCC_OscInitStruct->LSEState));

    /* Update LSE configuration in Backup Domain control register    */
    /* Requires to enable write access to Backup Domain of necessary */
    if(__HAL_RCC_PWR_IS_CLK_DISABLED())
 8001296:	4b81      	ldr	r3, [pc, #516]	; (800149c <HAL_RCC_OscConfig+0x470>)
 8001298:	6c1b      	ldr	r3, [r3, #64]	; 0x40
 800129a:	f003 5380 	and.w	r3, r3, #268435456	; 0x10000000
 800129e:	2b00      	cmp	r3, #0
 80012a0:	d10f      	bne.n	80012c2 <HAL_RCC_OscConfig+0x296>
    {
      __HAL_RCC_PWR_CLK_ENABLE();
 80012a2:	2300      	movs	r3, #0
 80012a4:	60bb      	str	r3, [r7, #8]
 80012a6:	4b7d      	ldr	r3, [pc, #500]	; (800149c <HAL_RCC_OscConfig+0x470>)
 80012a8:	6c1b      	ldr	r3, [r3, #64]	; 0x40
 80012aa:	4a7c      	ldr	r2, [pc, #496]	; (800149c <HAL_RCC_OscConfig+0x470>)
 80012ac:	f043 5380 	orr.w	r3, r3, #268435456	; 0x10000000
 80012b0:	6413      	str	r3, [r2, #64]	; 0x40
 80012b2:	4b7a      	ldr	r3, [pc, #488]	; (800149c <HAL_RCC_OscConfig+0x470>)
 80012b4:	6c1b      	ldr	r3, [r3, #64]	; 0x40
 80012b6:	f003 5380 	and.w	r3, r3, #268435456	; 0x10000000
 80012ba:	60bb      	str	r3, [r7, #8]
 80012bc:	68bb      	ldr	r3, [r7, #8]
      pwrclkchanged = SET;
 80012be:	2301      	movs	r3, #1
 80012c0:	75fb      	strb	r3, [r7, #23]
    }

    if(HAL_IS_BIT_CLR(PWR->CR, PWR_CR_DBP))
 80012c2:	4b77      	ldr	r3, [pc, #476]	; (80014a0 <HAL_RCC_OscConfig+0x474>)
 80012c4:	681b      	ldr	r3, [r3, #0]
 80012c6:	f403 7380 	and.w	r3, r3, #256	; 0x100
 80012ca:	2b00      	cmp	r3, #0
 80012cc:	d118      	bne.n	8001300 <HAL_RCC_OscConfig+0x2d4>
    {
      /* Enable write access to Backup domain */
      SET_BIT(PWR->CR, PWR_CR_DBP);
 80012ce:	4b74      	ldr	r3, [pc, #464]	; (80014a0 <HAL_RCC_OscConfig+0x474>)
 80012d0:	681b      	ldr	r3, [r3, #0]
 80012d2:	4a73      	ldr	r2, [pc, #460]	; (80014a0 <HAL_RCC_OscConfig+0x474>)
 80012d4:	f443 7380 	orr.w	r3, r3, #256	; 0x100
 80012d8:	6013      	str	r3, [r2, #0]

      /* Wait for Backup domain Write protection disable */
      tickstart = HAL_GetTick();
 80012da:	f7ff fbef 	bl	8000abc <HAL_GetTick>
 80012de:	6138      	str	r0, [r7, #16]

      while(HAL_IS_BIT_CLR(PWR->CR, PWR_CR_DBP))
 80012e0:	e008      	b.n	80012f4 <HAL_RCC_OscConfig+0x2c8>
      {
        if((HAL_GetTick() - tickstart) > RCC_DBP_TIMEOUT_VALUE)
 80012e2:	f7ff fbeb 	bl	8000abc <HAL_GetTick>
 80012e6:	4602      	mov	r2, r0
 80012e8:	693b      	ldr	r3, [r7, #16]
 80012ea:	1ad3      	subs	r3, r2, r3
 80012ec:	2b02      	cmp	r3, #2
 80012ee:	d901      	bls.n	80012f4 <HAL_RCC_OscConfig+0x2c8>
        {
          return HAL_TIMEOUT;
 80012f0:	2303      	movs	r3, #3
 80012f2:	e10c      	b.n	800150e <HAL_RCC_OscConfig+0x4e2>
      while(HAL_IS_BIT_CLR(PWR->CR, PWR_CR_DBP))
 80012f4:	4b6a      	ldr	r3, [pc, #424]	; (80014a0 <HAL_RCC_OscConfig+0x474>)
 80012f6:	681b      	ldr	r3, [r3, #0]
 80012f8:	f403 7380 	and.w	r3, r3, #256	; 0x100
 80012fc:	2b00      	cmp	r3, #0
 80012fe:	d0f0      	beq.n	80012e2 <HAL_RCC_OscConfig+0x2b6>
        }
      }
    }

    /* Set the new LSE configuration -----------------------------------------*/
    __HAL_RCC_LSE_CONFIG(RCC_OscInitStruct->LSEState);
 8001300:	687b      	ldr	r3, [r7, #4]
 8001302:	689b      	ldr	r3, [r3, #8]
 8001304:	2b01      	cmp	r3, #1
 8001306:	d106      	bne.n	8001316 <HAL_RCC_OscConfig+0x2ea>
 8001308:	4b64      	ldr	r3, [pc, #400]	; (800149c <HAL_RCC_OscConfig+0x470>)
 800130a:	6f1b      	ldr	r3, [r3, #112]	; 0x70
 800130c:	4a63      	ldr	r2, [pc, #396]	; (800149c <HAL_RCC_OscConfig+0x470>)
 800130e:	f043 0301 	orr.w	r3, r3, #1
 8001312:	6713      	str	r3, [r2, #112]	; 0x70
 8001314:	e01c      	b.n	8001350 <HAL_RCC_OscConfig+0x324>
 8001316:	687b      	ldr	r3, [r7, #4]
 8001318:	689b      	ldr	r3, [r3, #8]
 800131a:	2b05      	cmp	r3, #5
 800131c:	d10c      	bne.n	8001338 <HAL_RCC_OscConfig+0x30c>
 800131e:	4b5f      	ldr	r3, [pc, #380]	; (800149c <HAL_RCC_OscConfig+0x470>)
 8001320:	6f1b      	ldr	r3, [r3, #112]	; 0x70
 8001322:	4a5e      	ldr	r2, [pc, #376]	; (800149c <HAL_RCC_OscConfig+0x470>)
 8001324:	f043 0304 	orr.w	r3, r3, #4
 8001328:	6713      	str	r3, [r2, #112]	; 0x70
 800132a:	4b5c      	ldr	r3, [pc, #368]	; (800149c <HAL_RCC_OscConfig+0x470>)
 800132c:	6f1b      	ldr	r3, [r3, #112]	; 0x70
 800132e:	4a5b      	ldr	r2, [pc, #364]	; (800149c <HAL_RCC_OscConfig+0x470>)
 8001330:	f043 0301 	orr.w	r3, r3, #1
 8001334:	6713      	str	r3, [r2, #112]	; 0x70
 8001336:	e00b      	b.n	8001350 <HAL_RCC_OscConfig+0x324>
 8001338:	4b58      	ldr	r3, [pc, #352]	; (800149c <HAL_RCC_OscConfig+0x470>)
 800133a:	6f1b      	ldr	r3, [r3, #112]	; 0x70
 800133c:	4a57      	ldr	r2, [pc, #348]	; (800149c <HAL_RCC_OscConfig+0x470>)
 800133e:	f023 0301 	bic.w	r3, r3, #1
 8001342:	6713      	str	r3, [r2, #112]	; 0x70
 8001344:	4b55      	ldr	r3, [pc, #340]	; (800149c <HAL_RCC_OscConfig+0x470>)
 8001346:	6f1b      	ldr	r3, [r3, #112]	; 0x70
 8001348:	4a54      	ldr	r2, [pc, #336]	; (800149c <HAL_RCC_OscConfig+0x470>)
 800134a:	f023 0304 	bic.w	r3, r3, #4
 800134e:	6713      	str	r3, [r2, #112]	; 0x70
    /* Check the LSE State */
    if((RCC_OscInitStruct->LSEState) != RCC_LSE_OFF)
 8001350:	687b      	ldr	r3, [r7, #4]
 8001352:	689b      	ldr	r3, [r3, #8]
 8001354:	2b00      	cmp	r3, #0
 8001356:	d015      	beq.n	8001384 <HAL_RCC_OscConfig+0x358>
    {
      /* Get Start Tick*/
      tickstart = HAL_GetTick();
 8001358:	f7ff fbb0 	bl	8000abc <HAL_GetTick>
 800135c:	6138      	str	r0, [r7, #16]

      /* Wait till LSE is ready */
      while(__HAL_RCC_GET_FLAG(RCC_FLAG_LSERDY) == RESET)
 800135e:	e00a      	b.n	8001376 <HAL_RCC_OscConfig+0x34a>
      {
        if((HAL_GetTick() - tickstart ) > RCC_LSE_TIMEOUT_VALUE)
 8001360:	f7ff fbac 	bl	8000abc <HAL_GetTick>
 8001364:	4602      	mov	r2, r0
 8001366:	693b      	ldr	r3, [r7, #16]
 8001368:	1ad3      	subs	r3, r2, r3
 800136a:	f241 3288 	movw	r2, #5000	; 0x1388
 800136e:	4293      	cmp	r3, r2
 8001370:	d901      	bls.n	8001376 <HAL_RCC_OscConfig+0x34a>
        {
          return HAL_TIMEOUT;
 8001372:	2303      	movs	r3, #3
 8001374:	e0cb      	b.n	800150e <HAL_RCC_OscConfig+0x4e2>
      while(__HAL_RCC_GET_FLAG(RCC_FLAG_LSERDY) == RESET)
 8001376:	4b49      	ldr	r3, [pc, #292]	; (800149c <HAL_RCC_OscConfig+0x470>)
 8001378:	6f1b      	ldr	r3, [r3, #112]	; 0x70
 800137a:	f003 0302 	and.w	r3, r3, #2
 800137e:	2b00      	cmp	r3, #0
 8001380:	d0ee      	beq.n	8001360 <HAL_RCC_OscConfig+0x334>
 8001382:	e014      	b.n	80013ae <HAL_RCC_OscConfig+0x382>
      }
    }
    else
    {
      /* Get Start Tick */
      tickstart = HAL_GetTick();
 8001384:	f7ff fb9a 	bl	8000abc <HAL_GetTick>
 8001388:	6138      	str	r0, [r7, #16]

      /* Wait till LSE is ready */
      while(__HAL_RCC_GET_FLAG(RCC_FLAG_LSERDY) != RESET)
 800138a:	e00a      	b.n	80013a2 <HAL_RCC_OscConfig+0x376>
      {
        if((HAL_GetTick() - tickstart ) > RCC_LSE_TIMEOUT_VALUE)
 800138c:	f7ff fb96 	bl	8000abc <HAL_GetTick>
 8001390:	4602      	mov	r2, r0
 8001392:	693b      	ldr	r3, [r7, #16]
 8001394:	1ad3      	subs	r3, r2, r3
 8001396:	f241 3288 	movw	r2, #5000	; 0x1388
 800139a:	4293      	cmp	r3, r2
 800139c:	d901      	bls.n	80013a2 <HAL_RCC_OscConfig+0x376>
        {
          return HAL_TIMEOUT;
 800139e:	2303      	movs	r3, #3
 80013a0:	e0b5      	b.n	800150e <HAL_RCC_OscConfig+0x4e2>
      while(__HAL_RCC_GET_FLAG(RCC_FLAG_LSERDY) != RESET)
 80013a2:	4b3e      	ldr	r3, [pc, #248]	; (800149c <HAL_RCC_OscConfig+0x470>)
 80013a4:	6f1b      	ldr	r3, [r3, #112]	; 0x70
 80013a6:	f003 0302 	and.w	r3, r3, #2
 80013aa:	2b00      	cmp	r3, #0
 80013ac:	d1ee      	bne.n	800138c <HAL_RCC_OscConfig+0x360>
        }
      }
    }

    /* Restore clock configuration if changed */
    if(pwrclkchanged == SET)
 80013ae:	7dfb      	ldrb	r3, [r7, #23]
 80013b0:	2b01      	cmp	r3, #1
 80013b2:	d105      	bne.n	80013c0 <HAL_RCC_OscConfig+0x394>
    {
      __HAL_RCC_PWR_CLK_DISABLE();
 80013b4:	4b39      	ldr	r3, [pc, #228]	; (800149c <HAL_RCC_OscConfig+0x470>)
 80013b6:	6c1b      	ldr	r3, [r3, #64]	; 0x40
 80013b8:	4a38      	ldr	r2, [pc, #224]	; (800149c <HAL_RCC_OscConfig+0x470>)
 80013ba:	f023 5380 	bic.w	r3, r3, #268435456	; 0x10000000
 80013be:	6413      	str	r3, [r2, #64]	; 0x40
    }
  }
  /*-------------------------------- PLL Configuration -----------------------*/
  /* Check the parameters */
  assert_param(IS_RCC_PLL(RCC_OscInitStruct->PLL.PLLState));
  if ((RCC_OscInitStruct->PLL.PLLState) != RCC_PLL_NONE)
 80013c0:	687b      	ldr	r3, [r7, #4]
 80013c2:	699b      	ldr	r3, [r3, #24]
 80013c4:	2b00      	cmp	r3, #0
 80013c6:	f000 80a1 	beq.w	800150c <HAL_RCC_OscConfig+0x4e0>
  {
    /* Check if the PLL is used as system clock or not */
    if(__HAL_RCC_GET_SYSCLK_SOURCE() != RCC_CFGR_SWS_PLL)
 80013ca:	4b34      	ldr	r3, [pc, #208]	; (800149c <HAL_RCC_OscConfig+0x470>)
 80013cc:	689b      	ldr	r3, [r3, #8]
 80013ce:	f003 030c 	and.w	r3, r3, #12
 80013d2:	2b08      	cmp	r3, #8
 80013d4:	d05c      	beq.n	8001490 <HAL_RCC_OscConfig+0x464>
    {
      if((RCC_OscInitStruct->PLL.PLLState) == RCC_PLL_ON)
 80013d6:	687b      	ldr	r3, [r7, #4]
 80013d8:	699b      	ldr	r3, [r3, #24]
 80013da:	2b02      	cmp	r3, #2
 80013dc:	d141      	bne.n	8001462 <HAL_RCC_OscConfig+0x436>
        assert_param(IS_RCC_PLLN_VALUE(RCC_OscInitStruct->PLL.PLLN));
        assert_param(IS_RCC_PLLP_VALUE(RCC_OscInitStruct->PLL.PLLP));
        assert_param(IS_RCC_PLLQ_VALUE(RCC_OscInitStruct->PLL.PLLQ));

        /* Disable the main PLL. */
        __HAL_RCC_PLL_DISABLE();
 80013de:	4b31      	ldr	r3, [pc, #196]	; (80014a4 <HAL_RCC_OscConfig+0x478>)
 80013e0:	2200      	movs	r2, #0
 80013e2:	601a      	str	r2, [r3, #0]

        /* Get Start Tick */
        tickstart = HAL_GetTick();
 80013e4:	f7ff fb6a 	bl	8000abc <HAL_GetTick>
 80013e8:	6138      	str	r0, [r7, #16]

        /* Wait till PLL is ready */
        while(__HAL_RCC_GET_FLAG(RCC_FLAG_PLLRDY) != RESET)
 80013ea:	e008      	b.n	80013fe <HAL_RCC_OscConfig+0x3d2>
        {
          if((HAL_GetTick() - tickstart ) > PLL_TIMEOUT_VALUE)
 80013ec:	f7ff fb66 	bl	8000abc <HAL_GetTick>
 80013f0:	4602      	mov	r2, r0
 80013f2:	693b      	ldr	r3, [r7, #16]
 80013f4:	1ad3      	subs	r3, r2, r3
 80013f6:	2b02      	cmp	r3, #2
 80013f8:	d901      	bls.n	80013fe <HAL_RCC_OscConfig+0x3d2>
          {
            return HAL_TIMEOUT;
 80013fa:	2303      	movs	r3, #3
 80013fc:	e087      	b.n	800150e <HAL_RCC_OscConfig+0x4e2>
        while(__HAL_RCC_GET_FLAG(RCC_FLAG_PLLRDY) != RESET)
 80013fe:	4b27      	ldr	r3, [pc, #156]	; (800149c <HAL_RCC_OscConfig+0x470>)
 8001400:	681b      	ldr	r3, [r3, #0]
 8001402:	f003 7300 	and.w	r3, r3, #33554432	; 0x2000000
 8001406:	2b00      	cmp	r3, #0
 8001408:	d1f0      	bne.n	80013ec <HAL_RCC_OscConfig+0x3c0>
          }
        }

        /* Configure the main PLL clock source, multiplication and division factors. */
        WRITE_REG(RCC->PLLCFGR, (RCC_OscInitStruct->PLL.PLLSource                                            | \
 800140a:	687b      	ldr	r3, [r7, #4]
 800140c:	69da      	ldr	r2, [r3, #28]
 800140e:	687b      	ldr	r3, [r7, #4]
 8001410:	6a1b      	ldr	r3, [r3, #32]
 8001412:	431a      	orrs	r2, r3
 8001414:	687b      	ldr	r3, [r7, #4]
 8001416:	6a5b      	ldr	r3, [r3, #36]	; 0x24
 8001418:	019b      	lsls	r3, r3, #6
 800141a:	431a      	orrs	r2, r3
 800141c:	687b      	ldr	r3, [r7, #4]
 800141e:	6a9b      	ldr	r3, [r3, #40]	; 0x28
 8001420:	085b      	lsrs	r3, r3, #1
 8001422:	3b01      	subs	r3, #1
 8001424:	041b      	lsls	r3, r3, #16
 8001426:	431a      	orrs	r2, r3
 8001428:	687b      	ldr	r3, [r7, #4]
 800142a:	6adb      	ldr	r3, [r3, #44]	; 0x2c
 800142c:	061b      	lsls	r3, r3, #24
 800142e:	491b      	ldr	r1, [pc, #108]	; (800149c <HAL_RCC_OscConfig+0x470>)
 8001430:	4313      	orrs	r3, r2
 8001432:	604b      	str	r3, [r1, #4]
                                 RCC_OscInitStruct->PLL.PLLM                                                 | \
                                 (RCC_OscInitStruct->PLL.PLLN << RCC_PLLCFGR_PLLN_Pos)             | \
                                 (((RCC_OscInitStruct->PLL.PLLP >> 1U) - 1U) << RCC_PLLCFGR_PLLP_Pos) | \
                                 (RCC_OscInitStruct->PLL.PLLQ << RCC_PLLCFGR_PLLQ_Pos)));
        /* Enable the main PLL. */
        __HAL_RCC_PLL_ENABLE();
 8001434:	4b1b      	ldr	r3, [pc, #108]	; (80014a4 <HAL_RCC_OscConfig+0x478>)
 8001436:	2201      	movs	r2, #1
 8001438:	601a      	str	r2, [r3, #0]

        /* Get Start Tick */
        tickstart = HAL_GetTick();
 800143a:	f7ff fb3f 	bl	8000abc <HAL_GetTick>
 800143e:	6138      	str	r0, [r7, #16]

        /* Wait till PLL is ready */
        while(__HAL_RCC_GET_FLAG(RCC_FLAG_PLLRDY) == RESET)
 8001440:	e008      	b.n	8001454 <HAL_RCC_OscConfig+0x428>
        {
          if((HAL_GetTick() - tickstart ) > PLL_TIMEOUT_VALUE)
 8001442:	f7ff fb3b 	bl	8000abc <HAL_GetTick>
 8001446:	4602      	mov	r2, r0
 8001448:	693b      	ldr	r3, [r7, #16]
 800144a:	1ad3      	subs	r3, r2, r3
 800144c:	2b02      	cmp	r3, #2
 800144e:	d901      	bls.n	8001454 <HAL_RCC_OscConfig+0x428>
          {
            return HAL_TIMEOUT;
 8001450:	2303      	movs	r3, #3
 8001452:	e05c      	b.n	800150e <HAL_RCC_OscConfig+0x4e2>
        while(__HAL_RCC_GET_FLAG(RCC_FLAG_PLLRDY) == RESET)
 8001454:	4b11      	ldr	r3, [pc, #68]	; (800149c <HAL_RCC_OscConfig+0x470>)
 8001456:	681b      	ldr	r3, [r3, #0]
 8001458:	f003 7300 	and.w	r3, r3, #33554432	; 0x2000000
 800145c:	2b00      	cmp	r3, #0
 800145e:	d0f0      	beq.n	8001442 <HAL_RCC_OscConfig+0x416>
 8001460:	e054      	b.n	800150c <HAL_RCC_OscConfig+0x4e0>
        }
      }
      else
      {
        /* Disable the main PLL. */
        __HAL_RCC_PLL_DISABLE();
 8001462:	4b10      	ldr	r3, [pc, #64]	; (80014a4 <HAL_RCC_OscConfig+0x478>)
 8001464:	2200      	movs	r2, #0
 8001466:	601a      	str	r2, [r3, #0]

        /* Get Start Tick */
        tickstart = HAL_GetTick();
 8001468:	f7ff fb28 	bl	8000abc <HAL_GetTick>
 800146c:	6138      	str	r0, [r7, #16]

        /* Wait till PLL is ready */
        while(__HAL_RCC_GET_FLAG(RCC_FLAG_PLLRDY) != RESET)
 800146e:	e008      	b.n	8001482 <HAL_RCC_OscConfig+0x456>
        {
          if((HAL_GetTick() - tickstart ) > PLL_TIMEOUT_VALUE)
 8001470:	f7ff fb24 	bl	8000abc <HAL_GetTick>
 8001474:	4602      	mov	r2, r0
 8001476:	693b      	ldr	r3, [r7, #16]
 8001478:	1ad3      	subs	r3, r2, r3
 800147a:	2b02      	cmp	r3, #2
 800147c:	d901      	bls.n	8001482 <HAL_RCC_OscConfig+0x456>
          {
            return HAL_TIMEOUT;
 800147e:	2303      	movs	r3, #3
 8001480:	e045      	b.n	800150e <HAL_RCC_OscConfig+0x4e2>
        while(__HAL_RCC_GET_FLAG(RCC_FLAG_PLLRDY) != RESET)
 8001482:	4b06      	ldr	r3, [pc, #24]	; (800149c <HAL_RCC_OscConfig+0x470>)
 8001484:	681b      	ldr	r3, [r3, #0]
 8001486:	f003 7300 	and.w	r3, r3, #33554432	; 0x2000000
 800148a:	2b00      	cmp	r3, #0
 800148c:	d1f0      	bne.n	8001470 <HAL_RCC_OscConfig+0x444>
 800148e:	e03d      	b.n	800150c <HAL_RCC_OscConfig+0x4e0>
      }
    }
    else
    {
      /* Check if there is a request to disable the PLL used as System clock source */
      if((RCC_OscInitStruct->PLL.PLLState) == RCC_PLL_OFF)
 8001490:	687b      	ldr	r3, [r7, #4]
 8001492:	699b      	ldr	r3, [r3, #24]
 8001494:	2b01      	cmp	r3, #1
 8001496:	d107      	bne.n	80014a8 <HAL_RCC_OscConfig+0x47c>
      {
        return HAL_ERROR;
 8001498:	2301      	movs	r3, #1
 800149a:	e038      	b.n	800150e <HAL_RCC_OscConfig+0x4e2>
 800149c:	40023800 	.word	0x40023800
 80014a0:	40007000 	.word	0x40007000
 80014a4:	42470060 	.word	0x42470060
      }
      else
      {
        /* Do not return HAL_ERROR if request repeats the current configuration */
        pll_config = RCC->PLLCFGR;
 80014a8:	4b1b      	ldr	r3, [pc, #108]	; (8001518 <HAL_RCC_OscConfig+0x4ec>)
 80014aa:	685b      	ldr	r3, [r3, #4]
 80014ac:	60fb      	str	r3, [r7, #12]
            (READ_BIT(pll_config, RCC_PLLCFGR_PLLN) != (RCC_OscInitStruct->PLL.PLLN) << RCC_PLLCFGR_PLLN_Pos) ||
            (READ_BIT(pll_config, RCC_PLLCFGR_PLLP) != (((RCC_OscInitStruct->PLL.PLLP >> 1U) - 1U)) << RCC_PLLCFGR_PLLP_Pos) ||
            (READ_BIT(pll_config, RCC_PLLCFGR_PLLQ) != (RCC_OscInitStruct->PLL.PLLQ << RCC_PLLCFGR_PLLQ_Pos)) ||
            (READ_BIT(pll_config, RCC_PLLCFGR_PLLR) != (RCC_OscInitStruct->PLL.PLLR << RCC_PLLCFGR_PLLR_Pos)))
#else
        if (((RCC_OscInitStruct->PLL.PLLState) == RCC_PLL_OFF) ||
 80014ae:	687b      	ldr	r3, [r7, #4]
 80014b0:	699b      	ldr	r3, [r3, #24]
 80014b2:	2b01      	cmp	r3, #1
 80014b4:	d028      	beq.n	8001508 <HAL_RCC_OscConfig+0x4dc>
            (READ_BIT(pll_config, RCC_PLLCFGR_PLLSRC) != RCC_OscInitStruct->PLL.PLLSource) ||
 80014b6:	68fb      	ldr	r3, [r7, #12]
 80014b8:	f403 0280 	and.w	r2, r3, #4194304	; 0x400000
 80014bc:	687b      	ldr	r3, [r7, #4]
 80014be:	69db      	ldr	r3, [r3, #28]
        if (((RCC_OscInitStruct->PLL.PLLState) == RCC_PLL_OFF) ||
 80014c0:	429a      	cmp	r2, r3
 80014c2:	d121      	bne.n	8001508 <HAL_RCC_OscConfig+0x4dc>
            (READ_BIT(pll_config, RCC_PLLCFGR_PLLM) != (RCC_OscInitStruct->PLL.PLLM) << RCC_PLLCFGR_PLLM_Pos) ||
 80014c4:	68fb      	ldr	r3, [r7, #12]
 80014c6:	f003 023f 	and.w	r2, r3, #63	; 0x3f
 80014ca:	687b      	ldr	r3, [r7, #4]
 80014cc:	6a1b      	ldr	r3, [r3, #32]
            (READ_BIT(pll_config, RCC_PLLCFGR_PLLSRC) != RCC_OscInitStruct->PLL.PLLSource) ||
 80014ce:	429a      	cmp	r2, r3
 80014d0:	d11a      	bne.n	8001508 <HAL_RCC_OscConfig+0x4dc>
            (READ_BIT(pll_config, RCC_PLLCFGR_PLLN) != (RCC_OscInitStruct->PLL.PLLN) << RCC_PLLCFGR_PLLN_Pos) ||
 80014d2:	68fa      	ldr	r2, [r7, #12]
 80014d4:	f647 73c0 	movw	r3, #32704	; 0x7fc0
 80014d8:	4013      	ands	r3, r2
 80014da:	687a      	ldr	r2, [r7, #4]
 80014dc:	6a52      	ldr	r2, [r2, #36]	; 0x24
 80014de:	0192      	lsls	r2, r2, #6
            (READ_BIT(pll_config, RCC_PLLCFGR_PLLM) != (RCC_OscInitStruct->PLL.PLLM) << RCC_PLLCFGR_PLLM_Pos) ||
 80014e0:	4293      	cmp	r3, r2
 80014e2:	d111      	bne.n	8001508 <HAL_RCC_OscConfig+0x4dc>
            (READ_BIT(pll_config, RCC_PLLCFGR_PLLP) != (((RCC_OscInitStruct->PLL.PLLP >> 1U) - 1U)) << RCC_PLLCFGR_PLLP_Pos) ||
 80014e4:	68fb      	ldr	r3, [r7, #12]
 80014e6:	f403 3240 	and.w	r2, r3, #196608	; 0x30000
 80014ea:	687b      	ldr	r3, [r7, #4]
 80014ec:	6a9b      	ldr	r3, [r3, #40]	; 0x28
 80014ee:	085b      	lsrs	r3, r3, #1
 80014f0:	3b01      	subs	r3, #1
 80014f2:	041b      	lsls	r3, r3, #16
            (READ_BIT(pll_config, RCC_PLLCFGR_PLLN) != (RCC_OscInitStruct->PLL.PLLN) << RCC_PLLCFGR_PLLN_Pos) ||
 80014f4:	429a      	cmp	r2, r3
 80014f6:	d107      	bne.n	8001508 <HAL_RCC_OscConfig+0x4dc>
            (READ_BIT(pll_config, RCC_PLLCFGR_PLLQ) != (RCC_OscInitStruct->PLL.PLLQ << RCC_PLLCFGR_PLLQ_Pos)))
 80014f8:	68fb      	ldr	r3, [r7, #12]
 80014fa:	f003 6270 	and.w	r2, r3, #251658240	; 0xf000000
 80014fe:	687b      	ldr	r3, [r7, #4]
 8001500:	6adb      	ldr	r3, [r3, #44]	; 0x2c
 8001502:	061b      	lsls	r3, r3, #24
            (READ_BIT(pll_config, RCC_PLLCFGR_PLLP) != (((RCC_OscInitStruct->PLL.PLLP >> 1U) - 1U)) << RCC_PLLCFGR_PLLP_Pos) ||
 8001504:	429a      	cmp	r2, r3
 8001506:	d001      	beq.n	800150c <HAL_RCC_OscConfig+0x4e0>
#endif
        {
          return HAL_ERROR;
 8001508:	2301      	movs	r3, #1
 800150a:	e000      	b.n	800150e <HAL_RCC_OscConfig+0x4e2>
        }
      }
    }
  }
  return HAL_OK;
 800150c:	2300      	movs	r3, #0
}
 800150e:	4618      	mov	r0, r3
 8001510:	3718      	adds	r7, #24
 8001512:	46bd      	mov	sp, r7
 8001514:	bd80      	pop	{r7, pc}
 8001516:	bf00      	nop
 8001518:	40023800 	.word	0x40023800

0800151c <HAL_RCC_ClockConfig>:
  *         HPRE[3:0] bits to ensure that HCLK not exceed the maximum allowed frequency
  *         (for more details refer to section above "Initialization/de-initialization functions")
  * @retval None
  */
HAL_StatusTypeDef HAL_RCC_ClockConfig(RCC_ClkInitTypeDef  *RCC_ClkInitStruct, uint32_t FLatency)
{
 800151c:	b580      	push	{r7, lr}
 800151e:	b084      	sub	sp, #16
 8001520:	af00      	add	r7, sp, #0
 8001522:	6078      	str	r0, [r7, #4]
 8001524:	6039      	str	r1, [r7, #0]
  uint32_t tickstart;

  /* Check Null pointer */
  if(RCC_ClkInitStruct == NULL)
 8001526:	687b      	ldr	r3, [r7, #4]
 8001528:	2b00      	cmp	r3, #0
 800152a:	d101      	bne.n	8001530 <HAL_RCC_ClockConfig+0x14>
  {
    return HAL_ERROR;
 800152c:	2301      	movs	r3, #1
 800152e:	e0cc      	b.n	80016ca <HAL_RCC_ClockConfig+0x1ae>
  /* To correctly read data from FLASH memory, the number of wait states (LATENCY)
    must be correctly programmed according to the frequency of the CPU clock
    (HCLK) and the supply voltage of the device. */

  /* Increasing the number of wait states because of higher CPU frequency */
  if(FLatency > __HAL_FLASH_GET_LATENCY())
 8001530:	4b68      	ldr	r3, [pc, #416]	; (80016d4 <HAL_RCC_ClockConfig+0x1b8>)
 8001532:	681b      	ldr	r3, [r3, #0]
 8001534:	f003 030f 	and.w	r3, r3, #15
 8001538:	683a      	ldr	r2, [r7, #0]
 800153a:	429a      	cmp	r2, r3
 800153c:	d90c      	bls.n	8001558 <HAL_RCC_ClockConfig+0x3c>
  {
    /* Program the new number of wait states to the LATENCY bits in the FLASH_ACR register */
    __HAL_FLASH_SET_LATENCY(FLatency);
 800153e:	4b65      	ldr	r3, [pc, #404]	; (80016d4 <HAL_RCC_ClockConfig+0x1b8>)
 8001540:	683a      	ldr	r2, [r7, #0]
 8001542:	b2d2      	uxtb	r2, r2
 8001544:	701a      	strb	r2, [r3, #0]

    /* Check that the new number of wait states is taken into account to access the Flash
    memory by reading the FLASH_ACR register */
    if(__HAL_FLASH_GET_LATENCY() != FLatency)
 8001546:	4b63      	ldr	r3, [pc, #396]	; (80016d4 <HAL_RCC_ClockConfig+0x1b8>)
 8001548:	681b      	ldr	r3, [r3, #0]
 800154a:	f003 030f 	and.w	r3, r3, #15
 800154e:	683a      	ldr	r2, [r7, #0]
 8001550:	429a      	cmp	r2, r3
 8001552:	d001      	beq.n	8001558 <HAL_RCC_ClockConfig+0x3c>
    {
      return HAL_ERROR;
 8001554:	2301      	movs	r3, #1
 8001556:	e0b8      	b.n	80016ca <HAL_RCC_ClockConfig+0x1ae>
    }
  }

  /*-------------------------- HCLK Configuration --------------------------*/
  if(((RCC_ClkInitStruct->ClockType) & RCC_CLOCKTYPE_HCLK) == RCC_CLOCKTYPE_HCLK)
 8001558:	687b      	ldr	r3, [r7, #4]
 800155a:	681b      	ldr	r3, [r3, #0]
 800155c:	f003 0302 	and.w	r3, r3, #2
 8001560:	2b00      	cmp	r3, #0
 8001562:	d020      	beq.n	80015a6 <HAL_RCC_ClockConfig+0x8a>
  {
    /* Set the highest APBx dividers in order to ensure that we do not go through
       a non-spec phase whatever we decrease or increase HCLK. */
    if(((RCC_ClkInitStruct->ClockType) & RCC_CLOCKTYPE_PCLK1) == RCC_CLOCKTYPE_PCLK1)
 8001564:	687b      	ldr	r3, [r7, #4]
 8001566:	681b      	ldr	r3, [r3, #0]
 8001568:	f003 0304 	and.w	r3, r3, #4
 800156c:	2b00      	cmp	r3, #0
 800156e:	d005      	beq.n	800157c <HAL_RCC_ClockConfig+0x60>
    {
      MODIFY_REG(RCC->CFGR, RCC_CFGR_PPRE1, RCC_HCLK_DIV16);
 8001570:	4b59      	ldr	r3, [pc, #356]	; (80016d8 <HAL_RCC_ClockConfig+0x1bc>)
 8001572:	689b      	ldr	r3, [r3, #8]
 8001574:	4a58      	ldr	r2, [pc, #352]	; (80016d8 <HAL_RCC_ClockConfig+0x1bc>)
 8001576:	f443 53e0 	orr.w	r3, r3, #7168	; 0x1c00
 800157a:	6093      	str	r3, [r2, #8]
    }

    if(((RCC_ClkInitStruct->ClockType) & RCC_CLOCKTYPE_PCLK2) == RCC_CLOCKTYPE_PCLK2)
 800157c:	687b      	ldr	r3, [r7, #4]
 800157e:	681b      	ldr	r3, [r3, #0]
 8001580:	f003 0308 	and.w	r3, r3, #8
 8001584:	2b00      	cmp	r3, #0
 8001586:	d005      	beq.n	8001594 <HAL_RCC_ClockConfig+0x78>
    {
      MODIFY_REG(RCC->CFGR, RCC_CFGR_PPRE2, (RCC_HCLK_DIV16 << 3));
 8001588:	4b53      	ldr	r3, [pc, #332]	; (80016d8 <HAL_RCC_ClockConfig+0x1bc>)
 800158a:	689b      	ldr	r3, [r3, #8]
 800158c:	4a52      	ldr	r2, [pc, #328]	; (80016d8 <HAL_RCC_ClockConfig+0x1bc>)
 800158e:	f443 4360 	orr.w	r3, r3, #57344	; 0xe000
 8001592:	6093      	str	r3, [r2, #8]
    }

    assert_param(IS_RCC_HCLK(RCC_ClkInitStruct->AHBCLKDivider));
    MODIFY_REG(RCC->CFGR, RCC_CFGR_HPRE, RCC_ClkInitStruct->AHBCLKDivider);
 8001594:	4b50      	ldr	r3, [pc, #320]	; (80016d8 <HAL_RCC_ClockConfig+0x1bc>)
 8001596:	689b      	ldr	r3, [r3, #8]
 8001598:	f023 02f0 	bic.w	r2, r3, #240	; 0xf0
 800159c:	687b      	ldr	r3, [r7, #4]
 800159e:	689b      	ldr	r3, [r3, #8]
 80015a0:	494d      	ldr	r1, [pc, #308]	; (80016d8 <HAL_RCC_ClockConfig+0x1bc>)
 80015a2:	4313      	orrs	r3, r2
 80015a4:	608b      	str	r3, [r1, #8]
  }

  /*------------------------- SYSCLK Configuration ---------------------------*/
  if(((RCC_ClkInitStruct->ClockType) & RCC_CLOCKTYPE_SYSCLK) == RCC_CLOCKTYPE_SYSCLK)
 80015a6:	687b      	ldr	r3, [r7, #4]
 80015a8:	681b      	ldr	r3, [r3, #0]
 80015aa:	f003 0301 	and.w	r3, r3, #1
 80015ae:	2b00      	cmp	r3, #0
 80015b0:	d044      	beq.n	800163c <HAL_RCC_ClockConfig+0x120>
  {
    assert_param(IS_RCC_SYSCLKSOURCE(RCC_ClkInitStruct->SYSCLKSource));

    /* HSE is selected as System Clock Source */
    if(RCC_ClkInitStruct->SYSCLKSource == RCC_SYSCLKSOURCE_HSE)
 80015b2:	687b      	ldr	r3, [r7, #4]
 80015b4:	685b      	ldr	r3, [r3, #4]
 80015b6:	2b01      	cmp	r3, #1
 80015b8:	d107      	bne.n	80015ca <HAL_RCC_ClockConfig+0xae>
    {
      /* Check the HSE ready flag */
      if(__HAL_RCC_GET_FLAG(RCC_FLAG_HSERDY) == RESET)
 80015ba:	4b47      	ldr	r3, [pc, #284]	; (80016d8 <HAL_RCC_ClockConfig+0x1bc>)
 80015bc:	681b      	ldr	r3, [r3, #0]
 80015be:	f403 3300 	and.w	r3, r3, #131072	; 0x20000
 80015c2:	2b00      	cmp	r3, #0
 80015c4:	d119      	bne.n	80015fa <HAL_RCC_ClockConfig+0xde>
      {
        return HAL_ERROR;
 80015c6:	2301      	movs	r3, #1
 80015c8:	e07f      	b.n	80016ca <HAL_RCC_ClockConfig+0x1ae>
      }
    }
    /* PLL is selected as System Clock Source */
    else if((RCC_ClkInitStruct->SYSCLKSource == RCC_SYSCLKSOURCE_PLLCLK)   ||
 80015ca:	687b      	ldr	r3, [r7, #4]
 80015cc:	685b      	ldr	r3, [r3, #4]
 80015ce:	2b02      	cmp	r3, #2
 80015d0:	d003      	beq.n	80015da <HAL_RCC_ClockConfig+0xbe>
            (RCC_ClkInitStruct->SYSCLKSource == RCC_SYSCLKSOURCE_PLLRCLK))
 80015d2:	687b      	ldr	r3, [r7, #4]
 80015d4:	685b      	ldr	r3, [r3, #4]
    else if((RCC_ClkInitStruct->SYSCLKSource == RCC_SYSCLKSOURCE_PLLCLK)   ||
 80015d6:	2b03      	cmp	r3, #3
 80015d8:	d107      	bne.n	80015ea <HAL_RCC_ClockConfig+0xce>
    {
      /* Check the PLL ready flag */
      if(__HAL_RCC_GET_FLAG(RCC_FLAG_PLLRDY) == RESET)
 80015da:	4b3f      	ldr	r3, [pc, #252]	; (80016d8 <HAL_RCC_ClockConfig+0x1bc>)
 80015dc:	681b      	ldr	r3, [r3, #0]
 80015de:	f003 7300 	and.w	r3, r3, #33554432	; 0x2000000
 80015e2:	2b00      	cmp	r3, #0
 80015e4:	d109      	bne.n	80015fa <HAL_RCC_ClockConfig+0xde>
      {
        return HAL_ERROR;
 80015e6:	2301      	movs	r3, #1
 80015e8:	e06f      	b.n	80016ca <HAL_RCC_ClockConfig+0x1ae>
    }
    /* HSI is selected as System Clock Source */
    else
    {
      /* Check the HSI ready flag */
      if(__HAL_RCC_GET_FLAG(RCC_FLAG_HSIRDY) == RESET)
 80015ea:	4b3b      	ldr	r3, [pc, #236]	; (80016d8 <HAL_RCC_ClockConfig+0x1bc>)
 80015ec:	681b      	ldr	r3, [r3, #0]
 80015ee:	f003 0302 	and.w	r3, r3, #2
 80015f2:	2b00      	cmp	r3, #0
 80015f4:	d101      	bne.n	80015fa <HAL_RCC_ClockConfig+0xde>
      {
        return HAL_ERROR;
 80015f6:	2301      	movs	r3, #1
 80015f8:	e067      	b.n	80016ca <HAL_RCC_ClockConfig+0x1ae>
      }
    }

    __HAL_RCC_SYSCLK_CONFIG(RCC_ClkInitStruct->SYSCLKSource);
 80015fa:	4b37      	ldr	r3, [pc, #220]	; (80016d8 <HAL_RCC_ClockConfig+0x1bc>)
 80015fc:	689b      	ldr	r3, [r3, #8]
 80015fe:	f023 0203 	bic.w	r2, r3, #3
 8001602:	687b      	ldr	r3, [r7, #4]
 8001604:	685b      	ldr	r3, [r3, #4]
 8001606:	4934      	ldr	r1, [pc, #208]	; (80016d8 <HAL_RCC_ClockConfig+0x1bc>)
 8001608:	4313      	orrs	r3, r2
 800160a:	608b      	str	r3, [r1, #8]

    /* Get Start Tick */
    tickstart = HAL_GetTick();
 800160c:	f7ff fa56 	bl	8000abc <HAL_GetTick>
 8001610:	60f8      	str	r0, [r7, #12]

    while (__HAL_RCC_GET_SYSCLK_SOURCE() != (RCC_ClkInitStruct->SYSCLKSource << RCC_CFGR_SWS_Pos))
 8001612:	e00a      	b.n	800162a <HAL_RCC_ClockConfig+0x10e>
    {
      if ((HAL_GetTick() - tickstart) > CLOCKSWITCH_TIMEOUT_VALUE)
 8001614:	f7ff fa52 	bl	8000abc <HAL_GetTick>
 8001618:	4602      	mov	r2, r0
 800161a:	68fb      	ldr	r3, [r7, #12]
 800161c:	1ad3      	subs	r3, r2, r3
 800161e:	f241 3288 	movw	r2, #5000	; 0x1388
 8001622:	4293      	cmp	r3, r2
 8001624:	d901      	bls.n	800162a <HAL_RCC_ClockConfig+0x10e>
      {
        return HAL_TIMEOUT;
 8001626:	2303      	movs	r3, #3
 8001628:	e04f      	b.n	80016ca <HAL_RCC_ClockConfig+0x1ae>
    while (__HAL_RCC_GET_SYSCLK_SOURCE() != (RCC_ClkInitStruct->SYSCLKSource << RCC_CFGR_SWS_Pos))
 800162a:	4b2b      	ldr	r3, [pc, #172]	; (80016d8 <HAL_RCC_ClockConfig+0x1bc>)
 800162c:	689b      	ldr	r3, [r3, #8]
 800162e:	f003 020c 	and.w	r2, r3, #12
 8001632:	687b      	ldr	r3, [r7, #4]
 8001634:	685b      	ldr	r3, [r3, #4]
 8001636:	009b      	lsls	r3, r3, #2
 8001638:	429a      	cmp	r2, r3
 800163a:	d1eb      	bne.n	8001614 <HAL_RCC_ClockConfig+0xf8>
      }
    }
  }

  /* Decreasing the number of wait states because of lower CPU frequency */
  if(FLatency < __HAL_FLASH_GET_LATENCY())
 800163c:	4b25      	ldr	r3, [pc, #148]	; (80016d4 <HAL_RCC_ClockConfig+0x1b8>)
 800163e:	681b      	ldr	r3, [r3, #0]
 8001640:	f003 030f 	and.w	r3, r3, #15
 8001644:	683a      	ldr	r2, [r7, #0]
 8001646:	429a      	cmp	r2, r3
 8001648:	d20c      	bcs.n	8001664 <HAL_RCC_ClockConfig+0x148>
  {
     /* Program the new number of wait states to the LATENCY bits in the FLASH_ACR register */
    __HAL_FLASH_SET_LATENCY(FLatency);
 800164a:	4b22      	ldr	r3, [pc, #136]	; (80016d4 <HAL_RCC_ClockConfig+0x1b8>)
 800164c:	683a      	ldr	r2, [r7, #0]
 800164e:	b2d2      	uxtb	r2, r2
 8001650:	701a      	strb	r2, [r3, #0]

    /* Check that the new number of wait states is taken into account to access the Flash
    memory by reading the FLASH_ACR register */
    if(__HAL_FLASH_GET_LATENCY() != FLatency)
 8001652:	4b20      	ldr	r3, [pc, #128]	; (80016d4 <HAL_RCC_ClockConfig+0x1b8>)
 8001654:	681b      	ldr	r3, [r3, #0]
 8001656:	f003 030f 	and.w	r3, r3, #15
 800165a:	683a      	ldr	r2, [r7, #0]
 800165c:	429a      	cmp	r2, r3
 800165e:	d001      	beq.n	8001664 <HAL_RCC_ClockConfig+0x148>
    {
      return HAL_ERROR;
 8001660:	2301      	movs	r3, #1
 8001662:	e032      	b.n	80016ca <HAL_RCC_ClockConfig+0x1ae>
    }
  }

  /*-------------------------- PCLK1 Configuration ---------------------------*/
  if(((RCC_ClkInitStruct->ClockType) & RCC_CLOCKTYPE_PCLK1) == RCC_CLOCKTYPE_PCLK1)
 8001664:	687b      	ldr	r3, [r7, #4]
 8001666:	681b      	ldr	r3, [r3, #0]
 8001668:	f003 0304 	and.w	r3, r3, #4
 800166c:	2b00      	cmp	r3, #0
 800166e:	d008      	beq.n	8001682 <HAL_RCC_ClockConfig+0x166>
  {
    assert_param(IS_RCC_PCLK(RCC_ClkInitStruct->APB1CLKDivider));
    MODIFY_REG(RCC->CFGR, RCC_CFGR_PPRE1, RCC_ClkInitStruct->APB1CLKDivider);
 8001670:	4b19      	ldr	r3, [pc, #100]	; (80016d8 <HAL_RCC_ClockConfig+0x1bc>)
 8001672:	689b      	ldr	r3, [r3, #8]
 8001674:	f423 52e0 	bic.w	r2, r3, #7168	; 0x1c00
 8001678:	687b      	ldr	r3, [r7, #4]
 800167a:	68db      	ldr	r3, [r3, #12]
 800167c:	4916      	ldr	r1, [pc, #88]	; (80016d8 <HAL_RCC_ClockConfig+0x1bc>)
 800167e:	4313      	orrs	r3, r2
 8001680:	608b      	str	r3, [r1, #8]
  }

  /*-------------------------- PCLK2 Configuration ---------------------------*/
  if(((RCC_ClkInitStruct->ClockType) & RCC_CLOCKTYPE_PCLK2) == RCC_CLOCKTYPE_PCLK2)
 8001682:	687b      	ldr	r3, [r7, #4]
 8001684:	681b      	ldr	r3, [r3, #0]
 8001686:	f003 0308 	and.w	r3, r3, #8
 800168a:	2b00      	cmp	r3, #0
 800168c:	d009      	beq.n	80016a2 <HAL_RCC_ClockConfig+0x186>
  {
    assert_param(IS_RCC_PCLK(RCC_ClkInitStruct->APB2CLKDivider));
    MODIFY_REG(RCC->CFGR, RCC_CFGR_PPRE2, ((RCC_ClkInitStruct->APB2CLKDivider) << 3U));
 800168e:	4b12      	ldr	r3, [pc, #72]	; (80016d8 <HAL_RCC_ClockConfig+0x1bc>)
 8001690:	689b      	ldr	r3, [r3, #8]
 8001692:	f423 4260 	bic.w	r2, r3, #57344	; 0xe000
 8001696:	687b      	ldr	r3, [r7, #4]
 8001698:	691b      	ldr	r3, [r3, #16]
 800169a:	00db      	lsls	r3, r3, #3
 800169c:	490e      	ldr	r1, [pc, #56]	; (80016d8 <HAL_RCC_ClockConfig+0x1bc>)
 800169e:	4313      	orrs	r3, r2
 80016a0:	608b      	str	r3, [r1, #8]
  }

  /* Update the SystemCoreClock global variable */
  SystemCoreClock = HAL_RCC_GetSysClockFreq() >> AHBPrescTable[(RCC->CFGR & RCC_CFGR_HPRE)>> RCC_CFGR_HPRE_Pos];
 80016a2:	f000 f821 	bl	80016e8 <HAL_RCC_GetSysClockFreq>
 80016a6:	4602      	mov	r2, r0
 80016a8:	4b0b      	ldr	r3, [pc, #44]	; (80016d8 <HAL_RCC_ClockConfig+0x1bc>)
 80016aa:	689b      	ldr	r3, [r3, #8]
 80016ac:	091b      	lsrs	r3, r3, #4
 80016ae:	f003 030f 	and.w	r3, r3, #15
 80016b2:	490a      	ldr	r1, [pc, #40]	; (80016dc <HAL_RCC_ClockConfig+0x1c0>)
 80016b4:	5ccb      	ldrb	r3, [r1, r3]
 80016b6:	fa22 f303 	lsr.w	r3, r2, r3
 80016ba:	4a09      	ldr	r2, [pc, #36]	; (80016e0 <HAL_RCC_ClockConfig+0x1c4>)
 80016bc:	6013      	str	r3, [r2, #0]

  /* Configure the source of time base considering new system clocks settings */
  HAL_InitTick (uwTickPrio);
 80016be:	4b09      	ldr	r3, [pc, #36]	; (80016e4 <HAL_RCC_ClockConfig+0x1c8>)
 80016c0:	681b      	ldr	r3, [r3, #0]
 80016c2:	4618      	mov	r0, r3
 80016c4:	f7ff f9b6 	bl	8000a34 <HAL_InitTick>

  return HAL_OK;
 80016c8:	2300      	movs	r3, #0
}
 80016ca:	4618      	mov	r0, r3
 80016cc:	3710      	adds	r7, #16
 80016ce:	46bd      	mov	sp, r7
 80016d0:	bd80      	pop	{r7, pc}
 80016d2:	bf00      	nop
 80016d4:	40023c00 	.word	0x40023c00
 80016d8:	40023800 	.word	0x40023800
 80016dc:	080022c8 	.word	0x080022c8
 80016e0:	20000000 	.word	0x20000000
 80016e4:	20000004 	.word	0x20000004

080016e8 <HAL_RCC_GetSysClockFreq>:
  *
  *
  * @retval SYSCLK frequency
  */
__weak uint32_t HAL_RCC_GetSysClockFreq(void)
{
 80016e8:	e92d 4fb0 	stmdb	sp!, {r4, r5, r7, r8, r9, sl, fp, lr}
 80016ec:	b094      	sub	sp, #80	; 0x50
 80016ee:	af00      	add	r7, sp, #0
  uint32_t pllm = 0U, pllvco = 0U, pllp = 0U;
 80016f0:	2300      	movs	r3, #0
 80016f2:	647b      	str	r3, [r7, #68]	; 0x44
 80016f4:	2300      	movs	r3, #0
 80016f6:	64fb      	str	r3, [r7, #76]	; 0x4c
 80016f8:	2300      	movs	r3, #0
 80016fa:	643b      	str	r3, [r7, #64]	; 0x40
  uint32_t sysclockfreq = 0U;
 80016fc:	2300      	movs	r3, #0
 80016fe:	64bb      	str	r3, [r7, #72]	; 0x48

  /* Get SYSCLK source -------------------------------------------------------*/
  switch (RCC->CFGR & RCC_CFGR_SWS)
 8001700:	4b79      	ldr	r3, [pc, #484]	; (80018e8 <HAL_RCC_GetSysClockFreq+0x200>)
 8001702:	689b      	ldr	r3, [r3, #8]
 8001704:	f003 030c 	and.w	r3, r3, #12
 8001708:	2b08      	cmp	r3, #8
 800170a:	d00d      	beq.n	8001728 <HAL_RCC_GetSysClockFreq+0x40>
 800170c:	2b08      	cmp	r3, #8
 800170e:	f200 80e1 	bhi.w	80018d4 <HAL_RCC_GetSysClockFreq+0x1ec>
 8001712:	2b00      	cmp	r3, #0
 8001714:	d002      	beq.n	800171c <HAL_RCC_GetSysClockFreq+0x34>
 8001716:	2b04      	cmp	r3, #4
 8001718:	d003      	beq.n	8001722 <HAL_RCC_GetSysClockFreq+0x3a>
 800171a:	e0db      	b.n	80018d4 <HAL_RCC_GetSysClockFreq+0x1ec>
  {
    case RCC_CFGR_SWS_HSI:  /* HSI used as system clock source */
    {
      sysclockfreq = HSI_VALUE;
 800171c:	4b73      	ldr	r3, [pc, #460]	; (80018ec <HAL_RCC_GetSysClockFreq+0x204>)
 800171e:	64bb      	str	r3, [r7, #72]	; 0x48
       break;
 8001720:	e0db      	b.n	80018da <HAL_RCC_GetSysClockFreq+0x1f2>
    }
    case RCC_CFGR_SWS_HSE:  /* HSE used as system clock  source */
    {
      sysclockfreq = HSE_VALUE;
 8001722:	4b73      	ldr	r3, [pc, #460]	; (80018f0 <HAL_RCC_GetSysClockFreq+0x208>)
 8001724:	64bb      	str	r3, [r7, #72]	; 0x48
      break;
 8001726:	e0d8      	b.n	80018da <HAL_RCC_GetSysClockFreq+0x1f2>
    }
    case RCC_CFGR_SWS_PLL:  /* PLL used as system clock  source */
    {
      /* PLL_VCO = (HSE_VALUE or HSI_VALUE / PLLM) * PLLN
      SYSCLK = PLL_VCO / PLLP */
      pllm = RCC->PLLCFGR & RCC_PLLCFGR_PLLM;
 8001728:	4b6f      	ldr	r3, [pc, #444]	; (80018e8 <HAL_RCC_GetSysClockFreq+0x200>)
 800172a:	685b      	ldr	r3, [r3, #4]
 800172c:	f003 033f 	and.w	r3, r3, #63	; 0x3f
 8001730:	647b      	str	r3, [r7, #68]	; 0x44
      if(__HAL_RCC_GET_PLL_OSCSOURCE() != RCC_PLLSOURCE_HSI)
 8001732:	4b6d      	ldr	r3, [pc, #436]	; (80018e8 <HAL_RCC_GetSysClockFreq+0x200>)
 8001734:	685b      	ldr	r3, [r3, #4]
 8001736:	f403 0380 	and.w	r3, r3, #4194304	; 0x400000
 800173a:	2b00      	cmp	r3, #0
 800173c:	d063      	beq.n	8001806 <HAL_RCC_GetSysClockFreq+0x11e>
      {
        /* HSE used as PLL clock source */
        pllvco = (uint32_t) ((((uint64_t) HSE_VALUE * ((uint64_t) ((RCC->PLLCFGR & RCC_PLLCFGR_PLLN) >> RCC_PLLCFGR_PLLN_Pos)))) / (uint64_t)pllm);
 800173e:	4b6a      	ldr	r3, [pc, #424]	; (80018e8 <HAL_RCC_GetSysClockFreq+0x200>)
 8001740:	685b      	ldr	r3, [r3, #4]
 8001742:	099b      	lsrs	r3, r3, #6
 8001744:	2200      	movs	r2, #0
 8001746:	63bb      	str	r3, [r7, #56]	; 0x38
 8001748:	63fa      	str	r2, [r7, #60]	; 0x3c
 800174a:	6bbb      	ldr	r3, [r7, #56]	; 0x38
 800174c:	f3c3 0308 	ubfx	r3, r3, #0, #9
 8001750:	633b      	str	r3, [r7, #48]	; 0x30
 8001752:	2300      	movs	r3, #0
 8001754:	637b      	str	r3, [r7, #52]	; 0x34
 8001756:	e9d7 450c 	ldrd	r4, r5, [r7, #48]	; 0x30
 800175a:	4622      	mov	r2, r4
 800175c:	462b      	mov	r3, r5
 800175e:	f04f 0000 	mov.w	r0, #0
 8001762:	f04f 0100 	mov.w	r1, #0
 8001766:	0159      	lsls	r1, r3, #5
 8001768:	ea41 61d2 	orr.w	r1, r1, r2, lsr #27
 800176c:	0150      	lsls	r0, r2, #5
 800176e:	4602      	mov	r2, r0
 8001770:	460b      	mov	r3, r1
 8001772:	4621      	mov	r1, r4
 8001774:	1a51      	subs	r1, r2, r1
 8001776:	6139      	str	r1, [r7, #16]
 8001778:	4629      	mov	r1, r5
 800177a:	eb63 0301 	sbc.w	r3, r3, r1
 800177e:	617b      	str	r3, [r7, #20]
 8001780:	f04f 0200 	mov.w	r2, #0
 8001784:	f04f 0300 	mov.w	r3, #0
 8001788:	e9d7 ab04 	ldrd	sl, fp, [r7, #16]
 800178c:	4659      	mov	r1, fp
 800178e:	018b      	lsls	r3, r1, #6
 8001790:	4651      	mov	r1, sl
 8001792:	ea43 6391 	orr.w	r3, r3, r1, lsr #26
 8001796:	4651      	mov	r1, sl
 8001798:	018a      	lsls	r2, r1, #6
 800179a:	4651      	mov	r1, sl
 800179c:	ebb2 0801 	subs.w	r8, r2, r1
 80017a0:	4659      	mov	r1, fp
 80017a2:	eb63 0901 	sbc.w	r9, r3, r1
 80017a6:	f04f 0200 	mov.w	r2, #0
 80017aa:	f04f 0300 	mov.w	r3, #0
 80017ae:	ea4f 03c9 	mov.w	r3, r9, lsl #3
 80017b2:	ea43 7358 	orr.w	r3, r3, r8, lsr #29
 80017b6:	ea4f 02c8 	mov.w	r2, r8, lsl #3
 80017ba:	4690      	mov	r8, r2
 80017bc:	4699      	mov	r9, r3
 80017be:	4623      	mov	r3, r4
 80017c0:	eb18 0303 	adds.w	r3, r8, r3
 80017c4:	60bb      	str	r3, [r7, #8]
 80017c6:	462b      	mov	r3, r5
 80017c8:	eb49 0303 	adc.w	r3, r9, r3
 80017cc:	60fb      	str	r3, [r7, #12]
 80017ce:	f04f 0200 	mov.w	r2, #0
 80017d2:	f04f 0300 	mov.w	r3, #0
 80017d6:	e9d7 4502 	ldrd	r4, r5, [r7, #8]
 80017da:	4629      	mov	r1, r5
 80017dc:	024b      	lsls	r3, r1, #9
 80017de:	4621      	mov	r1, r4
 80017e0:	ea43 53d1 	orr.w	r3, r3, r1, lsr #23
 80017e4:	4621      	mov	r1, r4
 80017e6:	024a      	lsls	r2, r1, #9
 80017e8:	4610      	mov	r0, r2
 80017ea:	4619      	mov	r1, r3
 80017ec:	6c7b      	ldr	r3, [r7, #68]	; 0x44
 80017ee:	2200      	movs	r2, #0
 80017f0:	62bb      	str	r3, [r7, #40]	; 0x28
 80017f2:	62fa      	str	r2, [r7, #44]	; 0x2c
 80017f4:	e9d7 230a 	ldrd	r2, r3, [r7, #40]	; 0x28
 80017f8:	f7fe fd02 	bl	8000200 <__aeabi_uldivmod>
 80017fc:	4602      	mov	r2, r0
 80017fe:	460b      	mov	r3, r1
 8001800:	4613      	mov	r3, r2
 8001802:	64fb      	str	r3, [r7, #76]	; 0x4c
 8001804:	e058      	b.n	80018b8 <HAL_RCC_GetSysClockFreq+0x1d0>
      }
      else
      {
        /* HSI used as PLL clock source */
        pllvco = (uint32_t) ((((uint64_t) HSI_VALUE * ((uint64_t) ((RCC->PLLCFGR & RCC_PLLCFGR_PLLN) >> RCC_PLLCFGR_PLLN_Pos)))) / (uint64_t)pllm);
 8001806:	4b38      	ldr	r3, [pc, #224]	; (80018e8 <HAL_RCC_GetSysClockFreq+0x200>)
 8001808:	685b      	ldr	r3, [r3, #4]
 800180a:	099b      	lsrs	r3, r3, #6
 800180c:	2200      	movs	r2, #0
 800180e:	4618      	mov	r0, r3
 8001810:	4611      	mov	r1, r2
 8001812:	f3c0 0308 	ubfx	r3, r0, #0, #9
 8001816:	623b      	str	r3, [r7, #32]
 8001818:	2300      	movs	r3, #0
 800181a:	627b      	str	r3, [r7, #36]	; 0x24
 800181c:	e9d7 8908 	ldrd	r8, r9, [r7, #32]
 8001820:	4642      	mov	r2, r8
 8001822:	464b      	mov	r3, r9
 8001824:	f04f 0000 	mov.w	r0, #0
 8001828:	f04f 0100 	mov.w	r1, #0
 800182c:	0159      	lsls	r1, r3, #5
 800182e:	ea41 61d2 	orr.w	r1, r1, r2, lsr #27
 8001832:	0150      	lsls	r0, r2, #5
 8001834:	4602      	mov	r2, r0
 8001836:	460b      	mov	r3, r1
 8001838:	4641      	mov	r1, r8
 800183a:	ebb2 0a01 	subs.w	sl, r2, r1
 800183e:	4649      	mov	r1, r9
 8001840:	eb63 0b01 	sbc.w	fp, r3, r1
 8001844:	f04f 0200 	mov.w	r2, #0
 8001848:	f04f 0300 	mov.w	r3, #0
 800184c:	ea4f 138b 	mov.w	r3, fp, lsl #6
 8001850:	ea43 639a 	orr.w	r3, r3, sl, lsr #26
 8001854:	ea4f 128a 	mov.w	r2, sl, lsl #6
 8001858:	ebb2 040a 	subs.w	r4, r2, sl
 800185c:	eb63 050b 	sbc.w	r5, r3, fp
 8001860:	f04f 0200 	mov.w	r2, #0
 8001864:	f04f 0300 	mov.w	r3, #0
 8001868:	00eb      	lsls	r3, r5, #3
 800186a:	ea43 7354 	orr.w	r3, r3, r4, lsr #29
 800186e:	00e2      	lsls	r2, r4, #3
 8001870:	4614      	mov	r4, r2
 8001872:	461d      	mov	r5, r3
 8001874:	4643      	mov	r3, r8
 8001876:	18e3      	adds	r3, r4, r3
 8001878:	603b      	str	r3, [r7, #0]
 800187a:	464b      	mov	r3, r9
 800187c:	eb45 0303 	adc.w	r3, r5, r3
 8001880:	607b      	str	r3, [r7, #4]
 8001882:	f04f 0200 	mov.w	r2, #0
 8001886:	f04f 0300 	mov.w	r3, #0
 800188a:	e9d7 4500 	ldrd	r4, r5, [r7]
 800188e:	4629      	mov	r1, r5
 8001890:	028b      	lsls	r3, r1, #10
 8001892:	4621      	mov	r1, r4
 8001894:	ea43 5391 	orr.w	r3, r3, r1, lsr #22
 8001898:	4621      	mov	r1, r4
 800189a:	028a      	lsls	r2, r1, #10
 800189c:	4610      	mov	r0, r2
 800189e:	4619      	mov	r1, r3
 80018a0:	6c7b      	ldr	r3, [r7, #68]	; 0x44
 80018a2:	2200      	movs	r2, #0
 80018a4:	61bb      	str	r3, [r7, #24]
 80018a6:	61fa      	str	r2, [r7, #28]
 80018a8:	e9d7 2306 	ldrd	r2, r3, [r7, #24]
 80018ac:	f7fe fca8 	bl	8000200 <__aeabi_uldivmod>
 80018b0:	4602      	mov	r2, r0
 80018b2:	460b      	mov	r3, r1
 80018b4:	4613      	mov	r3, r2
 80018b6:	64fb      	str	r3, [r7, #76]	; 0x4c
      }
      pllp = ((((RCC->PLLCFGR & RCC_PLLCFGR_PLLP) >> RCC_PLLCFGR_PLLP_Pos) + 1U) *2U);
 80018b8:	4b0b      	ldr	r3, [pc, #44]	; (80018e8 <HAL_RCC_GetSysClockFreq+0x200>)
 80018ba:	685b      	ldr	r3, [r3, #4]
 80018bc:	0c1b      	lsrs	r3, r3, #16
 80018be:	f003 0303 	and.w	r3, r3, #3
 80018c2:	3301      	adds	r3, #1
 80018c4:	005b      	lsls	r3, r3, #1
 80018c6:	643b      	str	r3, [r7, #64]	; 0x40

      sysclockfreq = pllvco/pllp;
 80018c8:	6cfa      	ldr	r2, [r7, #76]	; 0x4c
 80018ca:	6c3b      	ldr	r3, [r7, #64]	; 0x40
 80018cc:	fbb2 f3f3 	udiv	r3, r2, r3
 80018d0:	64bb      	str	r3, [r7, #72]	; 0x48
      break;
 80018d2:	e002      	b.n	80018da <HAL_RCC_GetSysClockFreq+0x1f2>
    }
    default:
    {
      sysclockfreq = HSI_VALUE;
 80018d4:	4b05      	ldr	r3, [pc, #20]	; (80018ec <HAL_RCC_GetSysClockFreq+0x204>)
 80018d6:	64bb      	str	r3, [r7, #72]	; 0x48
      break;
 80018d8:	bf00      	nop
    }
  }
  return sysclockfreq;
 80018da:	6cbb      	ldr	r3, [r7, #72]	; 0x48
}
 80018dc:	4618      	mov	r0, r3
 80018de:	3750      	adds	r7, #80	; 0x50
 80018e0:	46bd      	mov	sp, r7
 80018e2:	e8bd 8fb0 	ldmia.w	sp!, {r4, r5, r7, r8, r9, sl, fp, pc}
 80018e6:	bf00      	nop
 80018e8:	40023800 	.word	0x40023800
 80018ec:	00f42400 	.word	0x00f42400
 80018f0:	007a1200 	.word	0x007a1200

080018f4 <HAL_RCC_GetHCLKFreq>:
  * @note   The SystemCoreClock CMSIS variable is used to store System Clock Frequency
  *         and updated within this function
  * @retval HCLK frequency
  */
uint32_t HAL_RCC_GetHCLKFreq(void)
{
 80018f4:	b480      	push	{r7}
 80018f6:	af00      	add	r7, sp, #0
  return SystemCoreClock;
 80018f8:	4b03      	ldr	r3, [pc, #12]	; (8001908 <HAL_RCC_GetHCLKFreq+0x14>)
 80018fa:	681b      	ldr	r3, [r3, #0]
}
 80018fc:	4618      	mov	r0, r3
 80018fe:	46bd      	mov	sp, r7
 8001900:	f85d 7b04 	ldr.w	r7, [sp], #4
 8001904:	4770      	bx	lr
 8001906:	bf00      	nop
 8001908:	20000000 	.word	0x20000000

0800190c <HAL_RCC_GetPCLK1Freq>:
  * @note   Each time PCLK1 changes, this function must be called to update the
  *         right PCLK1 value. Otherwise, any configuration based on this function will be incorrect.
  * @retval PCLK1 frequency
  */
uint32_t HAL_RCC_GetPCLK1Freq(void)
{
 800190c:	b580      	push	{r7, lr}
 800190e:	af00      	add	r7, sp, #0
  /* Get HCLK source and Compute PCLK1 frequency ---------------------------*/
  return (HAL_RCC_GetHCLKFreq() >> APBPrescTable[(RCC->CFGR & RCC_CFGR_PPRE1)>> RCC_CFGR_PPRE1_Pos]);
 8001910:	f7ff fff0 	bl	80018f4 <HAL_RCC_GetHCLKFreq>
 8001914:	4602      	mov	r2, r0
 8001916:	4b05      	ldr	r3, [pc, #20]	; (800192c <HAL_RCC_GetPCLK1Freq+0x20>)
 8001918:	689b      	ldr	r3, [r3, #8]
 800191a:	0a9b      	lsrs	r3, r3, #10
 800191c:	f003 0307 	and.w	r3, r3, #7
 8001920:	4903      	ldr	r1, [pc, #12]	; (8001930 <HAL_RCC_GetPCLK1Freq+0x24>)
 8001922:	5ccb      	ldrb	r3, [r1, r3]
 8001924:	fa22 f303 	lsr.w	r3, r2, r3
}
 8001928:	4618      	mov	r0, r3
 800192a:	bd80      	pop	{r7, pc}
 800192c:	40023800 	.word	0x40023800
 8001930:	080022d8 	.word	0x080022d8

08001934 <HAL_RCC_GetPCLK2Freq>:
  * @note   Each time PCLK2 changes, this function must be called to update the
  *         right PCLK2 value. Otherwise, any configuration based on this function will be incorrect.
  * @retval PCLK2 frequency
  */
uint32_t HAL_RCC_GetPCLK2Freq(void)
{
 8001934:	b580      	push	{r7, lr}
 8001936:	af00      	add	r7, sp, #0
  /* Get HCLK source and Compute PCLK2 frequency ---------------------------*/
  return (HAL_RCC_GetHCLKFreq()>> APBPrescTable[(RCC->CFGR & RCC_CFGR_PPRE2)>> RCC_CFGR_PPRE2_Pos]);
 8001938:	f7ff ffdc 	bl	80018f4 <HAL_RCC_GetHCLKFreq>
 800193c:	4602      	mov	r2, r0
 800193e:	4b05      	ldr	r3, [pc, #20]	; (8001954 <HAL_RCC_GetPCLK2Freq+0x20>)
 8001940:	689b      	ldr	r3, [r3, #8]
 8001942:	0b5b      	lsrs	r3, r3, #13
 8001944:	f003 0307 	and.w	r3, r3, #7
 8001948:	4903      	ldr	r1, [pc, #12]	; (8001958 <HAL_RCC_GetPCLK2Freq+0x24>)
 800194a:	5ccb      	ldrb	r3, [r1, r3]
 800194c:	fa22 f303 	lsr.w	r3, r2, r3
}
 8001950:	4618      	mov	r0, r3
 8001952:	bd80      	pop	{r7, pc}
 8001954:	40023800 	.word	0x40023800
 8001958:	080022d8 	.word	0x080022d8

0800195c <HAL_UART_Init>:
  * @param  huart  Pointer to a UART_HandleTypeDef structure that contains
  *                the configuration information for the specified UART module.
  * @retval HAL status
  */
HAL_StatusTypeDef HAL_UART_Init(UART_HandleTypeDef *huart)
{
 800195c:	b580      	push	{r7, lr}
 800195e:	b082      	sub	sp, #8
 8001960:	af00      	add	r7, sp, #0
 8001962:	6078      	str	r0, [r7, #4]
  /* Check the UART handle allocation */
  if (huart == NULL)
 8001964:	687b      	ldr	r3, [r7, #4]
 8001966:	2b00      	cmp	r3, #0
 8001968:	d101      	bne.n	800196e <HAL_UART_Init+0x12>
  {
    return HAL_ERROR;
 800196a:	2301      	movs	r3, #1
 800196c:	e03f      	b.n	80019ee <HAL_UART_Init+0x92>
    assert_param(IS_UART_INSTANCE(huart->Instance));
  }
  assert_param(IS_UART_WORD_LENGTH(huart->Init.WordLength));
  assert_param(IS_UART_OVERSAMPLING(huart->Init.OverSampling));

  if (huart->gState == HAL_UART_STATE_RESET)
 800196e:	687b      	ldr	r3, [r7, #4]
 8001970:	f893 303d 	ldrb.w	r3, [r3, #61]	; 0x3d
 8001974:	b2db      	uxtb	r3, r3
 8001976:	2b00      	cmp	r3, #0
 8001978:	d106      	bne.n	8001988 <HAL_UART_Init+0x2c>
  {
    /* Allocate lock resource and initialize it */
    huart->Lock = HAL_UNLOCKED;
 800197a:	687b      	ldr	r3, [r7, #4]
 800197c:	2200      	movs	r2, #0
 800197e:	f883 203c 	strb.w	r2, [r3, #60]	; 0x3c

    /* Init the low level hardware */
    huart->MspInitCallback(huart);
#else
    /* Init the low level hardware : GPIO, CLOCK */
    HAL_UART_MspInit(huart);
 8001982:	6878      	ldr	r0, [r7, #4]
 8001984:	f7fe ff86 	bl	8000894 <HAL_UART_MspInit>
#endif /* (USE_HAL_UART_REGISTER_CALLBACKS) */
  }

  huart->gState = HAL_UART_STATE_BUSY;
 8001988:	687b      	ldr	r3, [r7, #4]
 800198a:	2224      	movs	r2, #36	; 0x24
 800198c:	f883 203d 	strb.w	r2, [r3, #61]	; 0x3d

  /* Disable the peripheral */
  __HAL_UART_DISABLE(huart);
 8001990:	687b      	ldr	r3, [r7, #4]
 8001992:	681b      	ldr	r3, [r3, #0]
 8001994:	68da      	ldr	r2, [r3, #12]
 8001996:	687b      	ldr	r3, [r7, #4]
 8001998:	681b      	ldr	r3, [r3, #0]
 800199a:	f422 5200 	bic.w	r2, r2, #8192	; 0x2000
 800199e:	60da      	str	r2, [r3, #12]

  /* Set the UART Communication parameters */
  UART_SetConfig(huart);
 80019a0:	6878      	ldr	r0, [r7, #4]
 80019a2:	f000 f9cb 	bl	8001d3c <UART_SetConfig>

  /* In asynchronous mode, the following bits must be kept cleared:
     - LINEN and CLKEN bits in the USART_CR2 register,
     - SCEN, HDSEL and IREN  bits in the USART_CR3 register.*/
  CLEAR_BIT(huart->Instance->CR2, (USART_CR2_LINEN | USART_CR2_CLKEN));
 80019a6:	687b      	ldr	r3, [r7, #4]
 80019a8:	681b      	ldr	r3, [r3, #0]
 80019aa:	691a      	ldr	r2, [r3, #16]
 80019ac:	687b      	ldr	r3, [r7, #4]
 80019ae:	681b      	ldr	r3, [r3, #0]
 80019b0:	f422 4290 	bic.w	r2, r2, #18432	; 0x4800
 80019b4:	611a      	str	r2, [r3, #16]
  CLEAR_BIT(huart->Instance->CR3, (USART_CR3_SCEN | USART_CR3_HDSEL | USART_CR3_IREN));
 80019b6:	687b      	ldr	r3, [r7, #4]
 80019b8:	681b      	ldr	r3, [r3, #0]
 80019ba:	695a      	ldr	r2, [r3, #20]
 80019bc:	687b      	ldr	r3, [r7, #4]
 80019be:	681b      	ldr	r3, [r3, #0]
 80019c0:	f022 022a 	bic.w	r2, r2, #42	; 0x2a
 80019c4:	615a      	str	r2, [r3, #20]

  /* Enable the peripheral */
  __HAL_UART_ENABLE(huart);
 80019c6:	687b      	ldr	r3, [r7, #4]
 80019c8:	681b      	ldr	r3, [r3, #0]
 80019ca:	68da      	ldr	r2, [r3, #12]
 80019cc:	687b      	ldr	r3, [r7, #4]
 80019ce:	681b      	ldr	r3, [r3, #0]
 80019d0:	f442 5200 	orr.w	r2, r2, #8192	; 0x2000
 80019d4:	60da      	str	r2, [r3, #12]

  /* Initialize the UART state */
  huart->ErrorCode = HAL_UART_ERROR_NONE;
 80019d6:	687b      	ldr	r3, [r7, #4]
 80019d8:	2200      	movs	r2, #0
 80019da:	641a      	str	r2, [r3, #64]	; 0x40
  huart->gState = HAL_UART_STATE_READY;
 80019dc:	687b      	ldr	r3, [r7, #4]
 80019de:	2220      	movs	r2, #32
 80019e0:	f883 203d 	strb.w	r2, [r3, #61]	; 0x3d
  huart->RxState = HAL_UART_STATE_READY;
 80019e4:	687b      	ldr	r3, [r7, #4]
 80019e6:	2220      	movs	r2, #32
 80019e8:	f883 203e 	strb.w	r2, [r3, #62]	; 0x3e

  return HAL_OK;
 80019ec:	2300      	movs	r3, #0
}
 80019ee:	4618      	mov	r0, r3
 80019f0:	3708      	adds	r7, #8
 80019f2:	46bd      	mov	sp, r7
 80019f4:	bd80      	pop	{r7, pc}

080019f6 <HAL_UART_Transmit>:
  * @param  Size  Amount of data elements (u8 or u16) to be sent
  * @param  Timeout Timeout duration
  * @retval HAL status
  */
HAL_StatusTypeDef HAL_UART_Transmit(UART_HandleTypeDef *huart, const uint8_t *pData, uint16_t Size, uint32_t Timeout)
{
 80019f6:	b580      	push	{r7, lr}
 80019f8:	b08a      	sub	sp, #40	; 0x28
 80019fa:	af02      	add	r7, sp, #8
 80019fc:	60f8      	str	r0, [r7, #12]
 80019fe:	60b9      	str	r1, [r7, #8]
 8001a00:	603b      	str	r3, [r7, #0]
 8001a02:	4613      	mov	r3, r2
 8001a04:	80fb      	strh	r3, [r7, #6]
  const uint8_t  *pdata8bits;
  const uint16_t *pdata16bits;
  uint32_t tickstart = 0U;
 8001a06:	2300      	movs	r3, #0
 8001a08:	617b      	str	r3, [r7, #20]

  /* Check that a Tx process is not already ongoing */
  if (huart->gState == HAL_UART_STATE_READY)
 8001a0a:	68fb      	ldr	r3, [r7, #12]
 8001a0c:	f893 303d 	ldrb.w	r3, [r3, #61]	; 0x3d
 8001a10:	b2db      	uxtb	r3, r3
 8001a12:	2b20      	cmp	r3, #32
 8001a14:	d17c      	bne.n	8001b10 <HAL_UART_Transmit+0x11a>
  {
    if ((pData == NULL) || (Size == 0U))
 8001a16:	68bb      	ldr	r3, [r7, #8]
 8001a18:	2b00      	cmp	r3, #0
 8001a1a:	d002      	beq.n	8001a22 <HAL_UART_Transmit+0x2c>
 8001a1c:	88fb      	ldrh	r3, [r7, #6]
 8001a1e:	2b00      	cmp	r3, #0
 8001a20:	d101      	bne.n	8001a26 <HAL_UART_Transmit+0x30>
    {
      return  HAL_ERROR;
 8001a22:	2301      	movs	r3, #1
 8001a24:	e075      	b.n	8001b12 <HAL_UART_Transmit+0x11c>
    }

    /* Process Locked */
    __HAL_LOCK(huart);
 8001a26:	68fb      	ldr	r3, [r7, #12]
 8001a28:	f893 303c 	ldrb.w	r3, [r3, #60]	; 0x3c
 8001a2c:	2b01      	cmp	r3, #1
 8001a2e:	d101      	bne.n	8001a34 <HAL_UART_Transmit+0x3e>
 8001a30:	2302      	movs	r3, #2
 8001a32:	e06e      	b.n	8001b12 <HAL_UART_Transmit+0x11c>
 8001a34:	68fb      	ldr	r3, [r7, #12]
 8001a36:	2201      	movs	r2, #1
 8001a38:	f883 203c 	strb.w	r2, [r3, #60]	; 0x3c

    huart->ErrorCode = HAL_UART_ERROR_NONE;
 8001a3c:	68fb      	ldr	r3, [r7, #12]
 8001a3e:	2200      	movs	r2, #0
 8001a40:	641a      	str	r2, [r3, #64]	; 0x40
    huart->gState = HAL_UART_STATE_BUSY_TX;
 8001a42:	68fb      	ldr	r3, [r7, #12]
 8001a44:	2221      	movs	r2, #33	; 0x21
 8001a46:	f883 203d 	strb.w	r2, [r3, #61]	; 0x3d

    /* Init tickstart for timeout management */
    tickstart = HAL_GetTick();
 8001a4a:	f7ff f837 	bl	8000abc <HAL_GetTick>
 8001a4e:	6178      	str	r0, [r7, #20]

    huart->TxXferSize = Size;
 8001a50:	68fb      	ldr	r3, [r7, #12]
 8001a52:	88fa      	ldrh	r2, [r7, #6]
 8001a54:	849a      	strh	r2, [r3, #36]	; 0x24
    huart->TxXferCount = Size;
 8001a56:	68fb      	ldr	r3, [r7, #12]
 8001a58:	88fa      	ldrh	r2, [r7, #6]
 8001a5a:	84da      	strh	r2, [r3, #38]	; 0x26

    /* In case of 9bits/No Parity transfer, pData needs to be handled as a uint16_t pointer */
    if ((huart->Init.WordLength == UART_WORDLENGTH_9B) && (huart->Init.Parity == UART_PARITY_NONE))
 8001a5c:	68fb      	ldr	r3, [r7, #12]
 8001a5e:	689b      	ldr	r3, [r3, #8]
 8001a60:	f5b3 5f80 	cmp.w	r3, #4096	; 0x1000
 8001a64:	d108      	bne.n	8001a78 <HAL_UART_Transmit+0x82>
 8001a66:	68fb      	ldr	r3, [r7, #12]
 8001a68:	691b      	ldr	r3, [r3, #16]
 8001a6a:	2b00      	cmp	r3, #0
 8001a6c:	d104      	bne.n	8001a78 <HAL_UART_Transmit+0x82>
    {
      pdata8bits  = NULL;
 8001a6e:	2300      	movs	r3, #0
 8001a70:	61fb      	str	r3, [r7, #28]
      pdata16bits = (const uint16_t *) pData;
 8001a72:	68bb      	ldr	r3, [r7, #8]
 8001a74:	61bb      	str	r3, [r7, #24]
 8001a76:	e003      	b.n	8001a80 <HAL_UART_Transmit+0x8a>
    }
    else
    {
      pdata8bits  = pData;
 8001a78:	68bb      	ldr	r3, [r7, #8]
 8001a7a:	61fb      	str	r3, [r7, #28]
      pdata16bits = NULL;
 8001a7c:	2300      	movs	r3, #0
 8001a7e:	61bb      	str	r3, [r7, #24]
    }

    /* Process Unlocked */
    __HAL_UNLOCK(huart);
 8001a80:	68fb      	ldr	r3, [r7, #12]
 8001a82:	2200      	movs	r2, #0
 8001a84:	f883 203c 	strb.w	r2, [r3, #60]	; 0x3c

    while (huart->TxXferCount > 0U)
 8001a88:	e02a      	b.n	8001ae0 <HAL_UART_Transmit+0xea>
    {
      if (UART_WaitOnFlagUntilTimeout(huart, UART_FLAG_TXE, RESET, tickstart, Timeout) != HAL_OK)
 8001a8a:	683b      	ldr	r3, [r7, #0]
 8001a8c:	9300      	str	r3, [sp, #0]
 8001a8e:	697b      	ldr	r3, [r7, #20]
 8001a90:	2200      	movs	r2, #0
 8001a92:	2180      	movs	r1, #128	; 0x80
 8001a94:	68f8      	ldr	r0, [r7, #12]
 8001a96:	f000 f8e2 	bl	8001c5e <UART_WaitOnFlagUntilTimeout>
 8001a9a:	4603      	mov	r3, r0
 8001a9c:	2b00      	cmp	r3, #0
 8001a9e:	d001      	beq.n	8001aa4 <HAL_UART_Transmit+0xae>
      {
        return HAL_TIMEOUT;
 8001aa0:	2303      	movs	r3, #3
 8001aa2:	e036      	b.n	8001b12 <HAL_UART_Transmit+0x11c>
      }
      if (pdata8bits == NULL)
 8001aa4:	69fb      	ldr	r3, [r7, #28]
 8001aa6:	2b00      	cmp	r3, #0
 8001aa8:	d10b      	bne.n	8001ac2 <HAL_UART_Transmit+0xcc>
      {
        huart->Instance->DR = (uint16_t)(*pdata16bits & 0x01FFU);
 8001aaa:	69bb      	ldr	r3, [r7, #24]
 8001aac:	881b      	ldrh	r3, [r3, #0]
 8001aae:	461a      	mov	r2, r3
 8001ab0:	68fb      	ldr	r3, [r7, #12]
 8001ab2:	681b      	ldr	r3, [r3, #0]
 8001ab4:	f3c2 0208 	ubfx	r2, r2, #0, #9
 8001ab8:	605a      	str	r2, [r3, #4]
        pdata16bits++;
 8001aba:	69bb      	ldr	r3, [r7, #24]
 8001abc:	3302      	adds	r3, #2
 8001abe:	61bb      	str	r3, [r7, #24]
 8001ac0:	e007      	b.n	8001ad2 <HAL_UART_Transmit+0xdc>
      }
      else
      {
        huart->Instance->DR = (uint8_t)(*pdata8bits & 0xFFU);
 8001ac2:	69fb      	ldr	r3, [r7, #28]
 8001ac4:	781a      	ldrb	r2, [r3, #0]
 8001ac6:	68fb      	ldr	r3, [r7, #12]
 8001ac8:	681b      	ldr	r3, [r3, #0]
 8001aca:	605a      	str	r2, [r3, #4]
        pdata8bits++;
 8001acc:	69fb      	ldr	r3, [r7, #28]
 8001ace:	3301      	adds	r3, #1
 8001ad0:	61fb      	str	r3, [r7, #28]
      }
      huart->TxXferCount--;
 8001ad2:	68fb      	ldr	r3, [r7, #12]
 8001ad4:	8cdb      	ldrh	r3, [r3, #38]	; 0x26
 8001ad6:	b29b      	uxth	r3, r3
 8001ad8:	3b01      	subs	r3, #1
 8001ada:	b29a      	uxth	r2, r3
 8001adc:	68fb      	ldr	r3, [r7, #12]
 8001ade:	84da      	strh	r2, [r3, #38]	; 0x26
    while (huart->TxXferCount > 0U)
 8001ae0:	68fb      	ldr	r3, [r7, #12]
 8001ae2:	8cdb      	ldrh	r3, [r3, #38]	; 0x26
 8001ae4:	b29b      	uxth	r3, r3
 8001ae6:	2b00      	cmp	r3, #0
 8001ae8:	d1cf      	bne.n	8001a8a <HAL_UART_Transmit+0x94>
    }

    if (UART_WaitOnFlagUntilTimeout(huart, UART_FLAG_TC, RESET, tickstart, Timeout) != HAL_OK)
 8001aea:	683b      	ldr	r3, [r7, #0]
 8001aec:	9300      	str	r3, [sp, #0]
 8001aee:	697b      	ldr	r3, [r7, #20]
 8001af0:	2200      	movs	r2, #0
 8001af2:	2140      	movs	r1, #64	; 0x40
 8001af4:	68f8      	ldr	r0, [r7, #12]
 8001af6:	f000 f8b2 	bl	8001c5e <UART_WaitOnFlagUntilTimeout>
 8001afa:	4603      	mov	r3, r0
 8001afc:	2b00      	cmp	r3, #0
 8001afe:	d001      	beq.n	8001b04 <HAL_UART_Transmit+0x10e>
    {
      return HAL_TIMEOUT;
 8001b00:	2303      	movs	r3, #3
 8001b02:	e006      	b.n	8001b12 <HAL_UART_Transmit+0x11c>
    }

    /* At end of Tx process, restore huart->gState to Ready */
    huart->gState = HAL_UART_STATE_READY;
 8001b04:	68fb      	ldr	r3, [r7, #12]
 8001b06:	2220      	movs	r2, #32
 8001b08:	f883 203d 	strb.w	r2, [r3, #61]	; 0x3d

    return HAL_OK;
 8001b0c:	2300      	movs	r3, #0
 8001b0e:	e000      	b.n	8001b12 <HAL_UART_Transmit+0x11c>
  }
  else
  {
    return HAL_BUSY;
 8001b10:	2302      	movs	r3, #2
  }
}
 8001b12:	4618      	mov	r0, r3
 8001b14:	3720      	adds	r7, #32
 8001b16:	46bd      	mov	sp, r7
 8001b18:	bd80      	pop	{r7, pc}

08001b1a <HAL_UART_Receive>:
  * @param  Size  Amount of data elements (u8 or u16) to be received.
  * @param  Timeout Timeout duration
  * @retval HAL status
  */
HAL_StatusTypeDef HAL_UART_Receive(UART_HandleTypeDef *huart, uint8_t *pData, uint16_t Size, uint32_t Timeout)
{
 8001b1a:	b580      	push	{r7, lr}
 8001b1c:	b08a      	sub	sp, #40	; 0x28
 8001b1e:	af02      	add	r7, sp, #8
 8001b20:	60f8      	str	r0, [r7, #12]
 8001b22:	60b9      	str	r1, [r7, #8]
 8001b24:	603b      	str	r3, [r7, #0]
 8001b26:	4613      	mov	r3, r2
 8001b28:	80fb      	strh	r3, [r7, #6]
  uint8_t  *pdata8bits;
  uint16_t *pdata16bits;
  uint32_t tickstart = 0U;
 8001b2a:	2300      	movs	r3, #0
 8001b2c:	617b      	str	r3, [r7, #20]

  /* Check that a Rx process is not already ongoing */
  if (huart->RxState == HAL_UART_STATE_READY)
 8001b2e:	68fb      	ldr	r3, [r7, #12]
 8001b30:	f893 303e 	ldrb.w	r3, [r3, #62]	; 0x3e
 8001b34:	b2db      	uxtb	r3, r3
 8001b36:	2b20      	cmp	r3, #32
 8001b38:	f040 808c 	bne.w	8001c54 <HAL_UART_Receive+0x13a>
  {
    if ((pData == NULL) || (Size == 0U))
 8001b3c:	68bb      	ldr	r3, [r7, #8]
 8001b3e:	2b00      	cmp	r3, #0
 8001b40:	d002      	beq.n	8001b48 <HAL_UART_Receive+0x2e>
 8001b42:	88fb      	ldrh	r3, [r7, #6]
 8001b44:	2b00      	cmp	r3, #0
 8001b46:	d101      	bne.n	8001b4c <HAL_UART_Receive+0x32>
    {
      return  HAL_ERROR;
 8001b48:	2301      	movs	r3, #1
 8001b4a:	e084      	b.n	8001c56 <HAL_UART_Receive+0x13c>
    }

    /* Process Locked */
    __HAL_LOCK(huart);
 8001b4c:	68fb      	ldr	r3, [r7, #12]
 8001b4e:	f893 303c 	ldrb.w	r3, [r3, #60]	; 0x3c
 8001b52:	2b01      	cmp	r3, #1
 8001b54:	d101      	bne.n	8001b5a <HAL_UART_Receive+0x40>
 8001b56:	2302      	movs	r3, #2
 8001b58:	e07d      	b.n	8001c56 <HAL_UART_Receive+0x13c>
 8001b5a:	68fb      	ldr	r3, [r7, #12]
 8001b5c:	2201      	movs	r2, #1
 8001b5e:	f883 203c 	strb.w	r2, [r3, #60]	; 0x3c

    huart->ErrorCode = HAL_UART_ERROR_NONE;
 8001b62:	68fb      	ldr	r3, [r7, #12]
 8001b64:	2200      	movs	r2, #0
 8001b66:	641a      	str	r2, [r3, #64]	; 0x40
    huart->RxState = HAL_UART_STATE_BUSY_RX;
 8001b68:	68fb      	ldr	r3, [r7, #12]
 8001b6a:	2222      	movs	r2, #34	; 0x22
 8001b6c:	f883 203e 	strb.w	r2, [r3, #62]	; 0x3e
    huart->ReceptionType = HAL_UART_RECEPTION_STANDARD;
 8001b70:	68fb      	ldr	r3, [r7, #12]
 8001b72:	2200      	movs	r2, #0
 8001b74:	631a      	str	r2, [r3, #48]	; 0x30

    /* Init tickstart for timeout management */
    tickstart = HAL_GetTick();
 8001b76:	f7fe ffa1 	bl	8000abc <HAL_GetTick>
 8001b7a:	6178      	str	r0, [r7, #20]

    huart->RxXferSize = Size;
 8001b7c:	68fb      	ldr	r3, [r7, #12]
 8001b7e:	88fa      	ldrh	r2, [r7, #6]
 8001b80:	859a      	strh	r2, [r3, #44]	; 0x2c
    huart->RxXferCount = Size;
 8001b82:	68fb      	ldr	r3, [r7, #12]
 8001b84:	88fa      	ldrh	r2, [r7, #6]
 8001b86:	85da      	strh	r2, [r3, #46]	; 0x2e

    /* In case of 9bits/No Parity transfer, pRxData needs to be handled as a uint16_t pointer */
    if ((huart->Init.WordLength == UART_WORDLENGTH_9B) && (huart->Init.Parity == UART_PARITY_NONE))
 8001b88:	68fb      	ldr	r3, [r7, #12]
 8001b8a:	689b      	ldr	r3, [r3, #8]
 8001b8c:	f5b3 5f80 	cmp.w	r3, #4096	; 0x1000
 8001b90:	d108      	bne.n	8001ba4 <HAL_UART_Receive+0x8a>
 8001b92:	68fb      	ldr	r3, [r7, #12]
 8001b94:	691b      	ldr	r3, [r3, #16]
 8001b96:	2b00      	cmp	r3, #0
 8001b98:	d104      	bne.n	8001ba4 <HAL_UART_Receive+0x8a>
    {
      pdata8bits  = NULL;
 8001b9a:	2300      	movs	r3, #0
 8001b9c:	61fb      	str	r3, [r7, #28]
      pdata16bits = (uint16_t *) pData;
 8001b9e:	68bb      	ldr	r3, [r7, #8]
 8001ba0:	61bb      	str	r3, [r7, #24]
 8001ba2:	e003      	b.n	8001bac <HAL_UART_Receive+0x92>
    }
    else
    {
      pdata8bits  = pData;
 8001ba4:	68bb      	ldr	r3, [r7, #8]
 8001ba6:	61fb      	str	r3, [r7, #28]
      pdata16bits = NULL;
 8001ba8:	2300      	movs	r3, #0
 8001baa:	61bb      	str	r3, [r7, #24]
    }

    /* Process Unlocked */
    __HAL_UNLOCK(huart);
 8001bac:	68fb      	ldr	r3, [r7, #12]
 8001bae:	2200      	movs	r2, #0
 8001bb0:	f883 203c 	strb.w	r2, [r3, #60]	; 0x3c

    /* Check the remain data to be received */
    while (huart->RxXferCount > 0U)
 8001bb4:	e043      	b.n	8001c3e <HAL_UART_Receive+0x124>
    {
      if (UART_WaitOnFlagUntilTimeout(huart, UART_FLAG_RXNE, RESET, tickstart, Timeout) != HAL_OK)
 8001bb6:	683b      	ldr	r3, [r7, #0]
 8001bb8:	9300      	str	r3, [sp, #0]
 8001bba:	697b      	ldr	r3, [r7, #20]
 8001bbc:	2200      	movs	r2, #0
 8001bbe:	2120      	movs	r1, #32
 8001bc0:	68f8      	ldr	r0, [r7, #12]
 8001bc2:	f000 f84c 	bl	8001c5e <UART_WaitOnFlagUntilTimeout>
 8001bc6:	4603      	mov	r3, r0
 8001bc8:	2b00      	cmp	r3, #0
 8001bca:	d001      	beq.n	8001bd0 <HAL_UART_Receive+0xb6>
      {
        return HAL_TIMEOUT;
 8001bcc:	2303      	movs	r3, #3
 8001bce:	e042      	b.n	8001c56 <HAL_UART_Receive+0x13c>
      }
      if (pdata8bits == NULL)
 8001bd0:	69fb      	ldr	r3, [r7, #28]
 8001bd2:	2b00      	cmp	r3, #0
 8001bd4:	d10c      	bne.n	8001bf0 <HAL_UART_Receive+0xd6>
      {
        *pdata16bits = (uint16_t)(huart->Instance->DR & 0x01FF);
 8001bd6:	68fb      	ldr	r3, [r7, #12]
 8001bd8:	681b      	ldr	r3, [r3, #0]
 8001bda:	685b      	ldr	r3, [r3, #4]
 8001bdc:	b29b      	uxth	r3, r3
 8001bde:	f3c3 0308 	ubfx	r3, r3, #0, #9
 8001be2:	b29a      	uxth	r2, r3
 8001be4:	69bb      	ldr	r3, [r7, #24]
 8001be6:	801a      	strh	r2, [r3, #0]
        pdata16bits++;
 8001be8:	69bb      	ldr	r3, [r7, #24]
 8001bea:	3302      	adds	r3, #2
 8001bec:	61bb      	str	r3, [r7, #24]
 8001bee:	e01f      	b.n	8001c30 <HAL_UART_Receive+0x116>
      }
      else
      {
        if ((huart->Init.WordLength == UART_WORDLENGTH_9B) || ((huart->Init.WordLength == UART_WORDLENGTH_8B) && (huart->Init.Parity == UART_PARITY_NONE)))
 8001bf0:	68fb      	ldr	r3, [r7, #12]
 8001bf2:	689b      	ldr	r3, [r3, #8]
 8001bf4:	f5b3 5f80 	cmp.w	r3, #4096	; 0x1000
 8001bf8:	d007      	beq.n	8001c0a <HAL_UART_Receive+0xf0>
 8001bfa:	68fb      	ldr	r3, [r7, #12]
 8001bfc:	689b      	ldr	r3, [r3, #8]
 8001bfe:	2b00      	cmp	r3, #0
 8001c00:	d10a      	bne.n	8001c18 <HAL_UART_Receive+0xfe>
 8001c02:	68fb      	ldr	r3, [r7, #12]
 8001c04:	691b      	ldr	r3, [r3, #16]
 8001c06:	2b00      	cmp	r3, #0
 8001c08:	d106      	bne.n	8001c18 <HAL_UART_Receive+0xfe>
        {
          *pdata8bits = (uint8_t)(huart->Instance->DR & (uint8_t)0x00FF);
 8001c0a:	68fb      	ldr	r3, [r7, #12]
 8001c0c:	681b      	ldr	r3, [r3, #0]
 8001c0e:	685b      	ldr	r3, [r3, #4]
 8001c10:	b2da      	uxtb	r2, r3
 8001c12:	69fb      	ldr	r3, [r7, #28]
 8001c14:	701a      	strb	r2, [r3, #0]
 8001c16:	e008      	b.n	8001c2a <HAL_UART_Receive+0x110>
        }
        else
        {
          *pdata8bits = (uint8_t)(huart->Instance->DR & (uint8_t)0x007F);
 8001c18:	68fb      	ldr	r3, [r7, #12]
 8001c1a:	681b      	ldr	r3, [r3, #0]
 8001c1c:	685b      	ldr	r3, [r3, #4]
 8001c1e:	b2db      	uxtb	r3, r3
 8001c20:	f003 037f 	and.w	r3, r3, #127	; 0x7f
 8001c24:	b2da      	uxtb	r2, r3
 8001c26:	69fb      	ldr	r3, [r7, #28]
 8001c28:	701a      	strb	r2, [r3, #0]
        }
        pdata8bits++;
 8001c2a:	69fb      	ldr	r3, [r7, #28]
 8001c2c:	3301      	adds	r3, #1
 8001c2e:	61fb      	str	r3, [r7, #28]
      }
      huart->RxXferCount--;
 8001c30:	68fb      	ldr	r3, [r7, #12]
 8001c32:	8ddb      	ldrh	r3, [r3, #46]	; 0x2e
 8001c34:	b29b      	uxth	r3, r3
 8001c36:	3b01      	subs	r3, #1
 8001c38:	b29a      	uxth	r2, r3
 8001c3a:	68fb      	ldr	r3, [r7, #12]
 8001c3c:	85da      	strh	r2, [r3, #46]	; 0x2e
    while (huart->RxXferCount > 0U)
 8001c3e:	68fb      	ldr	r3, [r7, #12]
 8001c40:	8ddb      	ldrh	r3, [r3, #46]	; 0x2e
 8001c42:	b29b      	uxth	r3, r3
 8001c44:	2b00      	cmp	r3, #0
 8001c46:	d1b6      	bne.n	8001bb6 <HAL_UART_Receive+0x9c>
    }

    /* At end of Rx process, restore huart->RxState to Ready */
    huart->RxState = HAL_UART_STATE_READY;
 8001c48:	68fb      	ldr	r3, [r7, #12]
 8001c4a:	2220      	movs	r2, #32
 8001c4c:	f883 203e 	strb.w	r2, [r3, #62]	; 0x3e

    return HAL_OK;
 8001c50:	2300      	movs	r3, #0
 8001c52:	e000      	b.n	8001c56 <HAL_UART_Receive+0x13c>
  }
  else
  {
    return HAL_BUSY;
 8001c54:	2302      	movs	r3, #2
  }
}
 8001c56:	4618      	mov	r0, r3
 8001c58:	3720      	adds	r7, #32
 8001c5a:	46bd      	mov	sp, r7
 8001c5c:	bd80      	pop	{r7, pc}

08001c5e <UART_WaitOnFlagUntilTimeout>:
  * @param  Timeout Timeout duration
  * @retval HAL status
  */
static HAL_StatusTypeDef UART_WaitOnFlagUntilTimeout(UART_HandleTypeDef *huart, uint32_t Flag, FlagStatus Status,
                                                     uint32_t Tickstart, uint32_t Timeout)
{
 8001c5e:	b580      	push	{r7, lr}
 8001c60:	b090      	sub	sp, #64	; 0x40
 8001c62:	af00      	add	r7, sp, #0
 8001c64:	60f8      	str	r0, [r7, #12]
 8001c66:	60b9      	str	r1, [r7, #8]
 8001c68:	603b      	str	r3, [r7, #0]
 8001c6a:	4613      	mov	r3, r2
 8001c6c:	71fb      	strb	r3, [r7, #7]
  /* Wait until flag is set */
  while ((__HAL_UART_GET_FLAG(huart, Flag) ? SET : RESET) == Status)
 8001c6e:	e050      	b.n	8001d12 <UART_WaitOnFlagUntilTimeout+0xb4>
  {
    /* Check for the Timeout */
    if (Timeout != HAL_MAX_DELAY)
 8001c70:	6cbb      	ldr	r3, [r7, #72]	; 0x48
 8001c72:	f1b3 3fff 	cmp.w	r3, #4294967295
 8001c76:	d04c      	beq.n	8001d12 <UART_WaitOnFlagUntilTimeout+0xb4>
    {
      if ((Timeout == 0U) || ((HAL_GetTick() - Tickstart) > Timeout))
 8001c78:	6cbb      	ldr	r3, [r7, #72]	; 0x48
 8001c7a:	2b00      	cmp	r3, #0
 8001c7c:	d007      	beq.n	8001c8e <UART_WaitOnFlagUntilTimeout+0x30>
 8001c7e:	f7fe ff1d 	bl	8000abc <HAL_GetTick>
 8001c82:	4602      	mov	r2, r0
 8001c84:	683b      	ldr	r3, [r7, #0]
 8001c86:	1ad3      	subs	r3, r2, r3
 8001c88:	6cba      	ldr	r2, [r7, #72]	; 0x48
 8001c8a:	429a      	cmp	r2, r3
 8001c8c:	d241      	bcs.n	8001d12 <UART_WaitOnFlagUntilTimeout+0xb4>
      {
        /* Disable TXE, RXNE, PE and ERR (Frame error, noise error, overrun error) interrupts for the interrupt process */
        ATOMIC_CLEAR_BIT(huart->Instance->CR1, (USART_CR1_RXNEIE | USART_CR1_PEIE | USART_CR1_TXEIE));
 8001c8e:	68fb      	ldr	r3, [r7, #12]
 8001c90:	681b      	ldr	r3, [r3, #0]
 8001c92:	330c      	adds	r3, #12
 8001c94:	62bb      	str	r3, [r7, #40]	; 0x28
 */
__STATIC_FORCEINLINE uint32_t __LDREXW(volatile uint32_t *addr)
{
    uint32_t result;

   __ASM volatile ("ldrex %0, %1" : "=r" (result) : "Q" (*addr) );
 8001c96:	6abb      	ldr	r3, [r7, #40]	; 0x28
 8001c98:	e853 3f00 	ldrex	r3, [r3]
 8001c9c:	627b      	str	r3, [r7, #36]	; 0x24
   return(result);
 8001c9e:	6a7b      	ldr	r3, [r7, #36]	; 0x24
 8001ca0:	f423 73d0 	bic.w	r3, r3, #416	; 0x1a0
 8001ca4:	63fb      	str	r3, [r7, #60]	; 0x3c
 8001ca6:	68fb      	ldr	r3, [r7, #12]
 8001ca8:	681b      	ldr	r3, [r3, #0]
 8001caa:	330c      	adds	r3, #12
 8001cac:	6bfa      	ldr	r2, [r7, #60]	; 0x3c
 8001cae:	637a      	str	r2, [r7, #52]	; 0x34
 8001cb0:	633b      	str	r3, [r7, #48]	; 0x30
 */
__STATIC_FORCEINLINE uint32_t __STREXW(uint32_t value, volatile uint32_t *addr)
{
   uint32_t result;

   __ASM volatile ("strex %0, %2, %1" : "=&r" (result), "=Q" (*addr) : "r" (value) );
 8001cb2:	6b39      	ldr	r1, [r7, #48]	; 0x30
 8001cb4:	6b7a      	ldr	r2, [r7, #52]	; 0x34
 8001cb6:	e841 2300 	strex	r3, r2, [r1]
 8001cba:	62fb      	str	r3, [r7, #44]	; 0x2c
   return(result);
 8001cbc:	6afb      	ldr	r3, [r7, #44]	; 0x2c
 8001cbe:	2b00      	cmp	r3, #0
 8001cc0:	d1e5      	bne.n	8001c8e <UART_WaitOnFlagUntilTimeout+0x30>
        ATOMIC_CLEAR_BIT(huart->Instance->CR3, USART_CR3_EIE);
 8001cc2:	68fb      	ldr	r3, [r7, #12]
 8001cc4:	681b      	ldr	r3, [r3, #0]
 8001cc6:	3314      	adds	r3, #20
 8001cc8:	617b      	str	r3, [r7, #20]
   __ASM volatile ("ldrex %0, %1" : "=r" (result) : "Q" (*addr) );
 8001cca:	697b      	ldr	r3, [r7, #20]
 8001ccc:	e853 3f00 	ldrex	r3, [r3]
 8001cd0:	613b      	str	r3, [r7, #16]
   return(result);
 8001cd2:	693b      	ldr	r3, [r7, #16]
 8001cd4:	f023 0301 	bic.w	r3, r3, #1
 8001cd8:	63bb      	str	r3, [r7, #56]	; 0x38
 8001cda:	68fb      	ldr	r3, [r7, #12]
 8001cdc:	681b      	ldr	r3, [r3, #0]
 8001cde:	3314      	adds	r3, #20
 8001ce0:	6bba      	ldr	r2, [r7, #56]	; 0x38
 8001ce2:	623a      	str	r2, [r7, #32]
 8001ce4:	61fb      	str	r3, [r7, #28]
   __ASM volatile ("strex %0, %2, %1" : "=&r" (result), "=Q" (*addr) : "r" (value) );
 8001ce6:	69f9      	ldr	r1, [r7, #28]
 8001ce8:	6a3a      	ldr	r2, [r7, #32]
 8001cea:	e841 2300 	strex	r3, r2, [r1]
 8001cee:	61bb      	str	r3, [r7, #24]
   return(result);
 8001cf0:	69bb      	ldr	r3, [r7, #24]
 8001cf2:	2b00      	cmp	r3, #0
 8001cf4:	d1e5      	bne.n	8001cc2 <UART_WaitOnFlagUntilTimeout+0x64>

        huart->gState  = HAL_UART_STATE_READY;
 8001cf6:	68fb      	ldr	r3, [r7, #12]
 8001cf8:	2220      	movs	r2, #32
 8001cfa:	f883 203d 	strb.w	r2, [r3, #61]	; 0x3d
        huart->RxState = HAL_UART_STATE_READY;
 8001cfe:	68fb      	ldr	r3, [r7, #12]
 8001d00:	2220      	movs	r2, #32
 8001d02:	f883 203e 	strb.w	r2, [r3, #62]	; 0x3e

        /* Process Unlocked */
        __HAL_UNLOCK(huart);
 8001d06:	68fb      	ldr	r3, [r7, #12]
 8001d08:	2200      	movs	r2, #0
 8001d0a:	f883 203c 	strb.w	r2, [r3, #60]	; 0x3c

        return HAL_TIMEOUT;
 8001d0e:	2303      	movs	r3, #3
 8001d10:	e00f      	b.n	8001d32 <UART_WaitOnFlagUntilTimeout+0xd4>
  while ((__HAL_UART_GET_FLAG(huart, Flag) ? SET : RESET) == Status)
 8001d12:	68fb      	ldr	r3, [r7, #12]
 8001d14:	681b      	ldr	r3, [r3, #0]
 8001d16:	681a      	ldr	r2, [r3, #0]
 8001d18:	68bb      	ldr	r3, [r7, #8]
 8001d1a:	4013      	ands	r3, r2
 8001d1c:	68ba      	ldr	r2, [r7, #8]
 8001d1e:	429a      	cmp	r2, r3
 8001d20:	bf0c      	ite	eq
 8001d22:	2301      	moveq	r3, #1
 8001d24:	2300      	movne	r3, #0
 8001d26:	b2db      	uxtb	r3, r3
 8001d28:	461a      	mov	r2, r3
 8001d2a:	79fb      	ldrb	r3, [r7, #7]
 8001d2c:	429a      	cmp	r2, r3
 8001d2e:	d09f      	beq.n	8001c70 <UART_WaitOnFlagUntilTimeout+0x12>
      }
    }
  }
  return HAL_OK;
 8001d30:	2300      	movs	r3, #0
}
 8001d32:	4618      	mov	r0, r3
 8001d34:	3740      	adds	r7, #64	; 0x40
 8001d36:	46bd      	mov	sp, r7
 8001d38:	bd80      	pop	{r7, pc}
	...

08001d3c <UART_SetConfig>:
  * @param  huart  Pointer to a UART_HandleTypeDef structure that contains
  *                the configuration information for the specified UART module.
  * @retval None
  */
static void UART_SetConfig(UART_HandleTypeDef *huart)
{
 8001d3c:	e92d 4fb0 	stmdb	sp!, {r4, r5, r7, r8, r9, sl, fp, lr}
 8001d40:	b0c0      	sub	sp, #256	; 0x100
 8001d42:	af00      	add	r7, sp, #0
 8001d44:	f8c7 00f4 	str.w	r0, [r7, #244]	; 0xf4
  assert_param(IS_UART_MODE(huart->Init.Mode));

  /*-------------------------- USART CR2 Configuration -----------------------*/
  /* Configure the UART Stop Bits: Set STOP[13:12] bits
     according to huart->Init.StopBits value */
  MODIFY_REG(huart->Instance->CR2, USART_CR2_STOP, huart->Init.StopBits);
 8001d48:	f8d7 30f4 	ldr.w	r3, [r7, #244]	; 0xf4
 8001d4c:	681b      	ldr	r3, [r3, #0]
 8001d4e:	691b      	ldr	r3, [r3, #16]
 8001d50:	f423 5040 	bic.w	r0, r3, #12288	; 0x3000
 8001d54:	f8d7 30f4 	ldr.w	r3, [r7, #244]	; 0xf4
 8001d58:	68d9      	ldr	r1, [r3, #12]
 8001d5a:	f8d7 30f4 	ldr.w	r3, [r7, #244]	; 0xf4
 8001d5e:	681a      	ldr	r2, [r3, #0]
 8001d60:	ea40 0301 	orr.w	r3, r0, r1
 8001d64:	6113      	str	r3, [r2, #16]
     Set the M bits according to huart->Init.WordLength value
     Set PCE and PS bits according to huart->Init.Parity value
     Set TE and RE bits according to huart->Init.Mode value
     Set OVER8 bit according to huart->Init.OverSampling value */

  tmpreg = (uint32_t)huart->Init.WordLength | huart->Init.Parity | huart->Init.Mode | huart->Init.OverSampling;
 8001d66:	f8d7 30f4 	ldr.w	r3, [r7, #244]	; 0xf4
 8001d6a:	689a      	ldr	r2, [r3, #8]
 8001d6c:	f8d7 30f4 	ldr.w	r3, [r7, #244]	; 0xf4
 8001d70:	691b      	ldr	r3, [r3, #16]
 8001d72:	431a      	orrs	r2, r3
 8001d74:	f8d7 30f4 	ldr.w	r3, [r7, #244]	; 0xf4
 8001d78:	695b      	ldr	r3, [r3, #20]
 8001d7a:	431a      	orrs	r2, r3
 8001d7c:	f8d7 30f4 	ldr.w	r3, [r7, #244]	; 0xf4
 8001d80:	69db      	ldr	r3, [r3, #28]
 8001d82:	4313      	orrs	r3, r2
 8001d84:	f8c7 30f8 	str.w	r3, [r7, #248]	; 0xf8
  MODIFY_REG(huart->Instance->CR1,
 8001d88:	f8d7 30f4 	ldr.w	r3, [r7, #244]	; 0xf4
 8001d8c:	681b      	ldr	r3, [r3, #0]
 8001d8e:	68db      	ldr	r3, [r3, #12]
 8001d90:	f423 4116 	bic.w	r1, r3, #38400	; 0x9600
 8001d94:	f021 010c 	bic.w	r1, r1, #12
 8001d98:	f8d7 30f4 	ldr.w	r3, [r7, #244]	; 0xf4
 8001d9c:	681a      	ldr	r2, [r3, #0]
 8001d9e:	f8d7 30f8 	ldr.w	r3, [r7, #248]	; 0xf8
 8001da2:	430b      	orrs	r3, r1
 8001da4:	60d3      	str	r3, [r2, #12]
             (uint32_t)(USART_CR1_M | USART_CR1_PCE | USART_CR1_PS | USART_CR1_TE | USART_CR1_RE | USART_CR1_OVER8),
             tmpreg);

  /*-------------------------- USART CR3 Configuration -----------------------*/
  /* Configure the UART HFC: Set CTSE and RTSE bits according to huart->Init.HwFlowCtl value */
  MODIFY_REG(huart->Instance->CR3, (USART_CR3_RTSE | USART_CR3_CTSE), huart->Init.HwFlowCtl);
 8001da6:	f8d7 30f4 	ldr.w	r3, [r7, #244]	; 0xf4
 8001daa:	681b      	ldr	r3, [r3, #0]
 8001dac:	695b      	ldr	r3, [r3, #20]
 8001dae:	f423 7040 	bic.w	r0, r3, #768	; 0x300
 8001db2:	f8d7 30f4 	ldr.w	r3, [r7, #244]	; 0xf4
 8001db6:	6999      	ldr	r1, [r3, #24]
 8001db8:	f8d7 30f4 	ldr.w	r3, [r7, #244]	; 0xf4
 8001dbc:	681a      	ldr	r2, [r3, #0]
 8001dbe:	ea40 0301 	orr.w	r3, r0, r1
 8001dc2:	6153      	str	r3, [r2, #20]
    if ((huart->Instance == USART1) || (huart->Instance == USART6) || (huart->Instance == UART9) || (huart->Instance == UART10))
    {
      pclk = HAL_RCC_GetPCLK2Freq();
    }
#elif defined(USART6)
    if ((huart->Instance == USART1) || (huart->Instance == USART6))
 8001dc4:	f8d7 30f4 	ldr.w	r3, [r7, #244]	; 0xf4
 8001dc8:	681a      	ldr	r2, [r3, #0]
 8001dca:	4b8f      	ldr	r3, [pc, #572]	; (8002008 <UART_SetConfig+0x2cc>)
 8001dcc:	429a      	cmp	r2, r3
 8001dce:	d005      	beq.n	8001ddc <UART_SetConfig+0xa0>
 8001dd0:	f8d7 30f4 	ldr.w	r3, [r7, #244]	; 0xf4
 8001dd4:	681a      	ldr	r2, [r3, #0]
 8001dd6:	4b8d      	ldr	r3, [pc, #564]	; (800200c <UART_SetConfig+0x2d0>)
 8001dd8:	429a      	cmp	r2, r3
 8001dda:	d104      	bne.n	8001de6 <UART_SetConfig+0xaa>
    {
      pclk = HAL_RCC_GetPCLK2Freq();
 8001ddc:	f7ff fdaa 	bl	8001934 <HAL_RCC_GetPCLK2Freq>
 8001de0:	f8c7 00fc 	str.w	r0, [r7, #252]	; 0xfc
 8001de4:	e003      	b.n	8001dee <UART_SetConfig+0xb2>
      pclk = HAL_RCC_GetPCLK2Freq();
    }
#endif /* USART6 */
    else
    {
      pclk = HAL_RCC_GetPCLK1Freq();
 8001de6:	f7ff fd91 	bl	800190c <HAL_RCC_GetPCLK1Freq>
 8001dea:	f8c7 00fc 	str.w	r0, [r7, #252]	; 0xfc
    }
  /*-------------------------- USART BRR Configuration ---------------------*/
  if (huart->Init.OverSampling == UART_OVERSAMPLING_8)
 8001dee:	f8d7 30f4 	ldr.w	r3, [r7, #244]	; 0xf4
 8001df2:	69db      	ldr	r3, [r3, #28]
 8001df4:	f5b3 4f00 	cmp.w	r3, #32768	; 0x8000
 8001df8:	f040 810c 	bne.w	8002014 <UART_SetConfig+0x2d8>
  {
    huart->Instance->BRR = UART_BRR_SAMPLING8(pclk, huart->Init.BaudRate);
 8001dfc:	f8d7 30fc 	ldr.w	r3, [r7, #252]	; 0xfc
 8001e00:	2200      	movs	r2, #0
 8001e02:	f8c7 30e8 	str.w	r3, [r7, #232]	; 0xe8
 8001e06:	f8c7 20ec 	str.w	r2, [r7, #236]	; 0xec
 8001e0a:	e9d7 453a 	ldrd	r4, r5, [r7, #232]	; 0xe8
 8001e0e:	4622      	mov	r2, r4
 8001e10:	462b      	mov	r3, r5
 8001e12:	1891      	adds	r1, r2, r2
 8001e14:	65b9      	str	r1, [r7, #88]	; 0x58
 8001e16:	415b      	adcs	r3, r3
 8001e18:	65fb      	str	r3, [r7, #92]	; 0x5c
 8001e1a:	e9d7 2316 	ldrd	r2, r3, [r7, #88]	; 0x58
 8001e1e:	4621      	mov	r1, r4
 8001e20:	eb12 0801 	adds.w	r8, r2, r1
 8001e24:	4629      	mov	r1, r5
 8001e26:	eb43 0901 	adc.w	r9, r3, r1
 8001e2a:	f04f 0200 	mov.w	r2, #0
 8001e2e:	f04f 0300 	mov.w	r3, #0
 8001e32:	ea4f 03c9 	mov.w	r3, r9, lsl #3
 8001e36:	ea43 7358 	orr.w	r3, r3, r8, lsr #29
 8001e3a:	ea4f 02c8 	mov.w	r2, r8, lsl #3
 8001e3e:	4690      	mov	r8, r2
 8001e40:	4699      	mov	r9, r3
 8001e42:	4623      	mov	r3, r4
 8001e44:	eb18 0303 	adds.w	r3, r8, r3
 8001e48:	f8c7 30e0 	str.w	r3, [r7, #224]	; 0xe0
 8001e4c:	462b      	mov	r3, r5
 8001e4e:	eb49 0303 	adc.w	r3, r9, r3
 8001e52:	f8c7 30e4 	str.w	r3, [r7, #228]	; 0xe4
 8001e56:	f8d7 30f4 	ldr.w	r3, [r7, #244]	; 0xf4
 8001e5a:	685b      	ldr	r3, [r3, #4]
 8001e5c:	2200      	movs	r2, #0
 8001e5e:	f8c7 30d8 	str.w	r3, [r7, #216]	; 0xd8
 8001e62:	f8c7 20dc 	str.w	r2, [r7, #220]	; 0xdc
 8001e66:	e9d7 1236 	ldrd	r1, r2, [r7, #216]	; 0xd8
 8001e6a:	460b      	mov	r3, r1
 8001e6c:	18db      	adds	r3, r3, r3
 8001e6e:	653b      	str	r3, [r7, #80]	; 0x50
 8001e70:	4613      	mov	r3, r2
 8001e72:	eb42 0303 	adc.w	r3, r2, r3
 8001e76:	657b      	str	r3, [r7, #84]	; 0x54
 8001e78:	e9d7 2314 	ldrd	r2, r3, [r7, #80]	; 0x50
 8001e7c:	e9d7 0138 	ldrd	r0, r1, [r7, #224]	; 0xe0
 8001e80:	f7fe f9be 	bl	8000200 <__aeabi_uldivmod>
 8001e84:	4602      	mov	r2, r0
 8001e86:	460b      	mov	r3, r1
 8001e88:	4b61      	ldr	r3, [pc, #388]	; (8002010 <UART_SetConfig+0x2d4>)
 8001e8a:	fba3 2302 	umull	r2, r3, r3, r2
 8001e8e:	095b      	lsrs	r3, r3, #5
 8001e90:	011c      	lsls	r4, r3, #4
 8001e92:	f8d7 30fc 	ldr.w	r3, [r7, #252]	; 0xfc
 8001e96:	2200      	movs	r2, #0
 8001e98:	f8c7 30d0 	str.w	r3, [r7, #208]	; 0xd0
 8001e9c:	f8c7 20d4 	str.w	r2, [r7, #212]	; 0xd4
 8001ea0:	e9d7 8934 	ldrd	r8, r9, [r7, #208]	; 0xd0
 8001ea4:	4642      	mov	r2, r8
 8001ea6:	464b      	mov	r3, r9
 8001ea8:	1891      	adds	r1, r2, r2
 8001eaa:	64b9      	str	r1, [r7, #72]	; 0x48
 8001eac:	415b      	adcs	r3, r3
 8001eae:	64fb      	str	r3, [r7, #76]	; 0x4c
 8001eb0:	e9d7 2312 	ldrd	r2, r3, [r7, #72]	; 0x48
 8001eb4:	4641      	mov	r1, r8
 8001eb6:	eb12 0a01 	adds.w	sl, r2, r1
 8001eba:	4649      	mov	r1, r9
 8001ebc:	eb43 0b01 	adc.w	fp, r3, r1
 8001ec0:	f04f 0200 	mov.w	r2, #0
 8001ec4:	f04f 0300 	mov.w	r3, #0
 8001ec8:	ea4f 03cb 	mov.w	r3, fp, lsl #3
 8001ecc:	ea43 735a 	orr.w	r3, r3, sl, lsr #29
 8001ed0:	ea4f 02ca 	mov.w	r2, sl, lsl #3
 8001ed4:	4692      	mov	sl, r2
 8001ed6:	469b      	mov	fp, r3
 8001ed8:	4643      	mov	r3, r8
 8001eda:	eb1a 0303 	adds.w	r3, sl, r3
 8001ede:	f8c7 30c8 	str.w	r3, [r7, #200]	; 0xc8
 8001ee2:	464b      	mov	r3, r9
 8001ee4:	eb4b 0303 	adc.w	r3, fp, r3
 8001ee8:	f8c7 30cc 	str.w	r3, [r7, #204]	; 0xcc
 8001eec:	f8d7 30f4 	ldr.w	r3, [r7, #244]	; 0xf4
 8001ef0:	685b      	ldr	r3, [r3, #4]
 8001ef2:	2200      	movs	r2, #0
 8001ef4:	f8c7 30c0 	str.w	r3, [r7, #192]	; 0xc0
 8001ef8:	f8c7 20c4 	str.w	r2, [r7, #196]	; 0xc4
 8001efc:	e9d7 1230 	ldrd	r1, r2, [r7, #192]	; 0xc0
 8001f00:	460b      	mov	r3, r1
 8001f02:	18db      	adds	r3, r3, r3
 8001f04:	643b      	str	r3, [r7, #64]	; 0x40
 8001f06:	4613      	mov	r3, r2
 8001f08:	eb42 0303 	adc.w	r3, r2, r3
 8001f0c:	647b      	str	r3, [r7, #68]	; 0x44
 8001f0e:	e9d7 2310 	ldrd	r2, r3, [r7, #64]	; 0x40
 8001f12:	e9d7 0132 	ldrd	r0, r1, [r7, #200]	; 0xc8
 8001f16:	f7fe f973 	bl	8000200 <__aeabi_uldivmod>
 8001f1a:	4602      	mov	r2, r0
 8001f1c:	460b      	mov	r3, r1
 8001f1e:	4611      	mov	r1, r2
 8001f20:	4b3b      	ldr	r3, [pc, #236]	; (8002010 <UART_SetConfig+0x2d4>)
 8001f22:	fba3 2301 	umull	r2, r3, r3, r1
 8001f26:	095b      	lsrs	r3, r3, #5
 8001f28:	2264      	movs	r2, #100	; 0x64
 8001f2a:	fb02 f303 	mul.w	r3, r2, r3
 8001f2e:	1acb      	subs	r3, r1, r3
 8001f30:	00db      	lsls	r3, r3, #3
 8001f32:	f103 0232 	add.w	r2, r3, #50	; 0x32
 8001f36:	4b36      	ldr	r3, [pc, #216]	; (8002010 <UART_SetConfig+0x2d4>)
 8001f38:	fba3 2302 	umull	r2, r3, r3, r2
 8001f3c:	095b      	lsrs	r3, r3, #5
 8001f3e:	005b      	lsls	r3, r3, #1
 8001f40:	f403 73f8 	and.w	r3, r3, #496	; 0x1f0
 8001f44:	441c      	add	r4, r3
 8001f46:	f8d7 30fc 	ldr.w	r3, [r7, #252]	; 0xfc
 8001f4a:	2200      	movs	r2, #0
 8001f4c:	f8c7 30b8 	str.w	r3, [r7, #184]	; 0xb8
 8001f50:	f8c7 20bc 	str.w	r2, [r7, #188]	; 0xbc
 8001f54:	e9d7 892e 	ldrd	r8, r9, [r7, #184]	; 0xb8
 8001f58:	4642      	mov	r2, r8
 8001f5a:	464b      	mov	r3, r9
 8001f5c:	1891      	adds	r1, r2, r2
 8001f5e:	63b9      	str	r1, [r7, #56]	; 0x38
 8001f60:	415b      	adcs	r3, r3
 8001f62:	63fb      	str	r3, [r7, #60]	; 0x3c
 8001f64:	e9d7 230e 	ldrd	r2, r3, [r7, #56]	; 0x38
 8001f68:	4641      	mov	r1, r8
 8001f6a:	1851      	adds	r1, r2, r1
 8001f6c:	6339      	str	r1, [r7, #48]	; 0x30
 8001f6e:	4649      	mov	r1, r9
 8001f70:	414b      	adcs	r3, r1
 8001f72:	637b      	str	r3, [r7, #52]	; 0x34
 8001f74:	f04f 0200 	mov.w	r2, #0
 8001f78:	f04f 0300 	mov.w	r3, #0
 8001f7c:	e9d7 ab0c 	ldrd	sl, fp, [r7, #48]	; 0x30
 8001f80:	4659      	mov	r1, fp
 8001f82:	00cb      	lsls	r3, r1, #3
 8001f84:	4651      	mov	r1, sl
 8001f86:	ea43 7351 	orr.w	r3, r3, r1, lsr #29
 8001f8a:	4651      	mov	r1, sl
 8001f8c:	00ca      	lsls	r2, r1, #3
 8001f8e:	4610      	mov	r0, r2
 8001f90:	4619      	mov	r1, r3
 8001f92:	4603      	mov	r3, r0
 8001f94:	4642      	mov	r2, r8
 8001f96:	189b      	adds	r3, r3, r2
 8001f98:	f8c7 30b0 	str.w	r3, [r7, #176]	; 0xb0
 8001f9c:	464b      	mov	r3, r9
 8001f9e:	460a      	mov	r2, r1
 8001fa0:	eb42 0303 	adc.w	r3, r2, r3
 8001fa4:	f8c7 30b4 	str.w	r3, [r7, #180]	; 0xb4
 8001fa8:	f8d7 30f4 	ldr.w	r3, [r7, #244]	; 0xf4
 8001fac:	685b      	ldr	r3, [r3, #4]
 8001fae:	2200      	movs	r2, #0
 8001fb0:	f8c7 30a8 	str.w	r3, [r7, #168]	; 0xa8
 8001fb4:	f8c7 20ac 	str.w	r2, [r7, #172]	; 0xac
 8001fb8:	e9d7 122a 	ldrd	r1, r2, [r7, #168]	; 0xa8
 8001fbc:	460b      	mov	r3, r1
 8001fbe:	18db      	adds	r3, r3, r3
 8001fc0:	62bb      	str	r3, [r7, #40]	; 0x28
 8001fc2:	4613      	mov	r3, r2
 8001fc4:	eb42 0303 	adc.w	r3, r2, r3
 8001fc8:	62fb      	str	r3, [r7, #44]	; 0x2c
 8001fca:	e9d7 230a 	ldrd	r2, r3, [r7, #40]	; 0x28
 8001fce:	e9d7 012c 	ldrd	r0, r1, [r7, #176]	; 0xb0
 8001fd2:	f7fe f915 	bl	8000200 <__aeabi_uldivmod>
 8001fd6:	4602      	mov	r2, r0
 8001fd8:	460b      	mov	r3, r1
 8001fda:	4b0d      	ldr	r3, [pc, #52]	; (8002010 <UART_SetConfig+0x2d4>)
 8001fdc:	fba3 1302 	umull	r1, r3, r3, r2
 8001fe0:	095b      	lsrs	r3, r3, #5
 8001fe2:	2164      	movs	r1, #100	; 0x64
 8001fe4:	fb01 f303 	mul.w	r3, r1, r3
 8001fe8:	1ad3      	subs	r3, r2, r3
 8001fea:	00db      	lsls	r3, r3, #3
 8001fec:	3332      	adds	r3, #50	; 0x32
 8001fee:	4a08      	ldr	r2, [pc, #32]	; (8002010 <UART_SetConfig+0x2d4>)
 8001ff0:	fba2 2303 	umull	r2, r3, r2, r3
 8001ff4:	095b      	lsrs	r3, r3, #5
 8001ff6:	f003 0207 	and.w	r2, r3, #7
 8001ffa:	f8d7 30f4 	ldr.w	r3, [r7, #244]	; 0xf4
 8001ffe:	681b      	ldr	r3, [r3, #0]
 8002000:	4422      	add	r2, r4
 8002002:	609a      	str	r2, [r3, #8]
  }
  else
  {
    huart->Instance->BRR = UART_BRR_SAMPLING16(pclk, huart->Init.BaudRate);
  }
}
 8002004:	e105      	b.n	8002212 <UART_SetConfig+0x4d6>
 8002006:	bf00      	nop
 8002008:	40011000 	.word	0x40011000
 800200c:	40011400 	.word	0x40011400
 8002010:	51eb851f 	.word	0x51eb851f
    huart->Instance->BRR = UART_BRR_SAMPLING16(pclk, huart->Init.BaudRate);
 8002014:	f8d7 30fc 	ldr.w	r3, [r7, #252]	; 0xfc
 8002018:	2200      	movs	r2, #0
 800201a:	f8c7 30a0 	str.w	r3, [r7, #160]	; 0xa0
 800201e:	f8c7 20a4 	str.w	r2, [r7, #164]	; 0xa4
 8002022:	e9d7 8928 	ldrd	r8, r9, [r7, #160]	; 0xa0
 8002026:	4642      	mov	r2, r8
 8002028:	464b      	mov	r3, r9
 800202a:	1891      	adds	r1, r2, r2
 800202c:	6239      	str	r1, [r7, #32]
 800202e:	415b      	adcs	r3, r3
 8002030:	627b      	str	r3, [r7, #36]	; 0x24
 8002032:	e9d7 2308 	ldrd	r2, r3, [r7, #32]
 8002036:	4641      	mov	r1, r8
 8002038:	1854      	adds	r4, r2, r1
 800203a:	4649      	mov	r1, r9
 800203c:	eb43 0501 	adc.w	r5, r3, r1
 8002040:	f04f 0200 	mov.w	r2, #0
 8002044:	f04f 0300 	mov.w	r3, #0
 8002048:	00eb      	lsls	r3, r5, #3
 800204a:	ea43 7354 	orr.w	r3, r3, r4, lsr #29
 800204e:	00e2      	lsls	r2, r4, #3
 8002050:	4614      	mov	r4, r2
 8002052:	461d      	mov	r5, r3
 8002054:	4643      	mov	r3, r8
 8002056:	18e3      	adds	r3, r4, r3
 8002058:	f8c7 3098 	str.w	r3, [r7, #152]	; 0x98
 800205c:	464b      	mov	r3, r9
 800205e:	eb45 0303 	adc.w	r3, r5, r3
 8002062:	f8c7 309c 	str.w	r3, [r7, #156]	; 0x9c
 8002066:	f8d7 30f4 	ldr.w	r3, [r7, #244]	; 0xf4
 800206a:	685b      	ldr	r3, [r3, #4]
 800206c:	2200      	movs	r2, #0
 800206e:	f8c7 3090 	str.w	r3, [r7, #144]	; 0x90
 8002072:	f8c7 2094 	str.w	r2, [r7, #148]	; 0x94
 8002076:	f04f 0200 	mov.w	r2, #0
 800207a:	f04f 0300 	mov.w	r3, #0
 800207e:	e9d7 4524 	ldrd	r4, r5, [r7, #144]	; 0x90
 8002082:	4629      	mov	r1, r5
 8002084:	008b      	lsls	r3, r1, #2
 8002086:	4621      	mov	r1, r4
 8002088:	ea43 7391 	orr.w	r3, r3, r1, lsr #30
 800208c:	4621      	mov	r1, r4
 800208e:	008a      	lsls	r2, r1, #2
 8002090:	e9d7 0126 	ldrd	r0, r1, [r7, #152]	; 0x98
 8002094:	f7fe f8b4 	bl	8000200 <__aeabi_uldivmod>
 8002098:	4602      	mov	r2, r0
 800209a:	460b      	mov	r3, r1
 800209c:	4b60      	ldr	r3, [pc, #384]	; (8002220 <UART_SetConfig+0x4e4>)
 800209e:	fba3 2302 	umull	r2, r3, r3, r2
 80020a2:	095b      	lsrs	r3, r3, #5
 80020a4:	011c      	lsls	r4, r3, #4
 80020a6:	f8d7 30fc 	ldr.w	r3, [r7, #252]	; 0xfc
 80020aa:	2200      	movs	r2, #0
 80020ac:	f8c7 3088 	str.w	r3, [r7, #136]	; 0x88
 80020b0:	f8c7 208c 	str.w	r2, [r7, #140]	; 0x8c
 80020b4:	e9d7 8922 	ldrd	r8, r9, [r7, #136]	; 0x88
 80020b8:	4642      	mov	r2, r8
 80020ba:	464b      	mov	r3, r9
 80020bc:	1891      	adds	r1, r2, r2
 80020be:	61b9      	str	r1, [r7, #24]
 80020c0:	415b      	adcs	r3, r3
 80020c2:	61fb      	str	r3, [r7, #28]
 80020c4:	e9d7 2306 	ldrd	r2, r3, [r7, #24]
 80020c8:	4641      	mov	r1, r8
 80020ca:	1851      	adds	r1, r2, r1
 80020cc:	6139      	str	r1, [r7, #16]
 80020ce:	4649      	mov	r1, r9
 80020d0:	414b      	adcs	r3, r1
 80020d2:	617b      	str	r3, [r7, #20]
 80020d4:	f04f 0200 	mov.w	r2, #0
 80020d8:	f04f 0300 	mov.w	r3, #0
 80020dc:	e9d7 ab04 	ldrd	sl, fp, [r7, #16]
 80020e0:	4659      	mov	r1, fp
 80020e2:	00cb      	lsls	r3, r1, #3
 80020e4:	4651      	mov	r1, sl
 80020e6:	ea43 7351 	orr.w	r3, r3, r1, lsr #29
 80020ea:	4651      	mov	r1, sl
 80020ec:	00ca      	lsls	r2, r1, #3
 80020ee:	4610      	mov	r0, r2
 80020f0:	4619      	mov	r1, r3
 80020f2:	4603      	mov	r3, r0
 80020f4:	4642      	mov	r2, r8
 80020f6:	189b      	adds	r3, r3, r2
 80020f8:	f8c7 3080 	str.w	r3, [r7, #128]	; 0x80
 80020fc:	464b      	mov	r3, r9
 80020fe:	460a      	mov	r2, r1
 8002100:	eb42 0303 	adc.w	r3, r2, r3
 8002104:	f8c7 3084 	str.w	r3, [r7, #132]	; 0x84
 8002108:	f8d7 30f4 	ldr.w	r3, [r7, #244]	; 0xf4
 800210c:	685b      	ldr	r3, [r3, #4]
 800210e:	2200      	movs	r2, #0
 8002110:	67bb      	str	r3, [r7, #120]	; 0x78
 8002112:	67fa      	str	r2, [r7, #124]	; 0x7c
 8002114:	f04f 0200 	mov.w	r2, #0
 8002118:	f04f 0300 	mov.w	r3, #0
 800211c:	e9d7 891e 	ldrd	r8, r9, [r7, #120]	; 0x78
 8002120:	4649      	mov	r1, r9
 8002122:	008b      	lsls	r3, r1, #2
 8002124:	4641      	mov	r1, r8
 8002126:	ea43 7391 	orr.w	r3, r3, r1, lsr #30
 800212a:	4641      	mov	r1, r8
 800212c:	008a      	lsls	r2, r1, #2
 800212e:	e9d7 0120 	ldrd	r0, r1, [r7, #128]	; 0x80
 8002132:	f7fe f865 	bl	8000200 <__aeabi_uldivmod>
 8002136:	4602      	mov	r2, r0
 8002138:	460b      	mov	r3, r1
 800213a:	4b39      	ldr	r3, [pc, #228]	; (8002220 <UART_SetConfig+0x4e4>)
 800213c:	fba3 1302 	umull	r1, r3, r3, r2
 8002140:	095b      	lsrs	r3, r3, #5
 8002142:	2164      	movs	r1, #100	; 0x64
 8002144:	fb01 f303 	mul.w	r3, r1, r3
 8002148:	1ad3      	subs	r3, r2, r3
 800214a:	011b      	lsls	r3, r3, #4
 800214c:	3332      	adds	r3, #50	; 0x32
 800214e:	4a34      	ldr	r2, [pc, #208]	; (8002220 <UART_SetConfig+0x4e4>)
 8002150:	fba2 2303 	umull	r2, r3, r2, r3
 8002154:	095b      	lsrs	r3, r3, #5
 8002156:	f003 03f0 	and.w	r3, r3, #240	; 0xf0
 800215a:	441c      	add	r4, r3
 800215c:	f8d7 30fc 	ldr.w	r3, [r7, #252]	; 0xfc
 8002160:	2200      	movs	r2, #0
 8002162:	673b      	str	r3, [r7, #112]	; 0x70
 8002164:	677a      	str	r2, [r7, #116]	; 0x74
 8002166:	e9d7 891c 	ldrd	r8, r9, [r7, #112]	; 0x70
 800216a:	4642      	mov	r2, r8
 800216c:	464b      	mov	r3, r9
 800216e:	1891      	adds	r1, r2, r2
 8002170:	60b9      	str	r1, [r7, #8]
 8002172:	415b      	adcs	r3, r3
 8002174:	60fb      	str	r3, [r7, #12]
 8002176:	e9d7 2302 	ldrd	r2, r3, [r7, #8]
 800217a:	4641      	mov	r1, r8
 800217c:	1851      	adds	r1, r2, r1
 800217e:	6039      	str	r1, [r7, #0]
 8002180:	4649      	mov	r1, r9
 8002182:	414b      	adcs	r3, r1
 8002184:	607b      	str	r3, [r7, #4]
 8002186:	f04f 0200 	mov.w	r2, #0
 800218a:	f04f 0300 	mov.w	r3, #0
 800218e:	e9d7 ab00 	ldrd	sl, fp, [r7]
 8002192:	4659      	mov	r1, fp
 8002194:	00cb      	lsls	r3, r1, #3
 8002196:	4651      	mov	r1, sl
 8002198:	ea43 7351 	orr.w	r3, r3, r1, lsr #29
 800219c:	4651      	mov	r1, sl
 800219e:	00ca      	lsls	r2, r1, #3
 80021a0:	4610      	mov	r0, r2
 80021a2:	4619      	mov	r1, r3
 80021a4:	4603      	mov	r3, r0
 80021a6:	4642      	mov	r2, r8
 80021a8:	189b      	adds	r3, r3, r2
 80021aa:	66bb      	str	r3, [r7, #104]	; 0x68
 80021ac:	464b      	mov	r3, r9
 80021ae:	460a      	mov	r2, r1
 80021b0:	eb42 0303 	adc.w	r3, r2, r3
 80021b4:	66fb      	str	r3, [r7, #108]	; 0x6c
 80021b6:	f8d7 30f4 	ldr.w	r3, [r7, #244]	; 0xf4
 80021ba:	685b      	ldr	r3, [r3, #4]
 80021bc:	2200      	movs	r2, #0
 80021be:	663b      	str	r3, [r7, #96]	; 0x60
