
usb_virtual_com_port.elf:     file format elf32-littlearm

Sections:
Idx Name          Size      VMA       LMA       File off  Algn
  0 .isr_vector   000001ac  08000000  08000000  00010000  2**0
                  CONTENTS, ALLOC, LOAD, READONLY, DATA
  1 .text         00007920  080001ac  080001ac  000101ac  2**2
                  CONTENTS, ALLOC, LOAD, READONLY, CODE
  2 .rodata       000000c4  08007acc  08007acc  00017acc  2**2
                  CONTENTS, ALLOC, LOAD, READONLY, DATA
  3 .ARM.extab    00000000  08007b90  08007b90  00020168  2**0
                  CONTENTS
  4 .ARM          00000008  08007b90  08007b90  00017b90  2**2
                  CONTENTS, ALLOC, LOAD, READONLY, DATA
  5 .preinit_array 00000000  08007b98  08007b98  00020168  2**0
                  CONTENTS, ALLOC, LOAD, DATA
  6 .init_array   00000004  08007b98  08007b98  00017b98  2**2
                  CONTENTS, ALLOC, LOAD, DATA
  7 .fini_array   00000004  08007b9c  08007b9c  00017b9c  2**2
                  CONTENTS, ALLOC, LOAD, DATA
  8 .data         00000168  20000000  08007ba0  00020000  2**2
                  CONTENTS, ALLOC, LOAD, DATA
  9 .ccmram       00000000  10000000  10000000  00020168  2**0
                  CONTENTS
 10 .bss          00001c40  20000168  20000168  00020168  2**2
                  ALLOC
 11 ._user_heap_stack 00000600  20001da8  20001da8  00020168  2**0
                  ALLOC
 12 .ARM.attributes 00000030  00000000  00000000  00020168  2**0
                  CONTENTS, READONLY
 13 .debug_info   0000e729  00000000  00000000  00020198  2**0
                  CONTENTS, READONLY, DEBUGGING, OCTETS
 14 .debug_abbrev 00002b56  00000000  00000000  0002e8c1  2**0
                  CONTENTS, READONLY, DEBUGGING, OCTETS
 15 .debug_aranges 00000c18  00000000  00000000  00031418  2**3
                  CONTENTS, READONLY, DEBUGGING, OCTETS
 16 .debug_ranges 00000ac0  00000000  00000000  00032030  2**3
                  CONTENTS, READONLY, DEBUGGING, OCTETS
 17 .debug_macro  00026049  00000000  00000000  00032af0  2**0
                  CONTENTS, READONLY, DEBUGGING, OCTETS
 18 .debug_line   0000fa89  00000000  00000000  00058b39  2**0
                  CONTENTS, READONLY, DEBUGGING, OCTETS
 19 .debug_str    000d44e4  00000000  00000000  000685c2  2**0
                  CONTENTS, READONLY, DEBUGGING, OCTETS
 20 .comment      00000050  00000000  00000000  0013caa6  2**0
                  CONTENTS, READONLY
 21 .debug_frame  0000363c  00000000  00000000  0013caf8  2**2
                  CONTENTS, READONLY, DEBUGGING, OCTETS

Disassembly of section .text:

080001ac <__do_global_dtors_aux>:
 80001ac:	b510      	push	{r4, lr}
 80001ae:	4c05      	ldr	r4, [pc, #20]	; (80001c4 <__do_global_dtors_aux+0x18>)
 80001b0:	7823      	ldrb	r3, [r4, #0]
 80001b2:	b933      	cbnz	r3, 80001c2 <__do_global_dtors_aux+0x16>
 80001b4:	4b04      	ldr	r3, [pc, #16]	; (80001c8 <__do_global_dtors_aux+0x1c>)
 80001b6:	b113      	cbz	r3, 80001be <__do_global_dtors_aux+0x12>
 80001b8:	4804      	ldr	r0, [pc, #16]	; (80001cc <__do_global_dtors_aux+0x20>)
 80001ba:	f3af 8000 	nop.w
 80001be:	2301      	movs	r3, #1
 80001c0:	7023      	strb	r3, [r4, #0]
 80001c2:	bd10      	pop	{r4, pc}
 80001c4:	20000168 	.word	0x20000168
 80001c8:	00000000 	.word	0x00000000
 80001cc:	08007ab4 	.word	0x08007ab4

080001d0 <frame_dummy>:
 80001d0:	b508      	push	{r3, lr}
 80001d2:	4b03      	ldr	r3, [pc, #12]	; (80001e0 <frame_dummy+0x10>)
 80001d4:	b11b      	cbz	r3, 80001de <frame_dummy+0xe>
 80001d6:	4903      	ldr	r1, [pc, #12]	; (80001e4 <frame_dummy+0x14>)
 80001d8:	4803      	ldr	r0, [pc, #12]	; (80001e8 <frame_dummy+0x18>)
 80001da:	f3af 8000 	nop.w
 80001de:	bd08      	pop	{r3, pc}
 80001e0:	00000000 	.word	0x00000000
 80001e4:	2000016c 	.word	0x2000016c
 80001e8:	08007ab4 	.word	0x08007ab4

080001ec <__aeabi_uldivmod>:
 80001ec:	b953      	cbnz	r3, 8000204 <__aeabi_uldivmod+0x18>
 80001ee:	b94a      	cbnz	r2, 8000204 <__aeabi_uldivmod+0x18>
 80001f0:	2900      	cmp	r1, #0
 80001f2:	bf08      	it	eq
 80001f4:	2800      	cmpeq	r0, #0
 80001f6:	bf1c      	itt	ne
 80001f8:	f04f 31ff 	movne.w	r1, #4294967295
 80001fc:	f04f 30ff 	movne.w	r0, #4294967295
 8000200:	f000 b974 	b.w	80004ec <__aeabi_idiv0>
 8000204:	f1ad 0c08 	sub.w	ip, sp, #8
 8000208:	e96d ce04 	strd	ip, lr, [sp, #-16]!
 800020c:	f000 f806 	bl	800021c <__udivmoddi4>
 8000210:	f8dd e004 	ldr.w	lr, [sp, #4]
 8000214:	e9dd 2302 	ldrd	r2, r3, [sp, #8]
 8000218:	b004      	add	sp, #16
 800021a:	4770      	bx	lr

0800021c <__udivmoddi4>:
 800021c:	e92d 47f0 	stmdb	sp!, {r4, r5, r6, r7, r8, r9, sl, lr}
 8000220:	9d08      	ldr	r5, [sp, #32]
 8000222:	4604      	mov	r4, r0
 8000224:	468e      	mov	lr, r1
 8000226:	2b00      	cmp	r3, #0
 8000228:	d14d      	bne.n	80002c6 <__udivmoddi4+0xaa>
 800022a:	428a      	cmp	r2, r1
 800022c:	4694      	mov	ip, r2
 800022e:	d969      	bls.n	8000304 <__udivmoddi4+0xe8>
 8000230:	fab2 f282 	clz	r2, r2
 8000234:	b152      	cbz	r2, 800024c <__udivmoddi4+0x30>
 8000236:	fa01 f302 	lsl.w	r3, r1, r2
 800023a:	f1c2 0120 	rsb	r1, r2, #32
 800023e:	fa20 f101 	lsr.w	r1, r0, r1
 8000242:	fa0c fc02 	lsl.w	ip, ip, r2
 8000246:	ea41 0e03 	orr.w	lr, r1, r3
 800024a:	4094      	lsls	r4, r2
 800024c:	ea4f 481c 	mov.w	r8, ip, lsr #16
 8000250:	0c21      	lsrs	r1, r4, #16
 8000252:	fbbe f6f8 	udiv	r6, lr, r8
 8000256:	fa1f f78c 	uxth.w	r7, ip
 800025a:	fb08 e316 	mls	r3, r8, r6, lr
 800025e:	ea41 4303 	orr.w	r3, r1, r3, lsl #16
 8000262:	fb06 f107 	mul.w	r1, r6, r7
 8000266:	4299      	cmp	r1, r3
 8000268:	d90a      	bls.n	8000280 <__udivmoddi4+0x64>
 800026a:	eb1c 0303 	adds.w	r3, ip, r3
 800026e:	f106 30ff 	add.w	r0, r6, #4294967295
 8000272:	f080 811f 	bcs.w	80004b4 <__udivmoddi4+0x298>
 8000276:	4299      	cmp	r1, r3
 8000278:	f240 811c 	bls.w	80004b4 <__udivmoddi4+0x298>
 800027c:	3e02      	subs	r6, #2
 800027e:	4463      	add	r3, ip
 8000280:	1a5b      	subs	r3, r3, r1
 8000282:	b2a4      	uxth	r4, r4
 8000284:	fbb3 f0f8 	udiv	r0, r3, r8
 8000288:	fb08 3310 	mls	r3, r8, r0, r3
 800028c:	ea44 4403 	orr.w	r4, r4, r3, lsl #16
 8000290:	fb00 f707 	mul.w	r7, r0, r7
 8000294:	42a7      	cmp	r7, r4
 8000296:	d90a      	bls.n	80002ae <__udivmoddi4+0x92>
 8000298:	eb1c 0404 	adds.w	r4, ip, r4
 800029c:	f100 33ff 	add.w	r3, r0, #4294967295
 80002a0:	f080 810a 	bcs.w	80004b8 <__udivmoddi4+0x29c>
 80002a4:	42a7      	cmp	r7, r4
 80002a6:	f240 8107 	bls.w	80004b8 <__udivmoddi4+0x29c>
 80002aa:	4464      	add	r4, ip
 80002ac:	3802      	subs	r0, #2
 80002ae:	ea40 4006 	orr.w	r0, r0, r6, lsl #16
 80002b2:	1be4      	subs	r4, r4, r7
 80002b4:	2600      	movs	r6, #0
 80002b6:	b11d      	cbz	r5, 80002c0 <__udivmoddi4+0xa4>
 80002b8:	40d4      	lsrs	r4, r2
 80002ba:	2300      	movs	r3, #0
 80002bc:	e9c5 4300 	strd	r4, r3, [r5]
 80002c0:	4631      	mov	r1, r6
 80002c2:	e8bd 87f0 	ldmia.w	sp!, {r4, r5, r6, r7, r8, r9, sl, pc}
 80002c6:	428b      	cmp	r3, r1
 80002c8:	d909      	bls.n	80002de <__udivmoddi4+0xc2>
 80002ca:	2d00      	cmp	r5, #0
 80002cc:	f000 80ef 	beq.w	80004ae <__udivmoddi4+0x292>
 80002d0:	2600      	movs	r6, #0
 80002d2:	e9c5 0100 	strd	r0, r1, [r5]
 80002d6:	4630      	mov	r0, r6
 80002d8:	4631      	mov	r1, r6
 80002da:	e8bd 87f0 	ldmia.w	sp!, {r4, r5, r6, r7, r8, r9, sl, pc}
 80002de:	fab3 f683 	clz	r6, r3
 80002e2:	2e00      	cmp	r6, #0
 80002e4:	d14a      	bne.n	800037c <__udivmoddi4+0x160>
 80002e6:	428b      	cmp	r3, r1
 80002e8:	d302      	bcc.n	80002f0 <__udivmoddi4+0xd4>
 80002ea:	4282      	cmp	r2, r0
 80002ec:	f200 80f9 	bhi.w	80004e2 <__udivmoddi4+0x2c6>
 80002f0:	1a84      	subs	r4, r0, r2
 80002f2:	eb61 0303 	sbc.w	r3, r1, r3
 80002f6:	2001      	movs	r0, #1
 80002f8:	469e      	mov	lr, r3
 80002fa:	2d00      	cmp	r5, #0
 80002fc:	d0e0      	beq.n	80002c0 <__udivmoddi4+0xa4>
 80002fe:	e9c5 4e00 	strd	r4, lr, [r5]
 8000302:	e7dd      	b.n	80002c0 <__udivmoddi4+0xa4>
 8000304:	b902      	cbnz	r2, 8000308 <__udivmoddi4+0xec>
 8000306:	deff      	udf	#255	; 0xff
 8000308:	fab2 f282 	clz	r2, r2
 800030c:	2a00      	cmp	r2, #0
 800030e:	f040 8092 	bne.w	8000436 <__udivmoddi4+0x21a>
 8000312:	eba1 010c 	sub.w	r1, r1, ip
 8000316:	ea4f 471c 	mov.w	r7, ip, lsr #16
 800031a:	fa1f fe8c 	uxth.w	lr, ip
 800031e:	2601      	movs	r6, #1
 8000320:	0c20      	lsrs	r0, r4, #16
 8000322:	fbb1 f3f7 	udiv	r3, r1, r7
 8000326:	fb07 1113 	mls	r1, r7, r3, r1
 800032a:	ea40 4101 	orr.w	r1, r0, r1, lsl #16
 800032e:	fb0e f003 	mul.w	r0, lr, r3
 8000332:	4288      	cmp	r0, r1
 8000334:	d908      	bls.n	8000348 <__udivmoddi4+0x12c>
 8000336:	eb1c 0101 	adds.w	r1, ip, r1
 800033a:	f103 38ff 	add.w	r8, r3, #4294967295
 800033e:	d202      	bcs.n	8000346 <__udivmoddi4+0x12a>
 8000340:	4288      	cmp	r0, r1
 8000342:	f200 80cb 	bhi.w	80004dc <__udivmoddi4+0x2c0>
 8000346:	4643      	mov	r3, r8
 8000348:	1a09      	subs	r1, r1, r0
 800034a:	b2a4      	uxth	r4, r4
 800034c:	fbb1 f0f7 	udiv	r0, r1, r7
 8000350:	fb07 1110 	mls	r1, r7, r0, r1
 8000354:	ea44 4401 	orr.w	r4, r4, r1, lsl #16
 8000358:	fb0e fe00 	mul.w	lr, lr, r0
 800035c:	45a6      	cmp	lr, r4
 800035e:	d908      	bls.n	8000372 <__udivmoddi4+0x156>
 8000360:	eb1c 0404 	adds.w	r4, ip, r4
 8000364:	f100 31ff 	add.w	r1, r0, #4294967295
 8000368:	d202      	bcs.n	8000370 <__udivmoddi4+0x154>
 800036a:	45a6      	cmp	lr, r4
 800036c:	f200 80bb 	bhi.w	80004e6 <__udivmoddi4+0x2ca>
 8000370:	4608      	mov	r0, r1
 8000372:	eba4 040e 	sub.w	r4, r4, lr
 8000376:	ea40 4003 	orr.w	r0, r0, r3, lsl #16
 800037a:	e79c      	b.n	80002b6 <__udivmoddi4+0x9a>
 800037c:	f1c6 0720 	rsb	r7, r6, #32
 8000380:	40b3      	lsls	r3, r6
 8000382:	fa22 fc07 	lsr.w	ip, r2, r7
 8000386:	ea4c 0c03 	orr.w	ip, ip, r3
 800038a:	fa20 f407 	lsr.w	r4, r0, r7
 800038e:	fa01 f306 	lsl.w	r3, r1, r6
 8000392:	431c      	orrs	r4, r3
 8000394:	40f9      	lsrs	r1, r7
 8000396:	ea4f 491c 	mov.w	r9, ip, lsr #16
 800039a:	fa00 f306 	lsl.w	r3, r0, r6
 800039e:	fbb1 f8f9 	udiv	r8, r1, r9
 80003a2:	0c20      	lsrs	r0, r4, #16
 80003a4:	fa1f fe8c 	uxth.w	lr, ip
 80003a8:	fb09 1118 	mls	r1, r9, r8, r1
 80003ac:	ea40 4101 	orr.w	r1, r0, r1, lsl #16
 80003b0:	fb08 f00e 	mul.w	r0, r8, lr
 80003b4:	4288      	cmp	r0, r1
 80003b6:	fa02 f206 	lsl.w	r2, r2, r6
 80003ba:	d90b      	bls.n	80003d4 <__udivmoddi4+0x1b8>
 80003bc:	eb1c 0101 	adds.w	r1, ip, r1
 80003c0:	f108 3aff 	add.w	sl, r8, #4294967295
 80003c4:	f080 8088 	bcs.w	80004d8 <__udivmoddi4+0x2bc>
 80003c8:	4288      	cmp	r0, r1
 80003ca:	f240 8085 	bls.w	80004d8 <__udivmoddi4+0x2bc>
 80003ce:	f1a8 0802 	sub.w	r8, r8, #2
 80003d2:	4461      	add	r1, ip
 80003d4:	1a09      	subs	r1, r1, r0
 80003d6:	b2a4      	uxth	r4, r4
 80003d8:	fbb1 f0f9 	udiv	r0, r1, r9
 80003dc:	fb09 1110 	mls	r1, r9, r0, r1
 80003e0:	ea44 4101 	orr.w	r1, r4, r1, lsl #16
 80003e4:	fb00 fe0e 	mul.w	lr, r0, lr
 80003e8:	458e      	cmp	lr, r1
 80003ea:	d908      	bls.n	80003fe <__udivmoddi4+0x1e2>
 80003ec:	eb1c 0101 	adds.w	r1, ip, r1
 80003f0:	f100 34ff 	add.w	r4, r0, #4294967295
 80003f4:	d26c      	bcs.n	80004d0 <__udivmoddi4+0x2b4>
 80003f6:	458e      	cmp	lr, r1
 80003f8:	d96a      	bls.n	80004d0 <__udivmoddi4+0x2b4>
 80003fa:	3802      	subs	r0, #2
 80003fc:	4461      	add	r1, ip
 80003fe:	ea40 4008 	orr.w	r0, r0, r8, lsl #16
 8000402:	fba0 9402 	umull	r9, r4, r0, r2
 8000406:	eba1 010e 	sub.w	r1, r1, lr
 800040a:	42a1      	cmp	r1, r4
 800040c:	46c8      	mov	r8, r9
 800040e:	46a6      	mov	lr, r4
 8000410:	d356      	bcc.n	80004c0 <__udivmoddi4+0x2a4>
 8000412:	d053      	beq.n	80004bc <__udivmoddi4+0x2a0>
 8000414:	b15d      	cbz	r5, 800042e <__udivmoddi4+0x212>
 8000416:	ebb3 0208 	subs.w	r2, r3, r8
 800041a:	eb61 010e 	sbc.w	r1, r1, lr
 800041e:	fa01 f707 	lsl.w	r7, r1, r7
 8000422:	fa22 f306 	lsr.w	r3, r2, r6
 8000426:	40f1      	lsrs	r1, r6
 8000428:	431f      	orrs	r7, r3
 800042a:	e9c5 7100 	strd	r7, r1, [r5]
 800042e:	2600      	movs	r6, #0
 8000430:	4631      	mov	r1, r6
 8000432:	e8bd 87f0 	ldmia.w	sp!, {r4, r5, r6, r7, r8, r9, sl, pc}
 8000436:	f1c2 0320 	rsb	r3, r2, #32
 800043a:	40d8      	lsrs	r0, r3
 800043c:	fa0c fc02 	lsl.w	ip, ip, r2
 8000440:	fa21 f303 	lsr.w	r3, r1, r3
 8000444:	4091      	lsls	r1, r2
 8000446:	4301      	orrs	r1, r0
 8000448:	ea4f 471c 	mov.w	r7, ip, lsr #16
 800044c:	fa1f fe8c 	uxth.w	lr, ip
 8000450:	fbb3 f0f7 	udiv	r0, r3, r7
 8000454:	fb07 3610 	mls	r6, r7, r0, r3
 8000458:	0c0b      	lsrs	r3, r1, #16
 800045a:	ea43 4306 	orr.w	r3, r3, r6, lsl #16
 800045e:	fb00 f60e 	mul.w	r6, r0, lr
 8000462:	429e      	cmp	r6, r3
 8000464:	fa04 f402 	lsl.w	r4, r4, r2
 8000468:	d908      	bls.n	800047c <__udivmoddi4+0x260>
 800046a:	eb1c 0303 	adds.w	r3, ip, r3
 800046e:	f100 38ff 	add.w	r8, r0, #4294967295
 8000472:	d22f      	bcs.n	80004d4 <__udivmoddi4+0x2b8>
 8000474:	429e      	cmp	r6, r3
 8000476:	d92d      	bls.n	80004d4 <__udivmoddi4+0x2b8>
 8000478:	3802      	subs	r0, #2
 800047a:	4463      	add	r3, ip
 800047c:	1b9b      	subs	r3, r3, r6
 800047e:	b289      	uxth	r1, r1
 8000480:	fbb3 f6f7 	udiv	r6, r3, r7
 8000484:	fb07 3316 	mls	r3, r7, r6, r3
 8000488:	ea41 4103 	orr.w	r1, r1, r3, lsl #16
 800048c:	fb06 f30e 	mul.w	r3, r6, lr
 8000490:	428b      	cmp	r3, r1
 8000492:	d908      	bls.n	80004a6 <__udivmoddi4+0x28a>
 8000494:	eb1c 0101 	adds.w	r1, ip, r1
 8000498:	f106 38ff 	add.w	r8, r6, #4294967295
 800049c:	d216      	bcs.n	80004cc <__udivmoddi4+0x2b0>
 800049e:	428b      	cmp	r3, r1
 80004a0:	d914      	bls.n	80004cc <__udivmoddi4+0x2b0>
 80004a2:	3e02      	subs	r6, #2
 80004a4:	4461      	add	r1, ip
 80004a6:	1ac9      	subs	r1, r1, r3
 80004a8:	ea46 4600 	orr.w	r6, r6, r0, lsl #16
 80004ac:	e738      	b.n	8000320 <__udivmoddi4+0x104>
 80004ae:	462e      	mov	r6, r5
 80004b0:	4628      	mov	r0, r5
 80004b2:	e705      	b.n	80002c0 <__udivmoddi4+0xa4>
 80004b4:	4606      	mov	r6, r0
 80004b6:	e6e3      	b.n	8000280 <__udivmoddi4+0x64>
 80004b8:	4618      	mov	r0, r3
 80004ba:	e6f8      	b.n	80002ae <__udivmoddi4+0x92>
 80004bc:	454b      	cmp	r3, r9
 80004be:	d2a9      	bcs.n	8000414 <__udivmoddi4+0x1f8>
 80004c0:	ebb9 0802 	subs.w	r8, r9, r2
 80004c4:	eb64 0e0c 	sbc.w	lr, r4, ip
 80004c8:	3801      	subs	r0, #1
 80004ca:	e7a3      	b.n	8000414 <__udivmoddi4+0x1f8>
 80004cc:	4646      	mov	r6, r8
 80004ce:	e7ea      	b.n	80004a6 <__udivmoddi4+0x28a>
 80004d0:	4620      	mov	r0, r4
 80004d2:	e794      	b.n	80003fe <__udivmoddi4+0x1e2>
 80004d4:	4640      	mov	r0, r8
 80004d6:	e7d1      	b.n	800047c <__udivmoddi4+0x260>
 80004d8:	46d0      	mov	r8, sl
 80004da:	e77b      	b.n	80003d4 <__udivmoddi4+0x1b8>
 80004dc:	3b02      	subs	r3, #2
 80004de:	4461      	add	r1, ip
 80004e0:	e732      	b.n	8000348 <__udivmoddi4+0x12c>
 80004e2:	4630      	mov	r0, r6
 80004e4:	e709      	b.n	80002fa <__udivmoddi4+0xde>
 80004e6:	4464      	add	r4, ip
 80004e8:	3802      	subs	r0, #2
 80004ea:	e742      	b.n	8000372 <__udivmoddi4+0x156>

080004ec <__aeabi_idiv0>:
 80004ec:	4770      	bx	lr
 80004ee:	bf00      	nop

080004f0 <_write>:
/* USER CODE END PFP */

/* Private user code ---------------------------------------------------------*/
/* USER CODE BEGIN 0 */
int _write(int file, char *ptr, int len)
{
 80004f0:	b580      	push	{r7, lr}
 80004f2:	b084      	sub	sp, #16
 80004f4:	af00      	add	r7, sp, #0
 80004f6:	60f8      	str	r0, [r7, #12]
 80004f8:	60b9      	str	r1, [r7, #8]
 80004fa:	607a      	str	r2, [r7, #4]
	CDC_Transmit_HS((uint8_t *) ptr, len);
 80004fc:	687b      	ldr	r3, [r7, #4]
 80004fe:	b29b      	uxth	r3, r3
 8000500:	4619      	mov	r1, r3
 8000502:	68b8      	ldr	r0, [r7, #8]
 8000504:	f006 f948 	bl	8006798 <CDC_Transmit_HS>
	return len;
 8000508:	687b      	ldr	r3, [r7, #4]

}
 800050a:	4618      	mov	r0, r3
 800050c:	3710      	adds	r7, #16
 800050e:	46bd      	mov	sp, r7
 8000510:	bd80      	pop	{r7, pc}
	...

08000514 <main>:
/**
  * @brief  The application entry point.
  * @retval int
  */
int main(void)
{
 8000514:	b580      	push	{r7, lr}
 8000516:	af00      	add	r7, sp, #0
  /* USER CODE END 1 */

  /* MCU Configuration--------------------------------------------------------*/

  /* Reset of all peripherals, Initializes the Flash interface and the Systick. */
  HAL_Init();
 8000518:	f000 f9d8 	bl	80008cc <HAL_Init>
  /* USER CODE BEGIN Init */

  /* USER CODE END Init */

  /* Configure the system clock */
  SystemClock_Config();
 800051c:	f000 f80e 	bl	800053c <SystemClock_Config>
  /* USER CODE BEGIN SysInit */

  /* USER CODE END SysInit */

  /* Initialize all configured peripherals */
  MX_GPIO_Init();
 8000520:	f000 f878 	bl	8000614 <MX_GPIO_Init>
  MX_USB_DEVICE_Init();
 8000524:	f006 f82a 	bl	800657c <MX_USB_DEVICE_Init>
  /* Infinite loop */
  /* USER CODE BEGIN WHILE */
  while (1)
  {
    /* USER CODE END WHILE */
	  printf("Hello\r\n");
 8000528:	4803      	ldr	r0, [pc, #12]	; (8000538 <main+0x24>)
 800052a:	f006 fe33 	bl	8007194 <puts>
//char buff[]= "Hello\r\n";
//CDC_Transmit_HS((uint8_t *) buff, (uint16_t) strlen(buff));
     HAL_Delay(2000);
 800052e:	f44f 60fa 	mov.w	r0, #2000	; 0x7d0
 8000532:	f000 fa3d 	bl	80009b0 <HAL_Delay>
	  printf("Hello\r\n");
 8000536:	e7f7      	b.n	8000528 <main+0x14>
 8000538:	08007acc 	.word	0x08007acc

0800053c <SystemClock_Config>:
/**
  * @brief System Clock Configuration
  * @retval None
  */
void SystemClock_Config(void)
{
 800053c:	b580      	push	{r7, lr}
 800053e:	b094      	sub	sp, #80	; 0x50
 8000540:	af00      	add	r7, sp, #0
  RCC_OscInitTypeDef RCC_OscInitStruct = {0};
 8000542:	f107 0320 	add.w	r3, r7, #32
 8000546:	2230      	movs	r2, #48	; 0x30
 8000548:	2100      	movs	r1, #0
 800054a:	4618      	mov	r0, r3
 800054c:	f006 fdac 	bl	80070a8 <memset>
  RCC_ClkInitTypeDef RCC_ClkInitStruct = {0};
 8000550:	f107 030c 	add.w	r3, r7, #12
 8000554:	2200      	movs	r2, #0
 8000556:	601a      	str	r2, [r3, #0]
 8000558:	605a      	str	r2, [r3, #4]
 800055a:	609a      	str	r2, [r3, #8]
 800055c:	60da      	str	r2, [r3, #12]
 800055e:	611a      	str	r2, [r3, #16]

  /** Configure the main internal regulator output voltage
  */
  __HAL_RCC_PWR_CLK_ENABLE();
 8000560:	2300      	movs	r3, #0
 8000562:	60bb      	str	r3, [r7, #8]
 8000564:	4b29      	ldr	r3, [pc, #164]	; (800060c <SystemClock_Config+0xd0>)
 8000566:	6c1b      	ldr	r3, [r3, #64]	; 0x40
 8000568:	4a28      	ldr	r2, [pc, #160]	; (800060c <SystemClock_Config+0xd0>)
 800056a:	f043 5380 	orr.w	r3, r3, #268435456	; 0x10000000
 800056e:	6413      	str	r3, [r2, #64]	; 0x40
 8000570:	4b26      	ldr	r3, [pc, #152]	; (800060c <SystemClock_Config+0xd0>)
 8000572:	6c1b      	ldr	r3, [r3, #64]	; 0x40
 8000574:	f003 5380 	and.w	r3, r3, #268435456	; 0x10000000
 8000578:	60bb      	str	r3, [r7, #8]
 800057a:	68bb      	ldr	r3, [r7, #8]
  __HAL_PWR_VOLTAGESCALING_CONFIG(PWR_REGULATOR_VOLTAGE_SCALE3);
 800057c:	2300      	movs	r3, #0
 800057e:	607b      	str	r3, [r7, #4]
 8000580:	4b23      	ldr	r3, [pc, #140]	; (8000610 <SystemClock_Config+0xd4>)
 8000582:	681b      	ldr	r3, [r3, #0]
 8000584:	f423 4340 	bic.w	r3, r3, #49152	; 0xc000
 8000588:	4a21      	ldr	r2, [pc, #132]	; (8000610 <SystemClock_Config+0xd4>)
 800058a:	f443 4380 	orr.w	r3, r3, #16384	; 0x4000
 800058e:	6013      	str	r3, [r2, #0]
 8000590:	4b1f      	ldr	r3, [pc, #124]	; (8000610 <SystemClock_Config+0xd4>)
 8000592:	681b      	ldr	r3, [r3, #0]
 8000594:	f403 4340 	and.w	r3, r3, #49152	; 0xc000
 8000598:	607b      	str	r3, [r7, #4]
 800059a:	687b      	ldr	r3, [r7, #4]

  /** Initializes the RCC Oscillators according to the specified parameters
  * in the RCC_OscInitTypeDef structure.
  */
  RCC_OscInitStruct.OscillatorType = RCC_OSCILLATORTYPE_HSE;
 800059c:	2301      	movs	r3, #1
 800059e:	623b      	str	r3, [r7, #32]
  RCC_OscInitStruct.HSEState = RCC_HSE_ON;
 80005a0:	f44f 3380 	mov.w	r3, #65536	; 0x10000
 80005a4:	627b      	str	r3, [r7, #36]	; 0x24
  RCC_OscInitStruct.PLL.PLLState = RCC_PLL_ON;
 80005a6:	2302      	movs	r3, #2
 80005a8:	63bb      	str	r3, [r7, #56]	; 0x38
  RCC_OscInitStruct.PLL.PLLSource = RCC_PLLSOURCE_HSE;
 80005aa:	f44f 0380 	mov.w	r3, #4194304	; 0x400000
 80005ae:	63fb      	str	r3, [r7, #60]	; 0x3c
  RCC_OscInitStruct.PLL.PLLM = 4;
 80005b0:	2304      	movs	r3, #4
 80005b2:	643b      	str	r3, [r7, #64]	; 0x40
  RCC_OscInitStruct.PLL.PLLN = 120;
 80005b4:	2378      	movs	r3, #120	; 0x78
 80005b6:	647b      	str	r3, [r7, #68]	; 0x44
  RCC_OscInitStruct.PLL.PLLP = RCC_PLLP_DIV2;
 80005b8:	2302      	movs	r3, #2
 80005ba:	64bb      	str	r3, [r7, #72]	; 0x48
  RCC_OscInitStruct.PLL.PLLQ = 5;
 80005bc:	2305      	movs	r3, #5
 80005be:	64fb      	str	r3, [r7, #76]	; 0x4c
  if (HAL_RCC_OscConfig(&RCC_OscInitStruct) != HAL_OK)
 80005c0:	f107 0320 	add.w	r3, r7, #32
 80005c4:	4618      	mov	r0, r3
 80005c6:	f001 ff53 	bl	8002470 <HAL_RCC_OscConfig>
 80005ca:	4603      	mov	r3, r0
 80005cc:	2b00      	cmp	r3, #0
 80005ce:	d001      	beq.n	80005d4 <SystemClock_Config+0x98>
  {
    Error_Handler();
 80005d0:	f000 f856 	bl	8000680 <Error_Handler>
  }

  /** Initializes the CPU, AHB and APB buses clocks
  */
  RCC_ClkInitStruct.ClockType = RCC_CLOCKTYPE_HCLK|RCC_CLOCKTYPE_SYSCLK
 80005d4:	230f      	movs	r3, #15
 80005d6:	60fb      	str	r3, [r7, #12]
                              |RCC_CLOCKTYPE_PCLK1|RCC_CLOCKTYPE_PCLK2;
  RCC_ClkInitStruct.SYSCLKSource = RCC_SYSCLKSOURCE_PLLCLK;
 80005d8:	2302      	movs	r3, #2
 80005da:	613b      	str	r3, [r7, #16]
  RCC_ClkInitStruct.AHBCLKDivider = RCC_SYSCLK_DIV1;
 80005dc:	2300      	movs	r3, #0
 80005de:	617b      	str	r3, [r7, #20]
  RCC_ClkInitStruct.APB1CLKDivider = RCC_HCLK_DIV4;
 80005e0:	f44f 53a0 	mov.w	r3, #5120	; 0x1400
 80005e4:	61bb      	str	r3, [r7, #24]
  RCC_ClkInitStruct.APB2CLKDivider = RCC_HCLK_DIV2;
 80005e6:	f44f 5380 	mov.w	r3, #4096	; 0x1000
 80005ea:	61fb      	str	r3, [r7, #28]

  if (HAL_RCC_ClockConfig(&RCC_ClkInitStruct, FLASH_LATENCY_3) != HAL_OK)
 80005ec:	f107 030c 	add.w	r3, r7, #12
 80005f0:	2103      	movs	r1, #3
 80005f2:	4618      	mov	r0, r3
 80005f4:	f002 f9b4 	bl	8002960 <HAL_RCC_ClockConfig>
 80005f8:	4603      	mov	r3, r0
 80005fa:	2b00      	cmp	r3, #0
 80005fc:	d001      	beq.n	8000602 <SystemClock_Config+0xc6>
  {
    Error_Handler();
 80005fe:	f000 f83f 	bl	8000680 <Error_Handler>
  }
}
 8000602:	bf00      	nop
 8000604:	3750      	adds	r7, #80	; 0x50
 8000606:	46bd      	mov	sp, r7
 8000608:	bd80      	pop	{r7, pc}
 800060a:	bf00      	nop
 800060c:	40023800 	.word	0x40023800
 8000610:	40007000 	.word	0x40007000

08000614 <MX_GPIO_Init>:
  * @brief GPIO Initialization Function
  * @param None
  * @retval None
  */
static void MX_GPIO_Init(void)
{
 8000614:	b480      	push	{r7}
 8000616:	b085      	sub	sp, #20
 8000618:	af00      	add	r7, sp, #0
/* USER CODE BEGIN MX_GPIO_Init_1 */
/* USER CODE END MX_GPIO_Init_1 */

  /* GPIO Ports Clock Enable */
  __HAL_RCC_GPIOH_CLK_ENABLE();
 800061a:	2300      	movs	r3, #0
 800061c:	60fb      	str	r3, [r7, #12]
 800061e:	4b17      	ldr	r3, [pc, #92]	; (800067c <MX_GPIO_Init+0x68>)
 8000620:	6b1b      	ldr	r3, [r3, #48]	; 0x30
 8000622:	4a16      	ldr	r2, [pc, #88]	; (800067c <MX_GPIO_Init+0x68>)
 8000624:	f043 0380 	orr.w	r3, r3, #128	; 0x80
 8000628:	6313      	str	r3, [r2, #48]	; 0x30
 800062a:	4b14      	ldr	r3, [pc, #80]	; (800067c <MX_GPIO_Init+0x68>)
 800062c:	6b1b      	ldr	r3, [r3, #48]	; 0x30
 800062e:	f003 0380 	and.w	r3, r3, #128	; 0x80
 8000632:	60fb      	str	r3, [r7, #12]
 8000634:	68fb      	ldr	r3, [r7, #12]
  __HAL_RCC_GPIOB_CLK_ENABLE();
 8000636:	2300      	movs	r3, #0
 8000638:	60bb      	str	r3, [r7, #8]
 800063a:	4b10      	ldr	r3, [pc, #64]	; (800067c <MX_GPIO_Init+0x68>)
 800063c:	6b1b      	ldr	r3, [r3, #48]	; 0x30
 800063e:	4a0f      	ldr	r2, [pc, #60]	; (800067c <MX_GPIO_Init+0x68>)
 8000640:	f043 0302 	orr.w	r3, r3, #2
 8000644:	6313      	str	r3, [r2, #48]	; 0x30
 8000646:	4b0d      	ldr	r3, [pc, #52]	; (800067c <MX_GPIO_Init+0x68>)
 8000648:	6b1b      	ldr	r3, [r3, #48]	; 0x30
 800064a:	f003 0302 	and.w	r3, r3, #2
 800064e:	60bb      	str	r3, [r7, #8]
 8000650:	68bb      	ldr	r3, [r7, #8]
  __HAL_RCC_GPIOA_CLK_ENABLE();
 8000652:	2300      	movs	r3, #0
 8000654:	607b      	str	r3, [r7, #4]
 8000656:	4b09      	ldr	r3, [pc, #36]	; (800067c <MX_GPIO_Init+0x68>)
 8000658:	6b1b      	ldr	r3, [r3, #48]	; 0x30
 800065a:	4a08      	ldr	r2, [pc, #32]	; (800067c <MX_GPIO_Init+0x68>)
 800065c:	f043 0301 	orr.w	r3, r3, #1
 8000660:	6313      	str	r3, [r2, #48]	; 0x30
 8000662:	4b06      	ldr	r3, [pc, #24]	; (800067c <MX_GPIO_Init+0x68>)
 8000664:	6b1b      	ldr	r3, [r3, #48]	; 0x30
 8000666:	f003 0301 	and.w	r3, r3, #1
 800066a:	607b      	str	r3, [r7, #4]
 800066c:	687b      	ldr	r3, [r7, #4]

/* USER CODE BEGIN MX_GPIO_Init_2 */
/* USER CODE END MX_GPIO_Init_2 */
}
 800066e:	bf00      	nop
 8000670:	3714      	adds	r7, #20
 8000672:	46bd      	mov	sp, r7
 8000674:	f85d 7b04 	ldr.w	r7, [sp], #4
 8000678:	4770      	bx	lr
 800067a:	bf00      	nop
 800067c:	40023800 	.word	0x40023800

08000680 <Error_Handler>:
/**
  * @brief  This function is executed in case of error occurrence.
  * @retval None
  */
void Error_Handler(void)
{
 8000680:	b480      	push	{r7}
 8000682:	af00      	add	r7, sp, #0
  \details Disables IRQ interrupts by setting the I-bit in the CPSR.
           Can only be executed in Privileged modes.
 */
__STATIC_FORCEINLINE void __disable_irq(void)
{
  __ASM volatile ("cpsid i" : : : "memory");
 8000684:	b672      	cpsid	i
}
 8000686:	bf00      	nop
  /* USER CODE BEGIN Error_Handler_Debug */
  /* User can add his own implementation to report the HAL error return state */
  __disable_irq();
  while (1)
 8000688:	e7fe      	b.n	8000688 <Error_Handler+0x8>
	...

0800068c <HAL_MspInit>:
/* USER CODE END 0 */
/**
  * Initializes the Global MSP.
  */
void HAL_MspInit(void)
{
 800068c:	b580      	push	{r7, lr}
 800068e:	b082      	sub	sp, #8
 8000690:	af00      	add	r7, sp, #0
  /* USER CODE BEGIN MspInit 0 */

  /* USER CODE END MspInit 0 */

  __HAL_RCC_SYSCFG_CLK_ENABLE();
 8000692:	2300      	movs	r3, #0
 8000694:	607b      	str	r3, [r7, #4]
 8000696:	4b10      	ldr	r3, [pc, #64]	; (80006d8 <HAL_MspInit+0x4c>)
 8000698:	6c5b      	ldr	r3, [r3, #68]	; 0x44
 800069a:	4a0f      	ldr	r2, [pc, #60]	; (80006d8 <HAL_MspInit+0x4c>)
 800069c:	f443 4380 	orr.w	r3, r3, #16384	; 0x4000
 80006a0:	6453      	str	r3, [r2, #68]	; 0x44
 80006a2:	4b0d      	ldr	r3, [pc, #52]	; (80006d8 <HAL_MspInit+0x4c>)
 80006a4:	6c5b      	ldr	r3, [r3, #68]	; 0x44
 80006a6:	f403 4380 	and.w	r3, r3, #16384	; 0x4000
 80006aa:	607b      	str	r3, [r7, #4]
 80006ac:	687b      	ldr	r3, [r7, #4]
  __HAL_RCC_PWR_CLK_ENABLE();
 80006ae:	2300      	movs	r3, #0
 80006b0:	603b      	str	r3, [r7, #0]
 80006b2:	4b09      	ldr	r3, [pc, #36]	; (80006d8 <HAL_MspInit+0x4c>)
 80006b4:	6c1b      	ldr	r3, [r3, #64]	; 0x40
 80006b6:	4a08      	ldr	r2, [pc, #32]	; (80006d8 <HAL_MspInit+0x4c>)
 80006b8:	f043 5380 	orr.w	r3, r3, #268435456	; 0x10000000
 80006bc:	6413      	str	r3, [r2, #64]	; 0x40
 80006be:	4b06      	ldr	r3, [pc, #24]	; (80006d8 <HAL_MspInit+0x4c>)
 80006c0:	6c1b      	ldr	r3, [r3, #64]	; 0x40
 80006c2:	f003 5380 	and.w	r3, r3, #268435456	; 0x10000000
 80006c6:	603b      	str	r3, [r7, #0]
 80006c8:	683b      	ldr	r3, [r7, #0]

  HAL_NVIC_SetPriorityGrouping(NVIC_PRIORITYGROUP_0);
 80006ca:	2007      	movs	r0, #7
 80006cc:	f000 fa64 	bl	8000b98 <HAL_NVIC_SetPriorityGrouping>
  /* System interrupt init*/

  /* USER CODE BEGIN MspInit 1 */

  /* USER CODE END MspInit 1 */
}
 80006d0:	bf00      	nop
 80006d2:	3708      	adds	r7, #8
 80006d4:	46bd      	mov	sp, r7
 80006d6:	bd80      	pop	{r7, pc}
 80006d8:	40023800 	.word	0x40023800

080006dc <NMI_Handler>:
/******************************************************************************/
/**
  * @brief This function handles Non maskable interrupt.
  */
void NMI_Handler(void)
{
 80006dc:	b480      	push	{r7}
 80006de:	af00      	add	r7, sp, #0
  /* USER CODE BEGIN NonMaskableInt_IRQn 0 */

  /* USER CODE END NonMaskableInt_IRQn 0 */
  /* USER CODE BEGIN NonMaskableInt_IRQn 1 */
  while (1)
 80006e0:	e7fe      	b.n	80006e0 <NMI_Handler+0x4>

080006e2 <HardFault_Handler>:

/**
  * @brief This function handles Hard fault interrupt.
  */
void HardFault_Handler(void)
{
 80006e2:	b480      	push	{r7}
 80006e4:	af00      	add	r7, sp, #0
  /* USER CODE BEGIN HardFault_IRQn 0 */

  /* USER CODE END HardFault_IRQn 0 */
  while (1)
 80006e6:	e7fe      	b.n	80006e6 <HardFault_Handler+0x4>

080006e8 <MemManage_Handler>:

/**
  * @brief This function handles Memory management fault.
  */
void MemManage_Handler(void)
{
 80006e8:	b480      	push	{r7}
 80006ea:	af00      	add	r7, sp, #0
  /* USER CODE BEGIN MemoryManagement_IRQn 0 */

  /* USER CODE END MemoryManagement_IRQn 0 */
  while (1)
 80006ec:	e7fe      	b.n	80006ec <MemManage_Handler+0x4>

080006ee <BusFault_Handler>:

/**
  * @brief This function handles Pre-fetch fault, memory access fault.
  */
void BusFault_Handler(void)
{
 80006ee:	b480      	push	{r7}
 80006f0:	af00      	add	r7, sp, #0
  /* USER CODE BEGIN BusFault_IRQn 0 */

  /* USER CODE END BusFault_IRQn 0 */
  while (1)
 80006f2:	e7fe      	b.n	80006f2 <BusFault_Handler+0x4>

080006f4 <UsageFault_Handler>:

/**
  * @brief This function handles Undefined instruction or illegal state.
  */
void UsageFault_Handler(void)
{
 80006f4:	b480      	push	{r7}
 80006f6:	af00      	add	r7, sp, #0
  /* USER CODE BEGIN UsageFault_IRQn 0 */

  /* USER CODE END UsageFault_IRQn 0 */
  while (1)
 80006f8:	e7fe      	b.n	80006f8 <UsageFault_Handler+0x4>

080006fa <SVC_Handler>:

/**
  * @brief This function handles System service call via SWI instruction.
  */
void SVC_Handler(void)
{
 80006fa:	b480      	push	{r7}
 80006fc:	af00      	add	r7, sp, #0

  /* USER CODE END SVCall_IRQn 0 */
  /* USER CODE BEGIN SVCall_IRQn 1 */

  /* USER CODE END SVCall_IRQn 1 */
}
 80006fe:	bf00      	nop
 8000700:	46bd      	mov	sp, r7
 8000702:	f85d 7b04 	ldr.w	r7, [sp], #4
 8000706:	4770      	bx	lr

08000708 <DebugMon_Handler>:

/**
  * @brief This function handles Debug monitor.
  */
void DebugMon_Handler(void)
{
 8000708:	b480      	push	{r7}
 800070a:	af00      	add	r7, sp, #0

  /* USER CODE END DebugMonitor_IRQn 0 */
  /* USER CODE BEGIN DebugMonitor_IRQn 1 */

  /* USER CODE END DebugMonitor_IRQn 1 */
}
 800070c:	bf00      	nop
 800070e:	46bd      	mov	sp, r7
 8000710:	f85d 7b04 	ldr.w	r7, [sp], #4
 8000714:	4770      	bx	lr

08000716 <PendSV_Handler>:

/**
  * @brief This function handles Pendable request for system service.
  */
void PendSV_Handler(void)
{
 8000716:	b480      	push	{r7}
 8000718:	af00      	add	r7, sp, #0

  /* USER CODE END PendSV_IRQn 0 */
  /* USER CODE BEGIN PendSV_IRQn 1 */

  /* USER CODE END PendSV_IRQn 1 */
}
 800071a:	bf00      	nop
 800071c:	46bd      	mov	sp, r7
 800071e:	f85d 7b04 	ldr.w	r7, [sp], #4
 8000722:	4770      	bx	lr

08000724 <SysTick_Handler>:

/**
  * @brief This function handles System tick timer.
  */
void SysTick_Handler(void)
{
 8000724:	b580      	push	{r7, lr}
 8000726:	af00      	add	r7, sp, #0
  /* USER CODE BEGIN SysTick_IRQn 0 */

  /* USER CODE END SysTick_IRQn 0 */
  HAL_IncTick();
 8000728:	f000 f922 	bl	8000970 <HAL_IncTick>
  /* USER CODE BEGIN SysTick_IRQn 1 */

  /* USER CODE END SysTick_IRQn 1 */
}
 800072c:	bf00      	nop
 800072e:	bd80      	pop	{r7, pc}

08000730 <OTG_HS_IRQHandler>:

/**
  * @brief This function handles USB On The Go HS global interrupt.
  */
void OTG_HS_IRQHandler(void)
{
 8000730:	b580      	push	{r7, lr}
 8000732:	af00      	add	r7, sp, #0
  /* USER CODE BEGIN OTG_HS_IRQn 0 */

  /* USER CODE END OTG_HS_IRQn 0 */
  HAL_PCD_IRQHandler(&hpcd_USB_OTG_HS);
 8000734:	4802      	ldr	r0, [pc, #8]	; (8000740 <OTG_HS_IRQHandler+0x10>)
 8000736:	f000 fd6d 	bl	8001214 <HAL_PCD_IRQHandler>
  /* USER CODE BEGIN OTG_HS_IRQn 1 */

  /* USER CODE END OTG_HS_IRQn 1 */
}
 800073a:	bf00      	nop
 800073c:	bd80      	pop	{r7, pc}
 800073e:	bf00      	nop
 8000740:	2000166c 	.word	0x2000166c

08000744 <_read>:
  _kill(status, -1);
  while (1) {}    /* Make sure we hang here */
}

__attribute__((weak)) int _read(int file, char *ptr, int len)
{
 8000744:	b580      	push	{r7, lr}
 8000746:	b086      	sub	sp, #24
 8000748:	af00      	add	r7, sp, #0
 800074a:	60f8      	str	r0, [r7, #12]
 800074c:	60b9      	str	r1, [r7, #8]
 800074e:	607a      	str	r2, [r7, #4]
  (void)file;
  int DataIdx;

  for (DataIdx = 0; DataIdx < len; DataIdx++)
 8000750:	2300      	movs	r3, #0
 8000752:	617b      	str	r3, [r7, #20]
 8000754:	e00a      	b.n	800076c <_read+0x28>
  {
    *ptr++ = __io_getchar();
 8000756:	f3af 8000 	nop.w
 800075a:	4601      	mov	r1, r0
 800075c:	68bb      	ldr	r3, [r7, #8]
 800075e:	1c5a      	adds	r2, r3, #1
 8000760:	60ba      	str	r2, [r7, #8]
 8000762:	b2ca      	uxtb	r2, r1
 8000764:	701a      	strb	r2, [r3, #0]
  for (DataIdx = 0; DataIdx < len; DataIdx++)
 8000766:	697b      	ldr	r3, [r7, #20]
 8000768:	3301      	adds	r3, #1
 800076a:	617b      	str	r3, [r7, #20]
 800076c:	697a      	ldr	r2, [r7, #20]
 800076e:	687b      	ldr	r3, [r7, #4]
 8000770:	429a      	cmp	r2, r3
 8000772:	dbf0      	blt.n	8000756 <_read+0x12>
  }

  return len;
 8000774:	687b      	ldr	r3, [r7, #4]
}
 8000776:	4618      	mov	r0, r3
 8000778:	3718      	adds	r7, #24
 800077a:	46bd      	mov	sp, r7
 800077c:	bd80      	pop	{r7, pc}

0800077e <_close>:
  }
  return len;
}

int _close(int file)
{
 800077e:	b480      	push	{r7}
 8000780:	b083      	sub	sp, #12
 8000782:	af00      	add	r7, sp, #0
 8000784:	6078      	str	r0, [r7, #4]
  (void)file;
  return -1;
 8000786:	f04f 33ff 	mov.w	r3, #4294967295
}
 800078a:	4618      	mov	r0, r3
 800078c:	370c      	adds	r7, #12
 800078e:	46bd      	mov	sp, r7
 8000790:	f85d 7b04 	ldr.w	r7, [sp], #4
 8000794:	4770      	bx	lr

08000796 <_fstat>:


int _fstat(int file, struct stat *st)
{
 8000796:	b480      	push	{r7}
 8000798:	b083      	sub	sp, #12
 800079a:	af00      	add	r7, sp, #0
 800079c:	6078      	str	r0, [r7, #4]
 800079e:	6039      	str	r1, [r7, #0]
  (void)file;
  st->st_mode = S_IFCHR;
 80007a0:	683b      	ldr	r3, [r7, #0]
 80007a2:	f44f 5200 	mov.w	r2, #8192	; 0x2000
 80007a6:	605a      	str	r2, [r3, #4]
  return 0;
 80007a8:	2300      	movs	r3, #0
}
 80007aa:	4618      	mov	r0, r3
 80007ac:	370c      	adds	r7, #12
 80007ae:	46bd      	mov	sp, r7
 80007b0:	f85d 7b04 	ldr.w	r7, [sp], #4
 80007b4:	4770      	bx	lr

080007b6 <_isatty>:

int _isatty(int file)
{
 80007b6:	b480      	push	{r7}
 80007b8:	b083      	sub	sp, #12
 80007ba:	af00      	add	r7, sp, #0
 80007bc:	6078      	str	r0, [r7, #4]
  (void)file;
  return 1;
 80007be:	2301      	movs	r3, #1
}
 80007c0:	4618      	mov	r0, r3
 80007c2:	370c      	adds	r7, #12
 80007c4:	46bd      	mov	sp, r7
 80007c6:	f85d 7b04 	ldr.w	r7, [sp], #4
 80007ca:	4770      	bx	lr

080007cc <_lseek>:

int _lseek(int file, int ptr, int dir)
{
 80007cc:	b480      	push	{r7}
 80007ce:	b085      	sub	sp, #20
 80007d0:	af00      	add	r7, sp, #0
 80007d2:	60f8      	str	r0, [r7, #12]
 80007d4:	60b9      	str	r1, [r7, #8]
 80007d6:	607a      	str	r2, [r7, #4]
  (void)file;
  (void)ptr;
  (void)dir;
  return 0;
 80007d8:	2300      	movs	r3, #0
}
 80007da:	4618      	mov	r0, r3
 80007dc:	3714      	adds	r7, #20
 80007de:	46bd      	mov	sp, r7
 80007e0:	f85d 7b04 	ldr.w	r7, [sp], #4
 80007e4:	4770      	bx	lr
	...

080007e8 <_sbrk>:
 *
 * @param incr Memory size
 * @return Pointer to allocated memory
 */
void *_sbrk(ptrdiff_t incr)
{
 80007e8:	b580      	push	{r7, lr}
 80007ea:	b086      	sub	sp, #24
 80007ec:	af00      	add	r7, sp, #0
 80007ee:	6078      	str	r0, [r7, #4]
  extern uint8_t _end; /* Symbol defined in the linker script */
  extern uint8_t _estack; /* Symbol defined in the linker script */
  extern uint32_t _Min_Stack_Size; /* Symbol defined in the linker script */
  const uint32_t stack_limit = (uint32_t)&_estack - (uint32_t)&_Min_Stack_Size;
 80007f0:	4a14      	ldr	r2, [pc, #80]	; (8000844 <_sbrk+0x5c>)
 80007f2:	4b15      	ldr	r3, [pc, #84]	; (8000848 <_sbrk+0x60>)
 80007f4:	1ad3      	subs	r3, r2, r3
 80007f6:	617b      	str	r3, [r7, #20]
  const uint8_t *max_heap = (uint8_t *)stack_limit;
 80007f8:	697b      	ldr	r3, [r7, #20]
 80007fa:	613b      	str	r3, [r7, #16]
  uint8_t *prev_heap_end;

  /* Initialize heap end at first call */
  if (NULL == __sbrk_heap_end)
 80007fc:	4b13      	ldr	r3, [pc, #76]	; (800084c <_sbrk+0x64>)
 80007fe:	681b      	ldr	r3, [r3, #0]
 8000800:	2b00      	cmp	r3, #0
 8000802:	d102      	bne.n	800080a <_sbrk+0x22>
  {
    __sbrk_heap_end = &_end;
 8000804:	4b11      	ldr	r3, [pc, #68]	; (800084c <_sbrk+0x64>)
 8000806:	4a12      	ldr	r2, [pc, #72]	; (8000850 <_sbrk+0x68>)
 8000808:	601a      	str	r2, [r3, #0]
  }

  /* Protect heap from growing into the reserved MSP stack */
  if (__sbrk_heap_end + incr > max_heap)
 800080a:	4b10      	ldr	r3, [pc, #64]	; (800084c <_sbrk+0x64>)
 800080c:	681a      	ldr	r2, [r3, #0]
 800080e:	687b      	ldr	r3, [r7, #4]
 8000810:	4413      	add	r3, r2
 8000812:	693a      	ldr	r2, [r7, #16]
 8000814:	429a      	cmp	r2, r3
 8000816:	d207      	bcs.n	8000828 <_sbrk+0x40>
  {
    errno = ENOMEM;
 8000818:	f006 fc1c 	bl	8007054 <__errno>
 800081c:	4603      	mov	r3, r0
 800081e:	220c      	movs	r2, #12
 8000820:	601a      	str	r2, [r3, #0]
    return (void *)-1;
 8000822:	f04f 33ff 	mov.w	r3, #4294967295
 8000826:	e009      	b.n	800083c <_sbrk+0x54>
  }

  prev_heap_end = __sbrk_heap_end;
 8000828:	4b08      	ldr	r3, [pc, #32]	; (800084c <_sbrk+0x64>)
 800082a:	681b      	ldr	r3, [r3, #0]
 800082c:	60fb      	str	r3, [r7, #12]
  __sbrk_heap_end += incr;
 800082e:	4b07      	ldr	r3, [pc, #28]	; (800084c <_sbrk+0x64>)
 8000830:	681a      	ldr	r2, [r3, #0]
 8000832:	687b      	ldr	r3, [r7, #4]
 8000834:	4413      	add	r3, r2
 8000836:	4a05      	ldr	r2, [pc, #20]	; (800084c <_sbrk+0x64>)
 8000838:	6013      	str	r3, [r2, #0]

  return (void *)prev_heap_end;
 800083a:	68fb      	ldr	r3, [r7, #12]
}
 800083c:	4618      	mov	r0, r3
 800083e:	3718      	adds	r7, #24
 8000840:	46bd      	mov	sp, r7
 8000842:	bd80      	pop	{r7, pc}
 8000844:	20030000 	.word	0x20030000
 8000848:	00000400 	.word	0x00000400
 800084c:	20000184 	.word	0x20000184
 8000850:	20001da8 	.word	0x20001da8

08000854 <SystemInit>:
  *         configuration.
  * @param  None
  * @retval None
  */
void SystemInit(void)
{
 8000854:	b480      	push	{r7}
 8000856:	af00      	add	r7, sp, #0
  /* FPU settings ------------------------------------------------------------*/
  #if (__FPU_PRESENT == 1) && (__FPU_USED == 1)
    SCB->CPACR |= ((3UL << 10*2)|(3UL << 11*2));  /* set CP10 and CP11 Full Access */
 8000858:	4b06      	ldr	r3, [pc, #24]	; (8000874 <SystemInit+0x20>)
 800085a:	f8d3 3088 	ldr.w	r3, [r3, #136]	; 0x88
 800085e:	4a05      	ldr	r2, [pc, #20]	; (8000874 <SystemInit+0x20>)
 8000860:	f443 0370 	orr.w	r3, r3, #15728640	; 0xf00000
 8000864:	f8c2 3088 	str.w	r3, [r2, #136]	; 0x88

  /* Configure the Vector Table location -------------------------------------*/
#if defined(USER_VECT_TAB_ADDRESS)
  SCB->VTOR = VECT_TAB_BASE_ADDRESS | VECT_TAB_OFFSET; /* Vector Table Relocation in Internal SRAM */
#endif /* USER_VECT_TAB_ADDRESS */
}
 8000868:	bf00      	nop
 800086a:	46bd      	mov	sp, r7
 800086c:	f85d 7b04 	ldr.w	r7, [sp], #4
 8000870:	4770      	bx	lr
 8000872:	bf00      	nop
 8000874:	e000ed00 	.word	0xe000ed00

08000878 <Reset_Handler>:

    .section  .text.Reset_Handler
  .weak  Reset_Handler
  .type  Reset_Handler, %function
Reset_Handler: 
  ldr   sp, =_estack       /* set stack pointer */
 8000878:	f8df d034 	ldr.w	sp, [pc, #52]	; 80008b0 <LoopFillZerobss+0x12>
 
/* Copy the data segment initializers from flash to SRAM */  
  ldr r0, =_sdata
 800087c:	480d      	ldr	r0, [pc, #52]	; (80008b4 <LoopFillZerobss+0x16>)
  ldr r1, =_edata
 800087e:	490e      	ldr	r1, [pc, #56]	; (80008b8 <LoopFillZerobss+0x1a>)
  ldr r2, =_sidata
 8000880:	4a0e      	ldr	r2, [pc, #56]	; (80008bc <LoopFillZerobss+0x1e>)
  movs r3, #0
 8000882:	2300      	movs	r3, #0
  b LoopCopyDataInit
 8000884:	e002      	b.n	800088c <LoopCopyDataInit>

08000886 <CopyDataInit>:

CopyDataInit:
  ldr r4, [r2, r3]
 8000886:	58d4      	ldr	r4, [r2, r3]
  str r4, [r0, r3]
 8000888:	50c4      	str	r4, [r0, r3]
  adds r3, r3, #4
 800088a:	3304      	adds	r3, #4

0800088c <LoopCopyDataInit>:

LoopCopyDataInit:
  adds r4, r0, r3
 800088c:	18c4      	adds	r4, r0, r3
  cmp r4, r1
 800088e:	428c      	cmp	r4, r1
  bcc CopyDataInit
 8000890:	d3f9      	bcc.n	8000886 <CopyDataInit>
  
/* Zero fill the bss segment. */
  ldr r2, =_sbss
 8000892:	4a0b      	ldr	r2, [pc, #44]	; (80008c0 <LoopFillZerobss+0x22>)
  ldr r4, =_ebss
 8000894:	4c0b      	ldr	r4, [pc, #44]	; (80008c4 <LoopFillZerobss+0x26>)
  movs r3, #0
 8000896:	2300      	movs	r3, #0
  b LoopFillZerobss
 8000898:	e001      	b.n	800089e <LoopFillZerobss>

0800089a <FillZerobss>:

FillZerobss:
  str  r3, [r2]
 800089a:	6013      	str	r3, [r2, #0]
  adds r2, r2, #4
 800089c:	3204      	adds	r2, #4

0800089e <LoopFillZerobss>:

LoopFillZerobss:
  cmp r2, r4
 800089e:	42a2      	cmp	r2, r4
  bcc FillZerobss
 80008a0:	d3fb      	bcc.n	800089a <FillZerobss>

/* Call the clock system initialization function.*/
  bl  SystemInit   
 80008a2:	f7ff ffd7 	bl	8000854 <SystemInit>
/* Call static constructors */
    bl __libc_init_array
 80008a6:	f006 fbdb 	bl	8007060 <__libc_init_array>
/* Call the application's entry point.*/
  bl  main
 80008aa:	f7ff fe33 	bl	8000514 <main>
  bx  lr    
 80008ae:	4770      	bx	lr
  ldr   sp, =_estack       /* set stack pointer */
 80008b0:	20030000 	.word	0x20030000
  ldr r0, =_sdata
 80008b4:	20000000 	.word	0x20000000
  ldr r1, =_edata
 80008b8:	20000168 	.word	0x20000168
  ldr r2, =_sidata
 80008bc:	08007ba0 	.word	0x08007ba0
  ldr r2, =_sbss
 80008c0:	20000168 	.word	0x20000168
  ldr r4, =_ebss
 80008c4:	20001da8 	.word	0x20001da8

080008c8 <ADC_IRQHandler>:
 * @retval None       
*/
    .section  .text.Default_Handler,"ax",%progbits
Default_Handler:
Infinite_Loop:
  b  Infinite_Loop
 80008c8:	e7fe      	b.n	80008c8 <ADC_IRQHandler>
	...

080008cc <HAL_Init>:
  *         need to ensure that the SysTick time base is always set to 1 millisecond
  *         to have correct HAL operation.
  * @retval HAL status
  */
HAL_StatusTypeDef HAL_Init(void)
{
 80008cc:	b580      	push	{r7, lr}
 80008ce:	af00      	add	r7, sp, #0
  /* Configure Flash prefetch, Instruction cache, Data cache */ 
#if (INSTRUCTION_CACHE_ENABLE != 0U)
  __HAL_FLASH_INSTRUCTION_CACHE_ENABLE();
 80008d0:	4b0e      	ldr	r3, [pc, #56]	; (800090c <HAL_Init+0x40>)
 80008d2:	681b      	ldr	r3, [r3, #0]
 80008d4:	4a0d      	ldr	r2, [pc, #52]	; (800090c <HAL_Init+0x40>)
 80008d6:	f443 7300 	orr.w	r3, r3, #512	; 0x200
 80008da:	6013      	str	r3, [r2, #0]
#endif /* INSTRUCTION_CACHE_ENABLE */

#if (DATA_CACHE_ENABLE != 0U)
  __HAL_FLASH_DATA_CACHE_ENABLE();
 80008dc:	4b0b      	ldr	r3, [pc, #44]	; (800090c <HAL_Init+0x40>)
 80008de:	681b      	ldr	r3, [r3, #0]
 80008e0:	4a0a      	ldr	r2, [pc, #40]	; (800090c <HAL_Init+0x40>)
 80008e2:	f443 6380 	orr.w	r3, r3, #1024	; 0x400
 80008e6:	6013      	str	r3, [r2, #0]
#endif /* DATA_CACHE_ENABLE */

#if (PREFETCH_ENABLE != 0U)
  __HAL_FLASH_PREFETCH_BUFFER_ENABLE();
 80008e8:	4b08      	ldr	r3, [pc, #32]	; (800090c <HAL_Init+0x40>)
 80008ea:	681b      	ldr	r3, [r3, #0]
 80008ec:	4a07      	ldr	r2, [pc, #28]	; (800090c <HAL_Init+0x40>)
 80008ee:	f443 7380 	orr.w	r3, r3, #256	; 0x100
 80008f2:	6013      	str	r3, [r2, #0]
#endif /* PREFETCH_ENABLE */

  /* Set Interrupt Group Priority */
  HAL_NVIC_SetPriorityGrouping(NVIC_PRIORITYGROUP_4);
 80008f4:	2003      	movs	r0, #3
 80008f6:	f000 f94f 	bl	8000b98 <HAL_NVIC_SetPriorityGrouping>

  /* Use systick as time base source and configure 1ms tick (default clock after Reset is HSI) */
  HAL_InitTick(TICK_INT_PRIORITY);
 80008fa:	2000      	movs	r0, #0
 80008fc:	f000 f808 	bl	8000910 <HAL_InitTick>

  /* Init the low level hardware */
  HAL_MspInit();
 8000900:	f7ff fec4 	bl	800068c <HAL_MspInit>

  /* Return function status */
  return HAL_OK;
 8000904:	2300      	movs	r3, #0
}
 8000906:	4618      	mov	r0, r3
 8000908:	bd80      	pop	{r7, pc}
 800090a:	bf00      	nop
 800090c:	40023c00 	.word	0x40023c00

08000910 <HAL_InitTick>:
  *       implementation  in user file.
  * @param TickPriority Tick interrupt priority.
  * @retval HAL status
  */
__weak HAL_StatusTypeDef HAL_InitTick(uint32_t TickPriority)
{
 8000910:	b580      	push	{r7, lr}
 8000912:	b082      	sub	sp, #8
 8000914:	af00      	add	r7, sp, #0
 8000916:	6078      	str	r0, [r7, #4]
  /* Configure the SysTick to have interrupt in 1ms time basis*/
  if (HAL_SYSTICK_Config(SystemCoreClock / (1000U / uwTickFreq)) > 0U)
 8000918:	4b12      	ldr	r3, [pc, #72]	; (8000964 <HAL_InitTick+0x54>)
 800091a:	681a      	ldr	r2, [r3, #0]
 800091c:	4b12      	ldr	r3, [pc, #72]	; (8000968 <HAL_InitTick+0x58>)
 800091e:	781b      	ldrb	r3, [r3, #0]
 8000920:	4619      	mov	r1, r3
 8000922:	f44f 737a 	mov.w	r3, #1000	; 0x3e8
 8000926:	fbb3 f3f1 	udiv	r3, r3, r1
 800092a:	fbb2 f3f3 	udiv	r3, r2, r3
 800092e:	4618      	mov	r0, r3
 8000930:	f000 f967 	bl	8000c02 <HAL_SYSTICK_Config>
 8000934:	4603      	mov	r3, r0
 8000936:	2b00      	cmp	r3, #0
 8000938:	d001      	beq.n	800093e <HAL_InitTick+0x2e>
  {
    return HAL_ERROR;
 800093a:	2301      	movs	r3, #1
 800093c:	e00e      	b.n	800095c <HAL_InitTick+0x4c>
  }

  /* Configure the SysTick IRQ priority */
  if (TickPriority < (1UL << __NVIC_PRIO_BITS))
 800093e:	687b      	ldr	r3, [r7, #4]
 8000940:	2b0f      	cmp	r3, #15
 8000942:	d80a      	bhi.n	800095a <HAL_InitTick+0x4a>
  {
    HAL_NVIC_SetPriority(SysTick_IRQn, TickPriority, 0U);
 8000944:	2200      	movs	r2, #0
 8000946:	6879      	ldr	r1, [r7, #4]
 8000948:	f04f 30ff 	mov.w	r0, #4294967295
 800094c:	f000 f92f 	bl	8000bae <HAL_NVIC_SetPriority>
    uwTickPrio = TickPriority;
 8000950:	4a06      	ldr	r2, [pc, #24]	; (800096c <HAL_InitTick+0x5c>)
 8000952:	687b      	ldr	r3, [r7, #4]
 8000954:	6013      	str	r3, [r2, #0]
  {
    return HAL_ERROR;
  }

  /* Return function status */
  return HAL_OK;
 8000956:	2300      	movs	r3, #0
 8000958:	e000      	b.n	800095c <HAL_InitTick+0x4c>
    return HAL_ERROR;
 800095a:	2301      	movs	r3, #1
}
 800095c:	4618      	mov	r0, r3
 800095e:	3708      	adds	r7, #8
 8000960:	46bd      	mov	sp, r7
 8000962:	bd80      	pop	{r7, pc}
 8000964:	20000000 	.word	0x20000000
 8000968:	20000008 	.word	0x20000008
 800096c:	20000004 	.word	0x20000004

08000970 <HAL_IncTick>:
 * @note This function is declared as __weak to be overwritten in case of other 
  *      implementations in user file.
  * @retval None
  */
__weak void HAL_IncTick(void)
{
 8000970:	b480      	push	{r7}
 8000972:	af00      	add	r7, sp, #0
  uwTick += uwTickFreq;
 8000974:	4b06      	ldr	r3, [pc, #24]	; (8000990 <HAL_IncTick+0x20>)
 8000976:	781b      	ldrb	r3, [r3, #0]
 8000978:	461a      	mov	r2, r3
 800097a:	4b06      	ldr	r3, [pc, #24]	; (8000994 <HAL_IncTick+0x24>)
 800097c:	681b      	ldr	r3, [r3, #0]
 800097e:	4413      	add	r3, r2
 8000980:	4a04      	ldr	r2, [pc, #16]	; (8000994 <HAL_IncTick+0x24>)
 8000982:	6013      	str	r3, [r2, #0]
}
 8000984:	bf00      	nop
 8000986:	46bd      	mov	sp, r7
 8000988:	f85d 7b04 	ldr.w	r7, [sp], #4
 800098c:	4770      	bx	lr
 800098e:	bf00      	nop
 8000990:	20000008 	.word	0x20000008
 8000994:	20000188 	.word	0x20000188

08000998 <HAL_GetTick>:
  * @note This function is declared as __weak to be overwritten in case of other 
  *       implementations in user file.
  * @retval tick value
  */
__weak uint32_t HAL_GetTick(void)
{
 8000998:	b480      	push	{r7}
 800099a:	af00      	add	r7, sp, #0
  return uwTick;
 800099c:	4b03      	ldr	r3, [pc, #12]	; (80009ac <HAL_GetTick+0x14>)
 800099e:	681b      	ldr	r3, [r3, #0]
}
 80009a0:	4618      	mov	r0, r3
 80009a2:	46bd      	mov	sp, r7
 80009a4:	f85d 7b04 	ldr.w	r7, [sp], #4
 80009a8:	4770      	bx	lr
 80009aa:	bf00      	nop
 80009ac:	20000188 	.word	0x20000188

080009b0 <HAL_Delay>:
  *       implementations in user file.
  * @param Delay specifies the delay time length, in milliseconds.
  * @retval None
  */
__weak void HAL_Delay(uint32_t Delay)
{
 80009b0:	b580      	push	{r7, lr}
 80009b2:	b084      	sub	sp, #16
 80009b4:	af00      	add	r7, sp, #0
 80009b6:	6078      	str	r0, [r7, #4]
  uint32_t tickstart = HAL_GetTick();
 80009b8:	f7ff ffee 	bl	8000998 <HAL_GetTick>
 80009bc:	60b8      	str	r0, [r7, #8]
  uint32_t wait = Delay;
 80009be:	687b      	ldr	r3, [r7, #4]
 80009c0:	60fb      	str	r3, [r7, #12]

  /* Add a freq to guarantee minimum wait */
  if (wait < HAL_MAX_DELAY)
 80009c2:	68fb      	ldr	r3, [r7, #12]
 80009c4:	f1b3 3fff 	cmp.w	r3, #4294967295
 80009c8:	d005      	beq.n	80009d6 <HAL_Delay+0x26>
  {
    wait += (uint32_t)(uwTickFreq);
 80009ca:	4b0a      	ldr	r3, [pc, #40]	; (80009f4 <HAL_Delay+0x44>)
 80009cc:	781b      	ldrb	r3, [r3, #0]
 80009ce:	461a      	mov	r2, r3
 80009d0:	68fb      	ldr	r3, [r7, #12]
 80009d2:	4413      	add	r3, r2
 80009d4:	60fb      	str	r3, [r7, #12]
  }

  while((HAL_GetTick() - tickstart) < wait)
 80009d6:	bf00      	nop
 80009d8:	f7ff ffde 	bl	8000998 <HAL_GetTick>
 80009dc:	4602      	mov	r2, r0
 80009de:	68bb      	ldr	r3, [r7, #8]
 80009e0:	1ad3      	subs	r3, r2, r3
 80009e2:	68fa      	ldr	r2, [r7, #12]
 80009e4:	429a      	cmp	r2, r3
 80009e6:	d8f7      	bhi.n	80009d8 <HAL_Delay+0x28>
  {
  }
}
 80009e8:	bf00      	nop
 80009ea:	bf00      	nop
 80009ec:	3710      	adds	r7, #16
 80009ee:	46bd      	mov	sp, r7
 80009f0:	bd80      	pop	{r7, pc}
 80009f2:	bf00      	nop
 80009f4:	20000008 	.word	0x20000008

080009f8 <__NVIC_SetPriorityGrouping>:
           In case of a conflict between priority grouping and available
           priority bits (__NVIC_PRIO_BITS), the smallest possible priority group is set.
  \param [in]      PriorityGroup  Priority grouping field.
 */
__STATIC_INLINE void __NVIC_SetPriorityGrouping(uint32_t PriorityGroup)
{
 80009f8:	b480      	push	{r7}
 80009fa:	b085      	sub	sp, #20
 80009fc:	af00      	add	r7, sp, #0
 80009fe:	6078      	str	r0, [r7, #4]
  uint32_t reg_value;
  uint32_t PriorityGroupTmp = (PriorityGroup & (uint32_t)0x07UL);             /* only values 0..7 are used          */
 8000a00:	687b      	ldr	r3, [r7, #4]
 8000a02:	f003 0307 	and.w	r3, r3, #7
 8000a06:	60fb      	str	r3, [r7, #12]

  reg_value  =  SCB->AIRCR;                                                   /* read old register configuration    */
 8000a08:	4b0c      	ldr	r3, [pc, #48]	; (8000a3c <__NVIC_SetPriorityGrouping+0x44>)
 8000a0a:	68db      	ldr	r3, [r3, #12]
 8000a0c:	60bb      	str	r3, [r7, #8]
  reg_value &= ~((uint32_t)(SCB_AIRCR_VECTKEY_Msk | SCB_AIRCR_PRIGROUP_Msk)); /* clear bits to change               */
 8000a0e:	68ba      	ldr	r2, [r7, #8]
 8000a10:	f64f 03ff 	movw	r3, #63743	; 0xf8ff
 8000a14:	4013      	ands	r3, r2
 8000a16:	60bb      	str	r3, [r7, #8]
  reg_value  =  (reg_value                                   |
                ((uint32_t)0x5FAUL << SCB_AIRCR_VECTKEY_Pos) |
                (PriorityGroupTmp << SCB_AIRCR_PRIGROUP_Pos)  );              /* Insert write key and priority group */
 8000a18:	68fb      	ldr	r3, [r7, #12]
 8000a1a:	021a      	lsls	r2, r3, #8
                ((uint32_t)0x5FAUL << SCB_AIRCR_VECTKEY_Pos) |
 8000a1c:	68bb      	ldr	r3, [r7, #8]
 8000a1e:	4313      	orrs	r3, r2
  reg_value  =  (reg_value                                   |
 8000a20:	f043 63bf 	orr.w	r3, r3, #100139008	; 0x5f80000
 8000a24:	f443 3300 	orr.w	r3, r3, #131072	; 0x20000
 8000a28:	60bb      	str	r3, [r7, #8]
  SCB->AIRCR =  reg_value;
 8000a2a:	4a04      	ldr	r2, [pc, #16]	; (8000a3c <__NVIC_SetPriorityGrouping+0x44>)
 8000a2c:	68bb      	ldr	r3, [r7, #8]
 8000a2e:	60d3      	str	r3, [r2, #12]
}
 8000a30:	bf00      	nop
 8000a32:	3714      	adds	r7, #20
 8000a34:	46bd      	mov	sp, r7
 8000a36:	f85d 7b04 	ldr.w	r7, [sp], #4
 8000a3a:	4770      	bx	lr
 8000a3c:	e000ed00 	.word	0xe000ed00

08000a40 <__NVIC_GetPriorityGrouping>:
  \brief   Get Priority Grouping
  \details Reads the priority grouping field from the NVIC Interrupt Controller.
  \return                Priority grouping field (SCB->AIRCR [10:8] PRIGROUP field).
 */
__STATIC_INLINE uint32_t __NVIC_GetPriorityGrouping(void)
{
 8000a40:	b480      	push	{r7}
 8000a42:	af00      	add	r7, sp, #0
  return ((uint32_t)((SCB->AIRCR & SCB_AIRCR_PRIGROUP_Msk) >> SCB_AIRCR_PRIGROUP_Pos));
 8000a44:	4b04      	ldr	r3, [pc, #16]	; (8000a58 <__NVIC_GetPriorityGrouping+0x18>)
 8000a46:	68db      	ldr	r3, [r3, #12]
 8000a48:	0a1b      	lsrs	r3, r3, #8
 8000a4a:	f003 0307 	and.w	r3, r3, #7
}
 8000a4e:	4618      	mov	r0, r3
 8000a50:	46bd      	mov	sp, r7
 8000a52:	f85d 7b04 	ldr.w	r7, [sp], #4
 8000a56:	4770      	bx	lr
 8000a58:	e000ed00 	.word	0xe000ed00

08000a5c <__NVIC_EnableIRQ>:
  \details Enables a device specific interrupt in the NVIC interrupt controller.
  \param [in]      IRQn  Device specific interrupt number.
  \note    IRQn must not be negative.
 */
__STATIC_INLINE void __NVIC_EnableIRQ(IRQn_Type IRQn)
{
 8000a5c:	b480      	push	{r7}
 8000a5e:	b083      	sub	sp, #12
 8000a60:	af00      	add	r7, sp, #0
 8000a62:	4603      	mov	r3, r0
 8000a64:	71fb      	strb	r3, [r7, #7]
  if ((int32_t)(IRQn) >= 0)
 8000a66:	f997 3007 	ldrsb.w	r3, [r7, #7]
 8000a6a:	2b00      	cmp	r3, #0
 8000a6c:	db0b      	blt.n	8000a86 <__NVIC_EnableIRQ+0x2a>
  {
    NVIC->ISER[(((uint32_t)IRQn) >> 5UL)] = (uint32_t)(1UL << (((uint32_t)IRQn) & 0x1FUL));
 8000a6e:	79fb      	ldrb	r3, [r7, #7]
 8000a70:	f003 021f 	and.w	r2, r3, #31
 8000a74:	4907      	ldr	r1, [pc, #28]	; (8000a94 <__NVIC_EnableIRQ+0x38>)
 8000a76:	f997 3007 	ldrsb.w	r3, [r7, #7]
 8000a7a:	095b      	lsrs	r3, r3, #5
 8000a7c:	2001      	movs	r0, #1
 8000a7e:	fa00 f202 	lsl.w	r2, r0, r2
 8000a82:	f841 2023 	str.w	r2, [r1, r3, lsl #2]
  }
}
 8000a86:	bf00      	nop
 8000a88:	370c      	adds	r7, #12
 8000a8a:	46bd      	mov	sp, r7
 8000a8c:	f85d 7b04 	ldr.w	r7, [sp], #4
 8000a90:	4770      	bx	lr
 8000a92:	bf00      	nop
 8000a94:	e000e100 	.word	0xe000e100

08000a98 <__NVIC_SetPriority>:
  \param [in]      IRQn  Interrupt number.
  \param [in]  priority  Priority to set.
  \note    The priority cannot be set for every processor exception.
 */
__STATIC_INLINE void __NVIC_SetPriority(IRQn_Type IRQn, uint32_t priority)
{
 8000a98:	b480      	push	{r7}
 8000a9a:	b083      	sub	sp, #12
 8000a9c:	af00      	add	r7, sp, #0
 8000a9e:	4603      	mov	r3, r0
 8000aa0:	6039      	str	r1, [r7, #0]
 8000aa2:	71fb      	strb	r3, [r7, #7]
  if ((int32_t)(IRQn) >= 0)
 8000aa4:	f997 3007 	ldrsb.w	r3, [r7, #7]
 8000aa8:	2b00      	cmp	r3, #0
 8000aaa:	db0a      	blt.n	8000ac2 <__NVIC_SetPriority+0x2a>
  {
    NVIC->IP[((uint32_t)IRQn)]               = (uint8_t)((priority << (8U - __NVIC_PRIO_BITS)) & (uint32_t)0xFFUL);
 8000aac:	683b      	ldr	r3, [r7, #0]
 8000aae:	b2da      	uxtb	r2, r3
 8000ab0:	490c      	ldr	r1, [pc, #48]	; (8000ae4 <__NVIC_SetPriority+0x4c>)
 8000ab2:	f997 3007 	ldrsb.w	r3, [r7, #7]
 8000ab6:	0112      	lsls	r2, r2, #4
 8000ab8:	b2d2      	uxtb	r2, r2
 8000aba:	440b      	add	r3, r1
 8000abc:	f883 2300 	strb.w	r2, [r3, #768]	; 0x300
  }
  else
  {
    SCB->SHP[(((uint32_t)IRQn) & 0xFUL)-4UL] = (uint8_t)((priority << (8U - __NVIC_PRIO_BITS)) & (uint32_t)0xFFUL);
  }
}
 8000ac0:	e00a      	b.n	8000ad8 <__NVIC_SetPriority+0x40>
    SCB->SHP[(((uint32_t)IRQn) & 0xFUL)-4UL] = (uint8_t)((priority << (8U - __NVIC_PRIO_BITS)) & (uint32_t)0xFFUL);
 8000ac2:	683b      	ldr	r3, [r7, #0]
 8000ac4:	b2da      	uxtb	r2, r3
 8000ac6:	4908      	ldr	r1, [pc, #32]	; (8000ae8 <__NVIC_SetPriority+0x50>)
 8000ac8:	79fb      	ldrb	r3, [r7, #7]
 8000aca:	f003 030f 	and.w	r3, r3, #15
 8000ace:	3b04      	subs	r3, #4
 8000ad0:	0112      	lsls	r2, r2, #4
 8000ad2:	b2d2      	uxtb	r2, r2
 8000ad4:	440b      	add	r3, r1
 8000ad6:	761a      	strb	r2, [r3, #24]
}
 8000ad8:	bf00      	nop
 8000ada:	370c      	adds	r7, #12
 8000adc:	46bd      	mov	sp, r7
 8000ade:	f85d 7b04 	ldr.w	r7, [sp], #4
 8000ae2:	4770      	bx	lr
 8000ae4:	e000e100 	.word	0xe000e100
 8000ae8:	e000ed00 	.word	0xe000ed00

08000aec <NVIC_EncodePriority>:
  \param [in]   PreemptPriority  Preemptive priority value (starting from 0).
  \param [in]       SubPriority  Subpriority value (starting from 0).
  \return                        Encoded priority. Value can be used in the function \ref NVIC_SetPriority().
 */
__STATIC_INLINE uint32_t NVIC_EncodePriority (uint32_t PriorityGroup, uint32_t PreemptPriority, uint32_t SubPriority)
{
 8000aec:	b480      	push	{r7}
 8000aee:	b089      	sub	sp, #36	; 0x24
 8000af0:	af00      	add	r7, sp, #0
 8000af2:	60f8      	str	r0, [r7, #12]
 8000af4:	60b9      	str	r1, [r7, #8]
 8000af6:	607a      	str	r2, [r7, #4]
  uint32_t PriorityGroupTmp = (PriorityGroup & (uint32_t)0x07UL);   /* only values 0..7 are used          */
 8000af8:	68fb      	ldr	r3, [r7, #12]
 8000afa:	f003 0307 	and.w	r3, r3, #7
 8000afe:	61fb      	str	r3, [r7, #28]
  uint32_t PreemptPriorityBits;
  uint32_t SubPriorityBits;

  PreemptPriorityBits = ((7UL - PriorityGroupTmp) > (uint32_t)(__NVIC_PRIO_BITS)) ? (uint32_t)(__NVIC_PRIO_BITS) : (uint32_t)(7UL - PriorityGroupTmp);
 8000b00:	69fb      	ldr	r3, [r7, #28]
 8000b02:	f1c3 0307 	rsb	r3, r3, #7
 8000b06:	2b04      	cmp	r3, #4
 8000b08:	bf28      	it	cs
 8000b0a:	2304      	movcs	r3, #4
 8000b0c:	61bb      	str	r3, [r7, #24]
  SubPriorityBits     = ((PriorityGroupTmp + (uint32_t)(__NVIC_PRIO_BITS)) < (uint32_t)7UL) ? (uint32_t)0UL : (uint32_t)((PriorityGroupTmp - 7UL) + (uint32_t)(__NVIC_PRIO_BITS));
 8000b0e:	69fb      	ldr	r3, [r7, #28]
 8000b10:	3304      	adds	r3, #4
 8000b12:	2b06      	cmp	r3, #6
 8000b14:	d902      	bls.n	8000b1c <NVIC_EncodePriority+0x30>
 8000b16:	69fb      	ldr	r3, [r7, #28]
 8000b18:	3b03      	subs	r3, #3
 8000b1a:	e000      	b.n	8000b1e <NVIC_EncodePriority+0x32>
 8000b1c:	2300      	movs	r3, #0
 8000b1e:	617b      	str	r3, [r7, #20]

  return (
           ((PreemptPriority & (uint32_t)((1UL << (PreemptPriorityBits)) - 1UL)) << SubPriorityBits) |
 8000b20:	f04f 32ff 	mov.w	r2, #4294967295
 8000b24:	69bb      	ldr	r3, [r7, #24]
 8000b26:	fa02 f303 	lsl.w	r3, r2, r3
 8000b2a:	43da      	mvns	r2, r3
 8000b2c:	68bb      	ldr	r3, [r7, #8]
 8000b2e:	401a      	ands	r2, r3
 8000b30:	697b      	ldr	r3, [r7, #20]
 8000b32:	409a      	lsls	r2, r3
           ((SubPriority     & (uint32_t)((1UL << (SubPriorityBits    )) - 1UL)))
 8000b34:	f04f 31ff 	mov.w	r1, #4294967295
 8000b38:	697b      	ldr	r3, [r7, #20]
 8000b3a:	fa01 f303 	lsl.w	r3, r1, r3
 8000b3e:	43d9      	mvns	r1, r3
 8000b40:	687b      	ldr	r3, [r7, #4]
 8000b42:	400b      	ands	r3, r1
           ((PreemptPriority & (uint32_t)((1UL << (PreemptPriorityBits)) - 1UL)) << SubPriorityBits) |
 8000b44:	4313      	orrs	r3, r2
         );
}
 8000b46:	4618      	mov	r0, r3
 8000b48:	3724      	adds	r7, #36	; 0x24
 8000b4a:	46bd      	mov	sp, r7
 8000b4c:	f85d 7b04 	ldr.w	r7, [sp], #4
 8000b50:	4770      	bx	lr
	...

08000b54 <SysTick_Config>:
  \note    When the variable <b>__Vendor_SysTickConfig</b> is set to 1, then the
           function <b>SysTick_Config</b> is not included. In this case, the file <b><i>device</i>.h</b>
           must contain a vendor-specific implementation of this function.
 */
__STATIC_INLINE uint32_t SysTick_Config(uint32_t ticks)
{
 8000b54:	b580      	push	{r7, lr}
 8000b56:	b082      	sub	sp, #8
 8000b58:	af00      	add	r7, sp, #0
 8000b5a:	6078      	str	r0, [r7, #4]
  if ((ticks - 1UL) > SysTick_LOAD_RELOAD_Msk)
 8000b5c:	687b      	ldr	r3, [r7, #4]
 8000b5e:	3b01      	subs	r3, #1
 8000b60:	f1b3 7f80 	cmp.w	r3, #16777216	; 0x1000000
 8000b64:	d301      	bcc.n	8000b6a <SysTick_Config+0x16>
  {
    return (1UL);                                                   /* Reload value impossible */
 8000b66:	2301      	movs	r3, #1
 8000b68:	e00f      	b.n	8000b8a <SysTick_Config+0x36>
  }

  SysTick->LOAD  = (uint32_t)(ticks - 1UL);                         /* set reload register */
 8000b6a:	4a0a      	ldr	r2, [pc, #40]	; (8000b94 <SysTick_Config+0x40>)
 8000b6c:	687b      	ldr	r3, [r7, #4]
 8000b6e:	3b01      	subs	r3, #1
 8000b70:	6053      	str	r3, [r2, #4]
  NVIC_SetPriority (SysTick_IRQn, (1UL << __NVIC_PRIO_BITS) - 1UL); /* set Priority for Systick Interrupt */
 8000b72:	210f      	movs	r1, #15
 8000b74:	f04f 30ff 	mov.w	r0, #4294967295
 8000b78:	f7ff ff8e 	bl	8000a98 <__NVIC_SetPriority>
  SysTick->VAL   = 0UL;                                             /* Load the SysTick Counter Value */
 8000b7c:	4b05      	ldr	r3, [pc, #20]	; (8000b94 <SysTick_Config+0x40>)
 8000b7e:	2200      	movs	r2, #0
 8000b80:	609a      	str	r2, [r3, #8]
  SysTick->CTRL  = SysTick_CTRL_CLKSOURCE_Msk |
 8000b82:	4b04      	ldr	r3, [pc, #16]	; (8000b94 <SysTick_Config+0x40>)
 8000b84:	2207      	movs	r2, #7
 8000b86:	601a      	str	r2, [r3, #0]
                   SysTick_CTRL_TICKINT_Msk   |
                   SysTick_CTRL_ENABLE_Msk;                         /* Enable SysTick IRQ and SysTick Timer */
  return (0UL);                                                     /* Function successful */
 8000b88:	2300      	movs	r3, #0
}
 8000b8a:	4618      	mov	r0, r3
 8000b8c:	3708      	adds	r7, #8
 8000b8e:	46bd      	mov	sp, r7
 8000b90:	bd80      	pop	{r7, pc}
 8000b92:	bf00      	nop
 8000b94:	e000e010 	.word	0xe000e010

08000b98 <HAL_NVIC_SetPriorityGrouping>:
  * @note   When the NVIC_PriorityGroup_0 is selected, IRQ preemption is no more possible. 
  *         The pending IRQ priority will be managed only by the subpriority. 
  * @retval None
  */
void HAL_NVIC_SetPriorityGrouping(uint32_t PriorityGroup)
{
 8000b98:	b580      	push	{r7, lr}
 8000b9a:	b082      	sub	sp, #8
 8000b9c:	af00      	add	r7, sp, #0
 8000b9e:	6078      	str	r0, [r7, #4]
  /* Check the parameters */
  assert_param(IS_NVIC_PRIORITY_GROUP(PriorityGroup));
  
  /* Set the PRIGROUP[10:8] bits according to the PriorityGroup parameter value */
  NVIC_SetPriorityGrouping(PriorityGroup);
 8000ba0:	6878      	ldr	r0, [r7, #4]
 8000ba2:	f7ff ff29 	bl	80009f8 <__NVIC_SetPriorityGrouping>
}
 8000ba6:	bf00      	nop
 8000ba8:	3708      	adds	r7, #8
 8000baa:	46bd      	mov	sp, r7
 8000bac:	bd80      	pop	{r7, pc}

08000bae <HAL_NVIC_SetPriority>:
  *         This parameter can be a value between 0 and 15
  *         A lower priority value indicates a higher priority.          
  * @retval None
  */
void HAL_NVIC_SetPriority(IRQn_Type IRQn, uint32_t PreemptPriority, uint32_t SubPriority)
{ 
 8000bae:	b580      	push	{r7, lr}
 8000bb0:	b086      	sub	sp, #24
 8000bb2:	af00      	add	r7, sp, #0
 8000bb4:	4603      	mov	r3, r0
 8000bb6:	60b9      	str	r1, [r7, #8]
 8000bb8:	607a      	str	r2, [r7, #4]
 8000bba:	73fb      	strb	r3, [r7, #15]
  uint32_t prioritygroup = 0x00U;
 8000bbc:	2300      	movs	r3, #0
 8000bbe:	617b      	str	r3, [r7, #20]
  
  /* Check the parameters */
  assert_param(IS_NVIC_SUB_PRIORITY(SubPriority));
  assert_param(IS_NVIC_PREEMPTION_PRIORITY(PreemptPriority));
  
  prioritygroup = NVIC_GetPriorityGrouping();
 8000bc0:	f7ff ff3e 	bl	8000a40 <__NVIC_GetPriorityGrouping>
 8000bc4:	6178      	str	r0, [r7, #20]
  
  NVIC_SetPriority(IRQn, NVIC_EncodePriority(prioritygroup, PreemptPriority, SubPriority));
 8000bc6:	687a      	ldr	r2, [r7, #4]
 8000bc8:	68b9      	ldr	r1, [r7, #8]
 8000bca:	6978      	ldr	r0, [r7, #20]
 8000bcc:	f7ff ff8e 	bl	8000aec <NVIC_EncodePriority>
 8000bd0:	4602      	mov	r2, r0
 8000bd2:	f997 300f 	ldrsb.w	r3, [r7, #15]
 8000bd6:	4611      	mov	r1, r2
 8000bd8:	4618      	mov	r0, r3
 8000bda:	f7ff ff5d 	bl	8000a98 <__NVIC_SetPriority>
}
 8000bde:	bf00      	nop
 8000be0:	3718      	adds	r7, #24
 8000be2:	46bd      	mov	sp, r7
 8000be4:	bd80      	pop	{r7, pc}

08000be6 <HAL_NVIC_EnableIRQ>:
  *         This parameter can be an enumerator of IRQn_Type enumeration
  *         (For the complete STM32 Devices IRQ Channels list, please refer to the appropriate CMSIS device file (stm32f4xxxx.h))
  * @retval None
  */
void HAL_NVIC_EnableIRQ(IRQn_Type IRQn)
{
 8000be6:	b580      	push	{r7, lr}
 8000be8:	b082      	sub	sp, #8
 8000bea:	af00      	add	r7, sp, #0
 8000bec:	4603      	mov	r3, r0
 8000bee:	71fb      	strb	r3, [r7, #7]
  /* Check the parameters */
  assert_param(IS_NVIC_DEVICE_IRQ(IRQn));
  
  /* Enable interrupt */
  NVIC_EnableIRQ(IRQn);
 8000bf0:	f997 3007 	ldrsb.w	r3, [r7, #7]
 8000bf4:	4618      	mov	r0, r3
 8000bf6:	f7ff ff31 	bl	8000a5c <__NVIC_EnableIRQ>
}
 8000bfa:	bf00      	nop
 8000bfc:	3708      	adds	r7, #8
 8000bfe:	46bd      	mov	sp, r7
 8000c00:	bd80      	pop	{r7, pc}

08000c02 <HAL_SYSTICK_Config>:
  * @param  TicksNumb Specifies the ticks Number of ticks between two interrupts.
  * @retval status:  - 0  Function succeeded.
  *                  - 1  Function failed.
  */
uint32_t HAL_SYSTICK_Config(uint32_t TicksNumb)
{
 8000c02:	b580      	push	{r7, lr}
 8000c04:	b082      	sub	sp, #8
 8000c06:	af00      	add	r7, sp, #0
 8000c08:	6078      	str	r0, [r7, #4]
   return SysTick_Config(TicksNumb);
 8000c0a:	6878      	ldr	r0, [r7, #4]
 8000c0c:	f7ff ffa2 	bl	8000b54 <SysTick_Config>
 8000c10:	4603      	mov	r3, r0
}
 8000c12:	4618      	mov	r0, r3
 8000c14:	3708      	adds	r7, #8
 8000c16:	46bd      	mov	sp, r7
 8000c18:	bd80      	pop	{r7, pc}
	...

08000c1c <HAL_GPIO_Init>:
  * @param  GPIO_Init pointer to a GPIO_InitTypeDef structure that contains
  *         the configuration information for the specified GPIO peripheral.
  * @retval None
  */
void HAL_GPIO_Init(GPIO_TypeDef  *GPIOx, GPIO_InitTypeDef *GPIO_Init)
{
 8000c1c:	b480      	push	{r7}
 8000c1e:	b089      	sub	sp, #36	; 0x24
 8000c20:	af00      	add	r7, sp, #0
 8000c22:	6078      	str	r0, [r7, #4]
 8000c24:	6039      	str	r1, [r7, #0]
  uint32_t position;
  uint32_t ioposition = 0x00U;
 8000c26:	2300      	movs	r3, #0
 8000c28:	617b      	str	r3, [r7, #20]
  uint32_t iocurrent = 0x00U;
 8000c2a:	2300      	movs	r3, #0
 8000c2c:	613b      	str	r3, [r7, #16]
  uint32_t temp = 0x00U;
 8000c2e:	2300      	movs	r3, #0
 8000c30:	61bb      	str	r3, [r7, #24]
  assert_param(IS_GPIO_ALL_INSTANCE(GPIOx));
  assert_param(IS_GPIO_PIN(GPIO_Init->Pin));
  assert_param(IS_GPIO_MODE(GPIO_Init->Mode));

  /* Configure the port pins */
  for(position = 0U; position < GPIO_NUMBER; position++)
 8000c32:	2300      	movs	r3, #0
 8000c34:	61fb      	str	r3, [r7, #28]
 8000c36:	e177      	b.n	8000f28 <HAL_GPIO_Init+0x30c>
  {
    /* Get the IO position */
    ioposition = 0x01U << position;
 8000c38:	2201      	movs	r2, #1
 8000c3a:	69fb      	ldr	r3, [r7, #28]
 8000c3c:	fa02 f303 	lsl.w	r3, r2, r3
 8000c40:	617b      	str	r3, [r7, #20]
    /* Get the current IO position */
    iocurrent = (uint32_t)(GPIO_Init->Pin) & ioposition;
 8000c42:	683b      	ldr	r3, [r7, #0]
 8000c44:	681b      	ldr	r3, [r3, #0]
 8000c46:	697a      	ldr	r2, [r7, #20]
 8000c48:	4013      	ands	r3, r2
 8000c4a:	613b      	str	r3, [r7, #16]

    if(iocurrent == ioposition)
 8000c4c:	693a      	ldr	r2, [r7, #16]
 8000c4e:	697b      	ldr	r3, [r7, #20]
 8000c50:	429a      	cmp	r2, r3
 8000c52:	f040 8166 	bne.w	8000f22 <HAL_GPIO_Init+0x306>
    {
      /*--------------------- GPIO Mode Configuration ------------------------*/
      /* In case of Output or Alternate function mode selection */
      if(((GPIO_Init->Mode & GPIO_MODE) == MODE_OUTPUT) || \
 8000c56:	683b      	ldr	r3, [r7, #0]
 8000c58:	685b      	ldr	r3, [r3, #4]
 8000c5a:	f003 0303 	and.w	r3, r3, #3
 8000c5e:	2b01      	cmp	r3, #1
 8000c60:	d005      	beq.n	8000c6e <HAL_GPIO_Init+0x52>
          (GPIO_Init->Mode & GPIO_MODE) == MODE_AF)
 8000c62:	683b      	ldr	r3, [r7, #0]
 8000c64:	685b      	ldr	r3, [r3, #4]
 8000c66:	f003 0303 	and.w	r3, r3, #3
      if(((GPIO_Init->Mode & GPIO_MODE) == MODE_OUTPUT) || \
 8000c6a:	2b02      	cmp	r3, #2
 8000c6c:	d130      	bne.n	8000cd0 <HAL_GPIO_Init+0xb4>
      {
        /* Check the Speed parameter */
        assert_param(IS_GPIO_SPEED(GPIO_Init->Speed));
        /* Configure the IO Speed */
        temp = GPIOx->OSPEEDR; 
 8000c6e:	687b      	ldr	r3, [r7, #4]
 8000c70:	689b      	ldr	r3, [r3, #8]
 8000c72:	61bb      	str	r3, [r7, #24]
        temp &= ~(GPIO_OSPEEDER_OSPEEDR0 << (position * 2U));
 8000c74:	69fb      	ldr	r3, [r7, #28]
 8000c76:	005b      	lsls	r3, r3, #1
 8000c78:	2203      	movs	r2, #3
 8000c7a:	fa02 f303 	lsl.w	r3, r2, r3
 8000c7e:	43db      	mvns	r3, r3
 8000c80:	69ba      	ldr	r2, [r7, #24]
 8000c82:	4013      	ands	r3, r2
 8000c84:	61bb      	str	r3, [r7, #24]
        temp |= (GPIO_Init->Speed << (position * 2U));
 8000c86:	683b      	ldr	r3, [r7, #0]
 8000c88:	68da      	ldr	r2, [r3, #12]
 8000c8a:	69fb      	ldr	r3, [r7, #28]
 8000c8c:	005b      	lsls	r3, r3, #1
 8000c8e:	fa02 f303 	lsl.w	r3, r2, r3
 8000c92:	69ba      	ldr	r2, [r7, #24]
 8000c94:	4313      	orrs	r3, r2
 8000c96:	61bb      	str	r3, [r7, #24]
        GPIOx->OSPEEDR = temp;
 8000c98:	687b      	ldr	r3, [r7, #4]
 8000c9a:	69ba      	ldr	r2, [r7, #24]
 8000c9c:	609a      	str	r2, [r3, #8]

        /* Configure the IO Output Type */
        temp = GPIOx->OTYPER;
 8000c9e:	687b      	ldr	r3, [r7, #4]
 8000ca0:	685b      	ldr	r3, [r3, #4]
 8000ca2:	61bb      	str	r3, [r7, #24]
        temp &= ~(GPIO_OTYPER_OT_0 << position) ;
 8000ca4:	2201      	movs	r2, #1
 8000ca6:	69fb      	ldr	r3, [r7, #28]
 8000ca8:	fa02 f303 	lsl.w	r3, r2, r3
 8000cac:	43db      	mvns	r3, r3
 8000cae:	69ba      	ldr	r2, [r7, #24]
 8000cb0:	4013      	ands	r3, r2
 8000cb2:	61bb      	str	r3, [r7, #24]
        temp |= (((GPIO_Init->Mode & OUTPUT_TYPE) >> OUTPUT_TYPE_Pos) << position);
 8000cb4:	683b      	ldr	r3, [r7, #0]
 8000cb6:	685b      	ldr	r3, [r3, #4]
 8000cb8:	091b      	lsrs	r3, r3, #4
 8000cba:	f003 0201 	and.w	r2, r3, #1
 8000cbe:	69fb      	ldr	r3, [r7, #28]
 8000cc0:	fa02 f303 	lsl.w	r3, r2, r3
 8000cc4:	69ba      	ldr	r2, [r7, #24]
 8000cc6:	4313      	orrs	r3, r2
 8000cc8:	61bb      	str	r3, [r7, #24]
        GPIOx->OTYPER = temp;
 8000cca:	687b      	ldr	r3, [r7, #4]
 8000ccc:	69ba      	ldr	r2, [r7, #24]
 8000cce:	605a      	str	r2, [r3, #4]
       }

      if((GPIO_Init->Mode & GPIO_MODE) != MODE_ANALOG)
 8000cd0:	683b      	ldr	r3, [r7, #0]
 8000cd2:	685b      	ldr	r3, [r3, #4]
 8000cd4:	f003 0303 	and.w	r3, r3, #3
 8000cd8:	2b03      	cmp	r3, #3
 8000cda:	d017      	beq.n	8000d0c <HAL_GPIO_Init+0xf0>
      {
        /* Check the parameters */
        assert_param(IS_GPIO_PULL(GPIO_Init->Pull));
        
        /* Activate the Pull-up or Pull down resistor for the current IO */
        temp = GPIOx->PUPDR;
 8000cdc:	687b      	ldr	r3, [r7, #4]
 8000cde:	68db      	ldr	r3, [r3, #12]
 8000ce0:	61bb      	str	r3, [r7, #24]
        temp &= ~(GPIO_PUPDR_PUPDR0 << (position * 2U));
 8000ce2:	69fb      	ldr	r3, [r7, #28]
 8000ce4:	005b      	lsls	r3, r3, #1
 8000ce6:	2203      	movs	r2, #3
 8000ce8:	fa02 f303 	lsl.w	r3, r2, r3
 8000cec:	43db      	mvns	r3, r3
 8000cee:	69ba      	ldr	r2, [r7, #24]
 8000cf0:	4013      	ands	r3, r2
 8000cf2:	61bb      	str	r3, [r7, #24]
        temp |= ((GPIO_Init->Pull) << (position * 2U));
 8000cf4:	683b      	ldr	r3, [r7, #0]
 8000cf6:	689a      	ldr	r2, [r3, #8]
 8000cf8:	69fb      	ldr	r3, [r7, #28]
 8000cfa:	005b      	lsls	r3, r3, #1
 8000cfc:	fa02 f303 	lsl.w	r3, r2, r3
 8000d00:	69ba      	ldr	r2, [r7, #24]
 8000d02:	4313      	orrs	r3, r2
 8000d04:	61bb      	str	r3, [r7, #24]
        GPIOx->PUPDR = temp;
 8000d06:	687b      	ldr	r3, [r7, #4]
 8000d08:	69ba      	ldr	r2, [r7, #24]
 8000d0a:	60da      	str	r2, [r3, #12]
      }

      /* In case of Alternate function mode selection */
      if((GPIO_Init->Mode & GPIO_MODE) == MODE_AF)
 8000d0c:	683b      	ldr	r3, [r7, #0]
 8000d0e:	685b      	ldr	r3, [r3, #4]
 8000d10:	f003 0303 	and.w	r3, r3, #3
 8000d14:	2b02      	cmp	r3, #2
 8000d16:	d123      	bne.n	8000d60 <HAL_GPIO_Init+0x144>
      {
        /* Check the Alternate function parameter */
        assert_param(IS_GPIO_AF(GPIO_Init->Alternate));
        /* Configure Alternate function mapped with the current IO */
        temp = GPIOx->AFR[position >> 3U];
 8000d18:	69fb      	ldr	r3, [r7, #28]
 8000d1a:	08da      	lsrs	r2, r3, #3
 8000d1c:	687b      	ldr	r3, [r7, #4]
 8000d1e:	3208      	adds	r2, #8
 8000d20:	f853 3022 	ldr.w	r3, [r3, r2, lsl #2]
 8000d24:	61bb      	str	r3, [r7, #24]
        temp &= ~(0xFU << ((uint32_t)(position & 0x07U) * 4U)) ;
 8000d26:	69fb      	ldr	r3, [r7, #28]
 8000d28:	f003 0307 	and.w	r3, r3, #7
 8000d2c:	009b      	lsls	r3, r3, #2
 8000d2e:	220f      	movs	r2, #15
 8000d30:	fa02 f303 	lsl.w	r3, r2, r3
 8000d34:	43db      	mvns	r3, r3
 8000d36:	69ba      	ldr	r2, [r7, #24]
 8000d38:	4013      	ands	r3, r2
 8000d3a:	61bb      	str	r3, [r7, #24]
        temp |= ((uint32_t)(GPIO_Init->Alternate) << (((uint32_t)position & 0x07U) * 4U));
 8000d3c:	683b      	ldr	r3, [r7, #0]
 8000d3e:	691a      	ldr	r2, [r3, #16]
 8000d40:	69fb      	ldr	r3, [r7, #28]
 8000d42:	f003 0307 	and.w	r3, r3, #7
 8000d46:	009b      	lsls	r3, r3, #2
 8000d48:	fa02 f303 	lsl.w	r3, r2, r3
 8000d4c:	69ba      	ldr	r2, [r7, #24]
 8000d4e:	4313      	orrs	r3, r2
 8000d50:	61bb      	str	r3, [r7, #24]
        GPIOx->AFR[position >> 3U] = temp;
 8000d52:	69fb      	ldr	r3, [r7, #28]
 8000d54:	08da      	lsrs	r2, r3, #3
 8000d56:	687b      	ldr	r3, [r7, #4]
 8000d58:	3208      	adds	r2, #8
 8000d5a:	69b9      	ldr	r1, [r7, #24]
 8000d5c:	f843 1022 	str.w	r1, [r3, r2, lsl #2]
      }

      /* Configure IO Direction mode (Input, Output, Alternate or Analog) */
      temp = GPIOx->MODER;
 8000d60:	687b      	ldr	r3, [r7, #4]
 8000d62:	681b      	ldr	r3, [r3, #0]
 8000d64:	61bb      	str	r3, [r7, #24]
      temp &= ~(GPIO_MODER_MODER0 << (position * 2U));
 8000d66:	69fb      	ldr	r3, [r7, #28]
 8000d68:	005b      	lsls	r3, r3, #1
 8000d6a:	2203      	movs	r2, #3
 8000d6c:	fa02 f303 	lsl.w	r3, r2, r3
 8000d70:	43db      	mvns	r3, r3
 8000d72:	69ba      	ldr	r2, [r7, #24]
 8000d74:	4013      	ands	r3, r2
 8000d76:	61bb      	str	r3, [r7, #24]
      temp |= ((GPIO_Init->Mode & GPIO_MODE) << (position * 2U));
 8000d78:	683b      	ldr	r3, [r7, #0]
 8000d7a:	685b      	ldr	r3, [r3, #4]
 8000d7c:	f003 0203 	and.w	r2, r3, #3
 8000d80:	69fb      	ldr	r3, [r7, #28]
 8000d82:	005b      	lsls	r3, r3, #1
 8000d84:	fa02 f303 	lsl.w	r3, r2, r3
 8000d88:	69ba      	ldr	r2, [r7, #24]
 8000d8a:	4313      	orrs	r3, r2
 8000d8c:	61bb      	str	r3, [r7, #24]
      GPIOx->MODER = temp;
 8000d8e:	687b      	ldr	r3, [r7, #4]
 8000d90:	69ba      	ldr	r2, [r7, #24]
 8000d92:	601a      	str	r2, [r3, #0]

      /*--------------------- EXTI Mode Configuration ------------------------*/
      /* Configure the External Interrupt or event for the current IO */
      if((GPIO_Init->Mode & EXTI_MODE) != 0x00U)
 8000d94:	683b      	ldr	r3, [r7, #0]
 8000d96:	685b      	ldr	r3, [r3, #4]
 8000d98:	f403 3340 	and.w	r3, r3, #196608	; 0x30000
 8000d9c:	2b00      	cmp	r3, #0
 8000d9e:	f000 80c0 	beq.w	8000f22 <HAL_GPIO_Init+0x306>
      {
        /* Enable SYSCFG Clock */
        __HAL_RCC_SYSCFG_CLK_ENABLE();
 8000da2:	2300      	movs	r3, #0
 8000da4:	60fb      	str	r3, [r7, #12]
 8000da6:	4b66      	ldr	r3, [pc, #408]	; (8000f40 <HAL_GPIO_Init+0x324>)
 8000da8:	6c5b      	ldr	r3, [r3, #68]	; 0x44
 8000daa:	4a65      	ldr	r2, [pc, #404]	; (8000f40 <HAL_GPIO_Init+0x324>)
 8000dac:	f443 4380 	orr.w	r3, r3, #16384	; 0x4000
 8000db0:	6453      	str	r3, [r2, #68]	; 0x44
 8000db2:	4b63      	ldr	r3, [pc, #396]	; (8000f40 <HAL_GPIO_Init+0x324>)
 8000db4:	6c5b      	ldr	r3, [r3, #68]	; 0x44
 8000db6:	f403 4380 	and.w	r3, r3, #16384	; 0x4000
 8000dba:	60fb      	str	r3, [r7, #12]
 8000dbc:	68fb      	ldr	r3, [r7, #12]

        temp = SYSCFG->EXTICR[position >> 2U];
 8000dbe:	4a61      	ldr	r2, [pc, #388]	; (8000f44 <HAL_GPIO_Init+0x328>)
 8000dc0:	69fb      	ldr	r3, [r7, #28]
 8000dc2:	089b      	lsrs	r3, r3, #2
 8000dc4:	3302      	adds	r3, #2
 8000dc6:	f852 3023 	ldr.w	r3, [r2, r3, lsl #2]
 8000dca:	61bb      	str	r3, [r7, #24]
        temp &= ~(0x0FU << (4U * (position & 0x03U)));
 8000dcc:	69fb      	ldr	r3, [r7, #28]
 8000dce:	f003 0303 	and.w	r3, r3, #3
 8000dd2:	009b      	lsls	r3, r3, #2
 8000dd4:	220f      	movs	r2, #15
 8000dd6:	fa02 f303 	lsl.w	r3, r2, r3
 8000dda:	43db      	mvns	r3, r3
 8000ddc:	69ba      	ldr	r2, [r7, #24]
 8000dde:	4013      	ands	r3, r2
 8000de0:	61bb      	str	r3, [r7, #24]
        temp |= ((uint32_t)(GPIO_GET_INDEX(GPIOx)) << (4U * (position & 0x03U)));
 8000de2:	687b      	ldr	r3, [r7, #4]
 8000de4:	4a58      	ldr	r2, [pc, #352]	; (8000f48 <HAL_GPIO_Init+0x32c>)
 8000de6:	4293      	cmp	r3, r2
 8000de8:	d037      	beq.n	8000e5a <HAL_GPIO_Init+0x23e>
 8000dea:	687b      	ldr	r3, [r7, #4]
 8000dec:	4a57      	ldr	r2, [pc, #348]	; (8000f4c <HAL_GPIO_Init+0x330>)
 8000dee:	4293      	cmp	r3, r2
 8000df0:	d031      	beq.n	8000e56 <HAL_GPIO_Init+0x23a>
 8000df2:	687b      	ldr	r3, [r7, #4]
 8000df4:	4a56      	ldr	r2, [pc, #344]	; (8000f50 <HAL_GPIO_Init+0x334>)
 8000df6:	4293      	cmp	r3, r2
 8000df8:	d02b      	beq.n	8000e52 <HAL_GPIO_Init+0x236>
 8000dfa:	687b      	ldr	r3, [r7, #4]
 8000dfc:	4a55      	ldr	r2, [pc, #340]	; (8000f54 <HAL_GPIO_Init+0x338>)
 8000dfe:	4293      	cmp	r3, r2
 8000e00:	d025      	beq.n	8000e4e <HAL_GPIO_Init+0x232>
 8000e02:	687b      	ldr	r3, [r7, #4]
 8000e04:	4a54      	ldr	r2, [pc, #336]	; (8000f58 <HAL_GPIO_Init+0x33c>)
 8000e06:	4293      	cmp	r3, r2
 8000e08:	d01f      	beq.n	8000e4a <HAL_GPIO_Init+0x22e>
 8000e0a:	687b      	ldr	r3, [r7, #4]
 8000e0c:	4a53      	ldr	r2, [pc, #332]	; (8000f5c <HAL_GPIO_Init+0x340>)
 8000e0e:	4293      	cmp	r3, r2
 8000e10:	d019      	beq.n	8000e46 <HAL_GPIO_Init+0x22a>
 8000e12:	687b      	ldr	r3, [r7, #4]
 8000e14:	4a52      	ldr	r2, [pc, #328]	; (8000f60 <HAL_GPIO_Init+0x344>)
 8000e16:	4293      	cmp	r3, r2
 8000e18:	d013      	beq.n	8000e42 <HAL_GPIO_Init+0x226>
 8000e1a:	687b      	ldr	r3, [r7, #4]
 8000e1c:	4a51      	ldr	r2, [pc, #324]	; (8000f64 <HAL_GPIO_Init+0x348>)
 8000e1e:	4293      	cmp	r3, r2
 8000e20:	d00d      	beq.n	8000e3e <HAL_GPIO_Init+0x222>
 8000e22:	687b      	ldr	r3, [r7, #4]
 8000e24:	4a50      	ldr	r2, [pc, #320]	; (8000f68 <HAL_GPIO_Init+0x34c>)
 8000e26:	4293      	cmp	r3, r2
 8000e28:	d007      	beq.n	8000e3a <HAL_GPIO_Init+0x21e>
 8000e2a:	687b      	ldr	r3, [r7, #4]
 8000e2c:	4a4f      	ldr	r2, [pc, #316]	; (8000f6c <HAL_GPIO_Init+0x350>)
 8000e2e:	4293      	cmp	r3, r2
 8000e30:	d101      	bne.n	8000e36 <HAL_GPIO_Init+0x21a>
 8000e32:	2309      	movs	r3, #9
 8000e34:	e012      	b.n	8000e5c <HAL_GPIO_Init+0x240>
 8000e36:	230a      	movs	r3, #10
 8000e38:	e010      	b.n	8000e5c <HAL_GPIO_Init+0x240>
 8000e3a:	2308      	movs	r3, #8
 8000e3c:	e00e      	b.n	8000e5c <HAL_GPIO_Init+0x240>
 8000e3e:	2307      	movs	r3, #7
 8000e40:	e00c      	b.n	8000e5c <HAL_GPIO_Init+0x240>
 8000e42:	2306      	movs	r3, #6
 8000e44:	e00a      	b.n	8000e5c <HAL_GPIO_Init+0x240>
 8000e46:	2305      	movs	r3, #5
 8000e48:	e008      	b.n	8000e5c <HAL_GPIO_Init+0x240>
 8000e4a:	2304      	movs	r3, #4
 8000e4c:	e006      	b.n	8000e5c <HAL_GPIO_Init+0x240>
 8000e4e:	2303      	movs	r3, #3
 8000e50:	e004      	b.n	8000e5c <HAL_GPIO_Init+0x240>
 8000e52:	2302      	movs	r3, #2
 8000e54:	e002      	b.n	8000e5c <HAL_GPIO_Init+0x240>
 8000e56:	2301      	movs	r3, #1
 8000e58:	e000      	b.n	8000e5c <HAL_GPIO_Init+0x240>
 8000e5a:	2300      	movs	r3, #0
 8000e5c:	69fa      	ldr	r2, [r7, #28]
 8000e5e:	f002 0203 	and.w	r2, r2, #3
 8000e62:	0092      	lsls	r2, r2, #2
 8000e64:	4093      	lsls	r3, r2
 8000e66:	69ba      	ldr	r2, [r7, #24]
 8000e68:	4313      	orrs	r3, r2
 8000e6a:	61bb      	str	r3, [r7, #24]
        SYSCFG->EXTICR[position >> 2U] = temp;
 8000e6c:	4935      	ldr	r1, [pc, #212]	; (8000f44 <HAL_GPIO_Init+0x328>)
 8000e6e:	69fb      	ldr	r3, [r7, #28]
 8000e70:	089b      	lsrs	r3, r3, #2
 8000e72:	3302      	adds	r3, #2
 8000e74:	69ba      	ldr	r2, [r7, #24]
 8000e76:	f841 2023 	str.w	r2, [r1, r3, lsl #2]

        /* Clear Rising Falling edge configuration */
        temp = EXTI->RTSR;
 8000e7a:	4b3d      	ldr	r3, [pc, #244]	; (8000f70 <HAL_GPIO_Init+0x354>)
 8000e7c:	689b      	ldr	r3, [r3, #8]
 8000e7e:	61bb      	str	r3, [r7, #24]
        temp &= ~((uint32_t)iocurrent);
 8000e80:	693b      	ldr	r3, [r7, #16]
 8000e82:	43db      	mvns	r3, r3
 8000e84:	69ba      	ldr	r2, [r7, #24]
 8000e86:	4013      	ands	r3, r2
 8000e88:	61bb      	str	r3, [r7, #24]
        if((GPIO_Init->Mode & TRIGGER_RISING) != 0x00U)
 8000e8a:	683b      	ldr	r3, [r7, #0]
 8000e8c:	685b      	ldr	r3, [r3, #4]
 8000e8e:	f403 1380 	and.w	r3, r3, #1048576	; 0x100000
 8000e92:	2b00      	cmp	r3, #0
 8000e94:	d003      	beq.n	8000e9e <HAL_GPIO_Init+0x282>
        {
          temp |= iocurrent;
 8000e96:	69ba      	ldr	r2, [r7, #24]
 8000e98:	693b      	ldr	r3, [r7, #16]
 8000e9a:	4313      	orrs	r3, r2
 8000e9c:	61bb      	str	r3, [r7, #24]
        }
        EXTI->RTSR = temp;
 8000e9e:	4a34      	ldr	r2, [pc, #208]	; (8000f70 <HAL_GPIO_Init+0x354>)
 8000ea0:	69bb      	ldr	r3, [r7, #24]
 8000ea2:	6093      	str	r3, [r2, #8]

        temp = EXTI->FTSR;
 8000ea4:	4b32      	ldr	r3, [pc, #200]	; (8000f70 <HAL_GPIO_Init+0x354>)
 8000ea6:	68db      	ldr	r3, [r3, #12]
 8000ea8:	61bb      	str	r3, [r7, #24]
        temp &= ~((uint32_t)iocurrent);
 8000eaa:	693b      	ldr	r3, [r7, #16]
 8000eac:	43db      	mvns	r3, r3
 8000eae:	69ba      	ldr	r2, [r7, #24]
 8000eb0:	4013      	ands	r3, r2
 8000eb2:	61bb      	str	r3, [r7, #24]
        if((GPIO_Init->Mode & TRIGGER_FALLING) != 0x00U)
 8000eb4:	683b      	ldr	r3, [r7, #0]
 8000eb6:	685b      	ldr	r3, [r3, #4]
 8000eb8:	f403 1300 	and.w	r3, r3, #2097152	; 0x200000
 8000ebc:	2b00      	cmp	r3, #0
 8000ebe:	d003      	beq.n	8000ec8 <HAL_GPIO_Init+0x2ac>
        {
          temp |= iocurrent;
 8000ec0:	69ba      	ldr	r2, [r7, #24]
 8000ec2:	693b      	ldr	r3, [r7, #16]
 8000ec4:	4313      	orrs	r3, r2
 8000ec6:	61bb      	str	r3, [r7, #24]
        }
        EXTI->FTSR = temp;
 8000ec8:	4a29      	ldr	r2, [pc, #164]	; (8000f70 <HAL_GPIO_Init+0x354>)
 8000eca:	69bb      	ldr	r3, [r7, #24]
 8000ecc:	60d3      	str	r3, [r2, #12]

        temp = EXTI->EMR;
 8000ece:	4b28      	ldr	r3, [pc, #160]	; (8000f70 <HAL_GPIO_Init+0x354>)
 8000ed0:	685b      	ldr	r3, [r3, #4]
 8000ed2:	61bb      	str	r3, [r7, #24]
        temp &= ~((uint32_t)iocurrent);
 8000ed4:	693b      	ldr	r3, [r7, #16]
 8000ed6:	43db      	mvns	r3, r3
 8000ed8:	69ba      	ldr	r2, [r7, #24]
 8000eda:	4013      	ands	r3, r2
 8000edc:	61bb      	str	r3, [r7, #24]
        if((GPIO_Init->Mode & EXTI_EVT) != 0x00U)
 8000ede:	683b      	ldr	r3, [r7, #0]
 8000ee0:	685b      	ldr	r3, [r3, #4]
 8000ee2:	f403 3300 	and.w	r3, r3, #131072	; 0x20000
 8000ee6:	2b00      	cmp	r3, #0
 8000ee8:	d003      	beq.n	8000ef2 <HAL_GPIO_Init+0x2d6>
        {
          temp |= iocurrent;
 8000eea:	69ba      	ldr	r2, [r7, #24]
 8000eec:	693b      	ldr	r3, [r7, #16]
 8000eee:	4313      	orrs	r3, r2
 8000ef0:	61bb      	str	r3, [r7, #24]
        }
        EXTI->EMR = temp;
 8000ef2:	4a1f      	ldr	r2, [pc, #124]	; (8000f70 <HAL_GPIO_Init+0x354>)
 8000ef4:	69bb      	ldr	r3, [r7, #24]
 8000ef6:	6053      	str	r3, [r2, #4]

        /* Clear EXTI line configuration */
        temp = EXTI->IMR;
 8000ef8:	4b1d      	ldr	r3, [pc, #116]	; (8000f70 <HAL_GPIO_Init+0x354>)
 8000efa:	681b      	ldr	r3, [r3, #0]
 8000efc:	61bb      	str	r3, [r7, #24]
        temp &= ~((uint32_t)iocurrent);
 8000efe:	693b      	ldr	r3, [r7, #16]
 8000f00:	43db      	mvns	r3, r3
 8000f02:	69ba      	ldr	r2, [r7, #24]
 8000f04:	4013      	ands	r3, r2
 8000f06:	61bb      	str	r3, [r7, #24]
        if((GPIO_Init->Mode & EXTI_IT) != 0x00U)
 8000f08:	683b      	ldr	r3, [r7, #0]
 8000f0a:	685b      	ldr	r3, [r3, #4]
 8000f0c:	f403 3380 	and.w	r3, r3, #65536	; 0x10000
 8000f10:	2b00      	cmp	r3, #0
 8000f12:	d003      	beq.n	8000f1c <HAL_GPIO_Init+0x300>
        {
          temp |= iocurrent;
 8000f14:	69ba      	ldr	r2, [r7, #24]
 8000f16:	693b      	ldr	r3, [r7, #16]
 8000f18:	4313      	orrs	r3, r2
 8000f1a:	61bb      	str	r3, [r7, #24]
        }
        EXTI->IMR = temp;
 8000f1c:	4a14      	ldr	r2, [pc, #80]	; (8000f70 <HAL_GPIO_Init+0x354>)
 8000f1e:	69bb      	ldr	r3, [r7, #24]
 8000f20:	6013      	str	r3, [r2, #0]
  for(position = 0U; position < GPIO_NUMBER; position++)
 8000f22:	69fb      	ldr	r3, [r7, #28]
 8000f24:	3301      	adds	r3, #1
 8000f26:	61fb      	str	r3, [r7, #28]
 8000f28:	69fb      	ldr	r3, [r7, #28]
 8000f2a:	2b0f      	cmp	r3, #15
 8000f2c:	f67f ae84 	bls.w	8000c38 <HAL_GPIO_Init+0x1c>
      }
    }
  }
}
 8000f30:	bf00      	nop
 8000f32:	bf00      	nop
 8000f34:	3724      	adds	r7, #36	; 0x24
 8000f36:	46bd      	mov	sp, r7
 8000f38:	f85d 7b04 	ldr.w	r7, [sp], #4
 8000f3c:	4770      	bx	lr
 8000f3e:	bf00      	nop
 8000f40:	40023800 	.word	0x40023800
 8000f44:	40013800 	.word	0x40013800
 8000f48:	40020000 	.word	0x40020000
 8000f4c:	40020400 	.word	0x40020400
 8000f50:	40020800 	.word	0x40020800
 8000f54:	40020c00 	.word	0x40020c00
 8000f58:	40021000 	.word	0x40021000
 8000f5c:	40021400 	.word	0x40021400
 8000f60:	40021800 	.word	0x40021800
 8000f64:	40021c00 	.word	0x40021c00
 8000f68:	40022000 	.word	0x40022000
 8000f6c:	40022400 	.word	0x40022400
 8000f70:	40013c00 	.word	0x40013c00

08000f74 <HAL_PCD_Init>:
  *         parameters in the PCD_InitTypeDef and initialize the associated handle.
  * @param  hpcd PCD handle
  * @retval HAL status
  */
HAL_StatusTypeDef HAL_PCD_Init(PCD_HandleTypeDef *hpcd)
{
 8000f74:	b5f0      	push	{r4, r5, r6, r7, lr}
 8000f76:	b08f      	sub	sp, #60	; 0x3c
 8000f78:	af0a      	add	r7, sp, #40	; 0x28
 8000f7a:	6078      	str	r0, [r7, #4]
  USB_OTG_GlobalTypeDef *USBx;
  uint8_t i;

  /* Check the PCD handle allocation */
  if (hpcd == NULL)
 8000f7c:	687b      	ldr	r3, [r7, #4]
 8000f7e:	2b00      	cmp	r3, #0
 8000f80:	d101      	bne.n	8000f86 <HAL_PCD_Init+0x12>
  {
    return HAL_ERROR;
 8000f82:	2301      	movs	r3, #1
 8000f84:	e10f      	b.n	80011a6 <HAL_PCD_Init+0x232>
  }

  /* Check the parameters */
  assert_param(IS_PCD_ALL_INSTANCE(hpcd->Instance));

  USBx = hpcd->Instance;
 8000f86:	687b      	ldr	r3, [r7, #4]
 8000f88:	681b      	ldr	r3, [r3, #0]
 8000f8a:	60bb      	str	r3, [r7, #8]

  if (hpcd->State == HAL_PCD_STATE_RESET)
 8000f8c:	687b      	ldr	r3, [r7, #4]
 8000f8e:	f893 34bd 	ldrb.w	r3, [r3, #1213]	; 0x4bd
 8000f92:	b2db      	uxtb	r3, r3
 8000f94:	2b00      	cmp	r3, #0
 8000f96:	d106      	bne.n	8000fa6 <HAL_PCD_Init+0x32>
  {
    /* Allocate lock resource and initialize it */
    hpcd->Lock = HAL_UNLOCKED;
 8000f98:	687b      	ldr	r3, [r7, #4]
 8000f9a:	2200      	movs	r2, #0
 8000f9c:	f883 24bc 	strb.w	r2, [r3, #1212]	; 0x4bc

    /* Init the low level hardware */
    hpcd->MspInitCallback(hpcd);
#else
    /* Init the low level hardware : GPIO, CLOCK, NVIC... */
    HAL_PCD_MspInit(hpcd);
 8000fa0:	6878      	ldr	r0, [r7, #4]
 8000fa2:	f005 fd41 	bl	8006a28 <HAL_PCD_MspInit>
#endif /* (USE_HAL_PCD_REGISTER_CALLBACKS) */
  }

  hpcd->State = HAL_PCD_STATE_BUSY;
 8000fa6:	687b      	ldr	r3, [r7, #4]
 8000fa8:	2203      	movs	r2, #3
 8000faa:	f883 24bd 	strb.w	r2, [r3, #1213]	; 0x4bd

  /* Disable DMA mode for FS instance */
  if ((USBx->CID & (0x1U << 8)) == 0U)
 8000fae:	68bb      	ldr	r3, [r7, #8]
 8000fb0:	6bdb      	ldr	r3, [r3, #60]	; 0x3c
 8000fb2:	f403 7380 	and.w	r3, r3, #256	; 0x100
 8000fb6:	2b00      	cmp	r3, #0
 8000fb8:	d102      	bne.n	8000fc0 <HAL_PCD_Init+0x4c>
  {
    hpcd->Init.dma_enable = 0U;
 8000fba:	687b      	ldr	r3, [r7, #4]
 8000fbc:	2200      	movs	r2, #0
 8000fbe:	611a      	str	r2, [r3, #16]
  }

  /* Disable the Interrupts */
  __HAL_PCD_DISABLE(hpcd);
 8000fc0:	687b      	ldr	r3, [r7, #4]
 8000fc2:	681b      	ldr	r3, [r3, #0]
 8000fc4:	4618      	mov	r0, r3
 8000fc6:	f001 ffd8 	bl	8002f7a <USB_DisableGlobalInt>

  /*Init the Core (common init.) */
  if (USB_CoreInit(hpcd->Instance, hpcd->Init) != HAL_OK)
 8000fca:	687b      	ldr	r3, [r7, #4]
 8000fcc:	681b      	ldr	r3, [r3, #0]
 8000fce:	603b      	str	r3, [r7, #0]
 8000fd0:	687e      	ldr	r6, [r7, #4]
 8000fd2:	466d      	mov	r5, sp
 8000fd4:	f106 0410 	add.w	r4, r6, #16
 8000fd8:	cc0f      	ldmia	r4!, {r0, r1, r2, r3}
 8000fda:	c50f      	stmia	r5!, {r0, r1, r2, r3}
 8000fdc:	cc0f      	ldmia	r4!, {r0, r1, r2, r3}
 8000fde:	c50f      	stmia	r5!, {r0, r1, r2, r3}
 8000fe0:	e894 0003 	ldmia.w	r4, {r0, r1}
 8000fe4:	e885 0003 	stmia.w	r5, {r0, r1}
 8000fe8:	1d33      	adds	r3, r6, #4
 8000fea:	cb0e      	ldmia	r3, {r1, r2, r3}
 8000fec:	6838      	ldr	r0, [r7, #0]
 8000fee:	f001 feaf 	bl	8002d50 <USB_CoreInit>
 8000ff2:	4603      	mov	r3, r0
 8000ff4:	2b00      	cmp	r3, #0
 8000ff6:	d005      	beq.n	8001004 <HAL_PCD_Init+0x90>
  {
    hpcd->State = HAL_PCD_STATE_ERROR;
 8000ff8:	687b      	ldr	r3, [r7, #4]
 8000ffa:	2202      	movs	r2, #2
 8000ffc:	f883 24bd 	strb.w	r2, [r3, #1213]	; 0x4bd
    return HAL_ERROR;
 8001000:	2301      	movs	r3, #1
 8001002:	e0d0      	b.n	80011a6 <HAL_PCD_Init+0x232>
  }

  /* Force Device Mode*/
  (void)USB_SetCurrentMode(hpcd->Instance, USB_DEVICE_MODE);
 8001004:	687b      	ldr	r3, [r7, #4]
 8001006:	681b      	ldr	r3, [r3, #0]
 8001008:	2100      	movs	r1, #0
 800100a:	4618      	mov	r0, r3
 800100c:	f001 ffc6 	bl	8002f9c <USB_SetCurrentMode>

  /* Init endpoints structures */
  for (i = 0U; i < hpcd->Init.dev_endpoints; i++)
 8001010:	2300      	movs	r3, #0
 8001012:	73fb      	strb	r3, [r7, #15]
 8001014:	e04a      	b.n	80010ac <HAL_PCD_Init+0x138>
  {
    /* Init ep structure */
    hpcd->IN_ep[i].is_in = 1U;
 8001016:	7bfa      	ldrb	r2, [r7, #15]
 8001018:	6879      	ldr	r1, [r7, #4]
 800101a:	4613      	mov	r3, r2
 800101c:	00db      	lsls	r3, r3, #3
 800101e:	4413      	add	r3, r2
 8001020:	009b      	lsls	r3, r3, #2
 8001022:	440b      	add	r3, r1
 8001024:	333d      	adds	r3, #61	; 0x3d
 8001026:	2201      	movs	r2, #1
 8001028:	701a      	strb	r2, [r3, #0]
    hpcd->IN_ep[i].num = i;
 800102a:	7bfa      	ldrb	r2, [r7, #15]
 800102c:	6879      	ldr	r1, [r7, #4]
 800102e:	4613      	mov	r3, r2
 8001030:	00db      	lsls	r3, r3, #3
 8001032:	4413      	add	r3, r2
 8001034:	009b      	lsls	r3, r3, #2
 8001036:	440b      	add	r3, r1
 8001038:	333c      	adds	r3, #60	; 0x3c
 800103a:	7bfa      	ldrb	r2, [r7, #15]
 800103c:	701a      	strb	r2, [r3, #0]
    hpcd->IN_ep[i].tx_fifo_num = i;
 800103e:	7bfa      	ldrb	r2, [r7, #15]
 8001040:	7bfb      	ldrb	r3, [r7, #15]
 8001042:	b298      	uxth	r0, r3
 8001044:	6879      	ldr	r1, [r7, #4]
 8001046:	4613      	mov	r3, r2
 8001048:	00db      	lsls	r3, r3, #3
 800104a:	4413      	add	r3, r2
 800104c:	009b      	lsls	r3, r3, #2
 800104e:	440b      	add	r3, r1
 8001050:	3344      	adds	r3, #68	; 0x44
 8001052:	4602      	mov	r2, r0
 8001054:	801a      	strh	r2, [r3, #0]
    /* Control until ep is activated */
    hpcd->IN_ep[i].type = EP_TYPE_CTRL;
 8001056:	7bfa      	ldrb	r2, [r7, #15]
 8001058:	6879      	ldr	r1, [r7, #4]
 800105a:	4613      	mov	r3, r2
 800105c:	00db      	lsls	r3, r3, #3
 800105e:	4413      	add	r3, r2
 8001060:	009b      	lsls	r3, r3, #2
 8001062:	440b      	add	r3, r1
 8001064:	3340      	adds	r3, #64	; 0x40
 8001066:	2200      	movs	r2, #0
 8001068:	701a      	strb	r2, [r3, #0]
    hpcd->IN_ep[i].maxpacket = 0U;
 800106a:	7bfa      	ldrb	r2, [r7, #15]
 800106c:	6879      	ldr	r1, [r7, #4]
 800106e:	4613      	mov	r3, r2
 8001070:	00db      	lsls	r3, r3, #3
 8001072:	4413      	add	r3, r2
 8001074:	009b      	lsls	r3, r3, #2
 8001076:	440b      	add	r3, r1
 8001078:	3348      	adds	r3, #72	; 0x48
 800107a:	2200      	movs	r2, #0
 800107c:	601a      	str	r2, [r3, #0]
    hpcd->IN_ep[i].xfer_buff = 0U;
 800107e:	7bfa      	ldrb	r2, [r7, #15]
 8001080:	6879      	ldr	r1, [r7, #4]
 8001082:	4613      	mov	r3, r2
 8001084:	00db      	lsls	r3, r3, #3
 8001086:	4413      	add	r3, r2
 8001088:	009b      	lsls	r3, r3, #2
 800108a:	440b      	add	r3, r1
 800108c:	334c      	adds	r3, #76	; 0x4c
 800108e:	2200      	movs	r2, #0
 8001090:	601a      	str	r2, [r3, #0]
    hpcd->IN_ep[i].xfer_len = 0U;
 8001092:	7bfa      	ldrb	r2, [r7, #15]
 8001094:	6879      	ldr	r1, [r7, #4]
 8001096:	4613      	mov	r3, r2
 8001098:	00db      	lsls	r3, r3, #3
 800109a:	4413      	add	r3, r2
 800109c:	009b      	lsls	r3, r3, #2
 800109e:	440b      	add	r3, r1
 80010a0:	3354      	adds	r3, #84	; 0x54
 80010a2:	2200      	movs	r2, #0
 80010a4:	601a      	str	r2, [r3, #0]
  for (i = 0U; i < hpcd->Init.dev_endpoints; i++)
 80010a6:	7bfb      	ldrb	r3, [r7, #15]
 80010a8:	3301      	adds	r3, #1
 80010aa:	73fb      	strb	r3, [r7, #15]
 80010ac:	7bfa      	ldrb	r2, [r7, #15]
 80010ae:	687b      	ldr	r3, [r7, #4]
 80010b0:	685b      	ldr	r3, [r3, #4]
 80010b2:	429a      	cmp	r2, r3
 80010b4:	d3af      	bcc.n	8001016 <HAL_PCD_Init+0xa2>
  }

  for (i = 0U; i < hpcd->Init.dev_endpoints; i++)
 80010b6:	2300      	movs	r3, #0
 80010b8:	73fb      	strb	r3, [r7, #15]
 80010ba:	e044      	b.n	8001146 <HAL_PCD_Init+0x1d2>
  {
    hpcd->OUT_ep[i].is_in = 0U;
 80010bc:	7bfa      	ldrb	r2, [r7, #15]
 80010be:	6879      	ldr	r1, [r7, #4]
 80010c0:	4613      	mov	r3, r2
 80010c2:	00db      	lsls	r3, r3, #3
 80010c4:	4413      	add	r3, r2
 80010c6:	009b      	lsls	r3, r3, #2
 80010c8:	440b      	add	r3, r1
 80010ca:	f203 237d 	addw	r3, r3, #637	; 0x27d
 80010ce:	2200      	movs	r2, #0
 80010d0:	701a      	strb	r2, [r3, #0]
    hpcd->OUT_ep[i].num = i;
 80010d2:	7bfa      	ldrb	r2, [r7, #15]
 80010d4:	6879      	ldr	r1, [r7, #4]
 80010d6:	4613      	mov	r3, r2
 80010d8:	00db      	lsls	r3, r3, #3
 80010da:	4413      	add	r3, r2
 80010dc:	009b      	lsls	r3, r3, #2
 80010de:	440b      	add	r3, r1
 80010e0:	f503 731f 	add.w	r3, r3, #636	; 0x27c
 80010e4:	7bfa      	ldrb	r2, [r7, #15]
 80010e6:	701a      	strb	r2, [r3, #0]
    /* Control until ep is activated */
    hpcd->OUT_ep[i].type = EP_TYPE_CTRL;
 80010e8:	7bfa      	ldrb	r2, [r7, #15]
 80010ea:	6879      	ldr	r1, [r7, #4]
 80010ec:	4613      	mov	r3, r2
 80010ee:	00db      	lsls	r3, r3, #3
 80010f0:	4413      	add	r3, r2
 80010f2:	009b      	lsls	r3, r3, #2
 80010f4:	440b      	add	r3, r1
 80010f6:	f503 7320 	add.w	r3, r3, #640	; 0x280
 80010fa:	2200      	movs	r2, #0
 80010fc:	701a      	strb	r2, [r3, #0]
    hpcd->OUT_ep[i].maxpacket = 0U;
 80010fe:	7bfa      	ldrb	r2, [r7, #15]
 8001100:	6879      	ldr	r1, [r7, #4]
 8001102:	4613      	mov	r3, r2
 8001104:	00db      	lsls	r3, r3, #3
 8001106:	4413      	add	r3, r2
 8001108:	009b      	lsls	r3, r3, #2
 800110a:	440b      	add	r3, r1
 800110c:	f503 7322 	add.w	r3, r3, #648	; 0x288
 8001110:	2200      	movs	r2, #0
 8001112:	601a      	str	r2, [r3, #0]
    hpcd->OUT_ep[i].xfer_buff = 0U;
 8001114:	7bfa      	ldrb	r2, [r7, #15]
 8001116:	6879      	ldr	r1, [r7, #4]
 8001118:	4613      	mov	r3, r2
 800111a:	00db      	lsls	r3, r3, #3
 800111c:	4413      	add	r3, r2
 800111e:	009b      	lsls	r3, r3, #2
 8001120:	440b      	add	r3, r1
 8001122:	f503 7323 	add.w	r3, r3, #652	; 0x28c
 8001126:	2200      	movs	r2, #0
 8001128:	601a      	str	r2, [r3, #0]
    hpcd->OUT_ep[i].xfer_len = 0U;
 800112a:	7bfa      	ldrb	r2, [r7, #15]
 800112c:	6879      	ldr	r1, [r7, #4]
 800112e:	4613      	mov	r3, r2
 8001130:	00db      	lsls	r3, r3, #3
 8001132:	4413      	add	r3, r2
 8001134:	009b      	lsls	r3, r3, #2
 8001136:	440b      	add	r3, r1
 8001138:	f503 7325 	add.w	r3, r3, #660	; 0x294
 800113c:	2200      	movs	r2, #0
 800113e:	601a      	str	r2, [r3, #0]
  for (i = 0U; i < hpcd->Init.dev_endpoints; i++)
 8001140:	7bfb      	ldrb	r3, [r7, #15]
 8001142:	3301      	adds	r3, #1
 8001144:	73fb      	strb	r3, [r7, #15]
 8001146:	7bfa      	ldrb	r2, [r7, #15]
 8001148:	687b      	ldr	r3, [r7, #4]
 800114a:	685b      	ldr	r3, [r3, #4]
 800114c:	429a      	cmp	r2, r3
 800114e:	d3b5      	bcc.n	80010bc <HAL_PCD_Init+0x148>
  }

  /* Init Device */
  if (USB_DevInit(hpcd->Instance, hpcd->Init) != HAL_OK)
 8001150:	687b      	ldr	r3, [r7, #4]
 8001152:	681b      	ldr	r3, [r3, #0]
 8001154:	603b      	str	r3, [r7, #0]
 8001156:	687e      	ldr	r6, [r7, #4]
 8001158:	466d      	mov	r5, sp
 800115a:	f106 0410 	add.w	r4, r6, #16
 800115e:	cc0f      	ldmia	r4!, {r0, r1, r2, r3}
 8001160:	c50f      	stmia	r5!, {r0, r1, r2, r3}
 8001162:	cc0f      	ldmia	r4!, {r0, r1, r2, r3}
 8001164:	c50f      	stmia	r5!, {r0, r1, r2, r3}
 8001166:	e894 0003 	ldmia.w	r4, {r0, r1}
 800116a:	e885 0003 	stmia.w	r5, {r0, r1}
 800116e:	1d33      	adds	r3, r6, #4
 8001170:	cb0e      	ldmia	r3, {r1, r2, r3}
 8001172:	6838      	ldr	r0, [r7, #0]
 8001174:	f001 ff5e 	bl	8003034 <USB_DevInit>
 8001178:	4603      	mov	r3, r0
 800117a:	2b00      	cmp	r3, #0
 800117c:	d005      	beq.n	800118a <HAL_PCD_Init+0x216>
  {
    hpcd->State = HAL_PCD_STATE_ERROR;
 800117e:	687b      	ldr	r3, [r7, #4]
 8001180:	2202      	movs	r2, #2
 8001182:	f883 24bd 	strb.w	r2, [r3, #1213]	; 0x4bd
    return HAL_ERROR;
 8001186:	2301      	movs	r3, #1
 8001188:	e00d      	b.n	80011a6 <HAL_PCD_Init+0x232>
  }

  hpcd->USB_Address = 0U;
 800118a:	687b      	ldr	r3, [r7, #4]
 800118c:	2200      	movs	r2, #0
 800118e:	f883 2038 	strb.w	r2, [r3, #56]	; 0x38
  hpcd->State = HAL_PCD_STATE_READY;
 8001192:	687b      	ldr	r3, [r7, #4]
 8001194:	2201      	movs	r2, #1
 8001196:	f883 24bd 	strb.w	r2, [r3, #1213]	; 0x4bd
  if (hpcd->Init.lpm_enable == 1U)
  {
    (void)HAL_PCDEx_ActivateLPM(hpcd);
  }
#endif /* defined(STM32F446xx) || defined(STM32F469xx) || defined(STM32F479xx) || defined(STM32F412Zx) || defined(STM32F412Vx) || defined(STM32F412Rx) || defined(STM32F412Cx) || defined(STM32F413xx) || defined(STM32F423xx) */
  (void)USB_DevDisconnect(hpcd->Instance);
 800119a:	687b      	ldr	r3, [r7, #4]
 800119c:	681b      	ldr	r3, [r3, #0]
 800119e:	4618      	mov	r0, r3
 80011a0:	f003 f8ad 	bl	80042fe <USB_DevDisconnect>

  return HAL_OK;
 80011a4:	2300      	movs	r3, #0
}
 80011a6:	4618      	mov	r0, r3
 80011a8:	3714      	adds	r7, #20
 80011aa:	46bd      	mov	sp, r7
 80011ac:	bdf0      	pop	{r4, r5, r6, r7, pc}

080011ae <HAL_PCD_Start>:
  * @brief  Start the USB device
  * @param  hpcd PCD handle
  * @retval HAL status
  */
HAL_StatusTypeDef HAL_PCD_Start(PCD_HandleTypeDef *hpcd)
{
 80011ae:	b580      	push	{r7, lr}
 80011b0:	b084      	sub	sp, #16
 80011b2:	af00      	add	r7, sp, #0
 80011b4:	6078      	str	r0, [r7, #4]
  USB_OTG_GlobalTypeDef *USBx = hpcd->Instance;
 80011b6:	687b      	ldr	r3, [r7, #4]
 80011b8:	681b      	ldr	r3, [r3, #0]
 80011ba:	60fb      	str	r3, [r7, #12]

  __HAL_LOCK(hpcd);
 80011bc:	687b      	ldr	r3, [r7, #4]
 80011be:	f893 34bc 	ldrb.w	r3, [r3, #1212]	; 0x4bc
 80011c2:	2b01      	cmp	r3, #1
 80011c4:	d101      	bne.n	80011ca <HAL_PCD_Start+0x1c>
 80011c6:	2302      	movs	r3, #2
 80011c8:	e020      	b.n	800120c <HAL_PCD_Start+0x5e>
 80011ca:	687b      	ldr	r3, [r7, #4]
 80011cc:	2201      	movs	r2, #1
 80011ce:	f883 24bc 	strb.w	r2, [r3, #1212]	; 0x4bc

  if ((hpcd->Init.battery_charging_enable == 1U) &&
 80011d2:	687b      	ldr	r3, [r7, #4]
 80011d4:	6a9b      	ldr	r3, [r3, #40]	; 0x28
 80011d6:	2b01      	cmp	r3, #1
 80011d8:	d109      	bne.n	80011ee <HAL_PCD_Start+0x40>
      (hpcd->Init.phy_itface != USB_OTG_ULPI_PHY))
 80011da:	687b      	ldr	r3, [r7, #4]
 80011dc:	699b      	ldr	r3, [r3, #24]
  if ((hpcd->Init.battery_charging_enable == 1U) &&
 80011de:	2b01      	cmp	r3, #1
 80011e0:	d005      	beq.n	80011ee <HAL_PCD_Start+0x40>
  {
    /* Enable USB Transceiver */
    USBx->GCCFG |= USB_OTG_GCCFG_PWRDWN;
 80011e2:	68fb      	ldr	r3, [r7, #12]
 80011e4:	6b9b      	ldr	r3, [r3, #56]	; 0x38
 80011e6:	f443 3280 	orr.w	r2, r3, #65536	; 0x10000
 80011ea:	68fb      	ldr	r3, [r7, #12]
 80011ec:	639a      	str	r2, [r3, #56]	; 0x38
  }

  __HAL_PCD_ENABLE(hpcd);
 80011ee:	687b      	ldr	r3, [r7, #4]
 80011f0:	681b      	ldr	r3, [r3, #0]
 80011f2:	4618      	mov	r0, r3
 80011f4:	f001 feb0 	bl	8002f58 <USB_EnableGlobalInt>
  (void)USB_DevConnect(hpcd->Instance);
 80011f8:	687b      	ldr	r3, [r7, #4]
 80011fa:	681b      	ldr	r3, [r3, #0]
 80011fc:	4618      	mov	r0, r3
 80011fe:	f003 f85d 	bl	80042bc <USB_DevConnect>
  __HAL_UNLOCK(hpcd);
 8001202:	687b      	ldr	r3, [r7, #4]
 8001204:	2200      	movs	r2, #0
 8001206:	f883 24bc 	strb.w	r2, [r3, #1212]	; 0x4bc

  return HAL_OK;
 800120a:	2300      	movs	r3, #0
}
 800120c:	4618      	mov	r0, r3
 800120e:	3710      	adds	r7, #16
 8001210:	46bd      	mov	sp, r7
 8001212:	bd80      	pop	{r7, pc}

08001214 <HAL_PCD_IRQHandler>:
  * @brief  Handles PCD interrupt request.
  * @param  hpcd PCD handle
  * @retval HAL status
  */
void HAL_PCD_IRQHandler(PCD_HandleTypeDef *hpcd)
{
 8001214:	b590      	push	{r4, r7, lr}
 8001216:	b08d      	sub	sp, #52	; 0x34
 8001218:	af00      	add	r7, sp, #0
 800121a:	6078      	str	r0, [r7, #4]
  USB_OTG_GlobalTypeDef *USBx = hpcd->Instance;
 800121c:	687b      	ldr	r3, [r7, #4]
 800121e:	681b      	ldr	r3, [r3, #0]
 8001220:	623b      	str	r3, [r7, #32]
  uint32_t USBx_BASE = (uint32_t)USBx;
 8001222:	6a3b      	ldr	r3, [r7, #32]
 8001224:	61fb      	str	r3, [r7, #28]
  uint32_t epnum;
  uint32_t fifoemptymsk;
  uint32_t RegVal;

  /* ensure that we are in device mode */
  if (USB_GetMode(hpcd->Instance) == USB_OTG_MODE_DEVICE)
 8001226:	687b      	ldr	r3, [r7, #4]
 8001228:	681b      	ldr	r3, [r3, #0]
 800122a:	4618      	mov	r0, r3
 800122c:	f003 f91b 	bl	8004466 <USB_GetMode>
 8001230:	4603      	mov	r3, r0
 8001232:	2b00      	cmp	r3, #0
 8001234:	f040 848a 	bne.w	8001b4c <HAL_PCD_IRQHandler+0x938>
  {
    /* avoid spurious interrupt */
    if (__HAL_PCD_IS_INVALID_INTERRUPT(hpcd))
 8001238:	687b      	ldr	r3, [r7, #4]
 800123a:	681b      	ldr	r3, [r3, #0]
 800123c:	4618      	mov	r0, r3
 800123e:	f003 f87f 	bl	8004340 <USB_ReadInterrupts>
 8001242:	4603      	mov	r3, r0
 8001244:	2b00      	cmp	r3, #0
 8001246:	f000 8480 	beq.w	8001b4a <HAL_PCD_IRQHandler+0x936>
    {
      return;
    }

    /* store current frame number */
    hpcd->FrameNumber = (USBx_DEVICE->DSTS & USB_OTG_DSTS_FNSOF_Msk) >> USB_OTG_DSTS_FNSOF_Pos;
 800124a:	69fb      	ldr	r3, [r7, #28]
 800124c:	f503 6300 	add.w	r3, r3, #2048	; 0x800
 8001250:	689b      	ldr	r3, [r3, #8]
 8001252:	0a1b      	lsrs	r3, r3, #8
 8001254:	f3c3 020d 	ubfx	r2, r3, #0, #14
 8001258:	687b      	ldr	r3, [r7, #4]
 800125a:	f8c3 24fc 	str.w	r2, [r3, #1276]	; 0x4fc

    if (__HAL_PCD_GET_FLAG(hpcd, USB_OTG_GINTSTS_MMIS))
 800125e:	687b      	ldr	r3, [r7, #4]
 8001260:	681b      	ldr	r3, [r3, #0]
 8001262:	4618      	mov	r0, r3
 8001264:	f003 f86c 	bl	8004340 <USB_ReadInterrupts>
 8001268:	4603      	mov	r3, r0
 800126a:	f003 0302 	and.w	r3, r3, #2
 800126e:	2b02      	cmp	r3, #2
 8001270:	d107      	bne.n	8001282 <HAL_PCD_IRQHandler+0x6e>
    {
      /* incorrect mode, acknowledge the interrupt */
      __HAL_PCD_CLEAR_FLAG(hpcd, USB_OTG_GINTSTS_MMIS);
 8001272:	687b      	ldr	r3, [r7, #4]
 8001274:	681b      	ldr	r3, [r3, #0]
 8001276:	695a      	ldr	r2, [r3, #20]
 8001278:	687b      	ldr	r3, [r7, #4]
 800127a:	681b      	ldr	r3, [r3, #0]
 800127c:	f002 0202 	and.w	r2, r2, #2
 8001280:	615a      	str	r2, [r3, #20]
    }

    /* Handle RxQLevel Interrupt */
    if (__HAL_PCD_GET_FLAG(hpcd, USB_OTG_GINTSTS_RXFLVL))
 8001282:	687b      	ldr	r3, [r7, #4]
 8001284:	681b      	ldr	r3, [r3, #0]
 8001286:	4618      	mov	r0, r3
 8001288:	f003 f85a 	bl	8004340 <USB_ReadInterrupts>
 800128c:	4603      	mov	r3, r0
 800128e:	f003 0310 	and.w	r3, r3, #16
 8001292:	2b10      	cmp	r3, #16
 8001294:	d161      	bne.n	800135a <HAL_PCD_IRQHandler+0x146>
    {
      USB_MASK_INTERRUPT(hpcd->Instance, USB_OTG_GINTSTS_RXFLVL);
 8001296:	687b      	ldr	r3, [r7, #4]
 8001298:	681b      	ldr	r3, [r3, #0]
 800129a:	699a      	ldr	r2, [r3, #24]
 800129c:	687b      	ldr	r3, [r7, #4]
 800129e:	681b      	ldr	r3, [r3, #0]
 80012a0:	f022 0210 	bic.w	r2, r2, #16
 80012a4:	619a      	str	r2, [r3, #24]

      RegVal = USBx->GRXSTSP;
 80012a6:	6a3b      	ldr	r3, [r7, #32]
 80012a8:	6a1b      	ldr	r3, [r3, #32]
 80012aa:	61bb      	str	r3, [r7, #24]

      ep = &hpcd->OUT_ep[RegVal & USB_OTG_GRXSTSP_EPNUM];
 80012ac:	69bb      	ldr	r3, [r7, #24]
 80012ae:	f003 020f 	and.w	r2, r3, #15
 80012b2:	4613      	mov	r3, r2
 80012b4:	00db      	lsls	r3, r3, #3
 80012b6:	4413      	add	r3, r2
 80012b8:	009b      	lsls	r3, r3, #2
 80012ba:	f503 731e 	add.w	r3, r3, #632	; 0x278
 80012be:	687a      	ldr	r2, [r7, #4]
 80012c0:	4413      	add	r3, r2
 80012c2:	3304      	adds	r3, #4
 80012c4:	617b      	str	r3, [r7, #20]

      if (((RegVal & USB_OTG_GRXSTSP_PKTSTS) >> 17) ==  STS_DATA_UPDT)
 80012c6:	69bb      	ldr	r3, [r7, #24]
 80012c8:	0c5b      	lsrs	r3, r3, #17
 80012ca:	f003 030f 	and.w	r3, r3, #15
 80012ce:	2b02      	cmp	r3, #2
 80012d0:	d124      	bne.n	800131c <HAL_PCD_IRQHandler+0x108>
      {
        if ((RegVal & USB_OTG_GRXSTSP_BCNT) != 0U)
 80012d2:	69ba      	ldr	r2, [r7, #24]
 80012d4:	f647 73f0 	movw	r3, #32752	; 0x7ff0
 80012d8:	4013      	ands	r3, r2
 80012da:	2b00      	cmp	r3, #0
 80012dc:	d035      	beq.n	800134a <HAL_PCD_IRQHandler+0x136>
        {
          (void)USB_ReadPacket(USBx, ep->xfer_buff,
 80012de:	697b      	ldr	r3, [r7, #20]
 80012e0:	6919      	ldr	r1, [r3, #16]
                               (uint16_t)((RegVal & USB_OTG_GRXSTSP_BCNT) >> 4));
 80012e2:	69bb      	ldr	r3, [r7, #24]
 80012e4:	091b      	lsrs	r3, r3, #4
 80012e6:	b29b      	uxth	r3, r3
          (void)USB_ReadPacket(USBx, ep->xfer_buff,
 80012e8:	f3c3 030a 	ubfx	r3, r3, #0, #11
 80012ec:	b29b      	uxth	r3, r3
 80012ee:	461a      	mov	r2, r3
 80012f0:	6a38      	ldr	r0, [r7, #32]
 80012f2:	f002 fe91 	bl	8004018 <USB_ReadPacket>

          ep->xfer_buff += (RegVal & USB_OTG_GRXSTSP_BCNT) >> 4;
 80012f6:	697b      	ldr	r3, [r7, #20]
 80012f8:	691a      	ldr	r2, [r3, #16]
 80012fa:	69bb      	ldr	r3, [r7, #24]
 80012fc:	091b      	lsrs	r3, r3, #4
 80012fe:	f3c3 030a 	ubfx	r3, r3, #0, #11
 8001302:	441a      	add	r2, r3
 8001304:	697b      	ldr	r3, [r7, #20]
 8001306:	611a      	str	r2, [r3, #16]
          ep->xfer_count += (RegVal & USB_OTG_GRXSTSP_BCNT) >> 4;
 8001308:	697b      	ldr	r3, [r7, #20]
 800130a:	6a1a      	ldr	r2, [r3, #32]
 800130c:	69bb      	ldr	r3, [r7, #24]
 800130e:	091b      	lsrs	r3, r3, #4
 8001310:	f3c3 030a 	ubfx	r3, r3, #0, #11
 8001314:	441a      	add	r2, r3
 8001316:	697b      	ldr	r3, [r7, #20]
 8001318:	621a      	str	r2, [r3, #32]
 800131a:	e016      	b.n	800134a <HAL_PCD_IRQHandler+0x136>
        }
      }
      else if (((RegVal & USB_OTG_GRXSTSP_PKTSTS) >> 17) == STS_SETUP_UPDT)
 800131c:	69bb      	ldr	r3, [r7, #24]
 800131e:	0c5b      	lsrs	r3, r3, #17
 8001320:	f003 030f 	and.w	r3, r3, #15
 8001324:	2b06      	cmp	r3, #6
 8001326:	d110      	bne.n	800134a <HAL_PCD_IRQHandler+0x136>
      {
        (void)USB_ReadPacket(USBx, (uint8_t *)hpcd->Setup, 8U);
 8001328:	687b      	ldr	r3, [r7, #4]
 800132a:	f203 43c4 	addw	r3, r3, #1220	; 0x4c4
 800132e:	2208      	movs	r2, #8
 8001330:	4619      	mov	r1, r3
 8001332:	6a38      	ldr	r0, [r7, #32]
 8001334:	f002 fe70 	bl	8004018 <USB_ReadPacket>
        ep->xfer_count += (RegVal & USB_OTG_GRXSTSP_BCNT) >> 4;
 8001338:	697b      	ldr	r3, [r7, #20]
 800133a:	6a1a      	ldr	r2, [r3, #32]
 800133c:	69bb      	ldr	r3, [r7, #24]
 800133e:	091b      	lsrs	r3, r3, #4
 8001340:	f3c3 030a 	ubfx	r3, r3, #0, #11
 8001344:	441a      	add	r2, r3
 8001346:	697b      	ldr	r3, [r7, #20]
 8001348:	621a      	str	r2, [r3, #32]
      else
      {
        /* ... */
      }

      USB_UNMASK_INTERRUPT(hpcd->Instance, USB_OTG_GINTSTS_RXFLVL);
 800134a:	687b      	ldr	r3, [r7, #4]
 800134c:	681b      	ldr	r3, [r3, #0]
 800134e:	699a      	ldr	r2, [r3, #24]
 8001350:	687b      	ldr	r3, [r7, #4]
 8001352:	681b      	ldr	r3, [r3, #0]
 8001354:	f042 0210 	orr.w	r2, r2, #16
 8001358:	619a      	str	r2, [r3, #24]
    }

    if (__HAL_PCD_GET_FLAG(hpcd, USB_OTG_GINTSTS_OEPINT))
 800135a:	687b      	ldr	r3, [r7, #4]
 800135c:	681b      	ldr	r3, [r3, #0]
 800135e:	4618      	mov	r0, r3
 8001360:	f002 ffee 	bl	8004340 <USB_ReadInterrupts>
 8001364:	4603      	mov	r3, r0
 8001366:	f403 2300 	and.w	r3, r3, #524288	; 0x80000
 800136a:	f5b3 2f00 	cmp.w	r3, #524288	; 0x80000
 800136e:	f040 80a7 	bne.w	80014c0 <HAL_PCD_IRQHandler+0x2ac>
    {
      epnum = 0U;
 8001372:	2300      	movs	r3, #0
 8001374:	627b      	str	r3, [r7, #36]	; 0x24

      /* Read in the device interrupt bits */
      ep_intr = USB_ReadDevAllOutEpInterrupt(hpcd->Instance);
 8001376:	687b      	ldr	r3, [r7, #4]
 8001378:	681b      	ldr	r3, [r3, #0]
 800137a:	4618      	mov	r0, r3
 800137c:	f002 fff3 	bl	8004366 <USB_ReadDevAllOutEpInterrupt>
 8001380:	62b8      	str	r0, [r7, #40]	; 0x28

      while (ep_intr != 0U)
 8001382:	e099      	b.n	80014b8 <HAL_PCD_IRQHandler+0x2a4>
      {
        if ((ep_intr & 0x1U) != 0U)
 8001384:	6abb      	ldr	r3, [r7, #40]	; 0x28
 8001386:	f003 0301 	and.w	r3, r3, #1
 800138a:	2b00      	cmp	r3, #0
 800138c:	f000 808e 	beq.w	80014ac <HAL_PCD_IRQHandler+0x298>
        {
          epint = USB_ReadDevOutEPInterrupt(hpcd->Instance, (uint8_t)epnum);
 8001390:	687b      	ldr	r3, [r7, #4]
 8001392:	681b      	ldr	r3, [r3, #0]
 8001394:	6a7a      	ldr	r2, [r7, #36]	; 0x24
 8001396:	b2d2      	uxtb	r2, r2
 8001398:	4611      	mov	r1, r2
 800139a:	4618      	mov	r0, r3
 800139c:	f003 f817 	bl	80043ce <USB_ReadDevOutEPInterrupt>
 80013a0:	6138      	str	r0, [r7, #16]

          if ((epint & USB_OTG_DOEPINT_XFRC) == USB_OTG_DOEPINT_XFRC)
 80013a2:	693b      	ldr	r3, [r7, #16]
 80013a4:	f003 0301 	and.w	r3, r3, #1
 80013a8:	2b00      	cmp	r3, #0
 80013aa:	d00c      	beq.n	80013c6 <HAL_PCD_IRQHandler+0x1b2>
          {
            CLEAR_OUT_EP_INTR(epnum, USB_OTG_DOEPINT_XFRC);
 80013ac:	6a7b      	ldr	r3, [r7, #36]	; 0x24
 80013ae:	015a      	lsls	r2, r3, #5
 80013b0:	69fb      	ldr	r3, [r7, #28]
 80013b2:	4413      	add	r3, r2
 80013b4:	f503 6330 	add.w	r3, r3, #2816	; 0xb00
 80013b8:	461a      	mov	r2, r3
 80013ba:	2301      	movs	r3, #1
 80013bc:	6093      	str	r3, [r2, #8]
            (void)PCD_EP_OutXfrComplete_int(hpcd, epnum);
 80013be:	6a79      	ldr	r1, [r7, #36]	; 0x24
 80013c0:	6878      	ldr	r0, [r7, #4]
 80013c2:	f000 fec3 	bl	800214c <PCD_EP_OutXfrComplete_int>
          }

          if ((epint & USB_OTG_DOEPINT_STUP) == USB_OTG_DOEPINT_STUP)
 80013c6:	693b      	ldr	r3, [r7, #16]
 80013c8:	f003 0308 	and.w	r3, r3, #8
 80013cc:	2b00      	cmp	r3, #0
 80013ce:	d00c      	beq.n	80013ea <HAL_PCD_IRQHandler+0x1d6>
          {
            CLEAR_OUT_EP_INTR(epnum, USB_OTG_DOEPINT_STUP);
 80013d0:	6a7b      	ldr	r3, [r7, #36]	; 0x24
 80013d2:	015a      	lsls	r2, r3, #5
 80013d4:	69fb      	ldr	r3, [r7, #28]
 80013d6:	4413      	add	r3, r2
 80013d8:	f503 6330 	add.w	r3, r3, #2816	; 0xb00
 80013dc:	461a      	mov	r2, r3
 80013de:	2308      	movs	r3, #8
 80013e0:	6093      	str	r3, [r2, #8]
            /* Class B setup phase done for previous decoded setup */
            (void)PCD_EP_OutSetupPacket_int(hpcd, epnum);
 80013e2:	6a79      	ldr	r1, [r7, #36]	; 0x24
 80013e4:	6878      	ldr	r0, [r7, #4]
 80013e6:	f000 ff99 	bl	800231c <PCD_EP_OutSetupPacket_int>
          }

          if ((epint & USB_OTG_DOEPINT_OTEPDIS) == USB_OTG_DOEPINT_OTEPDIS)
 80013ea:	693b      	ldr	r3, [r7, #16]
 80013ec:	f003 0310 	and.w	r3, r3, #16
 80013f0:	2b00      	cmp	r3, #0
 80013f2:	d008      	beq.n	8001406 <HAL_PCD_IRQHandler+0x1f2>
          {
            CLEAR_OUT_EP_INTR(epnum, USB_OTG_DOEPINT_OTEPDIS);
 80013f4:	6a7b      	ldr	r3, [r7, #36]	; 0x24
 80013f6:	015a      	lsls	r2, r3, #5
 80013f8:	69fb      	ldr	r3, [r7, #28]
 80013fa:	4413      	add	r3, r2
 80013fc:	f503 6330 	add.w	r3, r3, #2816	; 0xb00
 8001400:	461a      	mov	r2, r3
 8001402:	2310      	movs	r3, #16
 8001404:	6093      	str	r3, [r2, #8]
          }

          /* Clear OUT Endpoint disable interrupt */
          if ((epint & USB_OTG_DOEPINT_EPDISD) == USB_OTG_DOEPINT_EPDISD)
 8001406:	693b      	ldr	r3, [r7, #16]
 8001408:	f003 0302 	and.w	r3, r3, #2
 800140c:	2b00      	cmp	r3, #0
 800140e:	d030      	beq.n	8001472 <HAL_PCD_IRQHandler+0x25e>
          {
            if ((USBx->GINTSTS & USB_OTG_GINTSTS_BOUTNAKEFF) == USB_OTG_GINTSTS_BOUTNAKEFF)
 8001410:	6a3b      	ldr	r3, [r7, #32]
 8001412:	695b      	ldr	r3, [r3, #20]
 8001414:	f003 0380 	and.w	r3, r3, #128	; 0x80
 8001418:	2b80      	cmp	r3, #128	; 0x80
 800141a:	d109      	bne.n	8001430 <HAL_PCD_IRQHandler+0x21c>
            {
              USBx_DEVICE->DCTL |= USB_OTG_DCTL_CGONAK;
 800141c:	69fb      	ldr	r3, [r7, #28]
 800141e:	f503 6300 	add.w	r3, r3, #2048	; 0x800
 8001422:	685b      	ldr	r3, [r3, #4]
 8001424:	69fa      	ldr	r2, [r7, #28]
 8001426:	f502 6200 	add.w	r2, r2, #2048	; 0x800
 800142a:	f443 6380 	orr.w	r3, r3, #1024	; 0x400
 800142e:	6053      	str	r3, [r2, #4]
            }

            ep = &hpcd->OUT_ep[epnum];
 8001430:	6a7a      	ldr	r2, [r7, #36]	; 0x24
 8001432:	4613      	mov	r3, r2
 8001434:	00db      	lsls	r3, r3, #3
 8001436:	4413      	add	r3, r2
 8001438:	009b      	lsls	r3, r3, #2
 800143a:	f503 731e 	add.w	r3, r3, #632	; 0x278
 800143e:	687a      	ldr	r2, [r7, #4]
 8001440:	4413      	add	r3, r2
 8001442:	3304      	adds	r3, #4
 8001444:	617b      	str	r3, [r7, #20]

            if (ep->is_iso_incomplete == 1U)
 8001446:	697b      	ldr	r3, [r7, #20]
 8001448:	78db      	ldrb	r3, [r3, #3]
 800144a:	2b01      	cmp	r3, #1
 800144c:	d108      	bne.n	8001460 <HAL_PCD_IRQHandler+0x24c>
            {
              ep->is_iso_incomplete = 0U;
 800144e:	697b      	ldr	r3, [r7, #20]
 8001450:	2200      	movs	r2, #0
 8001452:	70da      	strb	r2, [r3, #3]

#if (USE_HAL_PCD_REGISTER_CALLBACKS == 1U)
              hpcd->ISOOUTIncompleteCallback(hpcd, (uint8_t)epnum);
#else
              HAL_PCD_ISOOUTIncompleteCallback(hpcd, (uint8_t)epnum);
 8001454:	6a7b      	ldr	r3, [r7, #36]	; 0x24
 8001456:	b2db      	uxtb	r3, r3
 8001458:	4619      	mov	r1, r3
 800145a:	6878      	ldr	r0, [r7, #4]
 800145c:	f005 fbe6 	bl	8006c2c <HAL_PCD_ISOOUTIncompleteCallback>
#endif /* USE_HAL_PCD_REGISTER_CALLBACKS */
            }

            CLEAR_OUT_EP_INTR(epnum, USB_OTG_DOEPINT_EPDISD);
 8001460:	6a7b      	ldr	r3, [r7, #36]	; 0x24
 8001462:	015a      	lsls	r2, r3, #5
 8001464:	69fb      	ldr	r3, [r7, #28]
 8001466:	4413      	add	r3, r2
 8001468:	f503 6330 	add.w	r3, r3, #2816	; 0xb00
 800146c:	461a      	mov	r2, r3
 800146e:	2302      	movs	r3, #2
 8001470:	6093      	str	r3, [r2, #8]
          }

          /* Clear Status Phase Received interrupt */
          if ((epint & USB_OTG_DOEPINT_OTEPSPR) == USB_OTG_DOEPINT_OTEPSPR)
 8001472:	693b      	ldr	r3, [r7, #16]
 8001474:	f003 0320 	and.w	r3, r3, #32
 8001478:	2b00      	cmp	r3, #0
 800147a:	d008      	beq.n	800148e <HAL_PCD_IRQHandler+0x27a>
          {
            CLEAR_OUT_EP_INTR(epnum, USB_OTG_DOEPINT_OTEPSPR);
 800147c:	6a7b      	ldr	r3, [r7, #36]	; 0x24
 800147e:	015a      	lsls	r2, r3, #5
 8001480:	69fb      	ldr	r3, [r7, #28]
 8001482:	4413      	add	r3, r2
 8001484:	f503 6330 	add.w	r3, r3, #2816	; 0xb00
 8001488:	461a      	mov	r2, r3
 800148a:	2320      	movs	r3, #32
 800148c:	6093      	str	r3, [r2, #8]
          }

          /* Clear OUT NAK interrupt */
          if ((epint & USB_OTG_DOEPINT_NAK) == USB_OTG_DOEPINT_NAK)
 800148e:	693b      	ldr	r3, [r7, #16]
 8001490:	f403 5300 	and.w	r3, r3, #8192	; 0x2000
 8001494:	2b00      	cmp	r3, #0
 8001496:	d009      	beq.n	80014ac <HAL_PCD_IRQHandler+0x298>
          {
            CLEAR_OUT_EP_INTR(epnum, USB_OTG_DOEPINT_NAK);
 8001498:	6a7b      	ldr	r3, [r7, #36]	; 0x24
 800149a:	015a      	lsls	r2, r3, #5
 800149c:	69fb      	ldr	r3, [r7, #28]
 800149e:	4413      	add	r3, r2
 80014a0:	f503 6330 	add.w	r3, r3, #2816	; 0xb00
 80014a4:	461a      	mov	r2, r3
 80014a6:	f44f 5300 	mov.w	r3, #8192	; 0x2000
 80014aa:	6093      	str	r3, [r2, #8]
          }
        }
        epnum++;
 80014ac:	6a7b      	ldr	r3, [r7, #36]	; 0x24
 80014ae:	3301      	adds	r3, #1
 80014b0:	627b      	str	r3, [r7, #36]	; 0x24
        ep_intr >>= 1U;
 80014b2:	6abb      	ldr	r3, [r7, #40]	; 0x28
 80014b4:	085b      	lsrs	r3, r3, #1
 80014b6:	62bb      	str	r3, [r7, #40]	; 0x28
      while (ep_intr != 0U)
 80014b8:	6abb      	ldr	r3, [r7, #40]	; 0x28
 80014ba:	2b00      	cmp	r3, #0
 80014bc:	f47f af62 	bne.w	8001384 <HAL_PCD_IRQHandler+0x170>
      }
    }

    if (__HAL_PCD_GET_FLAG(hpcd, USB_OTG_GINTSTS_IEPINT))
 80014c0:	687b      	ldr	r3, [r7, #4]
 80014c2:	681b      	ldr	r3, [r3, #0]
 80014c4:	4618      	mov	r0, r3
 80014c6:	f002 ff3b 	bl	8004340 <USB_ReadInterrupts>
 80014ca:	4603      	mov	r3, r0
 80014cc:	f403 2380 	and.w	r3, r3, #262144	; 0x40000
 80014d0:	f5b3 2f80 	cmp.w	r3, #262144	; 0x40000
 80014d4:	f040 80db 	bne.w	800168e <HAL_PCD_IRQHandler+0x47a>
    {
      /* Read in the device interrupt bits */
      ep_intr = USB_ReadDevAllInEpInterrupt(hpcd->Instance);
 80014d8:	687b      	ldr	r3, [r7, #4]
 80014da:	681b      	ldr	r3, [r3, #0]
 80014dc:	4618      	mov	r0, r3
 80014de:	f002 ff5c 	bl	800439a <USB_ReadDevAllInEpInterrupt>
 80014e2:	62b8      	str	r0, [r7, #40]	; 0x28

      epnum = 0U;
 80014e4:	2300      	movs	r3, #0
 80014e6:	627b      	str	r3, [r7, #36]	; 0x24

      while (ep_intr != 0U)
 80014e8:	e0cd      	b.n	8001686 <HAL_PCD_IRQHandler+0x472>
      {
        if ((ep_intr & 0x1U) != 0U) /* In ITR */
 80014ea:	6abb      	ldr	r3, [r7, #40]	; 0x28
 80014ec:	f003 0301 	and.w	r3, r3, #1
 80014f0:	2b00      	cmp	r3, #0
 80014f2:	f000 80c2 	beq.w	800167a <HAL_PCD_IRQHandler+0x466>
        {
          epint = USB_ReadDevInEPInterrupt(hpcd->Instance, (uint8_t)epnum);
 80014f6:	687b      	ldr	r3, [r7, #4]
 80014f8:	681b      	ldr	r3, [r3, #0]
 80014fa:	6a7a      	ldr	r2, [r7, #36]	; 0x24
 80014fc:	b2d2      	uxtb	r2, r2
 80014fe:	4611      	mov	r1, r2
 8001500:	4618      	mov	r0, r3
 8001502:	f002 ff82 	bl	800440a <USB_ReadDevInEPInterrupt>
 8001506:	6138      	str	r0, [r7, #16]

          if ((epint & USB_OTG_DIEPINT_XFRC) == USB_OTG_DIEPINT_XFRC)
 8001508:	693b      	ldr	r3, [r7, #16]
 800150a:	f003 0301 	and.w	r3, r3, #1
 800150e:	2b00      	cmp	r3, #0
 8001510:	d057      	beq.n	80015c2 <HAL_PCD_IRQHandler+0x3ae>
          {
            fifoemptymsk = (uint32_t)(0x1UL << (epnum & EP_ADDR_MSK));
 8001512:	6a7b      	ldr	r3, [r7, #36]	; 0x24
 8001514:	f003 030f 	and.w	r3, r3, #15
 8001518:	2201      	movs	r2, #1
 800151a:	fa02 f303 	lsl.w	r3, r2, r3
 800151e:	60fb      	str	r3, [r7, #12]
            USBx_DEVICE->DIEPEMPMSK &= ~fifoemptymsk;
 8001520:	69fb      	ldr	r3, [r7, #28]
 8001522:	f503 6300 	add.w	r3, r3, #2048	; 0x800
 8001526:	6b5a      	ldr	r2, [r3, #52]	; 0x34
 8001528:	68fb      	ldr	r3, [r7, #12]
 800152a:	43db      	mvns	r3, r3
 800152c:	69f9      	ldr	r1, [r7, #28]
 800152e:	f501 6100 	add.w	r1, r1, #2048	; 0x800
 8001532:	4013      	ands	r3, r2
 8001534:	634b      	str	r3, [r1, #52]	; 0x34

            CLEAR_IN_EP_INTR(epnum, USB_OTG_DIEPINT_XFRC);
 8001536:	6a7b      	ldr	r3, [r7, #36]	; 0x24
 8001538:	015a      	lsls	r2, r3, #5
 800153a:	69fb      	ldr	r3, [r7, #28]
 800153c:	4413      	add	r3, r2
 800153e:	f503 6310 	add.w	r3, r3, #2304	; 0x900
 8001542:	461a      	mov	r2, r3
 8001544:	2301      	movs	r3, #1
 8001546:	6093      	str	r3, [r2, #8]

            if (hpcd->Init.dma_enable == 1U)
 8001548:	687b      	ldr	r3, [r7, #4]
 800154a:	691b      	ldr	r3, [r3, #16]
 800154c:	2b01      	cmp	r3, #1
 800154e:	d132      	bne.n	80015b6 <HAL_PCD_IRQHandler+0x3a2>
            {
              hpcd->IN_ep[epnum].xfer_buff += hpcd->IN_ep[epnum].maxpacket;
 8001550:	6879      	ldr	r1, [r7, #4]
 8001552:	6a7a      	ldr	r2, [r7, #36]	; 0x24
 8001554:	4613      	mov	r3, r2
 8001556:	00db      	lsls	r3, r3, #3
 8001558:	4413      	add	r3, r2
 800155a:	009b      	lsls	r3, r3, #2
 800155c:	440b      	add	r3, r1
 800155e:	334c      	adds	r3, #76	; 0x4c
 8001560:	6819      	ldr	r1, [r3, #0]
 8001562:	6878      	ldr	r0, [r7, #4]
 8001564:	6a7a      	ldr	r2, [r7, #36]	; 0x24
 8001566:	4613      	mov	r3, r2
 8001568:	00db      	lsls	r3, r3, #3
 800156a:	4413      	add	r3, r2
 800156c:	009b      	lsls	r3, r3, #2
 800156e:	4403      	add	r3, r0
 8001570:	3348      	adds	r3, #72	; 0x48
 8001572:	681b      	ldr	r3, [r3, #0]
 8001574:	4419      	add	r1, r3
 8001576:	6878      	ldr	r0, [r7, #4]
 8001578:	6a7a      	ldr	r2, [r7, #36]	; 0x24
 800157a:	4613      	mov	r3, r2
 800157c:	00db      	lsls	r3, r3, #3
 800157e:	4413      	add	r3, r2
 8001580:	009b      	lsls	r3, r3, #2
 8001582:	4403      	add	r3, r0
 8001584:	334c      	adds	r3, #76	; 0x4c
 8001586:	6019      	str	r1, [r3, #0]

              /* this is ZLP, so prepare EP0 for next setup */
              if ((epnum == 0U) && (hpcd->IN_ep[epnum].xfer_len == 0U))
 8001588:	6a7b      	ldr	r3, [r7, #36]	; 0x24
 800158a:	2b00      	cmp	r3, #0
 800158c:	d113      	bne.n	80015b6 <HAL_PCD_IRQHandler+0x3a2>
 800158e:	6879      	ldr	r1, [r7, #4]
 8001590:	6a7a      	ldr	r2, [r7, #36]	; 0x24
 8001592:	4613      	mov	r3, r2
 8001594:	00db      	lsls	r3, r3, #3
 8001596:	4413      	add	r3, r2
 8001598:	009b      	lsls	r3, r3, #2
 800159a:	440b      	add	r3, r1
 800159c:	3354      	adds	r3, #84	; 0x54
 800159e:	681b      	ldr	r3, [r3, #0]
 80015a0:	2b00      	cmp	r3, #0
 80015a2:	d108      	bne.n	80015b6 <HAL_PCD_IRQHandler+0x3a2>
              {
                /* prepare to rx more setup packets */
                (void)USB_EP0_OutStart(hpcd->Instance, 1U, (uint8_t *)hpcd->Setup);
 80015a4:	687b      	ldr	r3, [r7, #4]
 80015a6:	6818      	ldr	r0, [r3, #0]
 80015a8:	687b      	ldr	r3, [r7, #4]
 80015aa:	f203 43c4 	addw	r3, r3, #1220	; 0x4c4
 80015ae:	461a      	mov	r2, r3
 80015b0:	2101      	movs	r1, #1
 80015b2:	f002 ff89 	bl	80044c8 <USB_EP0_OutStart>
            }

#if (USE_HAL_PCD_REGISTER_CALLBACKS == 1U)
            hpcd->DataInStageCallback(hpcd, (uint8_t)epnum);
#else
            HAL_PCD_DataInStageCallback(hpcd, (uint8_t)epnum);
 80015b6:	6a7b      	ldr	r3, [r7, #36]	; 0x24
 80015b8:	b2db      	uxtb	r3, r3
 80015ba:	4619      	mov	r1, r3
 80015bc:	6878      	ldr	r0, [r7, #4]
 80015be:	f005 fab0 	bl	8006b22 <HAL_PCD_DataInStageCallback>
#endif /* USE_HAL_PCD_REGISTER_CALLBACKS */
          }
          if ((epint & USB_OTG_DIEPINT_TOC) == USB_OTG_DIEPINT_TOC)
 80015c2:	693b      	ldr	r3, [r7, #16]
 80015c4:	f003 0308 	and.w	r3, r3, #8
 80015c8:	2b00      	cmp	r3, #0
 80015ca:	d008      	beq.n	80015de <HAL_PCD_IRQHandler+0x3ca>
          {
            CLEAR_IN_EP_INTR(epnum, USB_OTG_DIEPINT_TOC);
 80015cc:	6a7b      	ldr	r3, [r7, #36]	; 0x24
 80015ce:	015a      	lsls	r2, r3, #5
 80015d0:	69fb      	ldr	r3, [r7, #28]
 80015d2:	4413      	add	r3, r2
 80015d4:	f503 6310 	add.w	r3, r3, #2304	; 0x900
 80015d8:	461a      	mov	r2, r3
 80015da:	2308      	movs	r3, #8
 80015dc:	6093      	str	r3, [r2, #8]
          }
          if ((epint & USB_OTG_DIEPINT_ITTXFE) == USB_OTG_DIEPINT_ITTXFE)
 80015de:	693b      	ldr	r3, [r7, #16]
 80015e0:	f003 0310 	and.w	r3, r3, #16
 80015e4:	2b00      	cmp	r3, #0
 80015e6:	d008      	beq.n	80015fa <HAL_PCD_IRQHandler+0x3e6>
          {
            CLEAR_IN_EP_INTR(epnum, USB_OTG_DIEPINT_ITTXFE);
 80015e8:	6a7b      	ldr	r3, [r7, #36]	; 0x24
 80015ea:	015a      	lsls	r2, r3, #5
 80015ec:	69fb      	ldr	r3, [r7, #28]
 80015ee:	4413      	add	r3, r2
 80015f0:	f503 6310 	add.w	r3, r3, #2304	; 0x900
 80015f4:	461a      	mov	r2, r3
 80015f6:	2310      	movs	r3, #16
 80015f8:	6093      	str	r3, [r2, #8]
          }
          if ((epint & USB_OTG_DIEPINT_INEPNE) == USB_OTG_DIEPINT_INEPNE)
 80015fa:	693b      	ldr	r3, [r7, #16]
 80015fc:	f003 0340 	and.w	r3, r3, #64	; 0x40
 8001600:	2b00      	cmp	r3, #0
 8001602:	d008      	beq.n	8001616 <HAL_PCD_IRQHandler+0x402>
          {
            CLEAR_IN_EP_INTR(epnum, USB_OTG_DIEPINT_INEPNE);
 8001604:	6a7b      	ldr	r3, [r7, #36]	; 0x24
 8001606:	015a      	lsls	r2, r3, #5
 8001608:	69fb      	ldr	r3, [r7, #28]
 800160a:	4413      	add	r3, r2
 800160c:	f503 6310 	add.w	r3, r3, #2304	; 0x900
 8001610:	461a      	mov	r2, r3
 8001612:	2340      	movs	r3, #64	; 0x40
 8001614:	6093      	str	r3, [r2, #8]
          }
          if ((epint & USB_OTG_DIEPINT_EPDISD) == USB_OTG_DIEPINT_EPDISD)
 8001616:	693b      	ldr	r3, [r7, #16]
 8001618:	f003 0302 	and.w	r3, r3, #2
 800161c:	2b00      	cmp	r3, #0
 800161e:	d023      	beq.n	8001668 <HAL_PCD_IRQHandler+0x454>
          {
            (void)USB_FlushTxFifo(USBx, epnum);
 8001620:	6a79      	ldr	r1, [r7, #36]	; 0x24
 8001622:	6a38      	ldr	r0, [r7, #32]
 8001624:	f001 fe6a 	bl	80032fc <USB_FlushTxFifo>

            ep = &hpcd->IN_ep[epnum];
 8001628:	6a7a      	ldr	r2, [r7, #36]	; 0x24
 800162a:	4613      	mov	r3, r2
 800162c:	00db      	lsls	r3, r3, #3
 800162e:	4413      	add	r3, r2
 8001630:	009b      	lsls	r3, r3, #2
 8001632:	3338      	adds	r3, #56	; 0x38
 8001634:	687a      	ldr	r2, [r7, #4]
 8001636:	4413      	add	r3, r2
 8001638:	3304      	adds	r3, #4
 800163a:	617b      	str	r3, [r7, #20]

            if (ep->is_iso_incomplete == 1U)
 800163c:	697b      	ldr	r3, [r7, #20]
 800163e:	78db      	ldrb	r3, [r3, #3]
 8001640:	2b01      	cmp	r3, #1
 8001642:	d108      	bne.n	8001656 <HAL_PCD_IRQHandler+0x442>
            {
              ep->is_iso_incomplete = 0U;
 8001644:	697b      	ldr	r3, [r7, #20]
 8001646:	2200      	movs	r2, #0
 8001648:	70da      	strb	r2, [r3, #3]

#if (USE_HAL_PCD_REGISTER_CALLBACKS == 1U)
              hpcd->ISOINIncompleteCallback(hpcd, (uint8_t)epnum);
#else
              HAL_PCD_ISOINIncompleteCallback(hpcd, (uint8_t)epnum);
 800164a:	6a7b      	ldr	r3, [r7, #36]	; 0x24
 800164c:	b2db      	uxtb	r3, r3
 800164e:	4619      	mov	r1, r3
 8001650:	6878      	ldr	r0, [r7, #4]
 8001652:	f005 fafd 	bl	8006c50 <HAL_PCD_ISOINIncompleteCallback>
#endif /* USE_HAL_PCD_REGISTER_CALLBACKS */
            }

            CLEAR_IN_EP_INTR(epnum, USB_OTG_DIEPINT_EPDISD);
 8001656:	6a7b      	ldr	r3, [r7, #36]	; 0x24
 8001658:	015a      	lsls	r2, r3, #5
 800165a:	69fb      	ldr	r3, [r7, #28]
 800165c:	4413      	add	r3, r2
 800165e:	f503 6310 	add.w	r3, r3, #2304	; 0x900
 8001662:	461a      	mov	r2, r3
 8001664:	2302      	movs	r3, #2
 8001666:	6093      	str	r3, [r2, #8]
          }
          if ((epint & USB_OTG_DIEPINT_TXFE) == USB_OTG_DIEPINT_TXFE)
 8001668:	693b      	ldr	r3, [r7, #16]
 800166a:	f003 0380 	and.w	r3, r3, #128	; 0x80
 800166e:	2b00      	cmp	r3, #0
 8001670:	d003      	beq.n	800167a <HAL_PCD_IRQHandler+0x466>
          {
            (void)PCD_WriteEmptyTxFifo(hpcd, epnum);
 8001672:	6a79      	ldr	r1, [r7, #36]	; 0x24
 8001674:	6878      	ldr	r0, [r7, #4]
 8001676:	f000 fcdb 	bl	8002030 <PCD_WriteEmptyTxFifo>
          }
        }
        epnum++;
 800167a:	6a7b      	ldr	r3, [r7, #36]	; 0x24
 800167c:	3301      	adds	r3, #1
 800167e:	627b      	str	r3, [r7, #36]	; 0x24
        ep_intr >>= 1U;
 8001680:	6abb      	ldr	r3, [r7, #40]	; 0x28
 8001682:	085b      	lsrs	r3, r3, #1
 8001684:	62bb      	str	r3, [r7, #40]	; 0x28
      while (ep_intr != 0U)
 8001686:	6abb      	ldr	r3, [r7, #40]	; 0x28
 8001688:	2b00      	cmp	r3, #0
 800168a:	f47f af2e 	bne.w	80014ea <HAL_PCD_IRQHandler+0x2d6>
      }
    }

    /* Handle Resume Interrupt */
    if (__HAL_PCD_GET_FLAG(hpcd, USB_OTG_GINTSTS_WKUINT))
 800168e:	687b      	ldr	r3, [r7, #4]
 8001690:	681b      	ldr	r3, [r3, #0]
 8001692:	4618      	mov	r0, r3
 8001694:	f002 fe54 	bl	8004340 <USB_ReadInterrupts>
 8001698:	4603      	mov	r3, r0
 800169a:	f003 4300 	and.w	r3, r3, #2147483648	; 0x80000000
 800169e:	f1b3 4f00 	cmp.w	r3, #2147483648	; 0x80000000
 80016a2:	d122      	bne.n	80016ea <HAL_PCD_IRQHandler+0x4d6>
    {
      /* Clear the Remote Wake-up Signaling */
      USBx_DEVICE->DCTL &= ~USB_OTG_DCTL_RWUSIG;
 80016a4:	69fb      	ldr	r3, [r7, #28]
 80016a6:	f503 6300 	add.w	r3, r3, #2048	; 0x800
 80016aa:	685b      	ldr	r3, [r3, #4]
 80016ac:	69fa      	ldr	r2, [r7, #28]
 80016ae:	f502 6200 	add.w	r2, r2, #2048	; 0x800
 80016b2:	f023 0301 	bic.w	r3, r3, #1
 80016b6:	6053      	str	r3, [r2, #4]

      if (hpcd->LPM_State == LPM_L1)
 80016b8:	687b      	ldr	r3, [r7, #4]
 80016ba:	f893 34f4 	ldrb.w	r3, [r3, #1268]	; 0x4f4
 80016be:	2b01      	cmp	r3, #1
 80016c0:	d108      	bne.n	80016d4 <HAL_PCD_IRQHandler+0x4c0>
      {
        hpcd->LPM_State = LPM_L0;
 80016c2:	687b      	ldr	r3, [r7, #4]
 80016c4:	2200      	movs	r2, #0
 80016c6:	f883 24f4 	strb.w	r2, [r3, #1268]	; 0x4f4

#if (USE_HAL_PCD_REGISTER_CALLBACKS == 1U)
        hpcd->LPMCallback(hpcd, PCD_LPM_L0_ACTIVE);
#else
        HAL_PCDEx_LPM_Callback(hpcd, PCD_LPM_L0_ACTIVE);
 80016ca:	2100      	movs	r1, #0
 80016cc:	6878      	ldr	r0, [r7, #4]
 80016ce:	f000 fec3 	bl	8002458 <HAL_PCDEx_LPM_Callback>
 80016d2:	e002      	b.n	80016da <HAL_PCD_IRQHandler+0x4c6>
      else
      {
#if (USE_HAL_PCD_REGISTER_CALLBACKS == 1U)
        hpcd->ResumeCallback(hpcd);
#else
        HAL_PCD_ResumeCallback(hpcd);
 80016d4:	6878      	ldr	r0, [r7, #4]
 80016d6:	f005 fa9b 	bl	8006c10 <HAL_PCD_ResumeCallback>
#endif /* USE_HAL_PCD_REGISTER_CALLBACKS */
      }

      __HAL_PCD_CLEAR_FLAG(hpcd, USB_OTG_GINTSTS_WKUINT);
 80016da:	687b      	ldr	r3, [r7, #4]
 80016dc:	681b      	ldr	r3, [r3, #0]
 80016de:	695a      	ldr	r2, [r3, #20]
 80016e0:	687b      	ldr	r3, [r7, #4]
 80016e2:	681b      	ldr	r3, [r3, #0]
 80016e4:	f002 4200 	and.w	r2, r2, #2147483648	; 0x80000000
 80016e8:	615a      	str	r2, [r3, #20]
    }

    /* Handle Suspend Interrupt */
    if (__HAL_PCD_GET_FLAG(hpcd, USB_OTG_GINTSTS_USBSUSP))
 80016ea:	687b      	ldr	r3, [r7, #4]
 80016ec:	681b      	ldr	r3, [r3, #0]
 80016ee:	4618      	mov	r0, r3
 80016f0:	f002 fe26 	bl	8004340 <USB_ReadInterrupts>
 80016f4:	4603      	mov	r3, r0
 80016f6:	f403 6300 	and.w	r3, r3, #2048	; 0x800
 80016fa:	f5b3 6f00 	cmp.w	r3, #2048	; 0x800
 80016fe:	d112      	bne.n	8001726 <HAL_PCD_IRQHandler+0x512>
    {
      if ((USBx_DEVICE->DSTS & USB_OTG_DSTS_SUSPSTS) == USB_OTG_DSTS_SUSPSTS)
 8001700:	69fb      	ldr	r3, [r7, #28]
 8001702:	f503 6300 	add.w	r3, r3, #2048	; 0x800
 8001706:	689b      	ldr	r3, [r3, #8]
 8001708:	f003 0301 	and.w	r3, r3, #1
 800170c:	2b01      	cmp	r3, #1
 800170e:	d102      	bne.n	8001716 <HAL_PCD_IRQHandler+0x502>
      {
#if (USE_HAL_PCD_REGISTER_CALLBACKS == 1U)
        hpcd->SuspendCallback(hpcd);
#else
        HAL_PCD_SuspendCallback(hpcd);
 8001710:	6878      	ldr	r0, [r7, #4]
 8001712:	f005 fa57 	bl	8006bc4 <HAL_PCD_SuspendCallback>
#endif /* USE_HAL_PCD_REGISTER_CALLBACKS */
      }
      __HAL_PCD_CLEAR_FLAG(hpcd, USB_OTG_GINTSTS_USBSUSP);
 8001716:	687b      	ldr	r3, [r7, #4]
 8001718:	681b      	ldr	r3, [r3, #0]
 800171a:	695a      	ldr	r2, [r3, #20]
 800171c:	687b      	ldr	r3, [r7, #4]
 800171e:	681b      	ldr	r3, [r3, #0]
 8001720:	f402 6200 	and.w	r2, r2, #2048	; 0x800
 8001724:	615a      	str	r2, [r3, #20]
#endif /* USE_HAL_PCD_REGISTER_CALLBACKS */
      }
    }
#endif /* defined(STM32F446xx) || defined(STM32F469xx) || defined(STM32F479xx) || defined(STM32F412Zx) || defined(STM32F412Vx) || defined(STM32F412Rx) || defined(STM32F412Cx) || defined(STM32F413xx) || defined(STM32F423xx) */
    /* Handle Reset Interrupt */
    if (__HAL_PCD_GET_FLAG(hpcd, USB_OTG_GINTSTS_USBRST))
 8001726:	687b      	ldr	r3, [r7, #4]
 8001728:	681b      	ldr	r3, [r3, #0]
 800172a:	4618      	mov	r0, r3
 800172c:	f002 fe08 	bl	8004340 <USB_ReadInterrupts>
 8001730:	4603      	mov	r3, r0
 8001732:	f403 5380 	and.w	r3, r3, #4096	; 0x1000
 8001736:	f5b3 5f80 	cmp.w	r3, #4096	; 0x1000
 800173a:	f040 80b7 	bne.w	80018ac <HAL_PCD_IRQHandler+0x698>
    {
      USBx_DEVICE->DCTL &= ~USB_OTG_DCTL_RWUSIG;
 800173e:	69fb      	ldr	r3, [r7, #28]
 8001740:	f503 6300 	add.w	r3, r3, #2048	; 0x800
 8001744:	685b      	ldr	r3, [r3, #4]
 8001746:	69fa      	ldr	r2, [r7, #28]
 8001748:	f502 6200 	add.w	r2, r2, #2048	; 0x800
 800174c:	f023 0301 	bic.w	r3, r3, #1
 8001750:	6053      	str	r3, [r2, #4]
      (void)USB_FlushTxFifo(hpcd->Instance, 0x10U);
 8001752:	687b      	ldr	r3, [r7, #4]
 8001754:	681b      	ldr	r3, [r3, #0]
 8001756:	2110      	movs	r1, #16
 8001758:	4618      	mov	r0, r3
 800175a:	f001 fdcf 	bl	80032fc <USB_FlushTxFifo>

      for (i = 0U; i < hpcd->Init.dev_endpoints; i++)
 800175e:	2300      	movs	r3, #0
 8001760:	62fb      	str	r3, [r7, #44]	; 0x2c
 8001762:	e046      	b.n	80017f2 <HAL_PCD_IRQHandler+0x5de>
      {
        USBx_INEP(i)->DIEPINT = 0xFB7FU;
 8001764:	6afb      	ldr	r3, [r7, #44]	; 0x2c
 8001766:	015a      	lsls	r2, r3, #5
 8001768:	69fb      	ldr	r3, [r7, #28]
 800176a:	4413      	add	r3, r2
 800176c:	f503 6310 	add.w	r3, r3, #2304	; 0x900
 8001770:	461a      	mov	r2, r3
 8001772:	f64f 337f 	movw	r3, #64383	; 0xfb7f
 8001776:	6093      	str	r3, [r2, #8]
        USBx_INEP(i)->DIEPCTL &= ~USB_OTG_DIEPCTL_STALL;
 8001778:	6afb      	ldr	r3, [r7, #44]	; 0x2c
 800177a:	015a      	lsls	r2, r3, #5
 800177c:	69fb      	ldr	r3, [r7, #28]
 800177e:	4413      	add	r3, r2
 8001780:	f503 6310 	add.w	r3, r3, #2304	; 0x900
 8001784:	681b      	ldr	r3, [r3, #0]
 8001786:	6afa      	ldr	r2, [r7, #44]	; 0x2c
 8001788:	0151      	lsls	r1, r2, #5
 800178a:	69fa      	ldr	r2, [r7, #28]
 800178c:	440a      	add	r2, r1
 800178e:	f502 6210 	add.w	r2, r2, #2304	; 0x900
 8001792:	f423 1300 	bic.w	r3, r3, #2097152	; 0x200000
 8001796:	6013      	str	r3, [r2, #0]
        USBx_OUTEP(i)->DOEPINT = 0xFB7FU;
 8001798:	6afb      	ldr	r3, [r7, #44]	; 0x2c
 800179a:	015a      	lsls	r2, r3, #5
 800179c:	69fb      	ldr	r3, [r7, #28]
 800179e:	4413      	add	r3, r2
 80017a0:	f503 6330 	add.w	r3, r3, #2816	; 0xb00
 80017a4:	461a      	mov	r2, r3
 80017a6:	f64f 337f 	movw	r3, #64383	; 0xfb7f
 80017aa:	6093      	str	r3, [r2, #8]
        USBx_OUTEP(i)->DOEPCTL &= ~USB_OTG_DOEPCTL_STALL;
 80017ac:	6afb      	ldr	r3, [r7, #44]	; 0x2c
 80017ae:	015a      	lsls	r2, r3, #5
 80017b0:	69fb      	ldr	r3, [r7, #28]
 80017b2:	4413      	add	r3, r2
 80017b4:	f503 6330 	add.w	r3, r3, #2816	; 0xb00
 80017b8:	681b      	ldr	r3, [r3, #0]
 80017ba:	6afa      	ldr	r2, [r7, #44]	; 0x2c
 80017bc:	0151      	lsls	r1, r2, #5
 80017be:	69fa      	ldr	r2, [r7, #28]
 80017c0:	440a      	add	r2, r1
 80017c2:	f502 6230 	add.w	r2, r2, #2816	; 0xb00
 80017c6:	f423 1300 	bic.w	r3, r3, #2097152	; 0x200000
 80017ca:	6013      	str	r3, [r2, #0]
        USBx_OUTEP(i)->DOEPCTL |= USB_OTG_DOEPCTL_SNAK;
 80017cc:	6afb      	ldr	r3, [r7, #44]	; 0x2c
 80017ce:	015a      	lsls	r2, r3, #5
 80017d0:	69fb      	ldr	r3, [r7, #28]
 80017d2:	4413      	add	r3, r2
 80017d4:	f503 6330 	add.w	r3, r3, #2816	; 0xb00
 80017d8:	681b      	ldr	r3, [r3, #0]
 80017da:	6afa      	ldr	r2, [r7, #44]	; 0x2c
 80017dc:	0151      	lsls	r1, r2, #5
 80017de:	69fa      	ldr	r2, [r7, #28]
 80017e0:	440a      	add	r2, r1
 80017e2:	f502 6230 	add.w	r2, r2, #2816	; 0xb00
 80017e6:	f043 6300 	orr.w	r3, r3, #134217728	; 0x8000000
 80017ea:	6013      	str	r3, [r2, #0]
      for (i = 0U; i < hpcd->Init.dev_endpoints; i++)
 80017ec:	6afb      	ldr	r3, [r7, #44]	; 0x2c
 80017ee:	3301      	adds	r3, #1
 80017f0:	62fb      	str	r3, [r7, #44]	; 0x2c
 80017f2:	687b      	ldr	r3, [r7, #4]
 80017f4:	685b      	ldr	r3, [r3, #4]
 80017f6:	6afa      	ldr	r2, [r7, #44]	; 0x2c
 80017f8:	429a      	cmp	r2, r3
 80017fa:	d3b3      	bcc.n	8001764 <HAL_PCD_IRQHandler+0x550>
      }
      USBx_DEVICE->DAINTMSK |= 0x10001U;
 80017fc:	69fb      	ldr	r3, [r7, #28]
 80017fe:	f503 6300 	add.w	r3, r3, #2048	; 0x800
 8001802:	69db      	ldr	r3, [r3, #28]
 8001804:	69fa      	ldr	r2, [r7, #28]
 8001806:	f502 6200 	add.w	r2, r2, #2048	; 0x800
 800180a:	f043 1301 	orr.w	r3, r3, #65537	; 0x10001
 800180e:	61d3      	str	r3, [r2, #28]

      if (hpcd->Init.use_dedicated_ep1 != 0U)
 8001810:	687b      	ldr	r3, [r7, #4]
 8001812:	6b1b      	ldr	r3, [r3, #48]	; 0x30
 8001814:	2b00      	cmp	r3, #0
 8001816:	d016      	beq.n	8001846 <HAL_PCD_IRQHandler+0x632>
      {
        USBx_DEVICE->DOUTEP1MSK |= USB_OTG_DOEPMSK_STUPM |
 8001818:	69fb      	ldr	r3, [r7, #28]
 800181a:	f503 6300 	add.w	r3, r3, #2048	; 0x800
 800181e:	f8d3 3084 	ldr.w	r3, [r3, #132]	; 0x84
 8001822:	69fa      	ldr	r2, [r7, #28]
 8001824:	f502 6200 	add.w	r2, r2, #2048	; 0x800
 8001828:	f043 030b 	orr.w	r3, r3, #11
 800182c:	f8c2 3084 	str.w	r3, [r2, #132]	; 0x84
                                   USB_OTG_DOEPMSK_XFRCM |
                                   USB_OTG_DOEPMSK_EPDM;

        USBx_DEVICE->DINEP1MSK |= USB_OTG_DIEPMSK_TOM |
 8001830:	69fb      	ldr	r3, [r7, #28]
 8001832:	f503 6300 	add.w	r3, r3, #2048	; 0x800
 8001836:	6c5b      	ldr	r3, [r3, #68]	; 0x44
 8001838:	69fa      	ldr	r2, [r7, #28]
 800183a:	f502 6200 	add.w	r2, r2, #2048	; 0x800
 800183e:	f043 030b 	orr.w	r3, r3, #11
 8001842:	6453      	str	r3, [r2, #68]	; 0x44
 8001844:	e015      	b.n	8001872 <HAL_PCD_IRQHandler+0x65e>
                                  USB_OTG_DIEPMSK_XFRCM |
                                  USB_OTG_DIEPMSK_EPDM;
      }
      else
      {
        USBx_DEVICE->DOEPMSK |= USB_OTG_DOEPMSK_STUPM |
 8001846:	69fb      	ldr	r3, [r7, #28]
 8001848:	f503 6300 	add.w	r3, r3, #2048	; 0x800
 800184c:	695b      	ldr	r3, [r3, #20]
 800184e:	69fa      	ldr	r2, [r7, #28]
 8001850:	f502 6200 	add.w	r2, r2, #2048	; 0x800
 8001854:	f443 5300 	orr.w	r3, r3, #8192	; 0x2000
 8001858:	f043 032b 	orr.w	r3, r3, #43	; 0x2b
 800185c:	6153      	str	r3, [r2, #20]
                                USB_OTG_DOEPMSK_XFRCM |
                                USB_OTG_DOEPMSK_EPDM |
                                USB_OTG_DOEPMSK_OTEPSPRM |
                                USB_OTG_DOEPMSK_NAKM;

        USBx_DEVICE->DIEPMSK |= USB_OTG_DIEPMSK_TOM |
 800185e:	69fb      	ldr	r3, [r7, #28]
 8001860:	f503 6300 	add.w	r3, r3, #2048	; 0x800
 8001864:	691b      	ldr	r3, [r3, #16]
 8001866:	69fa      	ldr	r2, [r7, #28]
 8001868:	f502 6200 	add.w	r2, r2, #2048	; 0x800
 800186c:	f043 030b 	orr.w	r3, r3, #11
 8001870:	6113      	str	r3, [r2, #16]
                                USB_OTG_DIEPMSK_XFRCM |
                                USB_OTG_DIEPMSK_EPDM;
      }

      /* Set Default Address to 0 */
      USBx_DEVICE->DCFG &= ~USB_OTG_DCFG_DAD;
 8001872:	69fb      	ldr	r3, [r7, #28]
 8001874:	f503 6300 	add.w	r3, r3, #2048	; 0x800
 8001878:	681b      	ldr	r3, [r3, #0]
 800187a:	69fa      	ldr	r2, [r7, #28]
 800187c:	f502 6200 	add.w	r2, r2, #2048	; 0x800
 8001880:	f423 63fe 	bic.w	r3, r3, #2032	; 0x7f0
 8001884:	6013      	str	r3, [r2, #0]

      /* setup EP0 to receive SETUP packets */
      (void)USB_EP0_OutStart(hpcd->Instance, (uint8_t)hpcd->Init.dma_enable,
 8001886:	687b      	ldr	r3, [r7, #4]
 8001888:	6818      	ldr	r0, [r3, #0]
 800188a:	687b      	ldr	r3, [r7, #4]
 800188c:	691b      	ldr	r3, [r3, #16]
 800188e:	b2d9      	uxtb	r1, r3
                             (uint8_t *)hpcd->Setup);
 8001890:	687b      	ldr	r3, [r7, #4]
 8001892:	f203 43c4 	addw	r3, r3, #1220	; 0x4c4
      (void)USB_EP0_OutStart(hpcd->Instance, (uint8_t)hpcd->Init.dma_enable,
 8001896:	461a      	mov	r2, r3
 8001898:	f002 fe16 	bl	80044c8 <USB_EP0_OutStart>

      __HAL_PCD_CLEAR_FLAG(hpcd, USB_OTG_GINTSTS_USBRST);
 800189c:	687b      	ldr	r3, [r7, #4]
 800189e:	681b      	ldr	r3, [r3, #0]
 80018a0:	695a      	ldr	r2, [r3, #20]
 80018a2:	687b      	ldr	r3, [r7, #4]
 80018a4:	681b      	ldr	r3, [r3, #0]
 80018a6:	f402 5280 	and.w	r2, r2, #4096	; 0x1000
 80018aa:	615a      	str	r2, [r3, #20]
    }

    /* Handle Enumeration done Interrupt */
    if (__HAL_PCD_GET_FLAG(hpcd, USB_OTG_GINTSTS_ENUMDNE))
 80018ac:	687b      	ldr	r3, [r7, #4]
 80018ae:	681b      	ldr	r3, [r3, #0]
 80018b0:	4618      	mov	r0, r3
 80018b2:	f002 fd45 	bl	8004340 <USB_ReadInterrupts>
 80018b6:	4603      	mov	r3, r0
 80018b8:	f403 5300 	and.w	r3, r3, #8192	; 0x2000
 80018bc:	f5b3 5f00 	cmp.w	r3, #8192	; 0x2000
 80018c0:	d124      	bne.n	800190c <HAL_PCD_IRQHandler+0x6f8>
    {
      (void)USB_ActivateSetup(hpcd->Instance);
 80018c2:	687b      	ldr	r3, [r7, #4]
 80018c4:	681b      	ldr	r3, [r3, #0]
 80018c6:	4618      	mov	r0, r3
 80018c8:	f002 fddb 	bl	8004482 <USB_ActivateSetup>
      hpcd->Init.speed = USB_GetDevSpeed(hpcd->Instance);
 80018cc:	687b      	ldr	r3, [r7, #4]
 80018ce:	681b      	ldr	r3, [r3, #0]
 80018d0:	4618      	mov	r0, r3
 80018d2:	f001 fd90 	bl	80033f6 <USB_GetDevSpeed>
 80018d6:	4603      	mov	r3, r0
 80018d8:	461a      	mov	r2, r3
 80018da:	687b      	ldr	r3, [r7, #4]
 80018dc:	60da      	str	r2, [r3, #12]

      /* Set USB Turnaround time */
      (void)USB_SetTurnaroundTime(hpcd->Instance,
 80018de:	687b      	ldr	r3, [r7, #4]
 80018e0:	681c      	ldr	r4, [r3, #0]
 80018e2:	f001 fa29 	bl	8002d38 <HAL_RCC_GetHCLKFreq>
 80018e6:	4601      	mov	r1, r0
                                  HAL_RCC_GetHCLKFreq(),
                                  (uint8_t)hpcd->Init.speed);
 80018e8:	687b      	ldr	r3, [r7, #4]
 80018ea:	68db      	ldr	r3, [r3, #12]
      (void)USB_SetTurnaroundTime(hpcd->Instance,
 80018ec:	b2db      	uxtb	r3, r3
 80018ee:	461a      	mov	r2, r3
 80018f0:	4620      	mov	r0, r4
 80018f2:	f001 fa8f 	bl	8002e14 <USB_SetTurnaroundTime>

#if (USE_HAL_PCD_REGISTER_CALLBACKS == 1U)
      hpcd->ResetCallback(hpcd);
#else
      HAL_PCD_ResetCallback(hpcd);
 80018f6:	6878      	ldr	r0, [r7, #4]
 80018f8:	f005 f93b 	bl	8006b72 <HAL_PCD_ResetCallback>
#endif /* USE_HAL_PCD_REGISTER_CALLBACKS */

      __HAL_PCD_CLEAR_FLAG(hpcd, USB_OTG_GINTSTS_ENUMDNE);
 80018fc:	687b      	ldr	r3, [r7, #4]
 80018fe:	681b      	ldr	r3, [r3, #0]
 8001900:	695a      	ldr	r2, [r3, #20]
 8001902:	687b      	ldr	r3, [r7, #4]
 8001904:	681b      	ldr	r3, [r3, #0]
 8001906:	f402 5200 	and.w	r2, r2, #8192	; 0x2000
 800190a:	615a      	str	r2, [r3, #20]
    }

    /* Handle SOF Interrupt */
    if (__HAL_PCD_GET_FLAG(hpcd, USB_OTG_GINTSTS_SOF))
 800190c:	687b      	ldr	r3, [r7, #4]
 800190e:	681b      	ldr	r3, [r3, #0]
 8001910:	4618      	mov	r0, r3
 8001912:	f002 fd15 	bl	8004340 <USB_ReadInterrupts>
 8001916:	4603      	mov	r3, r0
 8001918:	f003 0308 	and.w	r3, r3, #8
 800191c:	2b08      	cmp	r3, #8
 800191e:	d10a      	bne.n	8001936 <HAL_PCD_IRQHandler+0x722>
    {
#if (USE_HAL_PCD_REGISTER_CALLBACKS == 1U)
      hpcd->SOFCallback(hpcd);
#else
      HAL_PCD_SOFCallback(hpcd);
 8001920:	6878      	ldr	r0, [r7, #4]
 8001922:	f005 f918 	bl	8006b56 <HAL_PCD_SOFCallback>
#endif /* USE_HAL_PCD_REGISTER_CALLBACKS */

      __HAL_PCD_CLEAR_FLAG(hpcd, USB_OTG_GINTSTS_SOF);
 8001926:	687b      	ldr	r3, [r7, #4]
 8001928:	681b      	ldr	r3, [r3, #0]
 800192a:	695a      	ldr	r2, [r3, #20]
 800192c:	687b      	ldr	r3, [r7, #4]
 800192e:	681b      	ldr	r3, [r3, #0]
 8001930:	f002 0208 	and.w	r2, r2, #8
 8001934:	615a      	str	r2, [r3, #20]
    }

    /* Handle Global OUT NAK effective Interrupt */
    if (__HAL_PCD_GET_FLAG(hpcd, USB_OTG_GINTSTS_BOUTNAKEFF))
 8001936:	687b      	ldr	r3, [r7, #4]
 8001938:	681b      	ldr	r3, [r3, #0]
 800193a:	4618      	mov	r0, r3
 800193c:	f002 fd00 	bl	8004340 <USB_ReadInterrupts>
 8001940:	4603      	mov	r3, r0
 8001942:	f003 0380 	and.w	r3, r3, #128	; 0x80
 8001946:	2b80      	cmp	r3, #128	; 0x80
 8001948:	d122      	bne.n	8001990 <HAL_PCD_IRQHandler+0x77c>
    {
      USBx->GINTMSK &= ~USB_OTG_GINTMSK_GONAKEFFM;
 800194a:	6a3b      	ldr	r3, [r7, #32]
 800194c:	699b      	ldr	r3, [r3, #24]
 800194e:	f023 0280 	bic.w	r2, r3, #128	; 0x80
 8001952:	6a3b      	ldr	r3, [r7, #32]
 8001954:	619a      	str	r2, [r3, #24]

      for (epnum = 1U; epnum < hpcd->Init.dev_endpoints; epnum++)
 8001956:	2301      	movs	r3, #1
 8001958:	627b      	str	r3, [r7, #36]	; 0x24
 800195a:	e014      	b.n	8001986 <HAL_PCD_IRQHandler+0x772>
      {
        if (hpcd->OUT_ep[epnum].is_iso_incomplete == 1U)
 800195c:	6879      	ldr	r1, [r7, #4]
 800195e:	6a7a      	ldr	r2, [r7, #36]	; 0x24
 8001960:	4613      	mov	r3, r2
 8001962:	00db      	lsls	r3, r3, #3
 8001964:	4413      	add	r3, r2
 8001966:	009b      	lsls	r3, r3, #2
 8001968:	440b      	add	r3, r1
 800196a:	f203 237f 	addw	r3, r3, #639	; 0x27f
 800196e:	781b      	ldrb	r3, [r3, #0]
 8001970:	2b01      	cmp	r3, #1
 8001972:	d105      	bne.n	8001980 <HAL_PCD_IRQHandler+0x76c>
        {
          /* Abort current transaction and disable the EP */
          (void)HAL_PCD_EP_Abort(hpcd, (uint8_t)epnum);
 8001974:	6a7b      	ldr	r3, [r7, #36]	; 0x24
 8001976:	b2db      	uxtb	r3, r3
 8001978:	4619      	mov	r1, r3
 800197a:	6878      	ldr	r0, [r7, #4]
 800197c:	f000 fb27 	bl	8001fce <HAL_PCD_EP_Abort>
      for (epnum = 1U; epnum < hpcd->Init.dev_endpoints; epnum++)
 8001980:	6a7b      	ldr	r3, [r7, #36]	; 0x24
 8001982:	3301      	adds	r3, #1
 8001984:	627b      	str	r3, [r7, #36]	; 0x24
 8001986:	687b      	ldr	r3, [r7, #4]
 8001988:	685b      	ldr	r3, [r3, #4]
 800198a:	6a7a      	ldr	r2, [r7, #36]	; 0x24
 800198c:	429a      	cmp	r2, r3
 800198e:	d3e5      	bcc.n	800195c <HAL_PCD_IRQHandler+0x748>
        }
      }
    }

    /* Handle Incomplete ISO IN Interrupt */
    if (__HAL_PCD_GET_FLAG(hpcd, USB_OTG_GINTSTS_IISOIXFR))
 8001990:	687b      	ldr	r3, [r7, #4]
 8001992:	681b      	ldr	r3, [r3, #0]
 8001994:	4618      	mov	r0, r3
 8001996:	f002 fcd3 	bl	8004340 <USB_ReadInterrupts>
 800199a:	4603      	mov	r3, r0
 800199c:	f403 1380 	and.w	r3, r3, #1048576	; 0x100000
 80019a0:	f5b3 1f80 	cmp.w	r3, #1048576	; 0x100000
 80019a4:	d13b      	bne.n	8001a1e <HAL_PCD_IRQHandler+0x80a>
    {
      for (epnum = 1U; epnum < hpcd->Init.dev_endpoints; epnum++)
 80019a6:	2301      	movs	r3, #1
 80019a8:	627b      	str	r3, [r7, #36]	; 0x24
 80019aa:	e02b      	b.n	8001a04 <HAL_PCD_IRQHandler+0x7f0>
      {
        RegVal = USBx_INEP(epnum)->DIEPCTL;
 80019ac:	6a7b      	ldr	r3, [r7, #36]	; 0x24
 80019ae:	015a      	lsls	r2, r3, #5
 80019b0:	69fb      	ldr	r3, [r7, #28]
 80019b2:	4413      	add	r3, r2
 80019b4:	f503 6310 	add.w	r3, r3, #2304	; 0x900
 80019b8:	681b      	ldr	r3, [r3, #0]
 80019ba:	61bb      	str	r3, [r7, #24]

        if ((hpcd->IN_ep[epnum].type == EP_TYPE_ISOC) &&
 80019bc:	6879      	ldr	r1, [r7, #4]
 80019be:	6a7a      	ldr	r2, [r7, #36]	; 0x24
 80019c0:	4613      	mov	r3, r2
 80019c2:	00db      	lsls	r3, r3, #3
 80019c4:	4413      	add	r3, r2
 80019c6:	009b      	lsls	r3, r3, #2
 80019c8:	440b      	add	r3, r1
 80019ca:	3340      	adds	r3, #64	; 0x40
 80019cc:	781b      	ldrb	r3, [r3, #0]
 80019ce:	2b01      	cmp	r3, #1
 80019d0:	d115      	bne.n	80019fe <HAL_PCD_IRQHandler+0x7ea>
            ((RegVal & USB_OTG_DIEPCTL_EPENA) == USB_OTG_DIEPCTL_EPENA))
 80019d2:	69bb      	ldr	r3, [r7, #24]
        if ((hpcd->IN_ep[epnum].type == EP_TYPE_ISOC) &&
 80019d4:	2b00      	cmp	r3, #0
 80019d6:	da12      	bge.n	80019fe <HAL_PCD_IRQHandler+0x7ea>
        {
          hpcd->IN_ep[epnum].is_iso_incomplete = 1U;
 80019d8:	6879      	ldr	r1, [r7, #4]
 80019da:	6a7a      	ldr	r2, [r7, #36]	; 0x24
 80019dc:	4613      	mov	r3, r2
 80019de:	00db      	lsls	r3, r3, #3
 80019e0:	4413      	add	r3, r2
 80019e2:	009b      	lsls	r3, r3, #2
 80019e4:	440b      	add	r3, r1
 80019e6:	333f      	adds	r3, #63	; 0x3f
 80019e8:	2201      	movs	r2, #1
 80019ea:	701a      	strb	r2, [r3, #0]

          /* Abort current transaction and disable the EP */
          (void)HAL_PCD_EP_Abort(hpcd, (uint8_t)(epnum | 0x80U));
 80019ec:	6a7b      	ldr	r3, [r7, #36]	; 0x24
 80019ee:	b2db      	uxtb	r3, r3
 80019f0:	f063 037f 	orn	r3, r3, #127	; 0x7f
 80019f4:	b2db      	uxtb	r3, r3
 80019f6:	4619      	mov	r1, r3
 80019f8:	6878      	ldr	r0, [r7, #4]
 80019fa:	f000 fae8 	bl	8001fce <HAL_PCD_EP_Abort>
      for (epnum = 1U; epnum < hpcd->Init.dev_endpoints; epnum++)
 80019fe:	6a7b      	ldr	r3, [r7, #36]	; 0x24
 8001a00:	3301      	adds	r3, #1
 8001a02:	627b      	str	r3, [r7, #36]	; 0x24
 8001a04:	687b      	ldr	r3, [r7, #4]
 8001a06:	685b      	ldr	r3, [r3, #4]
 8001a08:	6a7a      	ldr	r2, [r7, #36]	; 0x24
 8001a0a:	429a      	cmp	r2, r3
 8001a0c:	d3ce      	bcc.n	80019ac <HAL_PCD_IRQHandler+0x798>
        }
      }

      __HAL_PCD_CLEAR_FLAG(hpcd, USB_OTG_GINTSTS_IISOIXFR);
 8001a0e:	687b      	ldr	r3, [r7, #4]
 8001a10:	681b      	ldr	r3, [r3, #0]
 8001a12:	695a      	ldr	r2, [r3, #20]
 8001a14:	687b      	ldr	r3, [r7, #4]
 8001a16:	681b      	ldr	r3, [r3, #0]
 8001a18:	f402 1280 	and.w	r2, r2, #1048576	; 0x100000
 8001a1c:	615a      	str	r2, [r3, #20]
    }

    /* Handle Incomplete ISO OUT Interrupt */
    if (__HAL_PCD_GET_FLAG(hpcd, USB_OTG_GINTSTS_PXFR_INCOMPISOOUT))
 8001a1e:	687b      	ldr	r3, [r7, #4]
 8001a20:	681b      	ldr	r3, [r3, #0]
 8001a22:	4618      	mov	r0, r3
 8001a24:	f002 fc8c 	bl	8004340 <USB_ReadInterrupts>
 8001a28:	4603      	mov	r3, r0
 8001a2a:	f403 1300 	and.w	r3, r3, #2097152	; 0x200000
 8001a2e:	f5b3 1f00 	cmp.w	r3, #2097152	; 0x200000
 8001a32:	d155      	bne.n	8001ae0 <HAL_PCD_IRQHandler+0x8cc>
    {
      for (epnum = 1U; epnum < hpcd->Init.dev_endpoints; epnum++)
 8001a34:	2301      	movs	r3, #1
 8001a36:	627b      	str	r3, [r7, #36]	; 0x24
 8001a38:	e045      	b.n	8001ac6 <HAL_PCD_IRQHandler+0x8b2>
      {
        RegVal = USBx_OUTEP(epnum)->DOEPCTL;
 8001a3a:	6a7b      	ldr	r3, [r7, #36]	; 0x24
 8001a3c:	015a      	lsls	r2, r3, #5
 8001a3e:	69fb      	ldr	r3, [r7, #28]
 8001a40:	4413      	add	r3, r2
 8001a42:	f503 6330 	add.w	r3, r3, #2816	; 0xb00
 8001a46:	681b      	ldr	r3, [r3, #0]
 8001a48:	61bb      	str	r3, [r7, #24]

        if ((hpcd->OUT_ep[epnum].type == EP_TYPE_ISOC) &&
 8001a4a:	6879      	ldr	r1, [r7, #4]
 8001a4c:	6a7a      	ldr	r2, [r7, #36]	; 0x24
 8001a4e:	4613      	mov	r3, r2
 8001a50:	00db      	lsls	r3, r3, #3
 8001a52:	4413      	add	r3, r2
 8001a54:	009b      	lsls	r3, r3, #2
 8001a56:	440b      	add	r3, r1
 8001a58:	f503 7320 	add.w	r3, r3, #640	; 0x280
 8001a5c:	781b      	ldrb	r3, [r3, #0]
 8001a5e:	2b01      	cmp	r3, #1
 8001a60:	d12e      	bne.n	8001ac0 <HAL_PCD_IRQHandler+0x8ac>
            ((RegVal & USB_OTG_DOEPCTL_EPENA) == USB_OTG_DOEPCTL_EPENA) &&
 8001a62:	69bb      	ldr	r3, [r7, #24]
        if ((hpcd->OUT_ep[epnum].type == EP_TYPE_ISOC) &&
 8001a64:	2b00      	cmp	r3, #0
 8001a66:	da2b      	bge.n	8001ac0 <HAL_PCD_IRQHandler+0x8ac>
            ((RegVal & (0x1U << 16)) == (hpcd->FrameNumber & 0x1U)))
 8001a68:	69bb      	ldr	r3, [r7, #24]
 8001a6a:	f403 3280 	and.w	r2, r3, #65536	; 0x10000
 8001a6e:	687b      	ldr	r3, [r7, #4]
 8001a70:	f8d3 34fc 	ldr.w	r3, [r3, #1276]	; 0x4fc
 8001a74:	f003 0301 	and.w	r3, r3, #1
            ((RegVal & USB_OTG_DOEPCTL_EPENA) == USB_OTG_DOEPCTL_EPENA) &&
 8001a78:	429a      	cmp	r2, r3
 8001a7a:	d121      	bne.n	8001ac0 <HAL_PCD_IRQHandler+0x8ac>
        {
          hpcd->OUT_ep[epnum].is_iso_incomplete = 1U;
 8001a7c:	6879      	ldr	r1, [r7, #4]
 8001a7e:	6a7a      	ldr	r2, [r7, #36]	; 0x24
 8001a80:	4613      	mov	r3, r2
 8001a82:	00db      	lsls	r3, r3, #3
 8001a84:	4413      	add	r3, r2
 8001a86:	009b      	lsls	r3, r3, #2
 8001a88:	440b      	add	r3, r1
 8001a8a:	f203 237f 	addw	r3, r3, #639	; 0x27f
 8001a8e:	2201      	movs	r2, #1
 8001a90:	701a      	strb	r2, [r3, #0]

          USBx->GINTMSK |= USB_OTG_GINTMSK_GONAKEFFM;
 8001a92:	6a3b      	ldr	r3, [r7, #32]
 8001a94:	699b      	ldr	r3, [r3, #24]
 8001a96:	f043 0280 	orr.w	r2, r3, #128	; 0x80
 8001a9a:	6a3b      	ldr	r3, [r7, #32]
 8001a9c:	619a      	str	r2, [r3, #24]

          if ((USBx->GINTSTS & USB_OTG_GINTSTS_BOUTNAKEFF) == 0U)
 8001a9e:	6a3b      	ldr	r3, [r7, #32]
 8001aa0:	695b      	ldr	r3, [r3, #20]
 8001aa2:	f003 0380 	and.w	r3, r3, #128	; 0x80
 8001aa6:	2b00      	cmp	r3, #0
 8001aa8:	d10a      	bne.n	8001ac0 <HAL_PCD_IRQHandler+0x8ac>
          {
            USBx_DEVICE->DCTL |= USB_OTG_DCTL_SGONAK;
 8001aaa:	69fb      	ldr	r3, [r7, #28]
 8001aac:	f503 6300 	add.w	r3, r3, #2048	; 0x800
 8001ab0:	685b      	ldr	r3, [r3, #4]
 8001ab2:	69fa      	ldr	r2, [r7, #28]
 8001ab4:	f502 6200 	add.w	r2, r2, #2048	; 0x800
 8001ab8:	f443 7300 	orr.w	r3, r3, #512	; 0x200
 8001abc:	6053      	str	r3, [r2, #4]
            break;
 8001abe:	e007      	b.n	8001ad0 <HAL_PCD_IRQHandler+0x8bc>
      for (epnum = 1U; epnum < hpcd->Init.dev_endpoints; epnum++)
 8001ac0:	6a7b      	ldr	r3, [r7, #36]	; 0x24
 8001ac2:	3301      	adds	r3, #1
 8001ac4:	627b      	str	r3, [r7, #36]	; 0x24
 8001ac6:	687b      	ldr	r3, [r7, #4]
 8001ac8:	685b      	ldr	r3, [r3, #4]
 8001aca:	6a7a      	ldr	r2, [r7, #36]	; 0x24
 8001acc:	429a      	cmp	r2, r3
 8001ace:	d3b4      	bcc.n	8001a3a <HAL_PCD_IRQHandler+0x826>
          }
        }
      }

      __HAL_PCD_CLEAR_FLAG(hpcd, USB_OTG_GINTSTS_PXFR_INCOMPISOOUT);
 8001ad0:	687b      	ldr	r3, [r7, #4]
 8001ad2:	681b      	ldr	r3, [r3, #0]
 8001ad4:	695a      	ldr	r2, [r3, #20]
 8001ad6:	687b      	ldr	r3, [r7, #4]
 8001ad8:	681b      	ldr	r3, [r3, #0]
 8001ada:	f402 1200 	and.w	r2, r2, #2097152	; 0x200000
 8001ade:	615a      	str	r2, [r3, #20]
    }

    /* Handle Connection event Interrupt */
    if (__HAL_PCD_GET_FLAG(hpcd, USB_OTG_GINTSTS_SRQINT))
 8001ae0:	687b      	ldr	r3, [r7, #4]
 8001ae2:	681b      	ldr	r3, [r3, #0]
 8001ae4:	4618      	mov	r0, r3
 8001ae6:	f002 fc2b 	bl	8004340 <USB_ReadInterrupts>
 8001aea:	4603      	mov	r3, r0
 8001aec:	f003 4380 	and.w	r3, r3, #1073741824	; 0x40000000
 8001af0:	f1b3 4f80 	cmp.w	r3, #1073741824	; 0x40000000
 8001af4:	d10a      	bne.n	8001b0c <HAL_PCD_IRQHandler+0x8f8>
    {
#if (USE_HAL_PCD_REGISTER_CALLBACKS == 1U)
      hpcd->ConnectCallback(hpcd);
#else
      HAL_PCD_ConnectCallback(hpcd);
 8001af6:	6878      	ldr	r0, [r7, #4]
 8001af8:	f005 f8bc 	bl	8006c74 <HAL_PCD_ConnectCallback>
#endif /* USE_HAL_PCD_REGISTER_CALLBACKS */

      __HAL_PCD_CLEAR_FLAG(hpcd, USB_OTG_GINTSTS_SRQINT);
 8001afc:	687b      	ldr	r3, [r7, #4]
 8001afe:	681b      	ldr	r3, [r3, #0]
 8001b00:	695a      	ldr	r2, [r3, #20]
 8001b02:	687b      	ldr	r3, [r7, #4]
 8001b04:	681b      	ldr	r3, [r3, #0]
 8001b06:	f002 4280 	and.w	r2, r2, #1073741824	; 0x40000000
 8001b0a:	615a      	str	r2, [r3, #20]
    }

    /* Handle Disconnection event Interrupt */
    if (__HAL_PCD_GET_FLAG(hpcd, USB_OTG_GINTSTS_OTGINT))
 8001b0c:	687b      	ldr	r3, [r7, #4]
 8001b0e:	681b      	ldr	r3, [r3, #0]
 8001b10:	4618      	mov	r0, r3
 8001b12:	f002 fc15 	bl	8004340 <USB_ReadInterrupts>
 8001b16:	4603      	mov	r3, r0
 8001b18:	f003 0304 	and.w	r3, r3, #4
 8001b1c:	2b04      	cmp	r3, #4
 8001b1e:	d115      	bne.n	8001b4c <HAL_PCD_IRQHandler+0x938>
    {
      RegVal = hpcd->Instance->GOTGINT;
 8001b20:	687b      	ldr	r3, [r7, #4]
 8001b22:	681b      	ldr	r3, [r3, #0]
 8001b24:	685b      	ldr	r3, [r3, #4]
 8001b26:	61bb      	str	r3, [r7, #24]

      if ((RegVal & USB_OTG_GOTGINT_SEDET) == USB_OTG_GOTGINT_SEDET)
 8001b28:	69bb      	ldr	r3, [r7, #24]
 8001b2a:	f003 0304 	and.w	r3, r3, #4
 8001b2e:	2b00      	cmp	r3, #0
 8001b30:	d002      	beq.n	8001b38 <HAL_PCD_IRQHandler+0x924>
      {
#if (USE_HAL_PCD_REGISTER_CALLBACKS == 1U)
        hpcd->DisconnectCallback(hpcd);
#else
        HAL_PCD_DisconnectCallback(hpcd);
 8001b32:	6878      	ldr	r0, [r7, #4]
 8001b34:	f005 f8ac 	bl	8006c90 <HAL_PCD_DisconnectCallback>
#endif /* USE_HAL_PCD_REGISTER_CALLBACKS */
      }
      hpcd->Instance->GOTGINT |= RegVal;
 8001b38:	687b      	ldr	r3, [r7, #4]
 8001b3a:	681b      	ldr	r3, [r3, #0]
 8001b3c:	6859      	ldr	r1, [r3, #4]
 8001b3e:	687b      	ldr	r3, [r7, #4]
 8001b40:	681b      	ldr	r3, [r3, #0]
 8001b42:	69ba      	ldr	r2, [r7, #24]
 8001b44:	430a      	orrs	r2, r1
 8001b46:	605a      	str	r2, [r3, #4]
 8001b48:	e000      	b.n	8001b4c <HAL_PCD_IRQHandler+0x938>
      return;
 8001b4a:	bf00      	nop
    }
  }
}
 8001b4c:	3734      	adds	r7, #52	; 0x34
 8001b4e:	46bd      	mov	sp, r7
 8001b50:	bd90      	pop	{r4, r7, pc}

08001b52 <HAL_PCD_SetAddress>:
  * @param  hpcd PCD handle
  * @param  address new device address
  * @retval HAL status
  */
HAL_StatusTypeDef HAL_PCD_SetAddress(PCD_HandleTypeDef *hpcd, uint8_t address)
{
 8001b52:	b580      	push	{r7, lr}
 8001b54:	b082      	sub	sp, #8
 8001b56:	af00      	add	r7, sp, #0
 8001b58:	6078      	str	r0, [r7, #4]
 8001b5a:	460b      	mov	r3, r1
 8001b5c:	70fb      	strb	r3, [r7, #3]
  __HAL_LOCK(hpcd);
 8001b5e:	687b      	ldr	r3, [r7, #4]
 8001b60:	f893 34bc 	ldrb.w	r3, [r3, #1212]	; 0x4bc
 8001b64:	2b01      	cmp	r3, #1
 8001b66:	d101      	bne.n	8001b6c <HAL_PCD_SetAddress+0x1a>
 8001b68:	2302      	movs	r3, #2
 8001b6a:	e013      	b.n	8001b94 <HAL_PCD_SetAddress+0x42>
 8001b6c:	687b      	ldr	r3, [r7, #4]
 8001b6e:	2201      	movs	r2, #1
 8001b70:	f883 24bc 	strb.w	r2, [r3, #1212]	; 0x4bc
  hpcd->USB_Address = address;
 8001b74:	687b      	ldr	r3, [r7, #4]
 8001b76:	78fa      	ldrb	r2, [r7, #3]
 8001b78:	f883 2038 	strb.w	r2, [r3, #56]	; 0x38
  (void)USB_SetDevAddress(hpcd->Instance, address);
 8001b7c:	687b      	ldr	r3, [r7, #4]
 8001b7e:	681b      	ldr	r3, [r3, #0]
 8001b80:	78fa      	ldrb	r2, [r7, #3]
 8001b82:	4611      	mov	r1, r2
 8001b84:	4618      	mov	r0, r3
 8001b86:	f002 fb73 	bl	8004270 <USB_SetDevAddress>
  __HAL_UNLOCK(hpcd);
 8001b8a:	687b      	ldr	r3, [r7, #4]
 8001b8c:	2200      	movs	r2, #0
 8001b8e:	f883 24bc 	strb.w	r2, [r3, #1212]	; 0x4bc

  return HAL_OK;
 8001b92:	2300      	movs	r3, #0
}
 8001b94:	4618      	mov	r0, r3
 8001b96:	3708      	adds	r7, #8
 8001b98:	46bd      	mov	sp, r7
 8001b9a:	bd80      	pop	{r7, pc}

08001b9c <HAL_PCD_EP_Open>:
  * @param  ep_type endpoint type
  * @retval HAL status
  */
HAL_StatusTypeDef HAL_PCD_EP_Open(PCD_HandleTypeDef *hpcd, uint8_t ep_addr,
                                  uint16_t ep_mps, uint8_t ep_type)
{
 8001b9c:	b580      	push	{r7, lr}
 8001b9e:	b084      	sub	sp, #16
 8001ba0:	af00      	add	r7, sp, #0
 8001ba2:	6078      	str	r0, [r7, #4]
 8001ba4:	4608      	mov	r0, r1
 8001ba6:	4611      	mov	r1, r2
 8001ba8:	461a      	mov	r2, r3
 8001baa:	4603      	mov	r3, r0
 8001bac:	70fb      	strb	r3, [r7, #3]
 8001bae:	460b      	mov	r3, r1
 8001bb0:	803b      	strh	r3, [r7, #0]
 8001bb2:	4613      	mov	r3, r2
 8001bb4:	70bb      	strb	r3, [r7, #2]
  HAL_StatusTypeDef  ret = HAL_OK;
 8001bb6:	2300      	movs	r3, #0
 8001bb8:	72fb      	strb	r3, [r7, #11]
  PCD_EPTypeDef *ep;

  if ((ep_addr & 0x80U) == 0x80U)
 8001bba:	f997 3003 	ldrsb.w	r3, [r7, #3]
 8001bbe:	2b00      	cmp	r3, #0
 8001bc0:	da0f      	bge.n	8001be2 <HAL_PCD_EP_Open+0x46>
  {
    ep = &hpcd->IN_ep[ep_addr & EP_ADDR_MSK];
 8001bc2:	78fb      	ldrb	r3, [r7, #3]
 8001bc4:	f003 020f 	and.w	r2, r3, #15
 8001bc8:	4613      	mov	r3, r2
 8001bca:	00db      	lsls	r3, r3, #3
 8001bcc:	4413      	add	r3, r2
 8001bce:	009b      	lsls	r3, r3, #2
 8001bd0:	3338      	adds	r3, #56	; 0x38
 8001bd2:	687a      	ldr	r2, [r7, #4]
 8001bd4:	4413      	add	r3, r2
 8001bd6:	3304      	adds	r3, #4
 8001bd8:	60fb      	str	r3, [r7, #12]
    ep->is_in = 1U;
 8001bda:	68fb      	ldr	r3, [r7, #12]
 8001bdc:	2201      	movs	r2, #1
 8001bde:	705a      	strb	r2, [r3, #1]
 8001be0:	e00f      	b.n	8001c02 <HAL_PCD_EP_Open+0x66>
  }
  else
  {
    ep = &hpcd->OUT_ep[ep_addr & EP_ADDR_MSK];
 8001be2:	78fb      	ldrb	r3, [r7, #3]
 8001be4:	f003 020f 	and.w	r2, r3, #15
 8001be8:	4613      	mov	r3, r2
 8001bea:	00db      	lsls	r3, r3, #3
 8001bec:	4413      	add	r3, r2
 8001bee:	009b      	lsls	r3, r3, #2
 8001bf0:	f503 731e 	add.w	r3, r3, #632	; 0x278
 8001bf4:	687a      	ldr	r2, [r7, #4]
 8001bf6:	4413      	add	r3, r2
 8001bf8:	3304      	adds	r3, #4
 8001bfa:	60fb      	str	r3, [r7, #12]
    ep->is_in = 0U;
 8001bfc:	68fb      	ldr	r3, [r7, #12]
 8001bfe:	2200      	movs	r2, #0
 8001c00:	705a      	strb	r2, [r3, #1]
  }

  ep->num = ep_addr & EP_ADDR_MSK;
 8001c02:	78fb      	ldrb	r3, [r7, #3]
 8001c04:	f003 030f 	and.w	r3, r3, #15
 8001c08:	b2da      	uxtb	r2, r3
 8001c0a:	68fb      	ldr	r3, [r7, #12]
 8001c0c:	701a      	strb	r2, [r3, #0]
  ep->maxpacket = ep_mps;
 8001c0e:	883a      	ldrh	r2, [r7, #0]
 8001c10:	68fb      	ldr	r3, [r7, #12]
 8001c12:	60da      	str	r2, [r3, #12]
  ep->type = ep_type;
 8001c14:	68fb      	ldr	r3, [r7, #12]
 8001c16:	78ba      	ldrb	r2, [r7, #2]
 8001c18:	711a      	strb	r2, [r3, #4]

  if (ep->is_in != 0U)
 8001c1a:	68fb      	ldr	r3, [r7, #12]
 8001c1c:	785b      	ldrb	r3, [r3, #1]
 8001c1e:	2b00      	cmp	r3, #0
 8001c20:	d004      	beq.n	8001c2c <HAL_PCD_EP_Open+0x90>
  {
    /* Assign a Tx FIFO */
    ep->tx_fifo_num = ep->num;
 8001c22:	68fb      	ldr	r3, [r7, #12]
 8001c24:	781b      	ldrb	r3, [r3, #0]
 8001c26:	b29a      	uxth	r2, r3
 8001c28:	68fb      	ldr	r3, [r7, #12]
 8001c2a:	811a      	strh	r2, [r3, #8]
  }
  /* Set initial data PID. */
  if (ep_type == EP_TYPE_BULK)
 8001c2c:	78bb      	ldrb	r3, [r7, #2]
 8001c2e:	2b02      	cmp	r3, #2
 8001c30:	d102      	bne.n	8001c38 <HAL_PCD_EP_Open+0x9c>
  {
    ep->data_pid_start = 0U;
 8001c32:	68fb      	ldr	r3, [r7, #12]
 8001c34:	2200      	movs	r2, #0
 8001c36:	715a      	strb	r2, [r3, #5]
  }

  __HAL_LOCK(hpcd);
 8001c38:	687b      	ldr	r3, [r7, #4]
 8001c3a:	f893 34bc 	ldrb.w	r3, [r3, #1212]	; 0x4bc
 8001c3e:	2b01      	cmp	r3, #1
 8001c40:	d101      	bne.n	8001c46 <HAL_PCD_EP_Open+0xaa>
 8001c42:	2302      	movs	r3, #2
 8001c44:	e00e      	b.n	8001c64 <HAL_PCD_EP_Open+0xc8>
 8001c46:	687b      	ldr	r3, [r7, #4]
 8001c48:	2201      	movs	r2, #1
 8001c4a:	f883 24bc 	strb.w	r2, [r3, #1212]	; 0x4bc
  (void)USB_ActivateEndpoint(hpcd->Instance, ep);
 8001c4e:	687b      	ldr	r3, [r7, #4]
 8001c50:	681b      	ldr	r3, [r3, #0]
 8001c52:	68f9      	ldr	r1, [r7, #12]
 8001c54:	4618      	mov	r0, r3
 8001c56:	f001 fbf3 	bl	8003440 <USB_ActivateEndpoint>
  __HAL_UNLOCK(hpcd);
 8001c5a:	687b      	ldr	r3, [r7, #4]
 8001c5c:	2200      	movs	r2, #0
 8001c5e:	f883 24bc 	strb.w	r2, [r3, #1212]	; 0x4bc

  return ret;
 8001c62:	7afb      	ldrb	r3, [r7, #11]
}
 8001c64:	4618      	mov	r0, r3
 8001c66:	3710      	adds	r7, #16
 8001c68:	46bd      	mov	sp, r7
 8001c6a:	bd80      	pop	{r7, pc}

08001c6c <HAL_PCD_EP_Close>:
  * @param  hpcd PCD handle
  * @param  ep_addr endpoint address
  * @retval HAL status
  */
HAL_StatusTypeDef HAL_PCD_EP_Close(PCD_HandleTypeDef *hpcd, uint8_t ep_addr)
{
 8001c6c:	b580      	push	{r7, lr}
 8001c6e:	b084      	sub	sp, #16
 8001c70:	af00      	add	r7, sp, #0
 8001c72:	6078      	str	r0, [r7, #4]
 8001c74:	460b      	mov	r3, r1
 8001c76:	70fb      	strb	r3, [r7, #3]
  PCD_EPTypeDef *ep;

  if ((ep_addr & 0x80U) == 0x80U)
 8001c78:	f997 3003 	ldrsb.w	r3, [r7, #3]
 8001c7c:	2b00      	cmp	r3, #0
 8001c7e:	da0f      	bge.n	8001ca0 <HAL_PCD_EP_Close+0x34>
  {
    ep = &hpcd->IN_ep[ep_addr & EP_ADDR_MSK];
 8001c80:	78fb      	ldrb	r3, [r7, #3]
 8001c82:	f003 020f 	and.w	r2, r3, #15
 8001c86:	4613      	mov	r3, r2
 8001c88:	00db      	lsls	r3, r3, #3
 8001c8a:	4413      	add	r3, r2
 8001c8c:	009b      	lsls	r3, r3, #2
 8001c8e:	3338      	adds	r3, #56	; 0x38
 8001c90:	687a      	ldr	r2, [r7, #4]
 8001c92:	4413      	add	r3, r2
 8001c94:	3304      	adds	r3, #4
 8001c96:	60fb      	str	r3, [r7, #12]
    ep->is_in = 1U;
 8001c98:	68fb      	ldr	r3, [r7, #12]
 8001c9a:	2201      	movs	r2, #1
 8001c9c:	705a      	strb	r2, [r3, #1]
 8001c9e:	e00f      	b.n	8001cc0 <HAL_PCD_EP_Close+0x54>
  }
  else
  {
    ep = &hpcd->OUT_ep[ep_addr & EP_ADDR_MSK];
 8001ca0:	78fb      	ldrb	r3, [r7, #3]
 8001ca2:	f003 020f 	and.w	r2, r3, #15
 8001ca6:	4613      	mov	r3, r2
 8001ca8:	00db      	lsls	r3, r3, #3
 8001caa:	4413      	add	r3, r2
 8001cac:	009b      	lsls	r3, r3, #2
 8001cae:	f503 731e 	add.w	r3, r3, #632	; 0x278
 8001cb2:	687a      	ldr	r2, [r7, #4]
 8001cb4:	4413      	add	r3, r2
 8001cb6:	3304      	adds	r3, #4
 8001cb8:	60fb      	str	r3, [r7, #12]
    ep->is_in = 0U;
 8001cba:	68fb      	ldr	r3, [r7, #12]
 8001cbc:	2200      	movs	r2, #0
 8001cbe:	705a      	strb	r2, [r3, #1]
  }
  ep->num   = ep_addr & EP_ADDR_MSK;
 8001cc0:	78fb      	ldrb	r3, [r7, #3]
 8001cc2:	f003 030f 	and.w	r3, r3, #15
 8001cc6:	b2da      	uxtb	r2, r3
 8001cc8:	68fb      	ldr	r3, [r7, #12]
 8001cca:	701a      	strb	r2, [r3, #0]

  __HAL_LOCK(hpcd);
 8001ccc:	687b      	ldr	r3, [r7, #4]
 8001cce:	f893 34bc 	ldrb.w	r3, [r3, #1212]	; 0x4bc
 8001cd2:	2b01      	cmp	r3, #1
 8001cd4:	d101      	bne.n	8001cda <HAL_PCD_EP_Close+0x6e>
 8001cd6:	2302      	movs	r3, #2
 8001cd8:	e00e      	b.n	8001cf8 <HAL_PCD_EP_Close+0x8c>
 8001cda:	687b      	ldr	r3, [r7, #4]
 8001cdc:	2201      	movs	r2, #1
 8001cde:	f883 24bc 	strb.w	r2, [r3, #1212]	; 0x4bc
  (void)USB_DeactivateEndpoint(hpcd->Instance, ep);
 8001ce2:	687b      	ldr	r3, [r7, #4]
 8001ce4:	681b      	ldr	r3, [r3, #0]
 8001ce6:	68f9      	ldr	r1, [r7, #12]
 8001ce8:	4618      	mov	r0, r3
 8001cea:	f001 fc31 	bl	8003550 <USB_DeactivateEndpoint>
  __HAL_UNLOCK(hpcd);
 8001cee:	687b      	ldr	r3, [r7, #4]
 8001cf0:	2200      	movs	r2, #0
 8001cf2:	f883 24bc 	strb.w	r2, [r3, #1212]	; 0x4bc
  return HAL_OK;
 8001cf6:	2300      	movs	r3, #0
}
 8001cf8:	4618      	mov	r0, r3
 8001cfa:	3710      	adds	r7, #16
 8001cfc:	46bd      	mov	sp, r7
 8001cfe:	bd80      	pop	{r7, pc}

08001d00 <HAL_PCD_EP_Receive>:
  * @param  pBuf pointer to the reception buffer
  * @param  len amount of data to be received
  * @retval HAL status
  */
HAL_StatusTypeDef HAL_PCD_EP_Receive(PCD_HandleTypeDef *hpcd, uint8_t ep_addr, uint8_t *pBuf, uint32_t len)
{
 8001d00:	b580      	push	{r7, lr}
 8001d02:	b086      	sub	sp, #24
 8001d04:	af00      	add	r7, sp, #0
 8001d06:	60f8      	str	r0, [r7, #12]
 8001d08:	607a      	str	r2, [r7, #4]
 8001d0a:	603b      	str	r3, [r7, #0]
 8001d0c:	460b      	mov	r3, r1
 8001d0e:	72fb      	strb	r3, [r7, #11]
  PCD_EPTypeDef *ep;

  ep = &hpcd->OUT_ep[ep_addr & EP_ADDR_MSK];
 8001d10:	7afb      	ldrb	r3, [r7, #11]
 8001d12:	f003 020f 	and.w	r2, r3, #15
 8001d16:	4613      	mov	r3, r2
 8001d18:	00db      	lsls	r3, r3, #3
 8001d1a:	4413      	add	r3, r2
 8001d1c:	009b      	lsls	r3, r3, #2
 8001d1e:	f503 731e 	add.w	r3, r3, #632	; 0x278
 8001d22:	68fa      	ldr	r2, [r7, #12]
 8001d24:	4413      	add	r3, r2
 8001d26:	3304      	adds	r3, #4
 8001d28:	617b      	str	r3, [r7, #20]

  /*setup and start the Xfer */
  ep->xfer_buff = pBuf;
 8001d2a:	697b      	ldr	r3, [r7, #20]
 8001d2c:	687a      	ldr	r2, [r7, #4]
 8001d2e:	611a      	str	r2, [r3, #16]
  ep->xfer_len = len;
 8001d30:	697b      	ldr	r3, [r7, #20]
 8001d32:	683a      	ldr	r2, [r7, #0]
 8001d34:	619a      	str	r2, [r3, #24]
  ep->xfer_count = 0U;
 8001d36:	697b      	ldr	r3, [r7, #20]
 8001d38:	2200      	movs	r2, #0
 8001d3a:	621a      	str	r2, [r3, #32]
  ep->is_in = 0U;
 8001d3c:	697b      	ldr	r3, [r7, #20]
 8001d3e:	2200      	movs	r2, #0
 8001d40:	705a      	strb	r2, [r3, #1]
  ep->num = ep_addr & EP_ADDR_MSK;
 8001d42:	7afb      	ldrb	r3, [r7, #11]
 8001d44:	f003 030f 	and.w	r3, r3, #15
 8001d48:	b2da      	uxtb	r2, r3
 8001d4a:	697b      	ldr	r3, [r7, #20]
 8001d4c:	701a      	strb	r2, [r3, #0]

  if (hpcd->Init.dma_enable == 1U)
 8001d4e:	68fb      	ldr	r3, [r7, #12]
 8001d50:	691b      	ldr	r3, [r3, #16]
 8001d52:	2b01      	cmp	r3, #1
 8001d54:	d102      	bne.n	8001d5c <HAL_PCD_EP_Receive+0x5c>
  {
    ep->dma_addr = (uint32_t)pBuf;
 8001d56:	687a      	ldr	r2, [r7, #4]
 8001d58:	697b      	ldr	r3, [r7, #20]
 8001d5a:	615a      	str	r2, [r3, #20]
  }

  if ((ep_addr & EP_ADDR_MSK) == 0U)
 8001d5c:	7afb      	ldrb	r3, [r7, #11]
 8001d5e:	f003 030f 	and.w	r3, r3, #15
 8001d62:	2b00      	cmp	r3, #0
 8001d64:	d109      	bne.n	8001d7a <HAL_PCD_EP_Receive+0x7a>
  {
    (void)USB_EP0StartXfer(hpcd->Instance, ep, (uint8_t)hpcd->Init.dma_enable);
 8001d66:	68fb      	ldr	r3, [r7, #12]
 8001d68:	6818      	ldr	r0, [r3, #0]
 8001d6a:	68fb      	ldr	r3, [r7, #12]
 8001d6c:	691b      	ldr	r3, [r3, #16]
 8001d6e:	b2db      	uxtb	r3, r3
 8001d70:	461a      	mov	r2, r3
 8001d72:	6979      	ldr	r1, [r7, #20]
 8001d74:	f001 ff10 	bl	8003b98 <USB_EP0StartXfer>
 8001d78:	e008      	b.n	8001d8c <HAL_PCD_EP_Receive+0x8c>
  }
  else
  {
    (void)USB_EPStartXfer(hpcd->Instance, ep, (uint8_t)hpcd->Init.dma_enable);
 8001d7a:	68fb      	ldr	r3, [r7, #12]
 8001d7c:	6818      	ldr	r0, [r3, #0]
 8001d7e:	68fb      	ldr	r3, [r7, #12]
 8001d80:	691b      	ldr	r3, [r3, #16]
 8001d82:	b2db      	uxtb	r3, r3
 8001d84:	461a      	mov	r2, r3
 8001d86:	6979      	ldr	r1, [r7, #20]
 8001d88:	f001 fcbe 	bl	8003708 <USB_EPStartXfer>
  }

  return HAL_OK;
 8001d8c:	2300      	movs	r3, #0
}
 8001d8e:	4618      	mov	r0, r3
 8001d90:	3718      	adds	r7, #24
 8001d92:	46bd      	mov	sp, r7
 8001d94:	bd80      	pop	{r7, pc}

08001d96 <HAL_PCD_EP_GetRxCount>:
  * @param  hpcd PCD handle
  * @param  ep_addr endpoint address
  * @retval Data Size
  */
uint32_t HAL_PCD_EP_GetRxCount(PCD_HandleTypeDef *hpcd, uint8_t ep_addr)
{
 8001d96:	b480      	push	{r7}
 8001d98:	b083      	sub	sp, #12
 8001d9a:	af00      	add	r7, sp, #0
 8001d9c:	6078      	str	r0, [r7, #4]
 8001d9e:	460b      	mov	r3, r1
 8001da0:	70fb      	strb	r3, [r7, #3]
  return hpcd->OUT_ep[ep_addr & EP_ADDR_MSK].xfer_count;
 8001da2:	78fb      	ldrb	r3, [r7, #3]
 8001da4:	f003 020f 	and.w	r2, r3, #15
 8001da8:	6879      	ldr	r1, [r7, #4]
 8001daa:	4613      	mov	r3, r2
 8001dac:	00db      	lsls	r3, r3, #3
 8001dae:	4413      	add	r3, r2
 8001db0:	009b      	lsls	r3, r3, #2
 8001db2:	440b      	add	r3, r1
 8001db4:	f503 7327 	add.w	r3, r3, #668	; 0x29c
 8001db8:	681b      	ldr	r3, [r3, #0]
}
 8001dba:	4618      	mov	r0, r3
 8001dbc:	370c      	adds	r7, #12
 8001dbe:	46bd      	mov	sp, r7
 8001dc0:	f85d 7b04 	ldr.w	r7, [sp], #4
 8001dc4:	4770      	bx	lr

08001dc6 <HAL_PCD_EP_Transmit>:
  * @param  pBuf pointer to the transmission buffer
  * @param  len amount of data to be sent
  * @retval HAL status
  */
HAL_StatusTypeDef HAL_PCD_EP_Transmit(PCD_HandleTypeDef *hpcd, uint8_t ep_addr, uint8_t *pBuf, uint32_t len)
{
 8001dc6:	b580      	push	{r7, lr}
 8001dc8:	b086      	sub	sp, #24
 8001dca:	af00      	add	r7, sp, #0
 8001dcc:	60f8      	str	r0, [r7, #12]
 8001dce:	607a      	str	r2, [r7, #4]
 8001dd0:	603b      	str	r3, [r7, #0]
 8001dd2:	460b      	mov	r3, r1
 8001dd4:	72fb      	strb	r3, [r7, #11]
  PCD_EPTypeDef *ep;

  ep = &hpcd->IN_ep[ep_addr & EP_ADDR_MSK];
 8001dd6:	7afb      	ldrb	r3, [r7, #11]
 8001dd8:	f003 020f 	and.w	r2, r3, #15
 8001ddc:	4613      	mov	r3, r2
 8001dde:	00db      	lsls	r3, r3, #3
 8001de0:	4413      	add	r3, r2
 8001de2:	009b      	lsls	r3, r3, #2
 8001de4:	3338      	adds	r3, #56	; 0x38
 8001de6:	68fa      	ldr	r2, [r7, #12]
 8001de8:	4413      	add	r3, r2
 8001dea:	3304      	adds	r3, #4
 8001dec:	617b      	str	r3, [r7, #20]

  /*setup and start the Xfer */
  ep->xfer_buff = pBuf;
 8001dee:	697b      	ldr	r3, [r7, #20]
 8001df0:	687a      	ldr	r2, [r7, #4]
 8001df2:	611a      	str	r2, [r3, #16]
  ep->xfer_len = len;
 8001df4:	697b      	ldr	r3, [r7, #20]
 8001df6:	683a      	ldr	r2, [r7, #0]
 8001df8:	619a      	str	r2, [r3, #24]
  ep->xfer_count = 0U;
 8001dfa:	697b      	ldr	r3, [r7, #20]
 8001dfc:	2200      	movs	r2, #0
 8001dfe:	621a      	str	r2, [r3, #32]
  ep->is_in = 1U;
 8001e00:	697b      	ldr	r3, [r7, #20]
 8001e02:	2201      	movs	r2, #1
 8001e04:	705a      	strb	r2, [r3, #1]
  ep->num = ep_addr & EP_ADDR_MSK;
 8001e06:	7afb      	ldrb	r3, [r7, #11]
 8001e08:	f003 030f 	and.w	r3, r3, #15
 8001e0c:	b2da      	uxtb	r2, r3
 8001e0e:	697b      	ldr	r3, [r7, #20]
 8001e10:	701a      	strb	r2, [r3, #0]

  if (hpcd->Init.dma_enable == 1U)
 8001e12:	68fb      	ldr	r3, [r7, #12]
 8001e14:	691b      	ldr	r3, [r3, #16]
 8001e16:	2b01      	cmp	r3, #1
 8001e18:	d102      	bne.n	8001e20 <HAL_PCD_EP_Transmit+0x5a>
  {
    ep->dma_addr = (uint32_t)pBuf;
 8001e1a:	687a      	ldr	r2, [r7, #4]
 8001e1c:	697b      	ldr	r3, [r7, #20]
 8001e1e:	615a      	str	r2, [r3, #20]
  }

  if ((ep_addr & EP_ADDR_MSK) == 0U)
 8001e20:	7afb      	ldrb	r3, [r7, #11]
 8001e22:	f003 030f 	and.w	r3, r3, #15
 8001e26:	2b00      	cmp	r3, #0
 8001e28:	d109      	bne.n	8001e3e <HAL_PCD_EP_Transmit+0x78>
  {
    (void)USB_EP0StartXfer(hpcd->Instance, ep, (uint8_t)hpcd->Init.dma_enable);
 8001e2a:	68fb      	ldr	r3, [r7, #12]
 8001e2c:	6818      	ldr	r0, [r3, #0]
 8001e2e:	68fb      	ldr	r3, [r7, #12]
 8001e30:	691b      	ldr	r3, [r3, #16]
 8001e32:	b2db      	uxtb	r3, r3
 8001e34:	461a      	mov	r2, r3
 8001e36:	6979      	ldr	r1, [r7, #20]
 8001e38:	f001 feae 	bl	8003b98 <USB_EP0StartXfer>
 8001e3c:	e008      	b.n	8001e50 <HAL_PCD_EP_Transmit+0x8a>
  }
  else
  {
    (void)USB_EPStartXfer(hpcd->Instance, ep, (uint8_t)hpcd->Init.dma_enable);
 8001e3e:	68fb      	ldr	r3, [r7, #12]
 8001e40:	6818      	ldr	r0, [r3, #0]
 8001e42:	68fb      	ldr	r3, [r7, #12]
 8001e44:	691b      	ldr	r3, [r3, #16]
 8001e46:	b2db      	uxtb	r3, r3
 8001e48:	461a      	mov	r2, r3
 8001e4a:	6979      	ldr	r1, [r7, #20]
 8001e4c:	f001 fc5c 	bl	8003708 <USB_EPStartXfer>
  }

  return HAL_OK;
 8001e50:	2300      	movs	r3, #0
}
 8001e52:	4618      	mov	r0, r3
 8001e54:	3718      	adds	r7, #24
 8001e56:	46bd      	mov	sp, r7
 8001e58:	bd80      	pop	{r7, pc}

08001e5a <HAL_PCD_EP_SetStall>:
  * @param  hpcd PCD handle
  * @param  ep_addr endpoint address
  * @retval HAL status
  */
HAL_StatusTypeDef HAL_PCD_EP_SetStall(PCD_HandleTypeDef *hpcd, uint8_t ep_addr)
{
 8001e5a:	b580      	push	{r7, lr}
 8001e5c:	b084      	sub	sp, #16
 8001e5e:	af00      	add	r7, sp, #0
 8001e60:	6078      	str	r0, [r7, #4]
 8001e62:	460b      	mov	r3, r1
 8001e64:	70fb      	strb	r3, [r7, #3]
  PCD_EPTypeDef *ep;

  if (((uint32_t)ep_addr & EP_ADDR_MSK) > hpcd->Init.dev_endpoints)
 8001e66:	78fb      	ldrb	r3, [r7, #3]
 8001e68:	f003 020f 	and.w	r2, r3, #15
 8001e6c:	687b      	ldr	r3, [r7, #4]
 8001e6e:	685b      	ldr	r3, [r3, #4]
 8001e70:	429a      	cmp	r2, r3
 8001e72:	d901      	bls.n	8001e78 <HAL_PCD_EP_SetStall+0x1e>
  {
    return HAL_ERROR;
 8001e74:	2301      	movs	r3, #1
 8001e76:	e050      	b.n	8001f1a <HAL_PCD_EP_SetStall+0xc0>
  }

  if ((0x80U & ep_addr) == 0x80U)
 8001e78:	f997 3003 	ldrsb.w	r3, [r7, #3]
 8001e7c:	2b00      	cmp	r3, #0
 8001e7e:	da0f      	bge.n	8001ea0 <HAL_PCD_EP_SetStall+0x46>
  {
    ep = &hpcd->IN_ep[ep_addr & EP_ADDR_MSK];
 8001e80:	78fb      	ldrb	r3, [r7, #3]
 8001e82:	f003 020f 	and.w	r2, r3, #15
 8001e86:	4613      	mov	r3, r2
 8001e88:	00db      	lsls	r3, r3, #3
 8001e8a:	4413      	add	r3, r2
 8001e8c:	009b      	lsls	r3, r3, #2
 8001e8e:	3338      	adds	r3, #56	; 0x38
 8001e90:	687a      	ldr	r2, [r7, #4]
 8001e92:	4413      	add	r3, r2
 8001e94:	3304      	adds	r3, #4
 8001e96:	60fb      	str	r3, [r7, #12]
    ep->is_in = 1U;
 8001e98:	68fb      	ldr	r3, [r7, #12]
 8001e9a:	2201      	movs	r2, #1
 8001e9c:	705a      	strb	r2, [r3, #1]
 8001e9e:	e00d      	b.n	8001ebc <HAL_PCD_EP_SetStall+0x62>
  }
  else
  {
    ep = &hpcd->OUT_ep[ep_addr];
 8001ea0:	78fa      	ldrb	r2, [r7, #3]
 8001ea2:	4613      	mov	r3, r2
 8001ea4:	00db      	lsls	r3, r3, #3
 8001ea6:	4413      	add	r3, r2
 8001ea8:	009b      	lsls	r3, r3, #2
 8001eaa:	f503 731e 	add.w	r3, r3, #632	; 0x278
 8001eae:	687a      	ldr	r2, [r7, #4]
 8001eb0:	4413      	add	r3, r2
 8001eb2:	3304      	adds	r3, #4
 8001eb4:	60fb      	str	r3, [r7, #12]
    ep->is_in = 0U;
 8001eb6:	68fb      	ldr	r3, [r7, #12]
 8001eb8:	2200      	movs	r2, #0
 8001eba:	705a      	strb	r2, [r3, #1]
  }

  ep->is_stall = 1U;
 8001ebc:	68fb      	ldr	r3, [r7, #12]
 8001ebe:	2201      	movs	r2, #1
 8001ec0:	709a      	strb	r2, [r3, #2]
  ep->num = ep_addr & EP_ADDR_MSK;
 8001ec2:	78fb      	ldrb	r3, [r7, #3]
 8001ec4:	f003 030f 	and.w	r3, r3, #15
 8001ec8:	b2da      	uxtb	r2, r3
 8001eca:	68fb      	ldr	r3, [r7, #12]
 8001ecc:	701a      	strb	r2, [r3, #0]

  __HAL_LOCK(hpcd);
 8001ece:	687b      	ldr	r3, [r7, #4]
 8001ed0:	f893 34bc 	ldrb.w	r3, [r3, #1212]	; 0x4bc
 8001ed4:	2b01      	cmp	r3, #1
 8001ed6:	d101      	bne.n	8001edc <HAL_PCD_EP_SetStall+0x82>
 8001ed8:	2302      	movs	r3, #2
 8001eda:	e01e      	b.n	8001f1a <HAL_PCD_EP_SetStall+0xc0>
 8001edc:	687b      	ldr	r3, [r7, #4]
 8001ede:	2201      	movs	r2, #1
 8001ee0:	f883 24bc 	strb.w	r2, [r3, #1212]	; 0x4bc

  (void)USB_EPSetStall(hpcd->Instance, ep);
 8001ee4:	687b      	ldr	r3, [r7, #4]
 8001ee6:	681b      	ldr	r3, [r3, #0]
 8001ee8:	68f9      	ldr	r1, [r7, #12]
 8001eea:	4618      	mov	r0, r3
 8001eec:	f002 f8ec 	bl	80040c8 <USB_EPSetStall>

  if ((ep_addr & EP_ADDR_MSK) == 0U)
 8001ef0:	78fb      	ldrb	r3, [r7, #3]
 8001ef2:	f003 030f 	and.w	r3, r3, #15
 8001ef6:	2b00      	cmp	r3, #0
 8001ef8:	d10a      	bne.n	8001f10 <HAL_PCD_EP_SetStall+0xb6>
  {
    (void)USB_EP0_OutStart(hpcd->Instance, (uint8_t)hpcd->Init.dma_enable, (uint8_t *)hpcd->Setup);
 8001efa:	687b      	ldr	r3, [r7, #4]
 8001efc:	6818      	ldr	r0, [r3, #0]
 8001efe:	687b      	ldr	r3, [r7, #4]
 8001f00:	691b      	ldr	r3, [r3, #16]
 8001f02:	b2d9      	uxtb	r1, r3
 8001f04:	687b      	ldr	r3, [r7, #4]
 8001f06:	f203 43c4 	addw	r3, r3, #1220	; 0x4c4
 8001f0a:	461a      	mov	r2, r3
 8001f0c:	f002 fadc 	bl	80044c8 <USB_EP0_OutStart>
  }

  __HAL_UNLOCK(hpcd);
 8001f10:	687b      	ldr	r3, [r7, #4]
 8001f12:	2200      	movs	r2, #0
 8001f14:	f883 24bc 	strb.w	r2, [r3, #1212]	; 0x4bc

  return HAL_OK;
 8001f18:	2300      	movs	r3, #0
}
 8001f1a:	4618      	mov	r0, r3
 8001f1c:	3710      	adds	r7, #16
 8001f1e:	46bd      	mov	sp, r7
 8001f20:	bd80      	pop	{r7, pc}

08001f22 <HAL_PCD_EP_ClrStall>:
  * @param  hpcd PCD handle
  * @param  ep_addr endpoint address
  * @retval HAL status
  */
HAL_StatusTypeDef HAL_PCD_EP_ClrStall(PCD_HandleTypeDef *hpcd, uint8_t ep_addr)
{
 8001f22:	b580      	push	{r7, lr}
 8001f24:	b084      	sub	sp, #16
 8001f26:	af00      	add	r7, sp, #0
 8001f28:	6078      	str	r0, [r7, #4]
 8001f2a:	460b      	mov	r3, r1
 8001f2c:	70fb      	strb	r3, [r7, #3]
  PCD_EPTypeDef *ep;

  if (((uint32_t)ep_addr & 0x0FU) > hpcd->Init.dev_endpoints)
 8001f2e:	78fb      	ldrb	r3, [r7, #3]
 8001f30:	f003 020f 	and.w	r2, r3, #15
 8001f34:	687b      	ldr	r3, [r7, #4]
 8001f36:	685b      	ldr	r3, [r3, #4]
 8001f38:	429a      	cmp	r2, r3
 8001f3a:	d901      	bls.n	8001f40 <HAL_PCD_EP_ClrStall+0x1e>
  {
    return HAL_ERROR;
 8001f3c:	2301      	movs	r3, #1
 8001f3e:	e042      	b.n	8001fc6 <HAL_PCD_EP_ClrStall+0xa4>
  }

  if ((0x80U & ep_addr) == 0x80U)
 8001f40:	f997 3003 	ldrsb.w	r3, [r7, #3]
 8001f44:	2b00      	cmp	r3, #0
 8001f46:	da0f      	bge.n	8001f68 <HAL_PCD_EP_ClrStall+0x46>
  {
    ep = &hpcd->IN_ep[ep_addr & EP_ADDR_MSK];
 8001f48:	78fb      	ldrb	r3, [r7, #3]
 8001f4a:	f003 020f 	and.w	r2, r3, #15
 8001f4e:	4613      	mov	r3, r2
 8001f50:	00db      	lsls	r3, r3, #3
 8001f52:	4413      	add	r3, r2
 8001f54:	009b      	lsls	r3, r3, #2
 8001f56:	3338      	adds	r3, #56	; 0x38
 8001f58:	687a      	ldr	r2, [r7, #4]
 8001f5a:	4413      	add	r3, r2
 8001f5c:	3304      	adds	r3, #4
 8001f5e:	60fb      	str	r3, [r7, #12]
    ep->is_in = 1U;
 8001f60:	68fb      	ldr	r3, [r7, #12]
 8001f62:	2201      	movs	r2, #1
 8001f64:	705a      	strb	r2, [r3, #1]
 8001f66:	e00f      	b.n	8001f88 <HAL_PCD_EP_ClrStall+0x66>
  }
  else
  {
    ep = &hpcd->OUT_ep[ep_addr & EP_ADDR_MSK];
 8001f68:	78fb      	ldrb	r3, [r7, #3]
 8001f6a:	f003 020f 	and.w	r2, r3, #15
 8001f6e:	4613      	mov	r3, r2
 8001f70:	00db      	lsls	r3, r3, #3
 8001f72:	4413      	add	r3, r2
 8001f74:	009b      	lsls	r3, r3, #2
 8001f76:	f503 731e 	add.w	r3, r3, #632	; 0x278
 8001f7a:	687a      	ldr	r2, [r7, #4]
 8001f7c:	4413      	add	r3, r2
 8001f7e:	3304      	adds	r3, #4
 8001f80:	60fb      	str	r3, [r7, #12]
    ep->is_in = 0U;
 8001f82:	68fb      	ldr	r3, [r7, #12]
 8001f84:	2200      	movs	r2, #0
 8001f86:	705a      	strb	r2, [r3, #1]
  }

  ep->is_stall = 0U;
 8001f88:	68fb      	ldr	r3, [r7, #12]
 8001f8a:	2200      	movs	r2, #0
 8001f8c:	709a      	strb	r2, [r3, #2]
  ep->num = ep_addr & EP_ADDR_MSK;
 8001f8e:	78fb      	ldrb	r3, [r7, #3]
 8001f90:	f003 030f 	and.w	r3, r3, #15
 8001f94:	b2da      	uxtb	r2, r3
 8001f96:	68fb      	ldr	r3, [r7, #12]
 8001f98:	701a      	strb	r2, [r3, #0]

  __HAL_LOCK(hpcd);
 8001f9a:	687b      	ldr	r3, [r7, #4]
 8001f9c:	f893 34bc 	ldrb.w	r3, [r3, #1212]	; 0x4bc
 8001fa0:	2b01      	cmp	r3, #1
 8001fa2:	d101      	bne.n	8001fa8 <HAL_PCD_EP_ClrStall+0x86>
 8001fa4:	2302      	movs	r3, #2
 8001fa6:	e00e      	b.n	8001fc6 <HAL_PCD_EP_ClrStall+0xa4>
 8001fa8:	687b      	ldr	r3, [r7, #4]
 8001faa:	2201      	movs	r2, #1
 8001fac:	f883 24bc 	strb.w	r2, [r3, #1212]	; 0x4bc
  (void)USB_EPClearStall(hpcd->Instance, ep);
 8001fb0:	687b      	ldr	r3, [r7, #4]
 8001fb2:	681b      	ldr	r3, [r3, #0]
 8001fb4:	68f9      	ldr	r1, [r7, #12]
 8001fb6:	4618      	mov	r0, r3
 8001fb8:	f002 f8f4 	bl	80041a4 <USB_EPClearStall>
  __HAL_UNLOCK(hpcd);
 8001fbc:	687b      	ldr	r3, [r7, #4]
 8001fbe:	2200      	movs	r2, #0
 8001fc0:	f883 24bc 	strb.w	r2, [r3, #1212]	; 0x4bc

  return HAL_OK;
 8001fc4:	2300      	movs	r3, #0
}
 8001fc6:	4618      	mov	r0, r3
 8001fc8:	3710      	adds	r7, #16
 8001fca:	46bd      	mov	sp, r7
 8001fcc:	bd80      	pop	{r7, pc}

08001fce <HAL_PCD_EP_Abort>:
   * @param  hpcd PCD handle
   * @param  ep_addr endpoint address
   * @retval HAL status
   */
HAL_StatusTypeDef HAL_PCD_EP_Abort(PCD_HandleTypeDef *hpcd, uint8_t ep_addr)
{
 8001fce:	b580      	push	{r7, lr}
 8001fd0:	b084      	sub	sp, #16
 8001fd2:	af00      	add	r7, sp, #0
 8001fd4:	6078      	str	r0, [r7, #4]
 8001fd6:	460b      	mov	r3, r1
 8001fd8:	70fb      	strb	r3, [r7, #3]
  HAL_StatusTypeDef ret;
  PCD_EPTypeDef *ep;

  if ((0x80U & ep_addr) == 0x80U)
 8001fda:	f997 3003 	ldrsb.w	r3, [r7, #3]
 8001fde:	2b00      	cmp	r3, #0
 8001fe0:	da0c      	bge.n	8001ffc <HAL_PCD_EP_Abort+0x2e>
  {
    ep = &hpcd->IN_ep[ep_addr & EP_ADDR_MSK];
 8001fe2:	78fb      	ldrb	r3, [r7, #3]
 8001fe4:	f003 020f 	and.w	r2, r3, #15
 8001fe8:	4613      	mov	r3, r2
 8001fea:	00db      	lsls	r3, r3, #3
 8001fec:	4413      	add	r3, r2
 8001fee:	009b      	lsls	r3, r3, #2
 8001ff0:	3338      	adds	r3, #56	; 0x38
 8001ff2:	687a      	ldr	r2, [r7, #4]
 8001ff4:	4413      	add	r3, r2
 8001ff6:	3304      	adds	r3, #4
 8001ff8:	60fb      	str	r3, [r7, #12]
 8001ffa:	e00c      	b.n	8002016 <HAL_PCD_EP_Abort+0x48>
  }
  else
  {
    ep = &hpcd->OUT_ep[ep_addr & EP_ADDR_MSK];
 8001ffc:	78fb      	ldrb	r3, [r7, #3]
 8001ffe:	f003 020f 	and.w	r2, r3, #15
 8002002:	4613      	mov	r3, r2
 8002004:	00db      	lsls	r3, r3, #3
 8002006:	4413      	add	r3, r2
 8002008:	009b      	lsls	r3, r3, #2
 800200a:	f503 731e 	add.w	r3, r3, #632	; 0x278
 800200e:	687a      	ldr	r2, [r7, #4]
 8002010:	4413      	add	r3, r2
 8002012:	3304      	adds	r3, #4
 8002014:	60fb      	str	r3, [r7, #12]
  }

  /* Stop Xfer */
  ret = USB_EPStopXfer(hpcd->Instance, ep);
 8002016:	687b      	ldr	r3, [r7, #4]
 8002018:	681b      	ldr	r3, [r3, #0]
 800201a:	68f9      	ldr	r1, [r7, #12]
 800201c:	4618      	mov	r0, r3
 800201e:	f001 ff13 	bl	8003e48 <USB_EPStopXfer>
 8002022:	4603      	mov	r3, r0
 8002024:	72fb      	strb	r3, [r7, #11]

  return ret;
 8002026:	7afb      	ldrb	r3, [r7, #11]
}
 8002028:	4618      	mov	r0, r3
 800202a:	3710      	adds	r7, #16
 800202c:	46bd      	mov	sp, r7
 800202e:	bd80      	pop	{r7, pc}

08002030 <PCD_WriteEmptyTxFifo>:
  * @param  hpcd PCD handle
  * @param  epnum endpoint number
  * @retval HAL status
  */
static HAL_StatusTypeDef PCD_WriteEmptyTxFifo(PCD_HandleTypeDef *hpcd, uint32_t epnum)
{
 8002030:	b580      	push	{r7, lr}
 8002032:	b08a      	sub	sp, #40	; 0x28
 8002034:	af02      	add	r7, sp, #8
 8002036:	6078      	str	r0, [r7, #4]
 8002038:	6039      	str	r1, [r7, #0]
  USB_OTG_GlobalTypeDef *USBx = hpcd->Instance;
 800203a:	687b      	ldr	r3, [r7, #4]
 800203c:	681b      	ldr	r3, [r3, #0]
 800203e:	617b      	str	r3, [r7, #20]
  uint32_t USBx_BASE = (uint32_t)USBx;
 8002040:	697b      	ldr	r3, [r7, #20]
 8002042:	613b      	str	r3, [r7, #16]
  USB_OTG_EPTypeDef *ep;
  uint32_t len;
  uint32_t len32b;
  uint32_t fifoemptymsk;

  ep = &hpcd->IN_ep[epnum];
 8002044:	683a      	ldr	r2, [r7, #0]
 8002046:	4613      	mov	r3, r2
 8002048:	00db      	lsls	r3, r3, #3
 800204a:	4413      	add	r3, r2
 800204c:	009b      	lsls	r3, r3, #2
 800204e:	3338      	adds	r3, #56	; 0x38
 8002050:	687a      	ldr	r2, [r7, #4]
 8002052:	4413      	add	r3, r2
 8002054:	3304      	adds	r3, #4
 8002056:	60fb      	str	r3, [r7, #12]

  if (ep->xfer_count > ep->xfer_len)
 8002058:	68fb      	ldr	r3, [r7, #12]
 800205a:	6a1a      	ldr	r2, [r3, #32]
 800205c:	68fb      	ldr	r3, [r7, #12]
 800205e:	699b      	ldr	r3, [r3, #24]
 8002060:	429a      	cmp	r2, r3
 8002062:	d901      	bls.n	8002068 <PCD_WriteEmptyTxFifo+0x38>
  {
    return HAL_ERROR;
 8002064:	2301      	movs	r3, #1
 8002066:	e06c      	b.n	8002142 <PCD_WriteEmptyTxFifo+0x112>
  }

  len = ep->xfer_len - ep->xfer_count;
 8002068:	68fb      	ldr	r3, [r7, #12]
 800206a:	699a      	ldr	r2, [r3, #24]
 800206c:	68fb      	ldr	r3, [r7, #12]
 800206e:	6a1b      	ldr	r3, [r3, #32]
 8002070:	1ad3      	subs	r3, r2, r3
 8002072:	61fb      	str	r3, [r7, #28]

  if (len > ep->maxpacket)
 8002074:	68fb      	ldr	r3, [r7, #12]
 8002076:	68db      	ldr	r3, [r3, #12]
 8002078:	69fa      	ldr	r2, [r7, #28]
 800207a:	429a      	cmp	r2, r3
 800207c:	d902      	bls.n	8002084 <PCD_WriteEmptyTxFifo+0x54>
  {
    len = ep->maxpacket;
 800207e:	68fb      	ldr	r3, [r7, #12]
 8002080:	68db      	ldr	r3, [r3, #12]
 8002082:	61fb      	str	r3, [r7, #28]
  }

  len32b = (len + 3U) / 4U;
 8002084:	69fb      	ldr	r3, [r7, #28]
 8002086:	3303      	adds	r3, #3
 8002088:	089b      	lsrs	r3, r3, #2
 800208a:	61bb      	str	r3, [r7, #24]

  while (((USBx_INEP(epnum)->DTXFSTS & USB_OTG_DTXFSTS_INEPTFSAV) >= len32b) &&
 800208c:	e02b      	b.n	80020e6 <PCD_WriteEmptyTxFifo+0xb6>
         (ep->xfer_count < ep->xfer_len) && (ep->xfer_len != 0U))
  {
    /* Write the FIFO */
    len = ep->xfer_len - ep->xfer_count;
 800208e:	68fb      	ldr	r3, [r7, #12]
 8002090:	699a      	ldr	r2, [r3, #24]
 8002092:	68fb      	ldr	r3, [r7, #12]
 8002094:	6a1b      	ldr	r3, [r3, #32]
 8002096:	1ad3      	subs	r3, r2, r3
 8002098:	61fb      	str	r3, [r7, #28]

    if (len > ep->maxpacket)
 800209a:	68fb      	ldr	r3, [r7, #12]
 800209c:	68db      	ldr	r3, [r3, #12]
 800209e:	69fa      	ldr	r2, [r7, #28]
 80020a0:	429a      	cmp	r2, r3
 80020a2:	d902      	bls.n	80020aa <PCD_WriteEmptyTxFifo+0x7a>
    {
      len = ep->maxpacket;
 80020a4:	68fb      	ldr	r3, [r7, #12]
 80020a6:	68db      	ldr	r3, [r3, #12]
 80020a8:	61fb      	str	r3, [r7, #28]
    }
    len32b = (len + 3U) / 4U;
 80020aa:	69fb      	ldr	r3, [r7, #28]
 80020ac:	3303      	adds	r3, #3
 80020ae:	089b      	lsrs	r3, r3, #2
 80020b0:	61bb      	str	r3, [r7, #24]

    (void)USB_WritePacket(USBx, ep->xfer_buff, (uint8_t)epnum, (uint16_t)len,
 80020b2:	68fb      	ldr	r3, [r7, #12]
 80020b4:	6919      	ldr	r1, [r3, #16]
 80020b6:	683b      	ldr	r3, [r7, #0]
 80020b8:	b2da      	uxtb	r2, r3
 80020ba:	69fb      	ldr	r3, [r7, #28]
 80020bc:	b298      	uxth	r0, r3
                          (uint8_t)hpcd->Init.dma_enable);
 80020be:	687b      	ldr	r3, [r7, #4]
 80020c0:	691b      	ldr	r3, [r3, #16]
    (void)USB_WritePacket(USBx, ep->xfer_buff, (uint8_t)epnum, (uint16_t)len,
 80020c2:	b2db      	uxtb	r3, r3
 80020c4:	9300      	str	r3, [sp, #0]
 80020c6:	4603      	mov	r3, r0
 80020c8:	6978      	ldr	r0, [r7, #20]
 80020ca:	f001 ff67 	bl	8003f9c <USB_WritePacket>

    ep->xfer_buff  += len;
 80020ce:	68fb      	ldr	r3, [r7, #12]
 80020d0:	691a      	ldr	r2, [r3, #16]
 80020d2:	69fb      	ldr	r3, [r7, #28]
 80020d4:	441a      	add	r2, r3
 80020d6:	68fb      	ldr	r3, [r7, #12]
 80020d8:	611a      	str	r2, [r3, #16]
    ep->xfer_count += len;
 80020da:	68fb      	ldr	r3, [r7, #12]
 80020dc:	6a1a      	ldr	r2, [r3, #32]
 80020de:	69fb      	ldr	r3, [r7, #28]
 80020e0:	441a      	add	r2, r3
 80020e2:	68fb      	ldr	r3, [r7, #12]
 80020e4:	621a      	str	r2, [r3, #32]
  while (((USBx_INEP(epnum)->DTXFSTS & USB_OTG_DTXFSTS_INEPTFSAV) >= len32b) &&
 80020e6:	683b      	ldr	r3, [r7, #0]
 80020e8:	015a      	lsls	r2, r3, #5
 80020ea:	693b      	ldr	r3, [r7, #16]
 80020ec:	4413      	add	r3, r2
 80020ee:	f503 6310 	add.w	r3, r3, #2304	; 0x900
 80020f2:	699b      	ldr	r3, [r3, #24]
 80020f4:	b29b      	uxth	r3, r3
 80020f6:	69ba      	ldr	r2, [r7, #24]
 80020f8:	429a      	cmp	r2, r3
 80020fa:	d809      	bhi.n	8002110 <PCD_WriteEmptyTxFifo+0xe0>
         (ep->xfer_count < ep->xfer_len) && (ep->xfer_len != 0U))
 80020fc:	68fb      	ldr	r3, [r7, #12]
 80020fe:	6a1a      	ldr	r2, [r3, #32]
 8002100:	68fb      	ldr	r3, [r7, #12]
 8002102:	699b      	ldr	r3, [r3, #24]
  while (((USBx_INEP(epnum)->DTXFSTS & USB_OTG_DTXFSTS_INEPTFSAV) >= len32b) &&
 8002104:	429a      	cmp	r2, r3
 8002106:	d203      	bcs.n	8002110 <PCD_WriteEmptyTxFifo+0xe0>
         (ep->xfer_count < ep->xfer_len) && (ep->xfer_len != 0U))
 8002108:	68fb      	ldr	r3, [r7, #12]
 800210a:	699b      	ldr	r3, [r3, #24]
 800210c:	2b00      	cmp	r3, #0
 800210e:	d1be      	bne.n	800208e <PCD_WriteEmptyTxFifo+0x5e>
  }

  if (ep->xfer_len <= ep->xfer_count)
 8002110:	68fb      	ldr	r3, [r7, #12]
 8002112:	699a      	ldr	r2, [r3, #24]
 8002114:	68fb      	ldr	r3, [r7, #12]
 8002116:	6a1b      	ldr	r3, [r3, #32]
 8002118:	429a      	cmp	r2, r3
 800211a:	d811      	bhi.n	8002140 <PCD_WriteEmptyTxFifo+0x110>
  {
    fifoemptymsk = (uint32_t)(0x1UL << (epnum & EP_ADDR_MSK));
 800211c:	683b      	ldr	r3, [r7, #0]
 800211e:	f003 030f 	and.w	r3, r3, #15
 8002122:	2201      	movs	r2, #1
 8002124:	fa02 f303 	lsl.w	r3, r2, r3
 8002128:	60bb      	str	r3, [r7, #8]
    USBx_DEVICE->DIEPEMPMSK &= ~fifoemptymsk;
 800212a:	693b      	ldr	r3, [r7, #16]
 800212c:	f503 6300 	add.w	r3, r3, #2048	; 0x800
 8002130:	6b5a      	ldr	r2, [r3, #52]	; 0x34
 8002132:	68bb      	ldr	r3, [r7, #8]
 8002134:	43db      	mvns	r3, r3
 8002136:	6939      	ldr	r1, [r7, #16]
 8002138:	f501 6100 	add.w	r1, r1, #2048	; 0x800
 800213c:	4013      	ands	r3, r2
 800213e:	634b      	str	r3, [r1, #52]	; 0x34
  }

  return HAL_OK;
 8002140:	2300      	movs	r3, #0
}
 8002142:	4618      	mov	r0, r3
 8002144:	3720      	adds	r7, #32
 8002146:	46bd      	mov	sp, r7
 8002148:	bd80      	pop	{r7, pc}
	...

0800214c <PCD_EP_OutXfrComplete_int>:
  * @param  hpcd PCD handle
  * @param  epnum endpoint number
  * @retval HAL status
  */
static HAL_StatusTypeDef PCD_EP_OutXfrComplete_int(PCD_HandleTypeDef *hpcd, uint32_t epnum)
{
 800214c:	b580      	push	{r7, lr}
 800214e:	b088      	sub	sp, #32
 8002150:	af00      	add	r7, sp, #0
 8002152:	6078      	str	r0, [r7, #4]
 8002154:	6039      	str	r1, [r7, #0]
  USB_OTG_EPTypeDef *ep;
  USB_OTG_GlobalTypeDef *USBx = hpcd->Instance;
 8002156:	687b      	ldr	r3, [r7, #4]
 8002158:	681b      	ldr	r3, [r3, #0]
 800215a:	61fb      	str	r3, [r7, #28]
  uint32_t USBx_BASE = (uint32_t)USBx;
 800215c:	69fb      	ldr	r3, [r7, #28]
 800215e:	61bb      	str	r3, [r7, #24]
  uint32_t gSNPSiD = *(__IO uint32_t *)(&USBx->CID + 0x1U);
 8002160:	69fb      	ldr	r3, [r7, #28]
 8002162:	333c      	adds	r3, #60	; 0x3c
 8002164:	3304      	adds	r3, #4
 8002166:	681b      	ldr	r3, [r3, #0]
 8002168:	617b      	str	r3, [r7, #20]
  uint32_t DoepintReg = USBx_OUTEP(epnum)->DOEPINT;
 800216a:	683b      	ldr	r3, [r7, #0]
 800216c:	015a      	lsls	r2, r3, #5
 800216e:	69bb      	ldr	r3, [r7, #24]
 8002170:	4413      	add	r3, r2
 8002172:	f503 6330 	add.w	r3, r3, #2816	; 0xb00
 8002176:	689b      	ldr	r3, [r3, #8]
 8002178:	613b      	str	r3, [r7, #16]

  if (hpcd->Init.dma_enable == 1U)
 800217a:	687b      	ldr	r3, [r7, #4]
 800217c:	691b      	ldr	r3, [r3, #16]
 800217e:	2b01      	cmp	r3, #1
 8002180:	d17b      	bne.n	800227a <PCD_EP_OutXfrComplete_int+0x12e>
  {
    if ((DoepintReg & USB_OTG_DOEPINT_STUP) == USB_OTG_DOEPINT_STUP) /* Class C */
 8002182:	693b      	ldr	r3, [r7, #16]
 8002184:	f003 0308 	and.w	r3, r3, #8
 8002188:	2b00      	cmp	r3, #0
 800218a:	d015      	beq.n	80021b8 <PCD_EP_OutXfrComplete_int+0x6c>
    {
      /* StupPktRcvd = 1 this is a setup packet */
      if ((gSNPSiD > USB_OTG_CORE_ID_300A) &&
 800218c:	697b      	ldr	r3, [r7, #20]
 800218e:	4a61      	ldr	r2, [pc, #388]	; (8002314 <PCD_EP_OutXfrComplete_int+0x1c8>)
 8002190:	4293      	cmp	r3, r2
 8002192:	f240 80b9 	bls.w	8002308 <PCD_EP_OutXfrComplete_int+0x1bc>
          ((DoepintReg & USB_OTG_DOEPINT_STPKTRX) == USB_OTG_DOEPINT_STPKTRX))
 8002196:	693b      	ldr	r3, [r7, #16]
 8002198:	f403 4300 	and.w	r3, r3, #32768	; 0x8000
      if ((gSNPSiD > USB_OTG_CORE_ID_300A) &&
 800219c:	2b00      	cmp	r3, #0
 800219e:	f000 80b3 	beq.w	8002308 <PCD_EP_OutXfrComplete_int+0x1bc>
      {
        CLEAR_OUT_EP_INTR(epnum, USB_OTG_DOEPINT_STPKTRX);
 80021a2:	683b      	ldr	r3, [r7, #0]
 80021a4:	015a      	lsls	r2, r3, #5
 80021a6:	69bb      	ldr	r3, [r7, #24]
 80021a8:	4413      	add	r3, r2
 80021aa:	f503 6330 	add.w	r3, r3, #2816	; 0xb00
 80021ae:	461a      	mov	r2, r3
 80021b0:	f44f 4300 	mov.w	r3, #32768	; 0x8000
 80021b4:	6093      	str	r3, [r2, #8]
 80021b6:	e0a7      	b.n	8002308 <PCD_EP_OutXfrComplete_int+0x1bc>
      }
    }
    else if ((DoepintReg & USB_OTG_DOEPINT_OTEPSPR) == USB_OTG_DOEPINT_OTEPSPR) /* Class E */
 80021b8:	693b      	ldr	r3, [r7, #16]
 80021ba:	f003 0320 	and.w	r3, r3, #32
 80021be:	2b00      	cmp	r3, #0
 80021c0:	d009      	beq.n	80021d6 <PCD_EP_OutXfrComplete_int+0x8a>
    {
      CLEAR_OUT_EP_INTR(epnum, USB_OTG_DOEPINT_OTEPSPR);
 80021c2:	683b      	ldr	r3, [r7, #0]
 80021c4:	015a      	lsls	r2, r3, #5
 80021c6:	69bb      	ldr	r3, [r7, #24]
 80021c8:	4413      	add	r3, r2
 80021ca:	f503 6330 	add.w	r3, r3, #2816	; 0xb00
 80021ce:	461a      	mov	r2, r3
 80021d0:	2320      	movs	r3, #32
 80021d2:	6093      	str	r3, [r2, #8]
 80021d4:	e098      	b.n	8002308 <PCD_EP_OutXfrComplete_int+0x1bc>
    }
    else if ((DoepintReg & (USB_OTG_DOEPINT_STUP | USB_OTG_DOEPINT_OTEPSPR)) == 0U)
 80021d6:	693b      	ldr	r3, [r7, #16]
 80021d8:	f003 0328 	and.w	r3, r3, #40	; 0x28
 80021dc:	2b00      	cmp	r3, #0
 80021de:	f040 8093 	bne.w	8002308 <PCD_EP_OutXfrComplete_int+0x1bc>
    {
      /* StupPktRcvd = 1 this is a setup packet */
      if ((gSNPSiD > USB_OTG_CORE_ID_300A) &&
 80021e2:	697b      	ldr	r3, [r7, #20]
 80021e4:	4a4b      	ldr	r2, [pc, #300]	; (8002314 <PCD_EP_OutXfrComplete_int+0x1c8>)
 80021e6:	4293      	cmp	r3, r2
 80021e8:	d90f      	bls.n	800220a <PCD_EP_OutXfrComplete_int+0xbe>
          ((DoepintReg & USB_OTG_DOEPINT_STPKTRX) == USB_OTG_DOEPINT_STPKTRX))
 80021ea:	693b      	ldr	r3, [r7, #16]
 80021ec:	f403 4300 	and.w	r3, r3, #32768	; 0x8000
      if ((gSNPSiD > USB_OTG_CORE_ID_300A) &&
 80021f0:	2b00      	cmp	r3, #0
 80021f2:	d00a      	beq.n	800220a <PCD_EP_OutXfrComplete_int+0xbe>
      {
        CLEAR_OUT_EP_INTR(epnum, USB_OTG_DOEPINT_STPKTRX);
 80021f4:	683b      	ldr	r3, [r7, #0]
 80021f6:	015a      	lsls	r2, r3, #5
 80021f8:	69bb      	ldr	r3, [r7, #24]
 80021fa:	4413      	add	r3, r2
 80021fc:	f503 6330 	add.w	r3, r3, #2816	; 0xb00
 8002200:	461a      	mov	r2, r3
 8002202:	f44f 4300 	mov.w	r3, #32768	; 0x8000
 8002206:	6093      	str	r3, [r2, #8]
 8002208:	e07e      	b.n	8002308 <PCD_EP_OutXfrComplete_int+0x1bc>
      }
      else
      {
        ep = &hpcd->OUT_ep[epnum];
 800220a:	683a      	ldr	r2, [r7, #0]
 800220c:	4613      	mov	r3, r2
 800220e:	00db      	lsls	r3, r3, #3
 8002210:	4413      	add	r3, r2
 8002212:	009b      	lsls	r3, r3, #2
 8002214:	f503 731e 	add.w	r3, r3, #632	; 0x278
 8002218:	687a      	ldr	r2, [r7, #4]
 800221a:	4413      	add	r3, r2
 800221c:	3304      	adds	r3, #4
 800221e:	60fb      	str	r3, [r7, #12]

        /* out data packet received over EP */
        ep->xfer_count = ep->xfer_size - (USBx_OUTEP(epnum)->DOEPTSIZ & USB_OTG_DOEPTSIZ_XFRSIZ);
 8002220:	68fb      	ldr	r3, [r7, #12]
 8002222:	69da      	ldr	r2, [r3, #28]
 8002224:	683b      	ldr	r3, [r7, #0]
 8002226:	0159      	lsls	r1, r3, #5
 8002228:	69bb      	ldr	r3, [r7, #24]
 800222a:	440b      	add	r3, r1
 800222c:	f503 6330 	add.w	r3, r3, #2816	; 0xb00
 8002230:	691b      	ldr	r3, [r3, #16]
 8002232:	f3c3 0312 	ubfx	r3, r3, #0, #19
 8002236:	1ad2      	subs	r2, r2, r3
 8002238:	68fb      	ldr	r3, [r7, #12]
 800223a:	621a      	str	r2, [r3, #32]

        if (epnum == 0U)
 800223c:	683b      	ldr	r3, [r7, #0]
 800223e:	2b00      	cmp	r3, #0
 8002240:	d114      	bne.n	800226c <PCD_EP_OutXfrComplete_int+0x120>
        {
          if (ep->xfer_len == 0U)
 8002242:	68fb      	ldr	r3, [r7, #12]
 8002244:	699b      	ldr	r3, [r3, #24]
 8002246:	2b00      	cmp	r3, #0
 8002248:	d109      	bne.n	800225e <PCD_EP_OutXfrComplete_int+0x112>
          {
            /* this is ZLP, so prepare EP0 for next setup */
            (void)USB_EP0_OutStart(hpcd->Instance, 1U, (uint8_t *)hpcd->Setup);
 800224a:	687b      	ldr	r3, [r7, #4]
 800224c:	6818      	ldr	r0, [r3, #0]
 800224e:	687b      	ldr	r3, [r7, #4]
 8002250:	f203 43c4 	addw	r3, r3, #1220	; 0x4c4
 8002254:	461a      	mov	r2, r3
 8002256:	2101      	movs	r1, #1
 8002258:	f002 f936 	bl	80044c8 <USB_EP0_OutStart>
 800225c:	e006      	b.n	800226c <PCD_EP_OutXfrComplete_int+0x120>
          }
          else
          {
            ep->xfer_buff += ep->xfer_count;
 800225e:	68fb      	ldr	r3, [r7, #12]
 8002260:	691a      	ldr	r2, [r3, #16]
 8002262:	68fb      	ldr	r3, [r7, #12]
 8002264:	6a1b      	ldr	r3, [r3, #32]
 8002266:	441a      	add	r2, r3
 8002268:	68fb      	ldr	r3, [r7, #12]
 800226a:	611a      	str	r2, [r3, #16]
        }

#if (USE_HAL_PCD_REGISTER_CALLBACKS == 1U)
        hpcd->DataOutStageCallback(hpcd, (uint8_t)epnum);
#else
        HAL_PCD_DataOutStageCallback(hpcd, (uint8_t)epnum);
 800226c:	683b      	ldr	r3, [r7, #0]
 800226e:	b2db      	uxtb	r3, r3
 8002270:	4619      	mov	r1, r3
 8002272:	6878      	ldr	r0, [r7, #4]
 8002274:	f004 fc3a 	bl	8006aec <HAL_PCD_DataOutStageCallback>
 8002278:	e046      	b.n	8002308 <PCD_EP_OutXfrComplete_int+0x1bc>
      /* ... */
    }
  }
  else
  {
    if (gSNPSiD == USB_OTG_CORE_ID_310A)
 800227a:	697b      	ldr	r3, [r7, #20]
 800227c:	4a26      	ldr	r2, [pc, #152]	; (8002318 <PCD_EP_OutXfrComplete_int+0x1cc>)
 800227e:	4293      	cmp	r3, r2
 8002280:	d124      	bne.n	80022cc <PCD_EP_OutXfrComplete_int+0x180>
    {
      /* StupPktRcvd = 1 this is a setup packet */
      if ((DoepintReg & USB_OTG_DOEPINT_STPKTRX) == USB_OTG_DOEPINT_STPKTRX)
 8002282:	693b      	ldr	r3, [r7, #16]
 8002284:	f403 4300 	and.w	r3, r3, #32768	; 0x8000
 8002288:	2b00      	cmp	r3, #0
 800228a:	d00a      	beq.n	80022a2 <PCD_EP_OutXfrComplete_int+0x156>
      {
        CLEAR_OUT_EP_INTR(epnum, USB_OTG_DOEPINT_STPKTRX);
 800228c:	683b      	ldr	r3, [r7, #0]
 800228e:	015a      	lsls	r2, r3, #5
 8002290:	69bb      	ldr	r3, [r7, #24]
 8002292:	4413      	add	r3, r2
 8002294:	f503 6330 	add.w	r3, r3, #2816	; 0xb00
 8002298:	461a      	mov	r2, r3
 800229a:	f44f 4300 	mov.w	r3, #32768	; 0x8000
 800229e:	6093      	str	r3, [r2, #8]
 80022a0:	e032      	b.n	8002308 <PCD_EP_OutXfrComplete_int+0x1bc>
      }
      else
      {
        if ((DoepintReg & USB_OTG_DOEPINT_OTEPSPR) == USB_OTG_DOEPINT_OTEPSPR)
 80022a2:	693b      	ldr	r3, [r7, #16]
 80022a4:	f003 0320 	and.w	r3, r3, #32
 80022a8:	2b00      	cmp	r3, #0
 80022aa:	d008      	beq.n	80022be <PCD_EP_OutXfrComplete_int+0x172>
        {
          CLEAR_OUT_EP_INTR(epnum, USB_OTG_DOEPINT_OTEPSPR);
 80022ac:	683b      	ldr	r3, [r7, #0]
 80022ae:	015a      	lsls	r2, r3, #5
 80022b0:	69bb      	ldr	r3, [r7, #24]
 80022b2:	4413      	add	r3, r2
 80022b4:	f503 6330 	add.w	r3, r3, #2816	; 0xb00
 80022b8:	461a      	mov	r2, r3
 80022ba:	2320      	movs	r3, #32
 80022bc:	6093      	str	r3, [r2, #8]
        }

#if (USE_HAL_PCD_REGISTER_CALLBACKS == 1U)
        hpcd->DataOutStageCallback(hpcd, (uint8_t)epnum);
#else
        HAL_PCD_DataOutStageCallback(hpcd, (uint8_t)epnum);
 80022be:	683b      	ldr	r3, [r7, #0]
 80022c0:	b2db      	uxtb	r3, r3
 80022c2:	4619      	mov	r1, r3
 80022c4:	6878      	ldr	r0, [r7, #4]
 80022c6:	f004 fc11 	bl	8006aec <HAL_PCD_DataOutStageCallback>
 80022ca:	e01d      	b.n	8002308 <PCD_EP_OutXfrComplete_int+0x1bc>
#endif /* USE_HAL_PCD_REGISTER_CALLBACKS */
      }
    }
    else
    {
      if ((epnum == 0U) && (hpcd->OUT_ep[epnum].xfer_len == 0U))
 80022cc:	683b      	ldr	r3, [r7, #0]
 80022ce:	2b00      	cmp	r3, #0
 80022d0:	d114      	bne.n	80022fc <PCD_EP_OutXfrComplete_int+0x1b0>
 80022d2:	6879      	ldr	r1, [r7, #4]
 80022d4:	683a      	ldr	r2, [r7, #0]
 80022d6:	4613      	mov	r3, r2
 80022d8:	00db      	lsls	r3, r3, #3
 80022da:	4413      	add	r3, r2
 80022dc:	009b      	lsls	r3, r3, #2
 80022de:	440b      	add	r3, r1
 80022e0:	f503 7325 	add.w	r3, r3, #660	; 0x294
 80022e4:	681b      	ldr	r3, [r3, #0]
 80022e6:	2b00      	cmp	r3, #0
 80022e8:	d108      	bne.n	80022fc <PCD_EP_OutXfrComplete_int+0x1b0>
      {
        /* this is ZLP, so prepare EP0 for next setup */
        (void)USB_EP0_OutStart(hpcd->Instance, 0U, (uint8_t *)hpcd->Setup);
 80022ea:	687b      	ldr	r3, [r7, #4]
 80022ec:	6818      	ldr	r0, [r3, #0]
 80022ee:	687b      	ldr	r3, [r7, #4]
 80022f0:	f203 43c4 	addw	r3, r3, #1220	; 0x4c4
 80022f4:	461a      	mov	r2, r3
 80022f6:	2100      	movs	r1, #0
 80022f8:	f002 f8e6 	bl	80044c8 <USB_EP0_OutStart>
      }

#if (USE_HAL_PCD_REGISTER_CALLBACKS == 1U)
